:020000040800F2
:10000000D0660020D10300087347000811040008DF
:1000100071470008E52000084D5600080000000068
:1000200000000000000000000000000011030008B4
:100030003B230008000000006D030008FD47000896
:10004000EB030008EB030008EB030008EB030008D8
:10005000EB030008EB030008EB030008EB030008C8
:10006000EB030008EB030008EB030008EB030008B8
:10007000EB030008EB030008EB0300086122000813
:10008000EB030008EB030008EB030008EB03000898
:10009000E9200008EB030008EB030008EB0300086D
:1000A000EB030008EB030008EB030008EB03000878
:1000B000EB030008EB030008EB030008EB03000868
:1000C000EB030008EB030008EB030008EB03000858
:1000D000EB030008EB030008EB030008EB03000848
:1000E000EB030008EB030008EB030008EB03000838
:1000F000D9480008CD480008EB030008EB030008CE
:10010000EB030008EB030008EB030008EB03000817
:10011000FD4B0008EB030008EB030008EB030008AD
:10012000EB030008EB030008EB030008EB030008F7
:10013000EB0300080000000000000000EB030008D3
:10014000F5200008EB030008EB030008EB030008B0
:10015000EB030008EB030008EB030008EB030008C7
:10016000EB030008EB030008EB030008EB030008B7
:10017000EB030008EB030008EB030008000000009D
:1001800000000000EB030008000000000000000079
:10019000EB0300080000000000000000EB03000873
:1001A000000000000000000000000000EB03000859
:1001B000EB030008EB030008EB030008EB03000867
:1001C000EB03000800F002F800F092F80AA090E8B3
:1001D000000C82448344AAF10107DA4501D100F002
:1001E00087F8AFF2090EBAE80F0013F0010F18BF3D
:1001F000FB1A43F0010318471C8F00003C8F0000DE
:10020000103A24BF78C878C1FAD8520724BF30C842
:1002100030C144BF04680C60704700000023002414
:1002200000250026103A28BF78C1FBD8520728BF06
:1002300030C148BF0B6070476E2900F0AE85702951
:1002400000F0B982662908F01281652908F00F8153
:10025000672908F00C81612908F00B8103681B0AEB
:1002600028BF41F08001692900F0EC81642900F089
:10027000E981752900F0E6816F2900F05E86782912
:1002800000F08582E92900F01982E42900F0168245
:10029000F52900F01382EF2900F05B86F82900F0C1
:1002A00084820368DB0928BF41F08001632900F0E4
:1002B000B885732900F0BD85E32901F0ED81F329AC
:1002C00001F0F281002070471FB508F0CBF801F073
:1002D0003DFA04000020002108F0AEF8401C6060E8
:1002E0000020002108F092F8E0601FBD10B510BD9D
:1002F00001F0FEF91146FFF7E7FF06F071FB01F090
:10030000DBFA03B4FFF7F2FF03BC05F0CFF90000FE
:100310002C4B19680868B0E8F04F80F30988BFF3E8
:100320006F8F4FF0000080F31188704700000000CD
:1003300008480068006880F308884FF0000080F3E8
:10034000148862B661B6BFF34F8FBFF36F8F00DFC3
:1003500000BF00BF08ED00E0DFF80C00016841F4C9
:1003600070010160704700BF88ED00E0EFF3098085
:10037000BFF36F8F134B1A681EF0100F08BF20EDEC
:10038000108A20E9F04F106009B44FF0500080F35C
:100390001188BFF34F8FBFF36F8F07F0E7FA4FF06D
:1003A000000080F3118809BC19680868B0E8F04FB4
:1003B0001EF0100F08BFB0EC108A80F30988BFF35D
:1003C0006F8F704760000020EFF3058070470000DA
:1003D0000948804709480047FEE7FEE7FEE7FEE7D9
:1003E000FEE7FEE7FEE7FEE7FEE7FEE70448054915
:1003F000054A064B70470000B1480008C5010008D7
:10040000D05A0020D0660020D05E0020D05E0020B0
:100410007046694605F0F8F9FFF7FEFF704753EAAA
:10042000020C00F069802DE9F04B4FF00006002B24
:100430001FBFB3FA83F503FA05F424FA05F65E400C
:1004400012BF1643B2FA82F502FA05F4C5F120058F
:100450001EBF22FA05FC44EA0C04203556EA044C7F
:100460004FEA144418BF641C4FF000084FF0000915
:10047000904271EB030C39D3002919BFB1FA81F70F
:1004800001FA07F6B0FA80F700FA07F6C7F120077D
:100490001EBF20FA07FC46EA0C062037B6FBF4FC28
:1004A000A7EB0507103F07F01F0BCBF120060CFA56
:1004B0000BFB2CFA06F644BFB3460026202FA4BF40
:1004C0005E464FF0000B5BEA060C08BF4FF0010BD5
:1004D00019EB0B09ABFB027C48EB0608C01B06FBC3
:1004E00002CC0BFB03CC71EB0C01C1E70B460246BF
:1004F00041464846BDE8F08B13B54FF000004FF081
:100500000001AFF30080BDE81C4070477CB51D467C
:1005100016460C00009001D02044401E074B7B443F
:100520002A4669460190304600F051FC05461CB150
:100530000020694600F05EFC28467CBDDD08000016
:100540000FB41CB5084B06AA7B4469460090059879
:1005500000F03DFC04460020694600F04BFC2046BC
:100560001CBC5DF814FB0000A90800000FB47CB5AA
:100570000C0009AA009001D02044401E084B7B4487
:1005800069460190089800F022FC05461CB1002045
:10059000694600F02FFC28467CBC5DF814FB000087
:1005A0007D08000070B5044685690068C10601D564
:1005B000302600E02026C00707D070BDD4E9012115
:1005C00030469047206A401C20626D1EF6D570BDF3
:1005D00070B5044685690078C00707D170BDD4E9BD
:1005E000012120209047206A401C20626D1EF6D514
:1005F00070BD70B50C460546012A05D028788006E6
:1006000000D5EA69002302E0012305E05B1C934268
:1006100002D2E05C0028F9D1A869E618C01AA861E6
:10062000286A184428622846FFF7BCFF04E0D5E991
:10063000012114F8010B9047B442F8D32846FFF784
:10064000C7FF70BD2DE9F0410646002410687529EA
:10065000314616A510D000F035FB002802DA4042E2
:1006600013A507E031688A0701D512A502E0490702
:1006700004D511A5012401E000F02DFB00210A2280
:1006800006F1240709E0B0FBF2FCB0FBF2F302FB39
:100690001C00303078541846491C0028F3D12346FA
:1006A0002A463046BDE8F04100F01EBB00000000C5
:1006B0002D0000002B000000200000002DE9F0417B
:1006C0008046D21D22F007020025D2E90002F5295A
:1006D00015A614D0011E72F1000106DA0023D0EB3A
:1006E000030063EB020211A608E0D8F800108B07A4
:1006F00001D50FA602E0490701D50EA60125114636
:10070000002408F1240704E000F097FA30323A554B
:10071000641C50EA0102F7D12B463246214640467E
:10072000BDE8F04100F0E0BA000000002D0000003C
:100730002B00000020000000F0B40D4601880905E0
:1007400002D5214C7C4402E01F4C7C440E34002135
:1007500000F1240608E002F00F071209E75D42EA03
:1007600003721B097754491C52EA0307F3D102783C
:100770000023120704D5702D06D009B102231134CD
:100780002246F0BC00F0B0BA01231034F8E770B58F
:1007900004460D462146106800F09DFA024629469F
:1007A0002046BDE870400023C6E7D21D22F00703B3
:1007B000D3E90023C0E70368126843F02003036015
:1007C0000823C3610023B7E7997F00002DE9F05F9C
:1007D000894604464FF0000ADFF874B1FB44C0F8C4
:1007E00020A02046E1688847002874D0252806D03C
:1007F000D4E901219047206A401C2062F1E70026DD
:100800005F462046E16888472028054607DB312DF2
:1008100005D2781910F8200C08B10643F1E7B007AB
:1008200001D526F00406C4F81CA00027C4F818A0BF
:100830002A2D09D0284604F032FF38B304EB87088C
:10084000303DC8F8185019E059F8041B204604EB55
:1008500087029161E1688847012F054618D1E06958
:10086000002820DA26F020061DE0D8F8180000EB5A
:10087000800005EB40003038C8F818002046E168D9
:100880008847054604F00BFF0028EED1012F0AD05F
:100890002E2D08D12046E16888477F1C0546022F8F
:1008A00046F02006C4DBA069002803DA404246F087
:1008B0000106A061F00701D026F010066C2D0BD0C8
:1008C000682D09D04C2D39D06A2D35D0742D35D0F6
:1008D0007A2D33D016E038E0E1682F46204688476D
:1008E000B842054609D16C2F26D04FF48060E168EC
:1008F000064320468847054604E06C2F1AD04FF483
:10090000807006430DB3A5F14100192802D82035A7
:1009100046F400664A462946204626604E46FFF7C2
:100920008BFC80B101280BD0F61D26F0070000F1EA
:10093000080956E74020E4E78020D8E70020D6E702
:1009400006F104094DE7284652E7206ABDE8F09F0A
:10095000297F000030B505460B462A4613F8014BA7
:1009600012F8010B08B1A042F8D01CB1002802D047
:100970006D1CF1E7284630BD10B5431C02E010F8AD
:10098000011B71B18107FAD14FF0013202C88C1AF4
:100990008C4314EAC211F9D0C01A0A0603D0C01E53
:1009A00010BDC01A10BD0A0401D0801E10BD09027E
:1009B000FCD0401E10BD40EA010370B59B072ED14C
:1009C0004FF00136042A2AD308C810C99D1B9D4345
:1009D000121F15EAC61517D0D8B2E1B2401A50EA74
:1009E000056110D198B2A1B2401A50EA05410AD16E
:1009F00023F07F4024F07F41401A50EA052102D1C4
:100A0000180EA0EB146070BDA342DBD018BA21BA57
:100A1000884201D9012070BD4FF0FF3070BD0AB986
:100A2000002070BD10F8013B11F8014B63B1A342E7
:100A30000AD1521E08D010F8013B11F8014B1BB12E
:100A4000A34201D1521EEDD1181B70BD032A40F202
:100A5000308010F0030C00F0158011F8013BBCF160
:100A6000020F624498BF11F801CB00F8013B38BF78
:100A700011F8013BA2F1040298BF00F801CB38BF86
:100A800000F8013B11F0030300F02580083AC0F0A4
:100A9000088051F8043B083A51F804CBA0E808104C
:100AA000F5E7121D5CBF51F8043B40F8043BAFF37F
:100AB0000080D20724BF11F8013B11F801CB48BFD9
:100AC00011F8012B24BF00F8013B00F801CB48BF0F
:100AD00000F8012B704710B5203AC0F00B80B1E848
:100AE0001850203AA0E81850B1E81850A0E8185063
:100AF000BFF4F5AF5FEA027C24BFB1E81850A0E86C
:100B0000185044BF18C918C0BDE810405FEA827C85
:100B100024BF51F8043B40F8043B08BF7047D2079C
:100B200028BF31F8023B48BF11F8012B28BF20F83D
:100B3000023B48BF00F8012B704702F0FF0343EA75
:100B4000032242EA024200F002B84FF000020429F8
:100B5000C0F0128010F0030C00F01B80CCF1040CEC
:100B6000BCF1020F18BF00F8012BA8BF20F8022B20
:100B7000A1EB0C0100F00DB85FEAC17C24BF00F8C6
:100B8000012B00F8012B48BF00F8012B70474FF0F4
:100B9000000200B5134694469646203922BFA0E8CD
:100BA0000C50A0E80C50B1F12001BFF4F7AF0907D9
:100BB00028BFA0E80C5048BF0CC05DF804EB8900CA
:100BC00028BF40F8042B08BF704748BF20F8022B0D
:100BD00011F0804F18BF00F8012B704710B5044684
:100BE00010F0030F08BF11F0030F40F015804FF015
:100BF000013E121FC0F20E8051F8043BA3EB0E0C15
:100C00002CEA030C1CEACE1C08BF40F8043BF0D0D1
:100C1000A1F1040102F10402521E08DB11F8013BAC
:100C2000002B00F8013BF7D11146FFF78EFF20465D
:100C300010BD704770477047704730B5B0F10A0279
:100C40004FEA900E71F100034EEA817EB0EB0E0088
:100C500061EB91014FEA101E4EEA017E10EB0E008F
:100C600041EB11114FEA102E4EEA016E10EB0E000F
:100C700041EB11214FEA104E4EEA014E10EB0E00EF
:100C800041EB1141401841F100014FEAD00040EA28
:100C900041704FEAD10110EB80054FEA810444EA2C
:100CA000907444EB01046D1944EB0404521BA341FE
:100CB0004FF0000348BF0A3200D530BD401C41F15F
:100CC000000130BD09684A0501D540B27047C90529
:100CD000FCD500B2704709684A0501D5C0B270471B
:100CE000C905FCD580B270472DE9F0470D469946FD
:100CF0009246044600F124080168880604D5E0699C
:100D000021F01001216000E00120A84201DD471B15
:100D100000E00027A1697A1902EB0900081AA06116
:100D20002078C00602D42046FFF73CFC002608E0ED
:100D3000D4E901211AF806009047206A401C761C6D
:100D400020624E45F4DB2078C0060AD52046FFF726
:100D500029FC06E0D4E9012130209047206A401C9C
:100D60002062381EA7F10107F4DC07E0D4E9012175
:100D700018F805009047206A401C2062281EA5F143
:100D80000105F3DC2046FFF723FC2078000602D59E
:100D90000220BDE8F0870120FBE711680268006AC5
:100DA000530501D508700AE0D30501D5088006E097
:100DB000130603D5C217C1E9000200E00860012054
:100DC0007047000001694A1C02610878704700B54D
:100DD0008FB0CDE901310021059105497944CDE974
:100DE000031011466846FFF7F1FC0FB000BD00008C
:100DF000E5FFFFFF0A6802F8010B0A607047D1E9BE
:100E000000239A4202D2531C0B601070704710B539
:100E1000436913B1AFF3008001E0FFF7EAFB012063
:100E200010BD127800F124010A7000224A700122DC
:100E3000EDE711684FF0FF32E9E700002DE9FF5FB1
:100E400015468A460446DFF8AC80F8440027D8E906
:100E500000103E46CDE9001010E03AF816106A4640
:100E600002A800F025FC411C07D02178890603D593
:100E7000E269391891420DD80744761C2078800623
:100E800002D5E069B84205DDAE42E6DB3AF816006D
:100E90000028E2D1A069C01BA0612046FFF782FBB9
:100EA000D8E90010CDE90010002017E03AF818103A
:100EB0006A4602A800F0FCFBB0F1FF3F81460BD070
:100EC00000250DF1080B05E0D4E901211BF8050010
:100ED00090476D1C4D45F7D308F10100B0428046A4
:100EE000E4DB206A384420622046FFF771FBBDE84E
:100EF000FF9F0000CE78000030B4002100F12404F0
:100F000008E002F00705D208303542EA4372DB08F8
:100F10006554491C52EA0305F3D10468002310A26A
:100F2000250707D5A40600D421B1C46901230DA269
:100F3000641EC46130BCFFF7D7BE10B5044621461D
:100F40001068FFF7C8FE02462046BDE810400023A7
:100F5000D2E7D21D22F00701D1E90023CCE700003F
:100F6000000000003000000070472DE9FF4F0C46E4
:100F70001E464FF0FF378BB0D2E90001DDF86080EC
:100F80000A908A46C1F30A5505B93D460021084634
:100F90004FF00000BAF1000F00F4400005DA00EB5A
:100FA00080004FF4400101EA50004FEA9059B9F136
:100FB000010F00DDB9460A9850EA4A000ED044F607
:100FC0001050A5F2FF3545432F14B8F1000F1ED085
:100FD0007542291E1EDDC9F100021CE0B8F1010FA7
:100FE0004FF0000001D0302103E0F24305E021542E
:100FF000401CB042FBDB30460022002121540B99FB
:10100000C1F80880C1E900200FB0BDE8F08FBD1B1A
:101010006D1CDEE74A4600DA694206A800F0DAFBFA
:1010200006AB93E8070003AB83E8070050460A9934
:1010300000F090FC8DE80700A0F500501F380090EC
:101040000398002D0ADD42F21F014A46084400239E
:1010500003A90390684600F0F9FE09E0A0F50050EE
:101060004A461F38002303A90390684600F003FF97
:101070008DE807000004000C03D04FF0FF3041085A
:1010800000E01046B8F1000F03D000220092154690
:101090001EE0751E05D4FFF7D0FD303262556D1E7F
:1010A000F9D5B3460122084302D000227F1C04E098
:1010B0002078302801D100227F1E002A099784D091
:1010C0001DE0112D07DAFFF7B8FD303262556D1CB7
:1010D00050EA0102F5D1084302D00098C8B10EE0F1
:1010E0000021681E05E0235C625C63542254401EAC
:1010F000491C8142F7DBAB46A81B401E099000202B
:1011000004F80B000B98099AC0F80880C0E9002B7E
:101110007AE711264FF0000857E72DE9F04F88468F
:101120000446D21D22F0070191B0D1E90001CDE9BA
:101130000A0104F08CFA02460B98C00F01D02D2052
:1011400007E02068810701D52B2002E0202101EA79
:10115000C000032A099001D0072A05DB0346414657
:10116000204600F0F7FA0BE12078800601D5E0690F
:1011700000E00620B8F1650F814606D0B8F1660F91
:1011800018D0B8F1670F70D131E00020B9F1110F1C
:10119000009001DB112301E009F101030AAA01A972
:1011A0000CA8FFF7E2FEDDE90C70002609F101054D
:1011B000834647E001204B4600904FF000470AAAC3
:1011C00001A90CA8FFF7D1FEDDE90DB00C995D4631
:1011D000002610B909F101000D18B9EB050003D480
:1011E000C0F1FF3609F10105A5EB09002BE0B9F1CB
:1011F000010F01DA4FF001090020B9F1110F009041
:10120000484601DD112300E003460AAA01A90CA803
:10121000FFF7ABFEDDE90C704D46002683462078D3
:1012200000070AD4AB4500DA5D4601A8012D04DDB4
:10123000411911F8011C302907D04F4502DA17F186
:10124000040F04DA012082460FE06D1EEEE7002F46
:1012500002DCED1B3E4403E0781CA84200DD7D1C4F
:10126000B81B00F1010A4FF000472078000703D4B3
:10127000AA4501DB4FF0FF3A0021B7F1004F0DF115
:1012800043088DF8431024D002202B23002F01DACD
:101290007F422D230A21021EA0F1010000DC5FB174
:1012A00097FBF1FC97FBF1F201FB1C7C17460CF15C
:1012B000300C08F801CDEEE7A8F101000370218899
:1012C000090501D5452100E06521A0F1010800F8DC
:1012D000011C09980FA9A1EB0807FF1D00B101200F
:1012E000411901EBEA70A1693844081A401EA06157
:1012F0002078C00602D42046FFF754F9099828B197
:10130000D4E901219047206A401C20622078C00661
:1013100022D52046FFF746F91EE0002E04DBB34538
:1013200002DD01A8805D00E03020D4E90121904772
:10133000206A401C2062761CAAF101005FEA000AC4
:101340000AD100F003FAC0680168405CD4E90121C9
:101350009047206A401C2062281EA5F10105DCDCB4
:1013600007E0D4E9012118F8010B9047206A401CDE
:101370002062381EA7F10107F3DC2046FFF728F9A9
:10138000032011B041E600002DE9F04F04460D4660
:10139000D21D22F0070089B0D0E9009748463946AF
:1013A00004F055F90246F80F01D02D2307E020681C
:1013B000810701D52B2302E0202101EAC0038DF82B
:1013C00020300BB1012000E00020032A824601D02A
:1013D000072A04DB2946204600F0BCF93FE12078CB
:1013E000800601D40D2500E0E569C7F30A560D2DEE
:1013F00049DA00214FEA175B08464FF00000002F42
:1014000000F4400007DA00EB80004FF4400100EBED
:10141000D07001EA60008115012901DD4FF0FF3134
:1014200000224FEA850CBCF1180F06D31346ACF12D
:1014300018004FF08052C24003E04FF4801323FAAB
:101440000CF30CF10C0CBCF1200F04D3ACF1200C0C
:1014500009FA0CF001E007FA0CF000294FF00048FF
:1014600001DD18B90FE00ED140450CD319EB02098C
:101470005F4121B9404502D19F4329EA0209BBEBF4
:10148000175F00D0761C2088000502D57B48784481
:1014900002E07A487844193808AA302302F80A3062
:1014A000037C0AF10101002E0AF1020A53546A4634
:1014B00002DC4FF0300101E04FF031014FF0010844
:1014C0008DF8001002D0A6F2FF3603E059EA47017A
:1014D00000D06B4E002D02DC2178090704D54FF0B7
:1014E00002082E218DF80110C44600210BE0C7F33D
:1014F00003433F01C35C491C6D1E02F808300529F7
:1015000008F1010801DA002DF1DC00210CE000EB0C
:101510001973491C1B786D1E082902F808304FEA20
:10152000091908F1010801DA002DF0DC21688B06A9
:1015300002D516E0A8F10108E04505DD02EB08033D
:1015400013F8013C302BF5D0B8F1000F09DD02EBA8
:10155000080313F8013C2E2B03D1090701D4A8F18D
:101560000108002D05DD3E2102F808106D1E08F16E
:101570000108407C002E02F8080008F1010804DA96
:101580002D20764202F8080002E02B2002F8080025
:101590000A214FF47A70864208F101080BDB96FBB2
:1015A000F0F3303302F8083096FBF0F308F101084D
:1015B00000FB136601E0642E0CDB642096FBF0F365
:1015C000303302F8083096FBF0F308F1010800FB15
:1015D000136601E00A2E06DB96FBF1F0303002F8CC
:1015E000080008F1010896FBF1F001FB10603030B3
:1015F00002F80800A16908F1010808EB050202EBF6
:101600000A00081AA0612078C00602D42046FEF71E
:10161000C9FF216A08AE01EB0A00206204E0D4E9A8
:10162000012116F8010B9047BAF1010AF7D2207890
:10163000C00602D52046FEF7B5FF6E4609E016F853
:10164000010B3E280FD0D4E901219047206A401CAD
:101650002062B8F10108F2D22046FEF7B9FF09B0C6
:101660000320BDE8F08F206A2844206203E0D4E91B
:101670000121302090476D1EEBD3F8E7A5720000E2
:1016800002FCFFFF10B5436913B1AFF3008001E026
:10169000FFF7D4FB012010BD128800F124018284E1
:1016A0000022C2840122EDE711684FF0FF32E9E722
:1016B00070B516460C46054600F040F8036893F8EE
:1016C0000101012806D0FF2C0FD8185D68B1012058
:1016D0002C7070BDD3F807013246214603F2071380
:1016E00003442846BDE8704018474FF0FF3070BDF6
:1016F000754600F0EBF8AE4605006946534620F00B
:101700000700854618B020B5FEF770FEBDE8204002
:101710004FF000064FF000074FF000084FF0000BAD
:1017200021F00701AC46ACE8C009ACE8C009ACE860
:10173000C009ACE8C0098D467047000010B500F044
:1017400005F8001D10BD00BFF16C00000048704797
:101750008C5A00202DE9F0411F46044603260168FB
:10176000072A01F4006004DB08B116A505E016A500
:1017700003E008B115A500E015A521F010002060D8
:10178000A069C01EA0610FB1401EA0612046FEF7F7
:1017900009FF4FB1D4E9012138469047206A401C27
:1017A0002062C01C206206E0206AFAE7D4E9012129
:1017B00015F8010B9047761EF8D22046FEF708FF79
:1017C000BDE8F0814E414E006E616E00494E46000C
:1017D000696E66002DE9F047814616468AB03548A5
:1017E00078440DC88DE80D0032487844801C03AC65
:1017F0000DC884E80D0041F69B300844372190FB6A
:10180000F1F290FBF1F5A5F1800501FB12041B3C00
:1018100002D56442012000E00020DFF898A0804655
:101820000027FA44AAF1BE0A0EE0E0070AD03246C9
:10183000684607EB470101230AEB810100F01BFB1F
:101840008DE8070064107F1C002CEED1194F7F44F7
:10185000AE3F19E0E80715D007EB04100DF1180AA8
:1018600090E80E008AE80E00C068F04201D1981995
:1018700008903246012306A903A800F0FCFA03AB46
:1018800083E807006D10641C002DE3D14FF00103C5
:1018900032466946B8F1000F03A802D000F0D6FA2C
:1018A00001E000F0E8FAC9E90001C9F808200AB02F
:1018B000BDE8F087E46F000010B50446AFF3008088
:1018C0002046BDE81040FEF71CBD000000487047F0
:1018D0006C5A00204FF0013C50F8042B51F8043BA7
:1018E0009A4221D1A2EB0C03934313EACC1317D1F4
:1018F00050F8042B51F8043B9A4215D1A2EB0C038B
:10190000934313EACC130BD150F8042B51F8043B4A
:101910009A4209D1A2EB0C03934313EACC13DBD018
:101920004FF00000704700BFD01A01BAB1FA81F140
:1019300001F0180122FA01F0CB40C1F12001DBB225
:10194000C0B2C01A2CFA01F3D11A914311EAC311A3
:10195000E6D170475FEA400C08BF91F0000F4FEAF4
:101960008C234FEAC12243EA51514FEA1C5018BF61
:1019700000F5F0404FEA300018BF41F000415FEA47
:101980006C5C00F02980BCF1FF3F08BF40F0804054
:101990007047130C06BF12044FF0100C4FF0000CF0
:1019A000130E04BF12020CF1080C130F04BF120136
:1019B0000CF1040C930F04BF92000CF1020CD30F36
:1019C00004BF52000CF1010C11464FF00002A0F1CF
:1019D0001F00A0EB0C00704711F0004F08BF7047CC
:1019E00031F000413FF4D5AF0B0C06BF09044FF0B6
:1019F000100C4FF0000C0B0E04BF09020CF1080C88
:101A00000B0F04BF09010CF1040C8B0F04BF8900FC
:101A10000CF1020CCB0F04BF49000CF1010CCCF10E
:101A20002003A0EB0C0022FA03F302FA0CF241EAC5
:101A3000030100F10100704720F07F4C80EA0300B1
:101A400023F07F47ACEB070303F57C5300F0004025
:101A500003F1FF032DE980494FEA154B09B44FEA22
:101A6000144325EA0B4E24EA03480FF2042606EB42
:101A7000132749083E785FEA320203FB0667C7F581
:101A8000000707FB06F64FEA54374FEAD64606F141
:101A9000020607FB066CCCF1005C4FEA1C472CEAFF
:101AA000074C07FB06F40CFB06F504EB15464FEA62
:101AB000961634BF00204FF000404FEAD13706FBA6
:101AC00007FC4FEA1C4C0CFB0BF7D21B03FB0CF77B
:101AD00061EB07010CFB0EF7B0EB074072EB17420E
:101AE0000CFB08F734BFA2EB0742B2EB074261EBF5
:101AF00017414FEA0C444FEA910706FB07FC4FEAF7
:101B00001C4C0CFB0BF7B0EBC74072EB573203FBDE
:101B10000CF734BFA2EBC742B2EBC74261EB5731BF
:101B20000CFB0EF7B0EBC70072EB57720CFB08F71B
:101B300034BFA2EBC702B2EBC70261EB5771039F40
:101B40004FEA816141EA921104EBCC044FEAD137AC
:101B50004FEA826206FB07FC42EA90124FEA80607D
:101B60004FEA1C4C0CFB0BF7D21B03FB0CF761EB91
:101B700007010CFB0EF7B0EB074072EB17420CFBB2
:101B800008F734BFA2EB0742B2EB074261EB174103
:101B90004FEA8C554FEA910704EB9C2406FB07FCA7
:101BA0004FEA1C4C0CFB0BF7B0EBC74072EB573203
:101BB00003FB0CF734BFA2EBC742B2EBC74261EBA9
:101BC00057310CFB0EF7B0EBC70072EB57720CFBF2
:101BD00008F734BFA2EBC702B2EBC70261EB577143
:101BE00015EB4C254FEA816141EA92114FEA82627E
:101BF0004FEAD13742EA901206FB07FC44F1000499
:101C00004FEA80604FEA1C4C0CFB0BF7D21B03FB26
:101C10000CF761EB07010CFB0EF7B0EB074072EB22
:101C200017420CFB08F734BFA2EB0742B2EB0742A6
:101C300061EB174115EB1C154FEA813141EA9241E6
:101C40004FEA823242EA90424FEA80304FEA0C7605
:101C500044F1000448EA03434EEA0B484FF0000EFB
:101C6000B2EB080C71EB030724BF624639464EEB1A
:101C70000E0E4FF0000B0018524149414BEB0B0B7D
:101C8000B2EB080C71EB03077BF1000B24BF62463B
:101C900039464EEB0E0E4FF0000B001852414941F1
:101CA0004BEB0B0BB2EB080C71EB03077BF1000B5A
:101CB00024BF624639464EEB0E0E51EA020718BFAA
:101CC00046F0010616EB0E7655F1000254F10001C4
:101CD00003D5BDE88901BDE80088BDE88901BDE8FC
:101CE0000048B619524141EB0101A3F101037047CD
:101CF00080807F7E7D7C7B7A797877767675747349
:101D0000727171706F6E6E6D6C6C6B6A6A69686807
:101D1000676666656464636362616160605F5F5E9D
:101D20005E5D5D5C5C5B5B5A5A5959585857575613
:101D30005655555554545353525252515150505078
:101D40004F4F4F4E4E4D4D4D4C4C4C4B4B4B4A4ACA
:101D50004A4949494848484747474746464645450E
:101D60004544444444434343434242424241414147
:101D7000002B9C4630D477002BD01CB54FEA370798
:101D800003B44FF010004FF01001BAF1000F06D06D
:101D9000BCF1000FDCBF40F0080040F008014FF03C
:101DA00000000FBCBDE810400BF1010BBBF1010FAF
:101DB00008BF5FEA170722BF12F1010211F101010A
:101DC0004FF0004143F1000300F0004043EA0000FF
:101DD0007047F9D35708D0E746EA064613F1400F9B
:101DE0004FEA16461FDD13F1200FDFBF16430A46E8
:101DF000002120335B42BED0C3F1200746EA0646ED
:101E000002FA07F74FEA164646EA0706C3F120072B
:101E100022FA03F201FA07F721FA03F14FF0000367
:101E200042EA0702A7E746EA020646EA06464FEA02
:101E3000164646EA0106BCBF46EA0646360C4FF097
:101E400000034FF000024FF0000194E72DE9804CB1
:101E50009A46934670B491E8380007C831EA400CBE
:101E600048BF34EA430C03D5FFF7E6FDFFF780FFD8
:101E7000F0BCBDE8008C2DE9804C9A46934670B4C6
:101E800091E8380007C810F0804F08BF13F0804F6A
:101E900003D100F005F8FFF76BFFF0BCBDE8008C44
:101EA00020F07F4780EA030023F07F4C07EB0C0310
:101EB000A3F57C5300F00040A3F1FE0392F0000F65
:101EC00000F0B38095F0000F00F077802DE9014914
:101ED0004FEA11404FEA144621EA004800FB06FC95
:101EE00024EA064708FB06F607FB08F800FB07F79D
:101EF00018EB06484CEB164C4FEA124B18EB074810
:101F00004FEA15464CEB174022EA0B4E0BFB06FC42
:101F100025EA06470EFB06F607FB0EFE0BFB07F74E
:101F20001EEB064E4CEB164C4FF000061EEB074E18
:101F30004CEB174B18EB0B0840F1000018EB0E0BA5
:101F400058EB000840F100008F1A4FF000013CBF31
:101F5000C943661B14BFB5EB040C00213CBFC94349
:101F6000F61B4FEA17444EEA8E0E27EA04454FEA65
:101F70001C4704FB07622CEA074C05FB07F70CFB28
:101F800005F604FB0CFC16EB074642EB174216EB7A
:101F90000C4642EB1C421BEB060658EB0202414189
:101FA00046EA9E0601D5BDE80189B619524141EBCA
:101FB0000101A3F10103BDE801894FEA14454FEA8D
:101FC000114724EA054621EA074C05FB07F406FB06
:101FD00007F70CFB06F105FB0CFC11EB074144EB8A
:101FE00017444FEA124711EB0C4144EB1C4422EA20
:101FF000074C05FB07F206FB07F70CFB06F605FB93
:102000000CFC16EB074642EB174216EB0C4642EB74
:102010001C456A1854F1000148BF7047B619524177
:1020200041EB0101A3F10103704795F0000F37D098
:102030004FEA11424FEA144721EA024624EA074CCC
:1020400002FB07F106FB07F70CFB06F402FB0CFC96
:1020500014EB074441EB17414FEA154714EB0C44CE
:1020600041EB1C4125EA074C02FB07F506FB07F78D
:102070000CFB06F602FB0CFC16EB074645EB17457E
:1020800016EB0C4645EB1C42121951F1000148BFFA
:102090007047B619524141EB0101A3F101037047AA
:1020A0004FEA14454FEA114724EA054621EA074C56
:1020B00005FB07F106FB07F70CFB06F24FF00006E5
:1020C00005FB0CFC12EB074241EB174112EB0C42F3
:1020D00051EB1C4148BF7047921841EB0101A3F13D
:1020E00001037047FEE70000014800F04DBA000010
:1020F000B00A0020014800F047BA0000D80A0020CA
:1021000010B500F019F8084800F091FC02210648CB
:1021100000F016F9054800F08AFCBDE810400221E5
:10212000024800F00DB90000B00A0020D80A0020D3
:10213000012004F0A7FCFBE7F0B58DB000250024DA
:102140000894099401260A9603940494059406942D
:1021500007940B960E270C9703A9224800F002F96A
:1021600058B121A04621CDE90010284B28A22EA16C
:10217000012003F0CBFD012509E02D484B21CDE9DD
:102180000010224B22A228A1032003F0BFFD0897D4
:1021900009940A96039404940594069407940B9664
:1021A0001C200C9003A9234800F0DCF858B122A0B1
:1021B0006621CDE90010154B15A21BA1012003F0EB
:1021C000A5FD01250AE02548CDE901076B21009115
:1021D0000E4B0FA214A1032003F098FD0DB028466A
:1021E000F0BD0000B00A00204661696C656420748F
:1021F0006F20636F6E6669677572652043414E316B
:102200002066696C74657221000000007684000805
:102210002E2E5C436F72655C5372635C6273705FF9
:1022200063616E2E630000004253505F43414E00D5
:10223000E0870008D80A00204661696C6564207454
:102240006F20636F6E6669677572652043414E3219
:102250002066696C74657221000000002488000803
:10226000014800F071BC0000400D00200168CAB2B6
:10227000103A1823B2FBF3F2064B9B5CC3656FF375
:102280000901032A02D9091D816500E08165806D7D
:1022900070470000F984000810B5014600208A6AE2
:1022A0008B694FF0C074002B0ED0B3F5005F1AD0CD
:1022B00062B3012A2AD0022A28D0032A03D1C96A8C
:1022C000C90100D5012010BD1AB1012A06D0022A89
:1022D000F9D1C96AC901F6D5012010BDC96AA14268
:1022E000FBD1012010BD52B1012A0AD0022A06D02A
:1022F000032AF7D1C96AA142F4D1012010BD0120FF
:1023000010BDC96AC901FBD5012010BD012010BD57
:1023100030B50468256825F480252560046863606D
:102320008368402B04D0036899600068C26030BDA8
:1023300003689A600068C16030BD704772B6FEE7FE
:1023400090F82020012A07D0022A05D0416A41F4E2
:102350008021416201207047006842690A4342615E
:102360000020704710B590F82020012A07D0022ADB
:1023700005D0416A41F480214162012010BD3C48F2
:1023800000F50070026842F001020260026822F467
:102390007C52026002684B6A42EA032202600A7DB4
:1023A00002F01F0301229A40C3699343C361A0F561
:1023B0000070CB69B3B9D0F80C329343C0F80C323B
:1023C0008C894B6864F31F434C6900EBC404C4F868
:1023D00040320C890B6864F31F434C6900EBC40462
:1023E000C4F84432CB69012B16D1D0F80C32134318
:1023F000C0F80C320C884B6864F31F434C6900EB47
:10240000C404C4F840320C89CB6864F31F434C69A0
:1024100000EBC404C4F844328B697BB1D0F80432B9
:102420001343C0F804320B6973B1D0F8143213436C
:10243000C0F81432096A01290CD010E0D0F8043237
:102440009343C0F80432EEE7D0F814329343C0F857
:102450001432EFE7D0F81C121143C0F81C12D0F868
:10246000001221F00101C0F80012002010BD000090
:1024700000640040704770B590F82040012C07D0F0
:10248000022C05D0416A41F480214162012070BDD7
:1024900021B104682469A4072AD003E00468E46831
:1024A000A4071FD04FF4D874056804EB01142D590C
:1024B00005F0040595600DB305682D59ED085560CC
:1024C00005682C5904F00204D4604FF4DA740568EE
:1024D00004EB01142E5906F00F06082E13D308251D
:1024E000156114E0416A41F400114162012070BDA0
:1024F000416A41F400114162012070BD05682D5907
:102500006D0D1560DCE72D5905F00F0515610568A7
:102510002D59C5F30725956105682C59240C546184
:102520004FF4DC72046802EB0112A4581C700468BA
:10253000A458240A5C700468A458240C9C70046895
:10254000A258120EDA704FF4DE72046802EB011228
:10255000A4581C710468A458240A5C710468A45827
:10256000240C9C710468A258120EDA7131B1006813
:10257000016941F020010161002070BD0068C1685F
:1025800041F02001C160F7E72DE9F05F0546002426
:1025900028684669D0F804908768D0F80CA0D0F875
:1025A00010B0D0F81880F10748D0F90714D00121F5
:1025B0008160B80703D5284600F066FA0CE078077A
:1025C00002D54FF4006407E0380702D54FF4805479
:1025D00002E0284600F057FAF80516D529684FF4AE
:1025E00080708860B80503D5284600F04FFA0CE0EB
:1025F000780502D544F4005407E0380502D544F4C8
:10260000804402E0284600F040FAF80316D5296815
:102610004FF480308860B80303D5284600F038FABC
:102620000CE0780302D544F4004407E0380302D5F7
:1026300044F4803402E0284600F029FA300707D538
:102640005FEACA6004D544F4007429681020C860A9
:1026500070074FF0080707D55FEA0A7004D52868AD
:10266000C760284600F0BAF9B00706D52868C068E8
:10267000800702D0284600F0B3F9700607D55FEA5C
:10268000CB6004D544F48064296810200861B0064A
:1026900007D55FEA0B7004D528680761284600F06B
:1026A000C3F9F00606D528680069800702D02846DD
:1026B00000F0BBF9B00308D55FEAC96005D5296809
:1026C00010204860284600F0B1F9F00307D55FEA12
:1026D000097004D528684760284600F0DAF930040C
:1026E00046D55FEA497040D5F00504D55FEAC87069
:1026F00001D044F00104B00504D55FEA887001D52B
:1027000044F00204700504D55FEA487001D544F036
:102710000404300529D518F0700F26D008F0700099
:10272000402815D006DC102809D020280AD03028EF
:1027300016D10AE050280ED0602811D10EE044F0E6
:1027400008040DE044F010040AE044F0200407E01F
:1027500044F0400404E044F0800401E044F4807458
:102760002868816921F0700181612968042048602E
:10277000002C05D0686A204368622846FFF77AFE7D
:10278000BDE8F09F70B50446002C03D094F82000FB
:1027900010B104E0012070BD204600F09DF82068D3
:1027A000016841F00101016000F05CFC054605266E
:1027B0000CE000F057FC401B0A2807D9606A40F47F
:1027C0000030606284F82060012070BD206840689D
:1027D000C007EED02068016821F00201016000F01E
:1027E00041FC05460CE000F03DFC401B0A2807D9DF
:1027F000606A40F40030606284F82060012070BD9F
:10280000206840688007EED4207E01283FD02068F1
:10281000016821F080010160607E01283DD02068C0
:10282000016821F040010160A07E01283BD02068B2
:10283000016821F020010160E07E012839D0206884
:10284000016841F010010160207F012837D0206825
:10285000016821F008010160607F012835D02068FF
:10286000016821F004010160D4E902010843D4E9C0
:102870000412114308436168491E08432168C86176
:1028800000206062012084F82000002070BD2068D4
:10289000016841F080010160BEE72068016841F0F5
:1028A00040010160C0E72068016841F0200101603B
:1028B000C2E72068016821F010010160C4E72068C8
:1028C000016841F008010160C6E72068016841F035
:1028D00004010160C8E700002DE9F04387B0044619
:1028E000142102A8FEF753F9384D2268384C2968A4
:1028F000DFF8D490364B02273648491C10340026A6
:102900004FF0030C4FF009084A4529D129600129ED
:1029100007D1216841F000712160216801F0007148
:102920000191196841F002011960196801F0020172
:1029300001914FF44071029103970496CDF814C0B1
:10294000CDF8188002A900F09BFA0022052114207E
:1029500000F026FC142000F015FC07B0BDE8F08361
:10296000DFF874904A45F8D1226842F08062226014
:10297000226802F0806201922960012907D1216852
:1029800041F000712160216801F000710191196826
:1029900041F002011960196801F0020101914FF440
:1029A0004051029103970496CDF814C0CDF81880D9
:1029B00002A900F065FA00220521402000F0F0FB9A
:1029C000402000F0DFFBC8E7006400400C0000205E
:1029D00030380240000402400068004070470000A8
:1029E00070B505460E4C0021631CA4F11C0228465C
:1029F000FFF741FD002811D1A4F11C01886800B146
:102A00000120207008B1486800E00868E0600548CF
:102A1000854201D1012000E00220207470BD000039
:102A20009C0A0020B00A002070477047704770B5BC
:102A3000044694F82000012805D0606A40F4002084
:102A40006062012070BD022084F8200020680168C7
:102A500021F00101016000F005FB05460DE000F0EA
:102A600001FB401B0A2808D9606A40F4003060620C
:102A7000052084F82000012070BD20684068C00750
:102A8000EDD1606270BD7047704770477047704706
:102A9000704770472DE9F0410446A76D00F0E2FA57
:102AA000054694F835000026022806D0802060658F
:102AB00084F834600120BDE8F0812068016821F0CD
:102AC000160101602068416921F080014161206C9C
:102AD00008B9A06C20B12068016821F008010160EC
:102AE0002068016821F0010101600BE000F0BAFAF2
:102AF000401B052806D92020343420620320607052
:102B00002670D8E720680068C007EFD134343F2032
:102B100094F828108840B86001206070267000206A
:102B2000C9E790F83510022903D0802141650120C2
:102B30007047052180F835100068016821F0010117
:102B400001600020704700002DE9F84304464FF073
:102B50000009CDF800906F484FF416510068B0FBA3
:102B6000F1F7A56D2E6894F85C00082202FA00F1D6
:102B7000314210D02068016849070CD5016821F066
:102B80000401016094F85C0002FA00F1A960606D34
:102B900040F00100606594F85C104FF0010808FAFD
:102BA00001F0304208D021684969090604D5A860BF
:102BB000606D40F00200606594F85C10042088406D
:102BC000304208D021680968890704D5A860606D83
:102BD00040F00400606594F85C101020884030429A
:102BE00020D02168096809071CD5A8602068016801
:102BF00049030CD50068000304D4216C91B1204630
:102C000088470FE0A16C69B1204688470AE0016857
:102C1000C90503D4016821F008010160216C09B1E4
:102C20002046884794F85C102020884030424CD0E1
:102C300021680968C90648D5A86094F835000528B8
:102C40000BD020680168490330D50068000328D400
:102C5000616C51B32046884737E02068016821F055
:102C6000160101602068416921F080014161206CFA
:102C700008B9A06C20B12068016821F0080101604A
:102C800094F85C103F208840A86084F8358084F870
:102C90003490216D00293BD001B02046BDE8F043BF
:102CA0000847E16B09B1204688470EE00168C90575
:102CB00007D4016821F01001016084F8358084F8A0
:102CC0003490E16B09B120468847606D00281FD021
:102CD000606DC00714D0052084F8350020680168B5
:102CE00021F0010101600098401C0090B84203D817
:102CF00020680068C007F6D184F8358084F83490E5
:102D0000E16C002904D001B02046BDE8F04308473B
:102D1000BDE8F8831C0000202DE9F041044600F0D6
:102D2000A1F905465CB1022084F83500002684F83C
:102D300034602068016821F0010101600DE001208C
:102D4000BDE8F08100F08EF9401B052805D9202050
:102D50006065032084F83500F2E720680068C0074A
:102D6000F0D121680A6820480240D4E901031843E1
:102D7000D4E903352B43184363691843A369184307
:102D8000E3691843236A18431043626A042A03D193
:102D9000D4E90B231A43104308602068406920F0EF
:102DA0000700656A29460543012704290DD1A06A59
:102DB0000543E06A48B12046FFF76EFA28B140208B
:102DC000606584F835700120BAE7206845612046C7
:102DD000FFF74CFA94F85C203F21914081606665D2
:102DE00084F835700020ABE73F8010F02DE9F0410A
:102DF00004460025A66D94F8340001280DD001206A
:102E000084F8340094F835700020012F07D084F83E
:102E1000340002252846BDE8F0810220FBE70227A6
:102E200084F8357060652046FFF772FA94F85C10FC
:102E30003F208840B0602068016841F016010160C1
:102E4000206C20B12068016841F008010160206811
:102E5000016841F001010160DCE7000070B5044643
:102E600000F000F90546601C02D0044800780444D4
:102E700000F0F8F8401BA042FAD370BD100000200B
:102E80002DE9F84F0022DFF894914FF00108032755
:102E90004FF00F0C09F1040AA9F1040B08FA02F52E
:102EA0000B682B40AB426ED10C7904F00304012C6B
:102EB00001D0022C15D18668540007FA04FE26EAD8
:102EC0000E06D1F80CE00EFA04FE4EEA060EC0F82B
:102ED00008E04468AC430D79C5F3001595402543DF
:102EE00045600C79E443A40708D0C568540007FA8C
:102EF00004F6B5438E68A6402E43C6600C7904F0F4
:102F00000304022C11D1D40800EB8406356A54075F
:102F1000E40E0CFA04FE25EA0E05D1F810E00EFAD4
:102F200004FE4EEA050EC6F820E00568540007FAD4
:102F300004F6B5430E7906F00306A6402E4306605C
:102F40004C6814F4403F62D0354C256845F4804508
:102F50002560246804F480440094324C22F0030578
:102F60002E19D6F8085894074FEA147E0CFA0EF47E
:102F7000A5432D4CA04201D100241FE02B4CA042C0
:102F800002D101241AE042E0294CA04201D10224DE
:102F900014E0284CA04201D103240FE0264CA042AB
:102FA00001D104240AE0254CA04201D1052405E00A
:102FB000234CA04201D1062400E0072404FA0EF4B9
:102FC0002C43C6F80848D9F800409C434D68ED02F0
:102FD00000D51C43C9F80040DAF800409C434D6816
:102FE000AD0200D51C43CAF80040DBF800409C430A
:102FF0004D68AD0300D51C43CBF80040074D083D9C
:103000002C689C434E68F60300D51C432C60521C70
:10301000102AFFF443AFBDE8F88F0000083C0140E0
:1030200044380240003001400000024000040240E9
:1030300000080240000C0240001002400014024050
:1030400000180240426921EA02030A4043EA0241B1
:1030500081617047002A01D0816170470904816154
:103060007047000001488068704700001000002091
:103070000248816802781144816070471000002086
:1030800010B50B48016841F400710160016841F41A
:1030900080610160016841F480710160032000F0EB
:1030A0009FF80F2000F006F800F050F8002010BD47
:1030B000003C024030B587B0054600241E48016838
:1030C00041F480710160006800F48070009001A9F3
:1030D00002A800F03DF90598A8B100F05DF94000A4
:1030E0001649B0FBF1F1491E1648154A026040F23C
:1030F000E732C260416004618460846100F00CFCCE
:1031000004461CB115E000F047F9E9E70D4800F06E
:1031100053FC04466CB92D2000F034F8102D07D272
:10312000002229462D2000F03BF80748056000E00A
:10313000012407B0204630BD4038024040420F0015
:1031400000200040A00D00201400002082B00C4898
:10315000016841F480410160006800F48040019002
:103160000748001F016841F080510160006800F0CD
:103170008050019000220F21901E02B000F010B884
:1031800044380240002809DB00F01F020121914071
:103190004009800000F1E020C0F8001170470000F5
:1031A000F0B40D460D4B1B68C3F30223C3F10704B3
:1031B000042C00D90424191D072901D2002300E0A2
:1031C000DB1E012606FA04F1491E294099409E4063
:1031D000761E16403143F0BC02F051BA0CED00E00F
:1031E00000F00701054A10684FF6FF03184040EA57
:1031F0000120034908431060704700000CED00E017
:103200000000FA052DE9F04704460D46002C13D0C6
:10321000DFF82891D9F80000EFB200F00F00A842C3
:103220000CD289F80070D9F8000000F00F00A84215
:1032300004D00120BDE8F0870120FBE72068404E64
:10324000810712D5400703D5306840F4E050306064
:103250002078000703D5306840F460403060306863
:10326000A16820F0F000084330602078C00731D01A
:10327000334960680839012808D002280BD0032898
:1032800009D0096889070BD40120D3E709688903AD
:1032900006D40120CEE70968890101D40120C9E7DD
:1032A000316821F0030101433160FFF7DBFE804606
:1032B00041F2883A07E0FFF7D5FEA0EB0800504541
:1032C00001D90320B6E73068616800F00C00B0EB6C
:1032D000810FF0D1D9F8000000F00F00A84209D901
:1032E00089F80070D9F8000000F00F00A84201D062
:1032F00001209FE72078400705D53068E16820F479
:10330000E050084330602078000706D53068216916
:1033100020F4604040EAC100306000F05DF83168A0
:10332000084AC1F30311515CC840074908600748C7
:103330000068FFF7BFFE00207CE70000003C024071
:1033400008380240018500081C00002014000020FD
:103350000F2202600B4A136803F0030343601368F3
:1033600003F0F0038360136803F4E053C360126852
:1033700002F46042D20802610348006800F00F00C6
:103380000860704708380240003C0240014800686D
:10339000704700001C00002000B5FFF7F7FF04494C
:1033A0000968044AC1F38221515CC84000BD000095
:1033B000083802401185000800B5FFF7E7FF04490F
:1033C0000968044AC1F34231515CC84000BD0000A5
:1033D000083802401185000810B52648006810F032
:1033E0000C01254818D0254B042914D0214C241F4A
:1033F000082912D00C290FD1216801F03F02216861
:10340000490229D52068C0F38810A0FB03010023DE
:10341000FDF705F828E0184610BD216801F03F02CD
:103420002168490208D52068C0F38810A0FB030179
:103430000023FCF7F4FF07E021680023C1F38811A3
:10344000A1FB0001FCF7EBFF2168C1F30141491C1E
:103450004900B0FBF1F010BD21680023C1F38811D1
:10346000A1FB0001FCF7DBFF2168C1F30271B0FB97
:10347000F1F010BD083802400024F400001BB70032
:103480002DE9F84F0446002C11D02078F74FC007E3
:10349000A7F104055CD0381D0168C1F38101012941
:1034A00013D00168C1F38101022903D005E0012096
:1034B000BDE8F88F3968490207D40068C0F381007D
:1034C000032809D13868400206D5286880033FD513
:1034D000606870BB0120EBE76068B0F5803F10D0FA
:1034E000B0F5A02F12D0286820F48030286028681A
:1034F00020F4802028606068E0B1FFF7B3FD064645
:1035000014E0286840F480302860F4E7286840F42C
:1035100080202860286840F480302860EBE7FFF7BF
:10352000A1FD801B642801D90320C1E7286880031E
:10353000F5D50DE0FFF796FD064606E0FFF792FD94
:10354000801B642801D90320B2E728688003F5D4E2
:103550002078DFF81C8380074FF0000950D5C3485E
:10356000001D016811F00C0F0FD00168C1F381013B
:10357000022902D13968490207D50068C0F38100E9
:10358000032812D1386840020FD42868800704D578
:10359000E068012801D001208AE72868216920F02D
:1035A000F80040EAC10028602AE0E068C0B10120CC
:1035B000C8F80000FFF756FD064606E0FFF752FD8B
:1035C000801B022801D9032072E728688007F5D5FF
:1035D0002868216920F0F80040EAC10028600FE067
:1035E000C8F80090FFF73EFD064606E0FFF73AFDFB
:1035F000801B022801D903205AE728688007F5D4E8
:103600002078000727D5994E9A486169703689B1AC
:1036100001210160FFF726FD824607E0FFF722FD4A
:10362000A0EB0A00022801D9032041E73068800797
:10363000F4D510E0C0F80090FFF714FD824607E0D3
:10364000FFF710FDA0EB0A00022801D903202FE7A5
:1036500030688007F4D4207840076ED54FF0000A18
:1036600082483C300068C0000BD480483C30016880
:1036700041F080510160006800F0805000904FF0F0
:10368000010ADFF8F4B1DBF80000C00514D4DBF860
:10369000000040F48070CBF80000FFF7E3FC064622
:1036A00006E0FFF7DFFC801B022801D90320FFE6BC
:1036B000DBF80000C005F4D5DFF8B0B1A0680BF16D
:1036C0006C0B012813D0052818D0DBF8000020F07F
:1036D0000100CBF80000DBF8000020F00400CBF87C
:1036E0000000A06828B3FFF7BDFC06461CE0DBF82D
:1036F000000040F00100CBF80000F2E7DBF800002A
:1037000040F00400CBF80000DBF8000040F00100BE
:10371000CBF80000E5E7FFF7A5FC811B41F28830FC
:10372000814201D90320C3E6DBF800008007F2D50F
:1037300011E0FFF797FC064609E015E0FFF792FC61
:10374000811B41F28830814201D90320B0E6DBF8C9
:1037500000008007F2D4BAF1010F05D143483C3094
:10376000016821F080510160A069D8B33F49091D6B
:1037700009684FF0FF36C1F38101022949D00228C0
:1037800005D0C8F86090FFF76DFC04463DE0C8F82E
:103790006090FFF767FC814607E0FFF763FCA0EB52
:1037A0000900022801D9032082E628688001F4D4A8
:1037B00054F81C0F6168E2680843A16806EB5202E6
:1037C000890141EA02410843217C40EA0160217DF0
:1037D00040EA017038600120C8F86000FFF742FC41
:1037E000044607E04CE0FFF73DFC001B022801D92E
:1037F00003205DE628688001F5D541E0FFF732FC43
:10380000001B022801D9032052E628688001F5D464
:1038100036E0012832D03868E26900F48001914234
:1038200021D1226A00F03F0191421CD147F6C071BC
:10383000626A0140B1EB821F15D1A26A00F44031E7
:1038400006EB5202B1EB024F0DD194F82C2000F0A0
:103850007061B1EB026F06D194F8301000F0E040D7
:10386000B0EB017F0CD0012022E6000004380240BA
:1038700000004742800E474200700040012017E6DA
:10388000002015E67047704770B590F83C20012A7B
:1038900031D0012680F83C60022280F83D20026889
:1038A0005468936824F070050C682C435460134CE2
:1038B0000268A24214D0B2F1804F11D0104CA24243
:1038C0000ED0104CA2420BD00F4CA24208D00F4C8D
:1038D000A24205D00E4CA24202D00E4CA24204D10C
:1038E00023F080034968194391603C304670002101
:1038F0000170002070BD022070BD0000000001407A
:103900000004004000080040000C0040000401409A
:10391000004001400018004010B50446002C03D0C0
:1039200094F83D0010B107E0012010BD002084F89C
:103930003C00204600F016F8022084F83D00211DCE
:10394000206800F0EBFF01203D3460726070A070D1
:10395000E07020716071A071E07120722070002011
:1039600010BD000008B50068104A1149904208D106
:10397000086840F002000860086800F0020000904B
:1039800008BD0C4A9042FBD1086840F080000860F6
:10399000086800F080000090002205212C20FFF72D
:1039A000FFFBBDE808402C20FFF7ECBB0004004003
:1039B00040380240001C004090F83D10012901D021
:1039C00001207047022180F83D100168CA6842F06A
:1039D0000102CA6000681449884214D0B0F1804FD7
:1039E00011D0124988420ED0114988420BD011499A
:1039F000884208D01049884205D01049884202D038
:103A00000F49884209D1816801F00701062908D0D1
:103A1000016841F00101016003E0016841F001012A
:103A200001600020704700000000014000040040D9
:103A300000080040000C004000040140004001402C
:103A40000018004070B50446002594F83C00012899
:103A500017D0012684F83C60022084F83D002068DD
:103A6000826822F0770222F47F4282600868502840
:103A700038D00DDC202853D005DC90B3102811D1AC
:103A80004EE0022070BD30284AD040280AD13DE0E7
:103A9000602831D070280CD0B0F5805F03D0B0F52D
:103AA000005F12D001253C3466700020207028464B
:103AB00070BDCB68D1E90121206800F099FF206832
:103AC000816841F077018160EDE7CB68D1E90121A0
:103AD000206800F08DFF2068816841F4804181609A
:103AE000E1E71DE0CA684968206801F063F85021E9
:103AF000206800F087FFD6E7CA684968206801F0AF
:103B00006AF86021206800F07DFFCCE7CA68496848
:103B1000206801F04FF84021206800F073FFC2E7F1
:103B200022680146104600F06DFFBCE770472DE9A2
:103B3000F04104462068C56806694FF00007B107E8
:103B400014D5A90712D5F91E01610120207720683C
:103B50008069800703D02046FFF7E8FF05E0204694
:103B600000F0C4F8204600F065F92777700717D5F4
:103B7000680715D521686FF00400086102202077DE
:103B80002068806910F4407F03D02046FFF7CEFF05
:103B900005E0204600F0AAF8204600F04BF9277710
:103BA000300716D5280714D521686FF00800086182
:103BB000042020772068C069800703D02046FFF7E3
:103BC000B5FF05E0204600F091F8204600F032F9FC
:103BD0002777F00617D5E80615D521686FF0100095
:103BE0000861082020772068C06910F4407F03D066
:103BF0002046FFF79BFF05E0204600F077F82046BF
:103C000000F018F92777F00708D0E80706D02168F8
:103C10006FF001000861204600F00EF9300608D56B
:103C2000280606D521686FF0800008612046FFF75E
:103C300029FE700608D5680606D521686FF0400099
:103C40000861204600F002F9B0060AD5A80608D59A
:103C500021686FF0200008612046BDE8F041FFF7C1
:103C600012BEBDE8F081000010B586B004461421F4
:103C700001A8FCF78CFF2068002218490223B0F14C
:103C8000804F17D0164CA04212D1086840F00400B3
:103C90000860086800F0040000904FF47070019014
:103CA000029303920492059301A90E48FFF7E8F8E6
:103CB00006B010BD086840F002000860086800F017
:103CC00002000090042001900293039204920120CC
:103CD000059001A90448FFF7D3F8E9E7303802401E
:103CE000000400400008024000040240704770B524
:103CF00004460D46002694F83C0001280FD0012010
:103D000084F83C006AB1042A1FD0082A32D00C2A59
:103D100044D00126002084F83C00304670BD0220CB
:103D200070BD2946206800F075FE2068816941F069
:103D3000080181612068816921F0040181612068A6
:103D400081692A6911438161E4E72946206800F00E
:103D500095FE2068816941F4006181612068816974
:103D600021F480618161206881692A6941EA022128
:103D70008161CFE72946206800F0BAFE2068C1695A
:103D800041F00801C1612068C16921F00401C161ED
:103D90002068C1692A691143C161BBE729462068CF
:103DA00000F0DEFE2068C16941F40061C161206855
:103DB000C16921F48061C1612068C1692A6941EA51
:103DC0000221C161A6E710B50446002C03D094F887
:103DD0003D0010B107E0012010BD002084F83C0038
:103DE000204600F015F8022084F83D00211D2068CF
:103DF00000F094FD01203D3460726070A070E070AE
:103E000020716071A071E07120722070002010BDDF
:103E100008B50068B0F1804F08D10548016841F04D
:103E200001010160006800F00100009008BD000081
:103E3000403802407047000000680349884201D1C1
:103E4000FFF716B970470000002000407047704728
:103E50007047704770477047F8B50446226810688D
:103E6000D168536900F00F06002E08D1850606D5EB
:103E70008D0604D52046BDE8F84000F07BBF002544
:103E8000002E6AD003F0010601F49077374364D026
:103E9000C20705D0CA0503D5626C42F00102626414
:103EA000420705D5DA0703D0626C42F00202626471
:103EB000820705D5DA0703D0626C42F0040262641F
:103EC000020707D501F02002324303D0626C42F0B2
:103ED00008026264626C002A3ED0800604D588061F
:103EE00002D5204600F046FF20684069C0F38010EC
:103EF000616C090700D458B3204600F0D2FE206858
:103F0000406940061ED52068143050E8001F21F09B
:103F1000400140E80012002AF5D1E06B60B165492C
:103F20000165E06BFEF7FDFD002815D0E06B016D2B
:103F300001B0BDE8F0400847A16D01B02046BDE8E2
:103F4000F0400847A16D01B02046BDE8F0400847A9
:103F5000A16D204688476564F8BD236B012B7CD199
:103F6000C3067AD5CB0678D51068506800905069A2
:103F70004FF0200340064FF0020654D5E26B106864
:103F8000406880B2DF00E8B3A18D81423ED9E08570
:103F9000D069B8422DD020680C3050E8001F21F4C1
:103FA000807140E80012002AF5D12068143050E8F2
:103FB000001F21F0010140E80012002AF5D120681D
:103FC000143050E8001F21F0400140E80012002AA0
:103FD000F5D184F84230256320680C3050E8001F8A
:103FE00021F0100140E80012002AF5D1E06BFEF745
:103FF00051FD6663A08DE18DE26E401A81B22046CC
:1040000001B000E002E0BDE8F0401047A18D814220
:10401000A2D1D069B8429FD16663E26E01B020465A
:10402000BDE8F0401047A08DE18D401A81B2E08DCF
:10403000002891D000298FD020680C3050E8002F44
:1040400022F4907240E80027002FF5D12068143048
:1040500050E8002F22F0010200E017E040E80027BE
:10406000002FF3D184F84230256320680C3050E8EB
:10407000002F22F0100240E80023002BF5D16663E8
:10408000E26E01B02046BDE8F0401047020606D5BA
:104090000A0604D52046BDE8F84000F059BF4006A6
:1040A0007FF55AAF4806FBD52046BDE8F84000F042
:1040B0001FBE0000094C000870B50446002C04D057
:1040C00094F84100002510B10DE0012070BD84F886
:1040D0004050204600F028FE206F08B913482067A2
:1040E000216F20468847242084F841002068C16859
:1040F00021F40051C160204600F0A0FE2068016953
:1041000021F4904101612068416921F02A01416157
:104110002068C16841F40051C1606564202084F8C2
:10412000410084F842006563002070BD3141000801
:10413000F0B587B00646142102A8FCF728FD4D49CA
:104140004B48326800254B4B10390224032782422A
:104150003CD1186840F400201860186800F4002072
:104160000190086840F004000860086800F004004E
:104170000190B802029003940495059708200690D8
:1041800002A93D48FEF77CFE3D4C3C4820604FF0C4
:10419000006060604020A060E56000012061656112
:1041A000A561E561256265622046FEF7B5FD08B1AF
:1041B000FEF7C4F8B463A663002205213420FEF79D
:1041C000EFFF3420FEF7DEFF07B0F0BDDFF8B4C02C
:1041D00007262D4862452DD1264A121D136843F04B
:1041E00010031360126802F0100201920A6842F094
:1041F00001020A600A6802F0010201920A6842F0B4
:1042000002020A60096801F0020101914115029160
:10421000039404950597069602A9FEF731FE8020C7
:104220000290039404950597069602A91748FEF795
:1042300027FEC9E7DFF858C06245C5D11A6842F4C5
:1042400000321A601A6802F4003201920A6842F0E1
:1042500001020A60096801F0010101910C2102913B
:10426000039404950597069602A9FEF709FEABE7AD
:10427000004C00404038024000080240706002409C
:10428000400D0020001001400000024000040240E8
:104290000044004010B50023002A0DD090F84140A2
:1042A000202C0FD090F841408CB3416C41F020019C
:1042B00041640123184610BD416C41F02001416466
:1042C000012010BD0D291CD2DFE801F007090B0DFC
:1042D0000F1113151B1B1B1719008264EAE7C26438
:1042E000E8E70265E6E74265E4E78265E2E7C26582
:1042F000E0E70266DEE74266DCE70267DAE742678C
:10430000D8E7416C41F0200141640123D2E7FFE787
:104310000B2907D00C2907D0416C41F020014164E2
:104320000123C7E70267C5E74267C3E770477047E5
:1043300037B5044694F84100202801D002203EBD44
:10434000019919B312B32162A284E284002060644F
:10435000212384F84130A56B154BEB63A56B154BFE
:104360002B64A56B144BEB64A36B18652068134694
:10437000001DA56B02462846FEF738FD40B110200F
:104380006064202084F8410001203EBD01203EBD34
:1043900021686FF0400008602068143050E8001F6A
:1043A00041F0800140E80012002AF5D100203EBD16
:1043B0005F4C00089D4C0008134C00087047704784
:1043C00010B50F480D490160022141600021816054
:1043D000C1604FF4602202614FF4800242610176B5
:1043E00041768176C17601774177FEF7CBF90028D7
:1043F00003D0BDE81040FDF7A1BF10BD0064004030
:10440000B00A002010B50F480D490160022141603B
:1044100000218160C1604FF4602202614FF480028C
:104420004261017641768176C17601774177FEF768
:10443000A9F9002803D0BDE81040FDF77FBF10BDEB
:1044400000680040D80A002008B50948016841F416
:1044500000110160006800F40010009000220521A6
:104460000F20FEF79DFEBDE808400F20FEF78ABE34
:104470003038024010B5074A0021074802F040FBDF
:10448000064C2060034A00212432054802F038FB24
:10449000606010BDA084000875470008040000207B
:1044A00031210008F0B587B0142102A8FCF76FFB9A
:1044B00000242548016841F004010160016801F011
:1044C00004010191016841F080010160016801F07F
:1044D00080010191016841F001010160016801F072
:1044E00001010191016841F002010160006800F0E2
:1044F00002000190154F48F2010500222946384676
:10450000FEF7A8FD124E002208213046FEF7A2FD5C
:104510000295012503950494059402A93846FEF7F7
:10452000AFFCE80302900394049402A90948FEF743
:10453000A7FC0820029003950494059402A9304634
:10454000FEF79EFC07B0F0BD303802400008024084
:10455000000402400000024010B50C480A49016006
:1045600053214160002181604FF6FF72C2600161FA
:1045700080218161FFF7D0F9002803D0BDE8104009
:10458000FDF7DCBE10BD0000001C0040900B0020B9
:1045900010B58AB00024089409941C2101A8FCF7E6
:1045A000F6FA15484FF08041016044608460611E56
:1045B000C16004618461FFF706FC08B1FDF7BEFE2F
:1045C0000894099408A90C48FFF75EF908B1FDF7B3
:1045D000B5FE602001900294039405940C2201A979
:1045E0000548FFF784FB08B1FDF7A8FE0248FFF776
:1045F0003BFB0AB010BD0000000B002010B58EB0D0
:1046000000240A940B940C940D94089409941C2192
:1046100001A8FCF7BCFA2A4828490160446084607C
:104620004FF6FF71C16004618461FFF775F908B14D
:10463000FDF784FE4FF480500A900AA92048FFF746
:1046400001FA08B1FDF77AFE1D48FFF7BCFB08B17F
:10465000FDF774FE0894099408A91948FFF714F9A6
:1046600008B1FDF76BFE602001900294039405945D
:10467000002201A91248FFF73AFB08B1FDF75EFEE0
:10468000042201A90E48FFF732FB08B1FDF756FEE0
:10469000082201A90A48FFF72AFB08B1FDF74EFEE0
:1046A0000C2201A90648FFF722FB08B1FDF746FEE0
:1046B0000348FFF7D9FA0EB010BD00000004004017
:1046C000480B002010B50C480A4901600B494160B5
:1046D00000218160C16001610C2242618161C16180
:1046E000FFF7EAFC002803D0BDE81040FDF726BE26
:1046F00010BD0000004C0040D80B002040420F00CD
:1047000010B50C480A4901604FF4E13141600021C5
:104710008160C16001610C2242618161C161FFF76A
:10472000CBFC002803D0BDE81040FDF707BE10BD4C
:1047300000100140500C002010B50C480A490160DF
:104740004FF4E131416000218160C16001610C22C0
:1047500042618161C161FFF7AFFC002803D0BDE871
:104760001040FDF7EBBD10BD00440040C80C002018
:10477000FEE7FEE71CB54FF4FA60FEF76FFB8524F9
:1047800008E00CA0CDE90040104B11A216A10120B9
:1047900001F0BCFA00F08CFF0028F2D1164C4FF467
:1047A0007A7501212046FEF74DFC284602F06AF991
:1047B000F7E700004572726F72205768696C6520D8
:1047C00061707020696E697421000000E88400083F
:1047D0002E2E2F436F72652F5372632F667265659D
:1047E00072746F732E63000044454641554C545F0C
:1047F0005441534B000000000008024010B54FF038
:10480000E020006903F040FC012803D0BDE810401F
:1048100003F05AB910BD000030B593B0342106A89A
:10482000FCF7B5F9142101A8FCF7B1F900251E48E1
:10483000016841F080510160006800F080500090F4
:104840001A48016841F440410160006800F44040AA
:104850000090012006900004079002240C9480012F
:104860000D9006200E90A8200F9010940720119014
:10487000129406A8FEF704FE08B1FDF75FFD0F20B5
:104880000190029403954FF4A05004904FF480508F
:104890000590052101A8FEF7B5FC002801D0FDF721
:1048A0004DFD13B030BD00004038024000700040A4
:1048B0000548016841F47001016003494FF0006050
:1048C000803908607047000088ED00E00148FFF77C
:1048D0002EB90000A00D002030B40E480068016918
:1048E000C943C90714D1C168C943C90710D10A49CE
:1048F0000A684B684FF48034121943F100030A60D0
:104900004B606FF00101016130BC0248FFF794BABF
:1049100030BC7047900B0020400000202DE9F04192
:104920000268284D284E294FDFF8A4C0294B4FF0CC
:104930008048A84209D0404507D0B04205D0B842CF
:1049400003D0604501D0984203D122F070044A6838
:104950002243A8421BD0404519D0B04217D0B842DC
:1049600015D0604513D0984211D01B4CA0420ED0F8
:104970001A4CA0420BD01A4CA04208D0194CA042AD
:1049800005D0194CA04202D0184CA04203D122F409
:104990004074CA6822434C6922F0800222438C682A
:1049A000C4620C688462A84201D0984201D10969AE
:1049B0000163016841F0040101600121416102606D
:1049C000BDE8F08100000140000400400008004004
:1049D000000C004000040140004001400044014040
:1049E0000048014000180040001C0040002000402A
:1049F00010B5846824F47F4442EA03220A43224328
:104A0000826010BD826822F070020A4342F0070102
:104A100081607047F0B5056A026A22F00102026205
:104A20004368826922F0700222F003020C6814438A
:104A300025F002058A682A430E4E0F4FB04201D07E
:104A4000B84205D122F00805CA682A4322F00402C0
:104A5000B04201D0B84207D123F4807323F400732D
:104A60004D691D438B692B434360846149684163F1
:104A70000262F0BD0000014000040140F0B5026A8E
:104A8000036A23F0100303624368846924F4E0445A
:104A900024F440740D6844EA052422F020028D6855
:104AA00042EA0512104D114EA84201D0B04206D183
:104AB00022F08002CF6842EA071222F04002A842A8
:104AC00001D0B04209D123F4806323F400634D691F
:104AD00043EA85038D6943EA85034360846149683D
:104AE00081630262F0BD000000000140000401404B
:104AF000F0B5026A036A23F4807303624368C469F1
:104B000024F0700424F003050C682C4322F4007296
:104B10008D6842EA0522104D104EA84201D0B042E5
:104B200006D122F40062CF6842EA072222F48062B2
:104B3000A84201D0B04209D123F4805323F400539A
:104B40004D6943EA05138D6943EA05134360C46167
:104B50004968C1630262F0BD0000014000040140E9
:104B600030B5036A026A22F4805202624268C46964
:104B700024F4E04424F440740D6844EA052423F44A
:104B800000538D6843EA0533084DA84202D0084D12
:104B9000A84204D122F480424D6942EA8512426063
:104BA000C46149680164036230BD00000000014037
:104BB0000004014010B5036A046A24F00104046291
:104BC000846924F0F00444EA021423F00A020A4340
:104BD0008461026210BD10B5036A046A24F01004F7
:104BE0000462846924F4704444EA023223F0A0038E
:104BF00043EA01118261016210BD00000148FFF724
:104C00002BB90000D80B0020806B0021C185816D7D
:104C1000084770B5846B20684069C0F3C01094F8F1
:104C200041100025212904D118B1E584204600F067
:104C30006CF820684069C0F3801094F84210222973
:104C400004D118B1E585204600F02BF8606C40F0E7
:104C5000100060642046A16DBDE870400847014621
:104C6000886B09680968C90516D40021C1840168E8
:104C7000143151E8002F22F0800241E80023002B7C
:104C8000F5D101680C3151E8002F42F0400241E8B3
:104C90000023002BF5D17047C16C0847806B816CF5
:104CA000084701680C3151E8002F22F4907241E866
:104CB0000023002BF5D10168143151E8002F22F0B8
:104CC000010241E80023002BF5D1016B012909D134
:104CD00001680C3151E8002F22F0100241E8002356
:104CE000002BF5D1202180F842100021016370478C
:104CF00010B50168CA6822F04002CA60202180F81D
:104D00004110C16C8847002010BD01680C3151E88A
:104D1000002F22F0C00241E80023002BF5D1202112
:104D200080F8411070470000094981640949C16455
:104D30000949016509494165094981650949C16513
:104D400009490166094941660949C1667047000081
:104D5000BF430008BD4300082F4300082D4300084F
:104D6000573E0008513E0008553E0008533E0008DB
:104D70004F3E000808B590F84210222901D00220C9
:104D800008BD82684FF480539A4201D1016921B174
:104D9000816A9A421DD052B10BE0816A0268526862
:104DA000C2F308020A80816A891C816209E00269F3
:104DB0007AB10268526802F07F020A70816A491C67
:104DC0008162C18D491E0904090CC18505D00020EE
:104DD00008BD026852680A70F0E70168CA6822F0EC
:104DE0002002CA600168CA6822F48072CA60016841
:104DF0004A6922F001024A61202180F84210002114
:104E00004163026B012A03D0416D8847002008BD31
:104E1000016301680C3151E8002F22F0100241E8D3
:104E20000023002BF5D101680A68D20602D50A6872
:104E300049680091C26E818D9047E7E72DE9F04106
:104E4000044620680169E26821F440511143016180
:104E5000A1682069E2690143606910430143206849
:104E6000C26849F20C639A430A43C26020684169F0
:104E7000A26921F44071114341613349206888429D
:104E800002D03249884202D1FEF796FA01E0FEF7DD
:104E900083FAE1690023192764253226B1F5004F12
:104EA00028D061688B0F8A00A0FB0701FBF7B7FAD7
:104EB0000146B0FBF5F07A42504301EB800006EB6F
:104EC0000010B0FBF5F000F0F002B1FBF5F002EBE2
:104ED0000012B1FBF5F07B42584301EB800006EB7A
:104EE0000010B0FBF5F0216800F00F00104488605E
:104EF000BDE8F08161684A18A0FB07015B41FBF740
:104F00008EFA0146B0FBF5F00201B1FBF5F06FF04F
:104F10001803584301EB800006EBC000B0FBF5F02E
:104F200000F0F80002EB4002B1FBF5F0584301EB52
:104F3000800006EBC000B0FBF5F0216800F0070030
:104F400010448860D4E700000010014000140140C4
:104F500090F84110212901D0022070478168B1F5F5
:104F6000805F01D1016961B1016A4A1C0262026875
:104F700009785160C18C491E0904090CC1840AD00A
:104F800013E0016A02680988C1F308015160016AEF
:104F9000891C0162EEE70168CA6822F08002CA60DB
:104FA0000068C16841F04001C16000207047000006
:104FB00010B50A4940F6E802A1F19C0001F07AFC24
:104FC000064980228039A1F1380001F073FCBDE868
:104FD0001040034A01210348FFF75CB99801002003
:104FE0002D560008D80B002010B50A46014603488C
:104FF00001F0A8FCBDE8104000F002B8FC00002061
:105000002DE9F84F0024EFF31080009072B6F94DAF
:105010002868002870D1F84801F024FC294608606F
:10502000002869D0F5480068016821F0010101609D
:10503000F248F44AF24BF34CF14DF24EF04F006857
:10504000DFF8BCE3DFF8BCC3DFF8B483DFF8B49368
:10505000A83A483B483C1835903E303F4FF4006139
:105060004FF4001A4FF0006BACF1300C08F130082F
:10507000704537D9904201D120212CE0984201D1CE
:10508000202128E0A04201D1202124E0A84201D122
:10509000202120E0B0421ED0B8421CD060451AD07A
:1050A000404518D0D7497839884201D1514612E09D
:1050B000D3491839884201D151460CE0D1491839F9
:1050C000884201D1514606E0CD494831884201D19C
:1050D000514600E05946DFF828A3AAF14C0ACAF865
:1050E0000010AFE0484538D9904201D120212DE091
:1050F000984202D1202129E087E2A04201D120215B
:1051000024E0A84201D1202120E0B0421ED0B842C4
:105110001CD060451AD0404518D0BA497839884229
:1051200001D1514612E0B6491839884201D15146A1
:105130000CE0B4491839884201D1514606E0B04923
:105140004831884201D1514600E05946DFF8B0A20B
:10515000AAF1500ACAF8001074E0DFF8A8E2AEF134
:10516000600E704537D9904201D120212CE0984241
:1051700001D1202128E0A04201D1202124E0A84231
:1051800001D1202120E0B0421ED0B8421CD06045A1
:105190001AD0404518D09B497839884201D15146F0
:1051A00012E097491839884201D151460CE09549DF
:1051B0001839884201D1514606E091494831884268
:1051C00001D1514600E05946DFF838A2AAF1B80AE9
:1051D000CAF80C1036E0904201D120212CE0984210
:1051E00001D1202128E0A04201D1202124E0A842C1
:1051F00001D1202120E0B0421ED0B8421CD0604531
:105200001AD0404518D07F497839884201D151469B
:1052100012E07B491839884201D151460CE07949A6
:105220001839884201D1514606E075494831884213
:1052300001D1514600E05946DFF8C8A1AAF1B80AE9
:10524000CAF80810DFF8B8E14FF480614FF4801A13
:105250004FF0806B704537D9904201D110212CE07E
:10526000984201D1102128E0A04201D1102124E070
:10527000A84201D1102120E0B0421ED0B8421CD07B
:1052800060451AD0404518D05E497839884201D12E
:10529000514612E05A491839884201D151460CE072
:1052A00058491839884201D1514606E054494831DD
:1052B000884201D1514600E05946DFF844A1AAF1E5
:1052C0004C0ACAF80010B6E0484537D9904201D1DF
:1052D00010212CE0984201D1102128E0A04201D1F8
:1052E000102124E0A84201D1102120E0B0421ED0BC
:1052F000B8421CD060451AD0404518D04149783991
:10530000884201D1514612E03D491839884201D105
:1053100051460CE03B491839884201D1514606E01C
:1053200037494831884201D1514600E05946DFF8FB
:10533000D0A0AAF1500ACAF800107CE0DFF8C4E05F
:10534000AEF1600E704537D9904201D110212CE0AA
:10535000984201D1102128E0A04201D1102124E07F
:10536000A84201D1102120E0B0421ED0B8421CD08A
:1053700060451AD0404518D022497839884201D179
:10538000514612E01E491839884201D151460CE0BD
:105390001C491839884201D1514606E01849483164
:1053A000884201D1514600E05946DFF858A0AAF1E1
:1053B000B80ACAF80C103EE0904201D1102134E046
:1053C000984201D1102130E0A04201D110212CE0FF
:1053D000A84201D1102128E0B04226D0B84224D002
:1053E000604522D0404520D00649783988420BD10B
:1053F00051461AE000000020FC000020400D002073
:1054000058640240B86002408349884201D1514645
:105410000BE08249884201D1514606E07E49603165
:10542000884201D1514600E05946DFF8F0A1AAF1C7
:10543000A00ACAF80810DFF8E0E14FF400710EF19D
:10544000180E4FF4002A4FF0007B704532D990427D
:1054500001D108212AE0984201D1082126E0A0428A
:1054600001D1082122E0A84201D108211EE0B0426A
:105470001CD0B8421AD0604518D0404516D06749B4
:105480006039884201D1514610E06349884201D118
:1054900051460BE06149884201D1514606E05E4920
:1054A0006031884201D1514600E059465A483438AB
:1054B00001609FE0484532D9904201D108212AE09D
:1054C000984201D1082126E0A04201D1082122E022
:1054D000A84201D108211EE0B0421CD0B8421AD027
:1054E000604518D0404516D04C496039884201D1FA
:1054F000514610E04849884201D151460BE04749E6
:10550000884201D1514606E043496031884201D1C9
:10551000514600E059464048383801606AE0DFF8FB
:10552000FC90A9F14809484532D9904201D108219F
:105530002AE0984201D1082126E0A04201D10821A9
:1055400022E0A84201D108211EE0B0421CD0B8429E
:105550001AD0604518D0404516D03049603988428D
:1055600001D1514610E02C49884201D151460BE04F
:105570002A49884201D1514606E0274960318842D4
:1055800001D1514600E059462448A038C16031E0BD
:10559000904201D108212AE0984201D1082126E059
:1055A000A04201D1082122E0A84201D108211EE039
:1055B000B0421CD0B8421AD0604518D0404516D031
:1055C00016496039884201D1514610E0124988429B
:1055D00001D151460BE01149884201D1514606E004
:1055E0000D496031884201D1514600E059460B48CF
:1055F000A03881600A4801F01FF901460948006897
:1056000082B20948FEF794FE0124009880F31088C6
:105610002046BDE8F88F000040640240A0600240D0
:10562000FC00002000000020D80B002010B5054C25
:105630002168054801F056F900202060BDE81040BF
:10564000FFF7DEBC00000020FC000020FEE703B4F2
:1056500001984100009850EAC12018BF04204A0D6B
:1056600018BF40F0010040F2FF72B2EB515F08BF7B
:1056700040F00200012808BF052002B0704709076A
:10568000090E002804DB00F1E02080F800147047C8
:1056900000F00F0000F1E02080F8141D7047303852
:1056A0000A2801D20120704700207047704700008F
:1056B0001CB5FFF77DFCFCF723FD01F0B0F901F00C
:1056C0005DF8044608A20AA10BA000F0CFF94CB97E
:1056D0000CA11B22CDE90021104B11A215A1032022
:1056E00000F014FB20461CBD56302E312E30000039
:1056F00056312E302E300000436D4261636B747260
:105700006163650061707020696E697420737563F0
:1057100065737366756C6C7921000000D88600088B
:105720002E2E5C6170705C6170705F696E69742EA2
:10573000630000004150505F494E49540000000092
:105740002DE9F05F074689461546DFF8B4B0DBF86F
:1057500008000024DBF80C20A0465B469BF80110F3
:105760009B78002916D0ABB9264901248E693E608A
:105770004969491EDBF81060B1420BD3DBF814C055
:1057800066448E4206D3B9F1010F03D90224796031
:105790004FF001083BB1854201D2054603E0811874
:1057A000A94200D20D4600EB020A23E02E68301F0A
:1057B000C0071ED0761EDBF81000011D8E4218D3E4
:1057C000DBF814100844B04213D3102C11D2301F50
:1057D00000F088F968B14C450BD2022C05D1B8F124
:1057E000000F02D07868B04203D02046641C47F80E
:1057F00020602D1DAA45D9D82046BDE8F09F0000A5
:1058000048000020541100202DE9F0478EB00646D4
:105810000C4620225C4906A8FBF75DF95B4FBD688A
:10582000D7F80C90387858B1787898B1564A58A182
:10583000143A5AA001F012F960A001F00FF9FEE746
:10584000514A5FA1143A55A001F008F95BA001F09C
:1058500005F9FEE74FF0010A87F801A05AA001F010
:10586000FDF856A001F0FAF800F0EAF8DFF8188128
:10587000A8F1C008D8F82C0001F0F0F84FA001F012
:10588000EDF804F12001304601F06EFE0646AE420E
:1058900003D305EB0900B04201D287F802A03246DB
:1058A0004946284600F032F9B878484D00283FD1E3
:1058B000D8F8300001F0D2F840A001F0CFF8276806
:1058C0002F6060686860A168A960E268EA60236987
:1058D0002B6163696B61A369AB61E369EB61DDE92E
:1058E0000843CDE90141CDE90332DDE9061300901B
:1058F0003A4637A001F0B2F830A001F0AFF8AA693B
:10590000E8690D990C9BCDE90132CDE90310686976
:1059100000900B9B2A692EA00A9901F09FF827A0FE
:1059200001F09CF835A001F099F824A001F096F858
:105930004248006845F8200F4048001D0078287153
:105940003E4810300068A8603C48401D007828732D
:105950003A481430006828613848801D0088A882C1
:10596000364808300068A86134480C300088E86187
:10597000324818300088286200F06CFD304601F093
:105980001DF90EB0BDE8F087B88600084800002079
:10599000216F6E5F6661756C7400000028257329A5
:1059A0002068617320617373657274206661696C2D
:1059B00065642061742025732E0000000D0A00002C
:1059C000696E69745F6F6B00000000005411002065
:1059D000202025733A2025303878202025733A205E
:1059E00025303878202025733A202530387820203B
:1059F00025733A2025303878000000003D3D3D3DBC
:105A00003D3D3D3D3D3D3D3D3D3D3D3D3D3D3D3DC6
:105A10003D3D3D3D3D3D3D3D3D3D3D3D3D3D3D3DB6
:105A20003D3D3D3D3D3D3D3D3D3D3D3D3D3D3D3DA6
:105A30003D3D3D3D3D3D3D3D3D3D000024ED00E013
:105A400010B50748074BA3F120024068A2F12001DE
:105A500001F004F8BDE8104003A000F0FFBF000013
:105A6000F8850008A41000200D0A000070B50D464E
:105A70001446014620221348FBF7B0F811482022B3
:105A800029462030FBF7AAF80E4820222146403054
:105A9000FBF7A4F80D4A0C4890600D49081AD06035
:105AA0000C4911610C4B591A516110B10120107051
:105AB00070BD0A48006800F0D1FFBDE8704008A042
:105AC00000F0CCBF64100020D05E00204800002011
:105AD000D06600200000000860920008F8850008E9
