:020000040800F2
:10000000906B0020D1030008215300081104000860
:100010001D530008E5200008B56800080000000036
:1000200000000000000000000000000011030008B4
:100030006F260008000000006D030008A9530008A7
:10004000EB030008EB030008EB030008EB030008D8
:10005000EB030008EB030008EB030008EB030008C8
:10006000EB030008EB030008EB030008EB030008B8
:10007000EB030008EB030008EB030008552500081C
:10008000EB030008EB030008EB030008EB03000898
:10009000E9200008EB030008EB030008EB0300086D
:1000A000EB030008EB030008EB030008EB03000878
:1000B000EB030008EB030008EB030008EB03000868
:1000C000EB030008EB030008EB030008EB03000858
:1000D000EB030008615D0008EB030008EB03000878
:1000E000EB030008EB030008EB030008EB03000838
:1000F000A554000895540008EB030008EB03000822
:10010000EB030008EB030008EB030008EB03000817
:1001100001580008EB030008EB030008EB0300089C
:10012000EB030008EB030008EB030008EB030008F7
:10013000EB0300080000000000000000EB030008D3
:10014000F9200008EB030008EB030008EB030008AC
:10015000EB030008EB030008EB030008EB030008C7
:10016000EB030008EB030008EB030008EB030008B7
:10017000EB030008EB030008EB030008000000009D
:1001800000000000EB030008000000000000000079
:10019000EB0300080000000000000000EB03000873
:1001A000000000000000000000000000EB03000859
:1001B000EB030008EB030008EB030008EB03000867
:1001C000EB03000800F002F800F092F80AA090E8B3
:1001D000000C82448344AAF10107DA4501D100F002
:1001E00087F8AFF2090EBAE80F0013F0010F18BF3D
:1001F000FB1A43F001031847A0C40000C0C400006C
:10020000103A24BF78C878C1FAD8520724BF30C842
:1002100030C144BF04680C60704700000023002414
:1002200000250026103A28BF78C1FBD8520728BF06
:1002300030C148BF0B6070476E2900F0AE85702951
:1002400000F0B98266290BF08B8365290BF0888357
:1002500067290BF0858361290BF0848303681B0AEF
:1002600028BF41F08001692900F0EC81642900F089
:10027000E981752900F0E6816F2900F05E86782912
:1002800000F08582E92900F01982E42900F0168245
:10029000F52900F01382EF2900F05B86F82900F0C1
:1002A00084820368DB0928BF41F08001632900F0E4
:1002B000B885732900F0BD85E32901F0ED81F329AC
:1002C00001F0F281002070471FB50BF044FB01F0F4
:1002D0003DFA0400002000210BF0B4F9401C6060DE
:1002E000002000210BF098F9E0601FBD10B510BD93
:1002F00001F0FEF91146FFF7E7FF08F0DBFD01F022
:10030000DBFA03B4FFF7F2FF03BC06F06DFB00005D
:100310002C4B19680868B0E8F04F80F30988BFF3E8
:100320006F8F4FF0000080F31188704700000000CD
:1003300008480068006880F308884FF0000080F3E8
:10034000148862B661B6BFF34F8FBFF36F8F00DFC3
:1003500000BF00BF08ED00E0DFF80C00016841F4C9
:1003600070010160704700BF88ED00E0EFF3098085
:10037000BFF36F8F134B1A681EF0100F08BF20EDEC
:10038000108A20E9F04F106009B44FF0500080F35C
:100390001188BFF34F8FBFF36F8F0AF00BFA4FF046
:1003A000000080F3118809BC19680868B0E8F04FB4
:1003B0001EF0100F08BFB0EC108A80F30988BFF35D
:1003C0006F8F70477C000020EFF3058070470000BE
:1003D0000948804709480047FEE7FEE7FEE7FEE7D9
:1003E000FEE7FEE7FEE7FEE7FEE7FEE70448054915
:1003F000054A064B7047000079540008C501000803
:10040000905F0020906B002090630020906300209C
:100410007046694607F0D2FAFFF7FEFF704753EACD
:10042000020C00F069802DE9F04B4FF00006002B24
:100430001FBFB3FA83F503FA05F424FA05F65E400C
:1004400012BF1643B2FA82F502FA05F4C5F120058F
:100450001EBF22FA05FC44EA0C04203556EA044C7F
:100460004FEA144418BF641C4FF000084FF0000915
:10047000904271EB030C39D3002919BFB1FA81F70F
:1004800001FA07F6B0FA80F700FA07F6C7F120077D
:100490001EBF20FA07FC46EA0C062037B6FBF4FC28
:1004A000A7EB0507103F07F01F0BCBF120060CFA56
:1004B0000BFB2CFA06F644BFB3460026202FA4BF40
:1004C0005E464FF0000B5BEA060C08BF4FF0010BD5
:1004D00019EB0B09ABFB027C48EB0608C01B06FBC3
:1004E00002CC0BFB03CC71EB0C01C1E70B460246BF
:1004F00041464846BDE8F08B13B54FF000004FF081
:100500000001AFF30080BDE81C4070477CB51D467C
:1005100016460C00009001D02044401E074B7B443F
:100520002A4669460190304600F051FC05461CB150
:100530000020694600F05EFC28467CBDDD08000016
:100540000FB41CB5084B06AA7B4469460090059879
:1005500000F03DFC04460020694600F04BFC2046BC
:100560001CBC5DF814FB0000A90800000FB47CB5AA
:100570000C0009AA009001D02044401E084B7B4487
:1005800069460190089800F022FC05461CB1002045
:10059000694600F02FFC28467CBC5DF814FB000087
:1005A0007D08000070B5044685690068C10601D564
:1005B000302600E02026C00707D070BDD4E9012115
:1005C00030469047206A401C20626D1EF6D570BDF3
:1005D00070B5044685690078C00707D170BDD4E9BD
:1005E000012120209047206A401C20626D1EF6D514
:1005F00070BD70B50C460546012A05D028788006E6
:1006000000D5EA69002302E0012305E05B1C934268
:1006100002D2E05C0028F9D1A869E618C01AA861E6
:10062000286A184428622846FFF7BCFF04E0D5E991
:10063000012114F8010B9047B442F8D32846FFF784
:10064000C7FF70BD2DE9F0410646002410687529EA
:10065000314616A510D000F035FB002802DA4042E2
:1006600013A507E031688A0701D512A502E0490702
:1006700004D511A5012401E000F02DFB00210A2280
:1006800006F1240709E0B0FBF2FCB0FBF2F302FB39
:100690001C00303078541846491C0028F3D12346FA
:1006A0002A463046BDE8F04100F01EBB00000000C5
:1006B0002D0000002B000000200000002DE9F0417B
:1006C0008046D21D22F007020025D2E90002F5295A
:1006D00015A614D0011E72F1000106DA0023D0EB3A
:1006E000030063EB020211A608E0D8F800108B07A4
:1006F00001D50FA602E0490701D50EA60125114636
:10070000002408F1240704E000F097FA30323A554B
:10071000641C50EA0102F7D12B463246214640467E
:10072000BDE8F04100F0E0BA000000002D0000003C
:100730002B00000020000000F0B40D4601880905E0
:1007400002D5214C7C4402E01F4C7C440E34002135
:1007500000F1240608E002F00F071209E75D42EA03
:1007600003721B097754491C52EA0307F3D102783C
:100770000023120704D5702D06D009B102231134CD
:100780002246F0BC00F0B0BA01231034F8E770B58F
:1007900004460D462146106800F09DFA024629469F
:1007A0002046BDE870400023C6E7D21D22F00703B3
:1007B000D3E90023C0E70368126843F02003036015
:1007C0000823C3610023B7E713B500002DE9F05FEC
:1007D000894604464FF0000ADFF874B1FB44C0F8C4
:1007E00020A02046E1688847002874D0252806D03C
:1007F000D4E901219047206A401C2062F1E70026DD
:100800005F462046E16888472028054607DB312DF2
:1008100005D2781910F8200C08B10643F1E7B007AB
:1008200001D526F00406C4F81CA00027C4F818A0BF
:100830002A2D09D0284606F0D0F838B304EB8708F3
:10084000303DC8F8185019E059F8041B204604EB55
:1008500087029161E1688847012F054618D1E06958
:10086000002820DA26F020061DE0D8F8180000EB5A
:10087000800005EB40003038C8F818002046E168D9
:100880008847054606F0A9F80028EED1012F0AD0C6
:100890002E2D08D12046E16888477F1C0546022F8F
:1008A00046F02006C4DBA069002803DA404246F087
:1008B0000106A061F00701D026F010066C2D0BD0C8
:1008C000682D09D04C2D39D06A2D35D0742D35D0F6
:1008D0007A2D33D016E038E0E1682F46204688476D
:1008E000B842054609D16C2F26D04FF48060E168EC
:1008F000064320468847054604E06C2F1AD04FF483
:10090000807006430DB3A5F14100192802D82035A7
:1009100046F400664A462946204626604E46FFF7C2
:100920008BFC80B101280BD0F61D26F0070000F1EA
:10093000080956E74020E4E78020D8E70020D6E702
:1009400006F104094DE7284652E7206ABDE8F09F0A
:10095000A3B4000030B505460B462A4613F8014BF8
:1009600012F8010B08B1A042F8D01CB1002802D047
:100970006D1CF1E7284630BD10B5431C02E010F8AD
:10098000011B71B18107FAD14FF0013202C88C1AF4
:100990008C4314EAC211F9D0C01A0A0603D0C01E53
:1009A00010BDC01A10BD0A0401D0801E10BD09027E
:1009B000FCD0401E10BD40EA010370B59B072ED14C
:1009C0004FF00136042A2AD308C810C99D1B9D4345
:1009D000121F15EAC61517D0D8B2E1B2401A50EA74
:1009E000056110D198B2A1B2401A50EA05410AD16E
:1009F00023F07F4024F07F41401A50EA052102D1C4
:100A0000180EA0EB146070BDA342DBD018BA21BA57
:100A1000884201D9012070BD4FF0FF3070BD0AB986
:100A2000002070BD10F8013B11F8014B63B1A342E7
:100A30000AD1521E08D010F8013B11F8014B1BB12E
:100A4000A34201D1521EEDD1181B70BD032A40F202
:100A5000308010F0030C00F0158011F8013BBCF160
:100A6000020F624498BF11F801CB00F8013B38BF78
:100A700011F8013BA2F1040298BF00F801CB38BF86
:100A800000F8013B11F0030300F02580083AC0F0A4
:100A9000088051F8043B083A51F804CBA0E808104C
:100AA000F5E7121D5CBF51F8043B40F8043BAFF37F
:100AB0000080D20724BF11F8013B11F801CB48BFD9
:100AC00011F8012B24BF00F8013B00F801CB48BF0F
:100AD00000F8012B704710B5203AC0F00B80B1E848
:100AE0001850203AA0E81850B1E81850A0E8185063
:100AF000BFF4F5AF5FEA027C24BFB1E81850A0E86C
:100B0000185044BF18C918C0BDE810405FEA827C85
:100B100024BF51F8043B40F8043B08BF7047D2079C
:100B200028BF31F8023B48BF11F8012B28BF20F83D
:100B3000023B48BF00F8012B704702F0FF0343EA75
:100B4000032242EA024200F002B84FF000020429F8
:100B5000C0F0128010F0030C00F01B80CCF1040CEC
:100B6000BCF1020F18BF00F8012BA8BF20F8022B20
:100B7000A1EB0C0100F00DB85FEAC17C24BF00F8C6
:100B8000012B00F8012B48BF00F8012B70474FF0F4
:100B9000000200B5134694469646203922BFA0E8CD
:100BA0000C50A0E80C50B1F12001BFF4F7AF0907D9
:100BB00028BFA0E80C5048BF0CC05DF804EB8900CA
:100BC00028BF40F8042B08BF704748BF20F8022B0D
:100BD00011F0804F18BF00F8012B704710B5044684
:100BE00010F0030F08BF11F0030F40F015804FF015
:100BF000013E121FC0F20E8051F8043BA3EB0E0C15
:100C00002CEA030C1CEACE1C08BF40F8043BF0D0D1
:100C1000A1F1040102F10402521E08DB11F8013BAC
:100C2000002B00F8013BF7D11146FFF78EFF20465D
:100C300010BD704770477047704730B5B0F10A0279
:100C40004FEA900E71F100034EEA817EB0EB0E0088
:100C500061EB91014FEA101E4EEA017E10EB0E008F
:100C600041EB11114FEA102E4EEA016E10EB0E000F
:100C700041EB11214FEA104E4EEA014E10EB0E00EF
:100C800041EB1141401841F100014FEAD00040EA28
:100C900041704FEAD10110EB80054FEA810444EA2C
:100CA000907444EB01046D1944EB0404521BA341FE
:100CB0004FF0000348BF0A3200D530BD401C41F15F
:100CC000000130BD09684A0501D540B27047C90529
:100CD000FCD500B2704709684A0501D5C0B270471B
:100CE000C905FCD580B270472DE9F0470D469946FD
:100CF0009246044600F124080168880604D5E0699C
:100D000021F01001216000E00120A84201DD471B15
:100D100000E00027A1697A1902EB0900081AA06116
:100D20002078C00602D42046FFF73CFC002608E0ED
:100D3000D4E901211AF806009047206A401C761C6D
:100D400020624E45F4DB2078C0060AD52046FFF726
:100D500029FC06E0D4E9012130209047206A401C9C
:100D60002062381EA7F10107F4DC07E0D4E9012175
:100D700018F805009047206A401C2062281EA5F143
:100D80000105F3DC2046FFF723FC2078000602D59E
:100D90000220BDE8F0870120FBE711680268006AC5
:100DA000530501D508700AE0D30501D5088006E097
:100DB000130603D5C217C1E9000200E00860012054
:100DC0007047000001694A1C02610878704700B54D
:100DD0008FB0CDE901310021059105497944CDE974
:100DE000031011466846FFF7F1FC0FB000BD00008C
:100DF000E5FFFFFF0A6802F8010B0A607047D1E9BE
:100E000000239A4202D2531C0B601070704710B539
:100E1000436913B1AFF3008001E0FFF7EAFB012063
:100E200010BD127800F124010A7000224A700122DC
:100E3000EDE711684FF0FF32E9E700002DE9FF5FB1
:100E400015468A460446DFF8AC80F8440027D8E906
:100E500000103E46CDE9001010E03AF816106A4640
:100E600002A800F025FC411C07D02178890603D593
:100E7000E269391891420DD80744761C2078800623
:100E800002D5E069B84205DDAE42E6DB3AF816006D
:100E90000028E2D1A069C01BA0612046FFF782FBB9
:100EA000D8E90010CDE90010002017E03AF818103A
:100EB0006A4602A800F0FCFBB0F1FF3F81460BD070
:100EC00000250DF1080B05E0D4E901211BF8050010
:100ED00090476D1C4D45F7D308F10100B0428046A4
:100EE000E4DB206A384420622046FFF771FBBDE84E
:100EF000FF9F000046AE000030B4002100F1240442
:100F000008E002F00705D208303542EA4372DB08F8
:100F10006554491C52EA0305F3D10468002310A26A
:100F2000250707D5A40600D421B1C46901230DA269
:100F3000641EC46130BCFFF7D7BE10B5044621461D
:100F40001068FFF7C8FE02462046BDE810400023A7
:100F5000D2E7D21D22F00701D1E90023CCE700003F
:100F6000000000003000000070472DE9FF4F0C46E4
:100F70001E464FF0FF378BB0D2E90001DDF86080EC
:100F80000A908A46C1F30A5505B93D460021084634
:100F90004FF00000BAF1000F00F4400005DA00EB5A
:100FA00080004FF4400101EA50004FEA9059B9F136
:100FB000010F00DDB9460A9850EA4A000ED044F607
:100FC0001050A5F2FF3545432F14B8F1000F1ED085
:100FD0007542291E1EDDC9F100021CE0B8F1010FA7
:100FE0004FF0000001D0302103E0F24305E021542E
:100FF000401CB042FBDB30460022002121540B99FB
:10100000C1F80880C1E900200FB0BDE8F08FBD1B1A
:101010006D1CDEE74A4600DA694206A800F0DAFBFA
:1010200006AB93E8070003AB83E8070050460A9934
:1010300000F090FC8DE80700A0F500501F380090EC
:101040000398002D0ADD42F21F014A46084400239E
:1010500003A90390684600F0F9FE09E0A0F50050EE
:101060004A461F38002303A90390684600F003FF97
:101070008DE807000004000C03D04FF0FF3041085A
:1010800000E01046B8F1000F03D000220092154690
:101090001EE0751E05D4FFF7D0FD303262556D1E7F
:1010A000F9D5B3460122084302D000227F1C04E098
:1010B0002078302801D100227F1E002A099784D091
:1010C0001DE0112D07DAFFF7B8FD303262556D1CB7
:1010D00050EA0102F5D1084302D00098C8B10EE0F1
:1010E0000021681E05E0235C625C63542254401EAC
:1010F000491C8142F7DBAB46A81B401E099000202B
:1011000004F80B000B98099AC0F80880C0E9002B7E
:101110007AE711264FF0000857E72DE9F04F88468F
:101120000446D21D22F0070191B0D1E90001CDE9BA
:101130000A0105F0C1FB02460B98C00F01D02D201B
:1011400007E02068810701D52B2002E0202101EA79
:10115000C000032A099001D0072A05DB0346414657
:10116000204600F0F7FA0BE12078800601D5E0690F
:1011700000E00620B8F1650F814606D0B8F1660F91
:1011800018D0B8F1670F70D131E00020B9F1110F1C
:10119000009001DB112301E009F101030AAA01A972
:1011A0000CA8FFF7E2FEDDE90C70002609F101054D
:1011B000834647E001204B4600904FF000470AAAC3
:1011C00001A90CA8FFF7D1FEDDE90DB00C995D4631
:1011D000002610B909F101000D18B9EB050003D480
:1011E000C0F1FF3609F10105A5EB09002BE0B9F1CB
:1011F000010F01DA4FF001090020B9F1110F009041
:10120000484601DD112300E003460AAA01A90CA803
:10121000FFF7ABFEDDE90C704D46002683462078D3
:1012200000070AD4AB4500DA5D4601A8012D04DDB4
:10123000411911F8011C302907D04F4502DA17F186
:10124000040F04DA012082460FE06D1EEEE7002F46
:1012500002DCED1B3E4403E0781CA84200DD7D1C4F
:10126000B81B00F1010A4FF000472078000703D4B3
:10127000AA4501DB4FF0FF3A0021B7F1004F0DF115
:1012800043088DF8431024D002202B23002F01DACD
:101290007F422D230A21021EA0F1010000DC5FB174
:1012A00097FBF1FC97FBF1F201FB1C7C17460CF15C
:1012B000300C08F801CDEEE7A8F101000370218899
:1012C000090501D5452100E06521A0F1010800F8DC
:1012D000011C09980FA9A1EB0807FF1D00B101200F
:1012E000411901EBEA70A1693844081A401EA06157
:1012F0002078C00602D42046FFF754F9099828B197
:10130000D4E901219047206A401C20622078C00661
:1013100022D52046FFF746F91EE0002E04DBB34538
:1013200002DD01A8805D00E03020D4E90121904772
:10133000206A401C2062761CAAF101005FEA000AC4
:101340000AD100F003FAC0680168405CD4E90121C9
:101350009047206A401C2062281EA5F10105DCDCB4
:1013600007E0D4E9012118F8010B9047206A401CDE
:101370002062381EA7F10107F3DC2046FFF728F9A9
:10138000032011B041E600002DE9F04F04460D4660
:10139000D21D22F0070089B0D0E9009748463946AF
:1013A00005F08AFA0246F80F01D02D2307E02068E5
:1013B000810701D52B2302E0202101EAC0038DF82B
:1013C00020300BB1012000E00020032A824601D02A
:1013D000072A04DB2946204600F0BCF93FE12078CB
:1013E000800601D40D2500E0E569C7F30A560D2DEE
:1013F00049DA00214FEA175B08464FF00000002F42
:1014000000F4400007DA00EB80004FF4400100EBED
:10141000D07001EA60008115012901DD4FF0FF3134
:1014200000224FEA850CBCF1180F06D31346ACF12D
:1014300018004FF08052C24003E04FF4801323FAAB
:101440000CF30CF10C0CBCF1200F04D3ACF1200C0C
:1014500009FA0CF001E007FA0CF000294FF00048FF
:1014600001DD18B90FE00ED140450CD319EB02098C
:101470005F4121B9404502D19F4329EA0209BBEBF4
:10148000175F00D0761C2088000502D57B48784481
:1014900002E07A487844193808AA302302F80A3062
:1014A000037C0AF10101002E0AF1020A53546A4634
:1014B00002DC4FF0300101E04FF031014FF0010844
:1014C0008DF8001002D0A6F2FF3603E059EA47017A
:1014D00000D06B4E002D02DC2178090704D54FF0B7
:1014E00002082E218DF80110C44600210BE0C7F33D
:1014F00003433F01C35C491C6D1E02F808300529F7
:1015000008F1010801DA002DF1DC00210CE000EB0C
:101510001973491C1B786D1E082902F808304FEA20
:10152000091908F1010801DA002DF0DC21688B06A9
:1015300002D516E0A8F10108E04505DD02EB08033D
:1015400013F8013C302BF5D0B8F1000F09DD02EBA8
:10155000080313F8013C2E2B03D1090701D4A8F18D
:101560000108002D05DD3E2102F808106D1E08F16E
:101570000108407C002E02F8080008F1010804DA96
:101580002D20764202F8080002E02B2002F8080025
:101590000A214FF47A70864208F101080BDB96FBB2
:1015A000F0F3303302F8083096FBF0F308F101084D
:1015B00000FB136601E0642E0CDB642096FBF0F365
:1015C000303302F8083096FBF0F308F1010800FB15
:1015D000136601E00A2E06DB96FBF1F0303002F8CC
:1015E000080008F1010896FBF1F001FB10603030B3
:1015F00002F80800A16908F1010808EB050202EBF6
:101600000A00081AA0612078C00602D42046FEF71E
:10161000C9FF216A08AE01EB0A00206204E0D4E9A8
:10162000012116F8010B9047BAF1010AF7D2207890
:10163000C00602D52046FEF7B5FF6E4609E016F853
:10164000010B3E280FD0D4E901219047206A401CAD
:101650002062B8F10108F2D22046FEF7B9FF09B0C6
:101660000320BDE8F08F206A2844206203E0D4E91B
:101670000121302090476D1EEBD3F8E71DA8000034
:1016800002FCFFFF10B5436913B1AFF3008001E026
:10169000FFF7D4FB012010BD128800F124018284E1
:1016A0000022C2840122EDE711684FF0FF32E9E722
:1016B00070B516460C46054600F040F8036893F8EE
:1016C0000101012806D0FF2C0FD8185D68B1012058
:1016D0002C7070BDD3F807013246214603F2071380
:1016E00003442846BDE8704018474FF0FF3070BDF6
:1016F000754600F0EBF8AE4605006946534620F00B
:101700000700854618B020B5FEF770FEBDE8204002
:101710004FF000064FF000074FF000084FF0000BAD
:1017200021F00701AC46ACE8C009ACE8C009ACE860
:10173000C009ACE8C0098D467047000010B500F044
:1017400005F8001D10BD00BFFD9E00000048704759
:101750004C5F00202DE9F0411F4604460326016836
:10176000072A01F4006004DB08B116A505E016A500
:1017700003E008B115A500E015A521F010002060D8
:10178000A069C01EA0610FB1401EA0612046FEF7F7
:1017900009FF4FB1D4E9012138469047206A401C27
:1017A0002062C01C206206E0206AFAE7D4E9012129
:1017B00015F8010B9047761EF8D22046FEF708FF79
:1017C000BDE8F0814E414E006E616E00494E46000C
:1017D000696E66002DE9F047814616468AB03548A5
:1017E00078440DC88DE80D0032487844801C03AC65
:1017F0000DC884E80D0041F69B300844372190FB6A
:10180000F1F290FBF1F5A5F1800501FB12041B3C00
:1018100002D56442012000E00020DFF898A0804655
:101820000027FA44AAF1BE0A0EE0E0070AD03246C9
:10183000684607EB470101230AEB810100F01BFB1F
:101840008DE8070064107F1C002CEED1194F7F44F7
:10185000AE3F19E0E80715D007EB04100DF1180AA8
:1018600090E80E008AE80E00C068F04201D1981995
:1018700008903246012306A903A800F0FCFA03AB46
:1018800083E807006D10641C002DE3D14FF00103C5
:1018900032466946B8F1000F03A802D000F0D6FA2C
:1018A00001E000F0E8FAC9E90001C9F808200AB02F
:1018B000BDE8F0875CA5000010B50446AFF30080DA
:1018C0002046BDE81040FEF71CBD000000487047F0
:1018D0002C5F00204FF0013C50F8042B51F8043BE2
:1018E0009A4221D1A2EB0C03934313EACC1317D1F4
:1018F00050F8042B51F8043B9A4215D1A2EB0C038B
:10190000934313EACC130BD150F8042B51F8043B4A
:101910009A4209D1A2EB0C03934313EACC13DBD018
:101920004FF00000704700BFD01A01BAB1FA81F140
:1019300001F0180122FA01F0CB40C1F12001DBB225
:10194000C0B2C01A2CFA01F3D11A914311EAC311A3
:10195000E6D170475FEA400C08BF91F0000F4FEAF4
:101960008C234FEAC12243EA51514FEA1C5018BF61
:1019700000F5F0404FEA300018BF41F000415FEA47
:101980006C5C00F02980BCF1FF3F08BF40F0804054
:101990007047130C06BF12044FF0100C4FF0000CF0
:1019A000130E04BF12020CF1080C130F04BF120136
:1019B0000CF1040C930F04BF92000CF1020CD30F36
:1019C00004BF52000CF1010C11464FF00002A0F1CF
:1019D0001F00A0EB0C00704711F0004F08BF7047CC
:1019E00031F000413FF4D5AF0B0C06BF09044FF0B6
:1019F000100C4FF0000C0B0E04BF09020CF1080C88
:101A00000B0F04BF09010CF1040C8B0F04BF8900FC
:101A10000CF1020CCB0F04BF49000CF1010CCCF10E
:101A20002003A0EB0C0022FA03F302FA0CF241EAC5
:101A3000030100F10100704720F07F4C80EA0300B1
:101A400023F07F47ACEB070303F57C5300F0004025
:101A500003F1FF032DE980494FEA154B09B44FEA22
:101A6000144325EA0B4E24EA03480FF2042606EB42
:101A7000132749083E785FEA320203FB0667C7F581
:101A8000000707FB06F64FEA54374FEAD64606F141
:101A9000020607FB066CCCF1005C4FEA1C472CEAFF
:101AA000074C07FB06F40CFB06F504EB15464FEA62
:101AB000961634BF00204FF000404FEAD13706FBA6
:101AC00007FC4FEA1C4C0CFB0BF7D21B03FB0CF77B
:101AD00061EB07010CFB0EF7B0EB074072EB17420E
:101AE0000CFB08F734BFA2EB0742B2EB074261EBF5
:101AF00017414FEA0C444FEA910706FB07FC4FEAF7
:101B00001C4C0CFB0BF7B0EBC74072EB573203FBDE
:101B10000CF734BFA2EBC742B2EBC74261EB5731BF
:101B20000CFB0EF7B0EBC70072EB57720CFB08F71B
:101B300034BFA2EBC702B2EBC70261EB5771039F40
:101B40004FEA816141EA921104EBCC044FEAD137AC
:101B50004FEA826206FB07FC42EA90124FEA80607D
:101B60004FEA1C4C0CFB0BF7D21B03FB0CF761EB91
:101B700007010CFB0EF7B0EB074072EB17420CFBB2
:101B800008F734BFA2EB0742B2EB074261EB174103
:101B90004FEA8C554FEA910704EB9C2406FB07FCA7
:101BA0004FEA1C4C0CFB0BF7B0EBC74072EB573203
:101BB00003FB0CF734BFA2EBC742B2EBC74261EBA9
:101BC00057310CFB0EF7B0EBC70072EB57720CFBF2
:101BD00008F734BFA2EBC702B2EBC70261EB577143
:101BE00015EB4C254FEA816141EA92114FEA82627E
:101BF0004FEAD13742EA901206FB07FC44F1000499
:101C00004FEA80604FEA1C4C0CFB0BF7D21B03FB26
:101C10000CF761EB07010CFB0EF7B0EB074072EB22
:101C200017420CFB08F734BFA2EB0742B2EB0742A6
:101C300061EB174115EB1C154FEA813141EA9241E6
:101C40004FEA823242EA90424FEA80304FEA0C7605
:101C500044F1000448EA03434EEA0B484FF0000EFB
:101C6000B2EB080C71EB030724BF624639464EEB1A
:101C70000E0E4FF0000B0018524149414BEB0B0B7D
:101C8000B2EB080C71EB03077BF1000B24BF62463B
:101C900039464EEB0E0E4FF0000B001852414941F1
:101CA0004BEB0B0BB2EB080C71EB03077BF1000B5A
:101CB00024BF624639464EEB0E0E51EA020718BFAA
:101CC00046F0010616EB0E7655F1000254F10001C4
:101CD00003D5BDE88901BDE80088BDE88901BDE8FC
:101CE0000048B619524141EB0101A3F101037047CD
:101CF00080807F7E7D7C7B7A797877767675747349
:101D0000727171706F6E6E6D6C6C6B6A6A69686807
:101D1000676666656464636362616160605F5F5E9D
:101D20005E5D5D5C5C5B5B5A5A5959585857575613
:101D30005655555554545353525252515150505078
:101D40004F4F4F4E4E4D4D4D4C4C4C4B4B4B4A4ACA
:101D50004A4949494848484747474746464645450E
:101D60004544444444434343434242424241414147
:101D7000002B9C4630D477002BD01CB54FEA370798
:101D800003B44FF010004FF01001BAF1000F06D06D
:101D9000BCF1000FDCBF40F0080040F008014FF03C
:101DA00000000FBCBDE810400BF1010BBBF1010FAF
:101DB00008BF5FEA170722BF12F1010211F101010A
:101DC0004FF0004143F1000300F0004043EA0000FF
:101DD0007047F9D35708D0E746EA064613F1400F9B
:101DE0004FEA16461FDD13F1200FDFBF16430A46E8
:101DF000002120335B42BED0C3F1200746EA0646ED
:101E000002FA07F74FEA164646EA0706C3F120072B
:101E100022FA03F201FA07F721FA03F14FF0000367
:101E200042EA0702A7E746EA020646EA06464FEA02
:101E3000164646EA0106BCBF46EA0646360C4FF097
:101E400000034FF000024FF0000194E72DE9804CB1
:101E50009A46934670B491E8380007C831EA400CBE
:101E600048BF34EA430C03D5FFF7E6FDFFF780FFD8
:101E7000F0BCBDE8008C2DE9804C9A46934670B4C6
:101E800091E8380007C810F0804F08BF13F0804F6A
:101E900003D100F005F8FFF76BFFF0BCBDE8008C44
:101EA00020F07F4780EA030023F07F4C07EB0C0310
:101EB000A3F57C5300F00040A3F1FE0392F0000F65
:101EC00000F0B38095F0000F00F077802DE9014914
:101ED0004FEA11404FEA144621EA004800FB06FC95
:101EE00024EA064708FB06F607FB08F800FB07F79D
:101EF00018EB06484CEB164C4FEA124B18EB074810
:101F00004FEA15464CEB174022EA0B4E0BFB06FC42
:101F100025EA06470EFB06F607FB0EFE0BFB07F74E
:101F20001EEB064E4CEB164C4FF000061EEB074E18
:101F30004CEB174B18EB0B0840F1000018EB0E0BA5
:101F400058EB000840F100008F1A4FF000013CBF31
:101F5000C943661B14BFB5EB040C00213CBFC94349
:101F6000F61B4FEA17444EEA8E0E27EA04454FEA65
:101F70001C4704FB07622CEA074C05FB07F70CFB28
:101F800005F604FB0CFC16EB074642EB174216EB7A
:101F90000C4642EB1C421BEB060658EB0202414189
:101FA00046EA9E0601D5BDE80189B619524141EBCA
:101FB0000101A3F10103BDE801894FEA14454FEA8D
:101FC000114724EA054621EA074C05FB07F406FB06
:101FD00007F70CFB06F105FB0CFC11EB074144EB8A
:101FE00017444FEA124711EB0C4144EB1C4422EA20
:101FF000074C05FB07F206FB07F70CFB06F605FB93
:102000000CFC16EB074642EB174216EB0C4642EB74
:102010001C456A1854F1000148BF7047B619524177
:1020200041EB0101A3F10103704795F0000F37D098
:102030004FEA11424FEA144721EA024624EA074CCC
:1020400002FB07F106FB07F70CFB06F402FB0CFC96
:1020500014EB074441EB17414FEA154714EB0C44CE
:1020600041EB1C4125EA074C02FB07F506FB07F78D
:102070000CFB06F602FB0CFC16EB074645EB17457E
:1020800016EB0C4645EB1C42121951F1000148BFFA
:102090007047B619524141EB0101A3F101037047AA
:1020A0004FEA14454FEA114724EA054621EA074C56
:1020B00005FB07F106FB07F70CFB06F24FF00006E5
:1020C00005FB0CFC12EB074241EB174112EB0C42F3
:1020D00051EB1C4148BF7047921841EB0101A3F13D
:1020E0000103704700BFFEE710B5024800F0D9FCBD
:1020F00010BD0000E00A002010B5024800F0D1FC3D
:1021000010BD0000080B002010B500F07FF8074854
:1021100000F08FFF0221054800F0ADFA044800F0FE
:1021200088FF0221024800F0A6FA10BDE00A002054
:10213000080B00201CB504461148006800281DD07B
:102140000023104A21460E48006808F007FE0128C7
:1021500009D00DA03E21164B16A2CDE900101AA100
:10216000022005F0FDFE0748006838B14FF08050AE
:1021700017490860BFF34F8FBFF36F8F1CBD00007E
:10218000680000206C000020496E73657274204462
:1021900061746520746F205278205175785175658F
:1021A0007565206973206E6F74204F4B0A00000024
:1021B0000DBC00082E2E5C6170705C6170705F63F6
:1021C000616E2E63000000004150505F43414E009D
:1021D00004ED00E086B000221421052008F000FC88
:1021E0000949086000BF642201A90748006808F097
:1021F00033FE0128F7D108F0D7F801A805F06EFAF0
:1022000008F0FCF8EFE700006800002010B58EB081
:102210000024002009900A9001200B9000200490D7
:10222000059006900790089001200C900E200D90CC
:1022300004A9254800F0DAFA58B124A045212C4B16
:102240002CA2CDE9001031A1012005F089FE012466
:1022500009E030484A21264B26A2CDE900102BA1E7
:10226000032005F07DFE0E20099000200A90012039
:102270000B90002004900590069007900890012094
:102280000C901C200D9004A9234800F0AFFA58B11F
:1022900022A06521164B17A2CDE900101BA1012039
:1022A00005F05EFE01240BE00E2025496A22104B4A
:1022B000CDE9002102900FA214A1032005F050FEE9
:1022C00020460EB010BD0000E00A00204661696C97
:1022D000656420746F20636F6E6669677572652030
:1022E00043414E312066696C746572210000000024
:1022F00068B900082E2E5C436F72655C5372635C94
:102300006273705F63616E2E630000004253505F22
:1023100043414E0058BD0008080B00204661696C1F
:10232000656420746F20636F6E66696775726520DF
:1023300043414E322066696C7465722100000000D2
:102340009CBD000810B58AB00446607A082804DCF9
:10235000207C10B1207C02280CDD25A087212E4B8B
:102360002EA2CDE9001033A1012005F0F9FD0120D6
:102370000AB010BD607A0890207808B1042000E00F
:102380000020069000200790207810B1E0680590AA
:1023900001E0E068049000208DF82400217C0129F0
:1023A00001D1264900E026490846264B621C04A9B3
:1023B00000F076F9002818D023A09B21164B17A215
:1023C000CDE900101BA1012005F0CAFD1D480068E1
:1023D00025A19C22104BCDE9002102900FA215A14E
:1023E000012005F0BDFD0120C2E70020C0E700008C
:1023F00043616E205472616E736D69742073656EF3
:1024000064206D657373616765206572726F7220F9
:10241000736574202100000083B900082E2E5C43F0
:102420006F72655C5372635C6273705F63616E2E82
:10243000630000004253505F43414E00E00A002019
:10244000080B00200800002048414C5F43414E5FCC
:1024500041646454784D6573736167652048414CED
:102460005F4552524F52000054784D61696C626F63
:10247000783A2564090000002DE9F04788B0064647
:102480000F4614461D46DDE910898DF81C600020BA
:102490008DF80C00069708208DF81500200A8DF89D
:1024A0000D008DF80E40290A8DF80F108DF8105090
:1024B0004FEA18218DF811108DF812804FEA19217A
:1024C0008DF813108DF814904FF0000A17E00AF100
:1024D000010000F0FF0ABAF1030F0DDD0BA0BC21D3
:1024E000134B14A2CDE9001018A1012005F038FD0E
:1024F000012008B0BDE8F087012006F031FD03A8F7
:10250000FFF720FF0028E2D100BFF2E743414E2051
:1025100073656E64206661696C65642061667465CC
:1025200072203520726574726965732100000000A5
:1025300090B900082E2E5C436F72655C5372635C29
:102540006273705F63616E2E630000004253505FE0
:1025500043414E0010B5024800F00CFE10BD0000D3
:10256000F80C00200146087810381823B0FBF3F26D
:102570000848805CC865032A05D908686FF309001C
:10258000001D886503E008686FF309008865886DA1
:102590007047000025BA0008014600208A6A8B694E
:1025A000CBB932B1012A0DD0022A03D0032A10D1AF
:1025B0000EE000BFCB6A03F08073B3F1807F00D1DF
:1025C000012007E0CB6AB3F1C07F00D1012001E018
:1025D00000E000BF34E08B69B3F5005F1AD132B17F
:1025E000012A07D0022A03D0032A11D10AE000BF32
:1025F00001200EE0CB6A03F08073B3F1807F00D13D
:10260000012006E0CB6AB3F1C07F00D1012000E0D9
:1026100000BF15E032B1012A05D0022A04D0032AF6
:102620000CD103E000BF00BF012008E0CB6A03F03B
:102630008073B3F1807F00D1012000E000BF00BFB4
:10264000704730B50468246824F4802405682C6041
:10265000046863608468402C04D10468A260046844
:10266000E16003E00468A1600468E26030BD704787
:1026700072B600BFFEE710B5024692F82030012B7B
:1026800001D0022B06D110684069084314686061CC
:10269000002010BD506A40F4802050620120F8E70D
:1026A000F0B504460D461E4694F8207020688368F5
:1026B000A86800B900E000BF012F01D0022F7DD132
:1026C00003F0806030B903F0006018B903F0805067
:1026D00000287ED0C3F30161012088403060A868E3
:1026E00060B9B5F800C0E86840EA4C5C206800F5C5
:1026F000C07000EB0110C0F800C00FE0D5E901C0C8
:1027000040EACC00D5F80CC040EA0C00D4F800C078
:102710000CF5C07C0CEB011CCCF80000D5F810C007
:10272000206800F5C07000EB0110C0F804C0287DDF
:1027300001280ED1206800F5C07000EB0110406840
:1027400040F4807C206800F5C07000EB0110C0F8F8
:1027500004C0D079000692F806C040EA0C4092F816
:1027600005C040EA0C2092F804C040EA0C00D4F8FE
:1027700000C00CF5C07C0CEB011CCCF80C00D07830
:10278000000692F802C040EA0C4092F801C040EA0C
:102790000C2092F800C040EA0C00D4F800C00CF500
:1027A000C07C0CEB011CCCF80800206800F5C07060
:1027B00000EB0110006840F0010C01E00FE008E0C0
:1027C000206800F5C07000EB0110C0F800C00020C8
:1027D000F0BD606A40F4001060620120F8E7606AB2
:1027E00040F4802060620120F2E70000F0B504466A
:1027F0000A4694F82050012D01D0022D7ED1424985
:1028000001F50071086840F001000860086820F4D4
:102810007C5008600868566A40EA06200860107D0F
:1028200000F01F06012000FA06F3C8699843C8614A
:10283000A1F50071D069C8B9D1F80C029843C1F86C
:102840000C02908880B2968940EA064601F5107025
:10285000576940F83760108880B2168940EA06460A
:1028600001F51070576900EBC7004660D069012878
:1028700019D1D1F80C021843C1F80C02908880B22B
:10288000168840EA064601F51070576940F837602F
:10289000908980B2168940EA064601F510705769A2
:1028A00000EBC7004660906928B9D1F8040298434C
:1028B000C1F8040204E0D1F804021843C1F804028C
:1028C000106928B9D1F814029843C1F8140204E041
:1028D000D1F814021843C1F81402106A012804D177
:1028E000D1F81C021843C1F81C02D1F8000220F0F4
:1028F0000100C1F800020020F0BDFFE7606A40F46B
:10290000802060620120F7E700640040704770B5E6
:10291000044694F82050012D01D0022D7DD151B9EB
:102920002068C06800F0030080B9606A40F40010BD
:102930006062012070BD2068006900F0030028B9C2
:10294000606A40F4001060620120F3E7206800F53F
:10295000D87000EB0110006800F0040090609068EF
:1029600040B9206800F5D87000EB01100068400DF8
:10297000106007E0206800F5D87000EB01100068D7
:10298000C0085060206800F5D87000EB01100068A6
:1029900000F00200D060206800F5D87000EB011054
:1029A000406800F00F00082802D30820106108E0FA
:1029B000206800F5D87000EB0110406800F00F00AF
:1029C0001061206800F5D87000EB0110406800F439
:1029D0007F40000A9061206800F5D87000EB01107C
:1029E0004068000C5061206800F5D87000EB0110C1
:1029F00080681870206800F5D87000EB01108068BE
:102A000000F47F40000A5870206800F5D87000EB91
:102A10000110806800F47F0000E03CE0000C98703A
:102A2000206800F5D87000EB01108068000ED870A7
:102A3000206800F5D87000EB0110C068187120689C
:102A400000F5D87000EB0110C06800F47F40000A68
:102A50005871206800F5D87000EB0110C06800F4D0
:102A60007F00000C9871206800F5D87000EB011011
:102A7000C068000ED87131B92068C06840F02000ED
:102A80002668F06005E02068006940F020002668B4
:102A9000306100204EE7606A40F4802060620120CF
:102AA00048E72DE9F05F0446002520684669206864
:102AB000D0F80490206887682068D0F80CA02068BF
:102AC000D0F810B02068D0F8188006F00100002877
:102AD00055D007F00100C0B101202168886007F0DF
:102AE000020018B1204600F0D4FA0EE007F004000E
:102AF00010B145F4006508E007F0080010B145F496
:102B0000805502E0204600F0C3FA07F48070C8B197
:102B10004FF480702168886007F4007018B1204677
:102B200000F0B9FA0EE007F4806010B145F40055EA
:102B300008E007F4006010B145F4804502E020464B
:102B400000F0A8FA07F48030C8B14FF48030216853
:102B5000886007F4003018B1204600F09EFA0EE0BD
:102B600007F4802010B145F4004508E007F4002088
:102B700010B145F4803502E0204600F08DFA06F0F1
:102B8000080038B10AF0100020B145F4007510209B
:102B90002168C86006F0040040B10AF0080028B1BE
:102BA00008202168C860204600F00CFA06F00200F8
:102BB00038B12068C06800F0030010B1204600F072
:102BC00003FA06F0400038B10BF0100020B145F4D4
:102BD000806510202168086106F0200040B10BF0EC
:102BE000080028B1082021680861204600F01EFA7C
:102BF00006F0100038B12068006900F0030010B141
:102C0000204600F014FA06F4003040B109F010003C
:102C100028B1102021684860204600F009FA06F427
:102C2000803040B109F0080028B1082021684860D0
:102C3000204600F033FA06F4004088B309F004009F
:102C400078B306F4807020B108F0010008B145F0B7
:102C5000010506F4007020B108F0020008B145F04B
:102C6000020506F4806020B108F0040008B145F0C8
:102C7000040506F40060A0B108F0700088B108F007
:102C80007000402817D006DC10280BD020280CD06C
:102C9000302819D10CE0502810D0602814D110E051
:102CA0001DE019E045F008050FE045F010050CE0C7
:102CB00045F0200509E045F0400506E045F08005B7
:102CC00003E045F4807500E000BF00BF2068806924
:102CD00020F07000216888610420216848602DB1CF
:102CE000606A284360622046FFF710FEBDE8F09F4F
:102CF00070B504460CB9012070BD94F8200010B9DD
:102D0000204600F0AFF82068006840F0010021681C
:102D1000086000F025FD05460DE000F021FD401B98
:102D20000A2808D9606A40F400306062052084F8FF
:102D300020000120E0E72068406800F00100002842
:102D4000EBD02068006820F002002168086000F0E5
:102D500007FD05460DE000F003FD401B0A2808D9D9
:102D6000606A40F400306062052084F82000012091
:102D7000C2E72068406800F002000028EBD1207E06
:102D8000012806D12068006840F0800021680860B2
:102D900005E02068006820F0800021680860607EFF
:102DA000012806D12068006840F0400021680860D2
:102DB00005E02068006820F0400021680860A07EDF
:102DC000012806D12068006840F0200021680860D2
:102DD00005E02068006820F0200021680860E07E9F
:102DE000012806D12068006820F0100021680860E2
:102DF00005E02068006840F0100021680860207F2E
:102E0000012806D12068006840F0080021680860A9
:102E100005E02068006820F0080021680860607FF5
:102E2000012806D12068006840F00400216808608D
:102E300005E02068006820F0040021680860D4E9FB
:102E40000201084321690843616908436168491E1A
:102E500008432168C86100206062012084F82000D6
:102E6000002049E710B586B00446142101A8FDF7FB
:102E70008EFE4F492068884242D14E480068401C6F
:102E80004C4908600846006801280FD100BF0020A7
:102E900000904948006840F00070474908600846C3
:102EA000006800F00070009000BF00BF00BF00206D
:102EB000009041481038006840F002003E49103947
:102EC00008600846006800F00200009000BF00BFE4
:102ED0004FF44070019002200290002003900320E4
:102EE00004900920059001A9344800F037FB002226
:102EF0000521142000F0FCFC142000F0E5FC55E056
:102F00002F492068884251D100BF002000902A48F4
:102F1000006840F08060284908600846006800F0BA
:102F20008060009000BF00BF22480068401C21491B
:102F300008600846006801280FD100BF00200090FB
:102F40001D48006840F000701B4908600846006892
:102F500000F00070009000BF00BF00BF0020009094
:102F600015481038006840F0020013491039086015
:102F70000846006800F00200009000BF00BF4FF458
:102F80004050019002200290002003900320049002
:102F90000920059001A9094800F0E0FA0022052166
:102FA000402000F0A5FC402000F08EFC06B010BDD3
:102FB0000064004018000020403802400004024035
:102FC000006800407047000070B50446144B154A75
:102FD00000212046FFF79BFC0546FDB9114880689B
:102FE00008B1012000E000200D49491E0870084684
:102FF000007810B10B48406801E00A4800680849B1
:10300000491EC8600848844201D1012000E0022026
:103010000349491E08740846FFF78CF870BD00008C
:10302000CD0A0020B00A0020E00A00207047704757
:10303000704770B5044694F82000012822D1022080
:1030400084F820002068006820F0010021680860F2
:1030500000F086FB05460DE000F082FB401B0A28CD
:1030600008D9606A40F400306062052084F82000CE
:10307000012070BD2068406800F001000028EBD1FD
:103080006062F6E7606A40F4002060620120F0E7C9
:10309000704770477047704770477047704770B50A
:1030A0000446A56D00F05CFB064694F83500022846
:1030B00008D08020606500BF002084F8340000BF85
:1030C000012070BD2068006820F0160021680860AB
:1030D0002068406920F0800021684861206C08B9B0
:1030E000A06C28B12068006820F008002168086002
:1030F0002068006820F001002168086010E000F0FE
:103100002FFB801B05280BD920206065032084F845
:10311000350000BF002084F8340000BF0320D0E752
:103120002068006800F001000028E8D194F85C10E5
:103130003F208840A860012084F8350000BF0020AF
:1031400084F8340000BF00BFBBE7014691F83500AA
:10315000022803D08020486501207047052081F8AF
:1031600035000868006820F001000A68106000203F
:10317000F3E70000F8B50446002000908C48006892
:103180004FF41651B0FBF1F7A56D2E6894F85C1062
:1031900008208840304098B12068006800F00400A2
:1031A00070B12068006820F004002168086094F87D
:1031B0005C1008208840A860606D40F001006065E8
:1031C00094F85C1001208840304068B12068406964
:1031D00000F0800040B194F85C1001208840A860A5
:1031E000606D40F00200606594F85C100420884037
:1031F000304068B12068006800F0020040B194F8E7
:103200005C1004208840A860606D40F00400606598
:1032100094F85C1010208840304078B32068006833
:1032200000F0080050B394F85C1010208840A860AB
:103230002068006800F4802080B12068006800F4F5
:10324000002028B9206CC8B12046216C884715E0C1
:10325000A06C98B12046A16C88470FE020680068F8
:1032600000F4807028B92068006820F00800216808
:103270000860206C10B12046216C884794F85C10DF
:10328000202088403040002865D02068006800F089
:10329000100000285FD094F85C1020208840A860BF
:1032A00094F83500052828D12068006820F0160021
:1032B000216808602068406920F08000216848612A
:1032C000206C08B9A06C28B12068006820F00800C4
:1032D0002168086094F85C103F208840A8600120B5
:1032E00084F8350000BF002084F8340000BF206D52
:1032F00010B12046216D8847F8BD2068006800F4B1
:10330000802080B12068006800F4002028B9606C3B
:1033100010B12046616C88471DE0E06BD8B12046B3
:10332000E16B884717E02068006800F4807068B996
:103330002068006820F0100021680860012084F8EF
:10334000350000BF002084F8340000BFE06B10B1EE
:103350002046E16B8847606D38B3606D00F0010076
:10336000F0B1052084F835002068006820F00100E5
:103370002168086000BF0098401C0090B84200D946
:1033800005E02068006800F001000028F3D100BFCC
:10339000012084F8350000BF002084F8340000BF0D
:1033A000E06C10B12046E16C884700BFA4E7000044
:1033B000280000202DE9F0410446002500F0D0F956
:1033C000074614B90120BDE8F081606A00B100BF72
:1033D000022084F8350000BF002084F8340000BFCC
:1033E0002068006820F00100216808600AE000F011
:1033F000B7F9C01B052805D920206065032084F893
:103400003500E0E72068006800F001000028EED1F8
:103410002068056821480540D4E901010843E168B6
:1034200008432169084361690843A1690843E169C8
:103430000843216A08430543606A042803D1D4E99C
:103440000B0108430543206805602068456925F0A5
:103450000705606A0543606A04280DD1A06A054328
:10346000E06A48B12046FFF797F828B14020606530
:10347000012084F83500A6E7206845612046FFF763
:1034800071F8064694F85C103F208840B060002038
:103490006065012084F83500002094E73F8010F03B
:1034A0002DE9F04704460D4616461F464FF000082A
:1034B000D4F8589000BF94F83400012802D10220BB
:1034C000BDE8F087012084F8340000BF94F835008F
:1034D000012825D1022084F83500002060653B4694
:1034E000324629462046FFF7ACF894F85C103F209E
:1034F0008840C9F808002068006840F0160021687C
:103500000860206C28B12068006840F0080021683D
:1035100008602068006840F001002168086006E04B
:1035200000BF002084F8340000BF4FF0020840467E
:10353000C6E7000070B5044600F012F906462546BD
:10354000681C10B104480078054400BF00F008F979
:10355000801BA842FAD370BD24000020F8B50246B3
:103560000B460025002400200021D1E0012606FAA8
:1035700001F51E6806EA0504AC4274D11E7906F016
:103580000306012E04D01E7906F00306022E13D185
:1035900090684F000326BE40B0434F00DE68BE4037
:1035A00030439060506801268E40B0431E79C6F3C8
:1035B00000168E40304350601E7906F00306032E3D
:1035C00009D0D0684F000326BE40B0434F009E682C
:1035D000BE403043D0601E7906F00306022E13D1A0
:1035E000CF0802F1200656F827004E07F70E0F26E7
:1035F000BE40B0434F07FF0E1E69BE403043CF08A8
:1036000002F1200646F8270010684F000326BE404E
:10361000B0431E7906F003064F00BE4030431060F1
:103620005E6806F44036002E71D000BF002600967A
:10363000394E366846F48046374F3E603E4636681F
:1036400006F48046009600BF00BF344E8F0856F83F
:1036500027008E07370F0F26BE40B043304EB242D0
:1036600002D100261FE052E02E4EB24201D10126C7
:1036700019E02D4EB24201D1022614E02B4EB24287
:1036800001D103260FE02A4EB24201D104260AE0FE
:10369000284EB24201D1052605E0274EB24201D1A3
:1036A000062600E007268F073F0FBE4030431B4E23
:1036B0008F0846F82700214E3068A0435E6806F464
:1036C000801606B120431D4E3060361D3068A04381
:1036D0005E6806F4001606B12043184E361D3060B1
:1036E000164E361F3068A0435E6806F4003606B1F9
:1036F0002043124E361F3060361F3068A0435E688C
:1037000006F4803606B120430C4E083E3060491C5A
:103710001029FFF42BAFF8BD4438024008380140AF
:10372000000002400004024000080240000C024079
:10373000001002400014024000180240083C014002
:1037400010B5426921EA020302EA010443EA044394
:10375000836110BD0AB1816101E00B048361704790
:1037600001480068704700001C0000200348006802
:103770000349097808440149086070471C0000208B
:103780002400002010B50D48006840F400700B497B
:1037900008600846006840F48060086008460068D9
:1037A00040F480700860032000F0E0F80F2000F083
:1037B00007F800F05FF8002010BD0000003C024058
:1037C0002DE9F04188B004460027B84600BF00202C
:1037D00001902348006840F4807021490860084641
:1037E000006800F48070019000BF00BF02A903A828
:1037F00000F092F9069F1FB900F0B6F9054602E005
:1038000000F0B2F945001748B5FBF0F0A0F101084F
:1038100015481649086040F2E7311448C160C0F805
:103820000480002101618160816100F019FD06467C
:1038300096B90E4800F082FD06466EB92D2000F0C4
:1038400043F8102C07D2002221462D2000F050F81A
:103850000748046000E00126304608B0BDE8F0816A
:103860004038024040420F0000200040580D002028
:103870002000002008B500BF00200090114800681B
:1038800040F480400F4908600846006800F480401A
:10389000009000BF00BF00BF00200090081F00681C
:1038A00040F08050091F08600846006800F0805012
:1038B000009000BF00BF00220F21901E00F018F8FA
:1038C00008BD0000443802400146084600280DDBD0
:1038D00000BF00BF00F01F0301229A4043099B0074
:1038E00003F1E023C3F8002100BF00BF00BF704711
:1038F0002DE9F05F80460D461646002703F006F8D6
:10390000074639462A46334601F00700C0F1070A48
:10391000BAF1040F02D94FF0040A01E0C0F1070A1E
:10392000D14600F1040ABAF1070F02D24FF0000AA3
:1039300001E0A0F1030AD4464FF0010A0AFA09FA9D
:10394000AAF1010A0AEA020A0AFA0CFA4FF0010B7C
:103950000BFA0CFBABF1010B0BEA030B4AEA0B046D
:103960002146404602F0DAFFBDE8F09F00BF00F0BC
:103970000702064B19684FF6FF031940044B0B432F
:1039800043EA0221014B196000BF70470CED00E0D3
:103990000000FA0570B504460D460CB9012070BD53
:1039A0005848006800F00F00A84209D255490D7030
:1039B0000846006800F00F00A84201D00120EEE7A1
:1039C000207800F0020002281DD1207800F00400C9
:1039D000042805D14C48006840F4E0504A4908608A
:1039E000207800F00800082805D14748006840F416
:1039F0006040454908604448006820F0F000A16834
:103A0000084341490860207800F00100A8B36068CD
:103A1000012807D13C4808380068C0F34040B8B9D5
:103A20000120BCE76068022802D06068032807D143
:103A3000354808380068C0F3406048B90120AEE757
:103A4000314808380068C0F3400008B90120A6E7F3
:103A50002D48006820F00300616808432A49086087
:103A6000FFF77EFE064609E0FFF77AFE801B41F273
:103A70008831884202D9032091E707E02248006894
:103A800000F00C006168B0EB810FEDD11D480068BB
:103A900000F00F00A84209D91A490D7008460068C5
:103AA00000F00F00A84201D0012078E7207800F054
:103AB0000400042807D11448006820F4E050E168AD
:103AC000084311490860207800F00800082808D150
:103AD0000D48006820F46040216940EAC1000A49AD
:103AE000086000F061F808490968C1F30311074A4A
:103AF000515CC8400649086006480068FFF760FE50
:103B000000204CE7003C0240083802402DBA000873
:103B100028000020200000200F2202600D4A1268B9
:103B200002F0030242600B4A126802F0F002826067
:103B3000084A126802F4E052C260064A126802F4AF
:103B40006042D2080261044A126802F00F020A6061
:103B50007047000008380240003C024001480068FD
:103B6000704700002800002000B5FFF7F7FF044968
:103B70000968C1F38221034A515CC84000BD0000BE
:103B8000083802403DBA000800B5FFF7E7FF0449D6
:103B90000968C1F34231034A515CC84000BD0000CE
:103BA000083802403DBA00082DE9F04700240025FE
:103BB0000026A146A2463F48006800F00C0030B144
:103BC000042807D0082808D00C286BD138E0DFF88B
:103BD000E8A06AE0DFF8E4A067E03648001F00686C
:103BE00000F03F043348001F006800F4800078B103
:103BF00032483049091F0968C1F38811A0FB0170E0
:103C00000146224600233846FCF709FC05460DE034
:103C100029482849091F0968C1F38811A0FB0171CF
:103C2000224600233846FCF7FAFB05462148001FD0
:103C30000068C0F30140401C4600B5FBF6FA34E0D2
:103C40001C48001F006800F03F041A48001F00686D
:103C500000F4800078B119481649091F0968C1F3BA
:103C60008811A0FB01700146224600233846FCF76C
:103C7000D6FB05460EE010480E49091F0968C1F33E
:103C80008811A0FB01700146224600233846FCF74C
:103C9000C6FB05460748001F0068C0F30279B5FB64
:103CA000F9FA02E0DFF810A000BF00BF5046BDE8FF
:103CB000F0870000083802400024F400001BB70021
:103CC000F8B504460CB90120F8BD207800F00100D9
:103CD00000286FD0FE48006800F00C0004281BD0BC
:103CE000FB48006800F00C00082807D1F848001FC6
:103CF000006800F48000B0F5800F0DD0F448006833
:103D000000F00C000C2813D1F148001F006800F4EB
:103D10008000B0F5800F0BD1ED4808380068C0F383
:103D20004040002859D06068002856D10120CBE7D8
:103D300000BF6068B0F5803F08D1E54808380068EA
:103D400040F48030E249083908601EE06068B0F550
:103D5000A02F0DD1DE480838006840F48020DC49EF
:103D6000083908600846006840F4803008600CE0BC
:103D7000D7480838006820F48030D54908390860F1
:103D80000846006820F48020086000BF606890B199
:103D9000FFF7E6FC054606E0FFF7E2FC401B64285F
:103DA00001D9032090E7CA4808380068C0F34040B2
:103DB0000028F1D011E0FFF7D3FC054606E0FFF73D
:103DC000CFFC401B642801D903207DE7C048083898
:103DD0000068C0F340400028F1D1207800F00200D4
:103DE00002286BD1BA48006800F00C00B8B1B8489E
:103DF000006800F00C00082805D1B548001F0068D5
:103E000000F4800058B1B248006800F00C000C28A3
:103E10001CD1AF48001F006800F48000B0B9AC4866
:103E200008380068C0F3400020B1E068012801D0E4
:103E3000012049E7A6480838006820F0F800216909
:103E400040EAC100A2490839086037E0E06800B3E1
:103E50000120A0490860FFF783FC054606E0FFF754
:103E60007FFC401B022801D903202DE79848083821
:103E70000068C0F340000028F1D095480838006879
:103E800020F0F800216940EAC10091490839086032
:103E900014E000208F490860FFF762FC054606E049
:103EA000FFF75EFC401B022801D903200CE788487D
:103EB00008380068C0F340000028F1D1207800F0F5
:103EC000080008282CD16069A8B101208249086047
:103ED000FFF746FC054606E0FFF742FC401B0228C0
:103EE00001D90320F0E67A486C300068C0F3400046
:103EF0000028F1D014E0002077490860FFF730FC7B
:103F0000054606E0FFF72CFC401B022801D90320E0
:103F1000DAE66F486C300068C0F340000028F1D149
:103F2000207800F00400042870D100276848383059
:103F3000006800F0805090B900BF002000906448F5
:103F40003830006840F080506149383108600846D8
:103F5000006800F08050009000BF00BF01275F485C
:103F6000006800F48070B0B95C48006840F480706C
:103F70005A490860FFF7F4FB054606E0FFF7F0FB3F
:103F8000401B022801D903209EE65448006800F433
:103F900080700028F2D000BFA068012808D14C48EA
:103FA0006830006840F001004949683108601DE050
:103FB000A06805280DD146486830006840F004002C
:103FC0004349683108600846006840F00100086015
:103FD0000CE03F486830006820F001003C4968313F
:103FE00008600846006820F00400086000BFA06870
:103FF000A8B1FFF7B5FB054609E0FFF7B1FB401B91
:1040000041F28831884202D903205DE626E030483B
:1040100068300068C0F340000028EED013E0FFF7DE
:104020009FFB054608E0FFF79BFB401B41F28831F0
:10403000884201D9032047E6254868300068C0F36C
:1040400040000028EFD1012F07D121483830006807
:1040500020F080501E493831086000BFA069002858
:1040600051D01B48006800F00C00082861D0A069FE
:10407000022849D1002017490866FFF771FB054661
:1040800006E0FFF76DFB401B022801D903201BE669
:104090000F4808380068C0F340600028F1D1D4E927
:1040A00007010843616A40EA81110122A06AC2EB5C
:1040B000500041EA00412C20005D41EA00613020BF
:1040C000005D41EA00700249091F0860012007E015
:1040D0000838024000004742800E4742007000400E
:1040E0002F490866FFF73CFB054606E0FFF738FB63
:1040F000401B022801D90320E6E52A480068C0F3E6
:1041000040600028F2D048E0002025490866FFF70B
:1041100027FB054606E0FFF723FB401B022801D9D9
:104120000320D1E51F480068C0F340600028F2D1A9
:1041300033E0A069012800D1C6E51A48001D0668D1
:10414000A069012827D006F48001E069814222D1CC
:1041500006F03F01206A81421DD147F6C070304011
:10416000616AB0EB811F16D106F440310122A06ACA
:10417000C2EB5000B1EB004F0DD106F070612C2066
:10418000005DB1EB006F06D106F0E0413020005D2C
:10419000B1EB007F01D0012096E5002094E50000FE
:1041A00000004742003802407047704730B5024671
:1041B0000B4600BF92F83C00012801D1022030BD1F
:1041C000012082F83C0000BF022082F83D00106808
:1041D00044681068816824F070041868044310680B
:1041E0004460184D1068A8421BD01068B0F1804F91
:1041F00017D0154D1068A84213D0144D1068A8426E
:104200000FD0134D1068A8420BD0124D1068A84271
:1042100007D0114D1068A84203D0104D1068A84275
:1042200005D121F0800158680143106881600120A8
:1042300082F83D0000BF002082F83C0000BF00BFB4
:10424000BDE70000000001400004004000080040FD
:10425000000C0040000401400040014000180040F4
:1042600010B504460CB9012010BD94F83D0028B9E2
:10427000002084F83C00204600F026F8022084F854
:104280003D00211D206801F033F9012084F846002B
:1042900000BF84F83E0001213F2001554020015518
:1042A0004120015500BF00BF012084F84200432097
:1042B0000155442001554520015500BF012084F8D7
:1042C0003D000020D0E7000038B5044618492068BA
:1042D00088420FD100BF002000901648006840F0CF
:1042E0000200144908600846006800F002000090CF
:1042F00000BF1BE010492068884217D100BF002092
:1043000000900C48006840F080000A4908600846A8
:10431000006800F08000009000BF00BF002205216F
:104320002C20FFF7E5FA2C20FFF7CEFA38BD00006D
:104330000004004040380240001C0040014691F853
:104340003D00012801D001207047022081F83D0086
:104350000868C06840F001000B68D8601A4B086814
:1043600098421BD00868B0F1804F17D0174B0868EF
:10437000984213D0164B086898420FD0154B086826
:1043800098420BD0144B0868984207D0134B08682A
:10439000984203D0124B086898420CD10868806894
:1043A00000F00702062A0CD00868006840F00100FF
:1043B0000B68186005E00868006840F001000B68B1
:1043C00018600020C0E70000000001400004004029
:1043D00000080040000C0040000401400040014083
:1043E000001800402DE9F04104460D46002700BFAB
:1043F00094F83C00012802D10220BDE8F0810120A0
:1044000084F83C0000BF022084F83D0020688668E4
:1044100026F0770626F47F462068866028685028B4
:1044200033D00CDC202850D004DC00284BD01028DE
:1044300051D149E0302849D040284CD139E060289A
:104440002DD0702807D0B0F5805F03D0B0F5005FA5
:1044500041D10DE041E0D5E902136A68206801F01E
:10446000B7F82068866846F077062068866034E0F2
:10447000D5E902136A68206801F0AAF8206880680C
:1044800040F480402168886027E0EA686968206815
:1044900001F08EF95021206801F0A5F81DE0EA68CE
:1044A0006968206801F097F96021206801F09BF8A5
:1044B00013E0EA686968206801F07AF94021206811
:1044C00001F091F809E000BF00BF00BF2968206833
:1044D00001F089F801E0012700BF00BF012084F846
:1044E0003D0000BF002084F83C0000BF384684E750
:1044F000704770B504462068C5682068066906F0F4
:104500000200022819D105F00200022815D1401F2F
:1045100021680861012020772068806900F003008D
:1045200018B12046FFF7E4FF05E0204600F0EEF862
:10453000204600F0B9F90020207706F00400042896
:1045400019D105F00400042815D1C0432168086181
:10455000022020772068806900F4407018B120465E
:10456000FFF7C6FF05E0204600F0D0F8204600F037
:104570009BF90020207706F00800082819D105F0E3
:104580000800082815D1C04321680861042020775D
:104590002068C06900F0030018B12046FFF7A8FFAB
:1045A00005E0204600F0B2F8204600F07DF900203A
:1045B000207706F01000102819D105F010001028FF
:1045C00015D1C04321680861082020772068C069A0
:1045D00000F4407018B12046FFF78AFF05E020463E
:1045E00000F094F8204600F05FF90020207706F0F4
:1045F000010048B105F0010030B16FF00100216801
:104600000861204600F052F906F08000802809D1A8
:1046100005F08000802805D1C0432168086120464C
:10462000FFF7C2FD06F04000402809D105F0400028
:10463000402805D1C04321680861204600F042F9B6
:1046400006F02000202809D105F02000202805D1FF
:10465000C043216808612046FFF7A7FD70BD000038
:1046600010B586B00446142101A8FCF790FA206822
:10467000B0F1804F1DD100BF002000901F4800689E
:1046800040F002001D4908600846006800F0020082
:10469000009000BF00BF0420019002200290002083
:1046A000039004900120059001A91548FEF756FFDC
:1046B00021E01449206888421DD100BF00200090ED
:1046C0000E48006840F004000C4908600846006885
:1046D00000F00400009000BF00BF4FF47070019024
:1046E000022002900020039004900220059001A96E
:1046F0000548FEF733FF06B010BD00003038024019
:1047000000040240000400400008024070472DE908
:10471000F04104460D461646002700BF94F83C00C1
:10472000012802D10220BDE8F081012084F83C007C
:1047300000BF36B1042E1BD0082E31D00C2E5ED116
:1047400045E02946206800F057FF2068806940F066
:104750000800216888612068806920F004002168D1
:10476000886120688069296908432168886148E078
:104770002946206800F078FF2068806940F40060D6
:10478000216888612068806920F4806021688861E0
:1047900020688069296940EA01202168886130E049
:1047A0002946206800F09EFF2068C06940F008009C
:1047B0002168C8612068C06920F004002168C861D0
:1047C0002068C069296908432168C86119E0294641
:1047D000206800F0C3FF2068C06940F400602168D1
:1047E000C8612068C06920F480602168C8612068C1
:1047F000C069296940EA01202168C86101E00127F8
:1048000000BF00BF00BF002084F83C0000BF384656
:1048100089E710B504460CB9012010BD94F83D009D
:1048200028B9002084F83C00204600F025F802203A
:1048300084F83D00211D206800F05AFE012084F814
:10484000460000BF84F83E0001213F200155402072
:1048500001554120015500BF00BF012084F84200EE
:1048600043200155442001554520015500BF01203A
:1048700084F83D000020D0E708B50168B1F1804F11
:104880000FD100BF002100910649096841F00101E4
:10489000044A11601146096801F00101009100BF4E
:1048A00000BF08BD403802407047000010B5044604
:1048B00003492068884201D1FEF758FF10BD00006F
:1048C000002000407047704770477047704770473E
:1048D0002DE9F84F0446206805682068C6682068FE
:1048E00047694FF00009CA4605F00F09B9F1000FFA
:1048F0000AD105F0200038B106F0200020B1204692
:1049000001F06AF8BDE8F88FB9F1000F7CD007F02C
:10491000010018B906F49070002875D005F0010068
:1049200030B106F4807018B1606C40F00100606432
:1049300005F0040030B107F0010018B1606C40F0E0
:104940000200606405F0020030B107F0010018B108
:10495000606C40F00400606405F0080048B106F0A7
:10496000200010B907F0010018B1606C40F0080099
:104970006064606C002846D005F0200028B106F085
:10498000200010B1204601F027F820684069C0F3EC
:10499000801A606C00F0080010B9BAF1000F2DD039
:1049A000204600F099FF2068406900F04000402850
:1049B00020D100BF00BF2168143151E8001F21F051
:1049C00040002168143141E80002002AF3D100BF01
:1049D000E06B50B17F48E16B0865E06BFEF7B5FB1B
:1049E00088B1E06B016D88470DE02046A16D8847D6
:1049F00009E009E02046A16D884704E02046A16D4A
:104A00008847002060647DE7206B012878D105F09D
:104A10001000002874D006F010000028FAD000BF63
:104A20000020009020680068009020684068009096
:104A300000BF00BF2068406900F04000402870D1EE
:104A4000E06B006840681FFA80F8B8F1000F58D09A
:104A5000A08D404555DDA4F82E80E06BC069B0F50F
:104A6000807F43D000BF00BF21680C3151E8001F98
:104A700021F4807021680C3141E80002002AF3D152
:104A800000BF00BF00BF2168143151E8001F21F0B2
:104A900001002168143141E80002002AF3D100BF6F
:104AA00000BF00BF2168143151E8001F21F0400011
:104AB0002168143141E80002002AF3D100BF202010
:104AC00084F842000020206300BF00BF21680C3141
:104AD00051E8001F21F0100021680C3141E800026C
:104AE000002AF3D100BFE06BFEF7D9FA0220606321
:104AF000A08DE38DC01A81B22046E26E90470EE091
:104B000052E0A08D40450AD1E06BC069B0F5807FCE
:104B100005D102206063A18D2046E26E9047F1E648
:104B2000FFE7A08DE18D401A1FFA80F8E08DD0B329
:104B3000B8F1000F37D000BF00BF21680C3151E839
:104B4000001F21F4907021680C3141E80002002A16
:104B5000F3D100BF00BF00BF2168143151E8001F2E
:104B600021F001002168143141E80002002AF3D14C
:104B700000BF202084F842000020206300BF00BF57
:104B800021680C3151E8001F21F0100021680C3120
:104B900041E80002002AF3D100BF022060634146D1
:104BA0002046E26E9047ADE605F0800030B106F099
:104BB000800018B1204601F0A3F8A3E605F04000FC
:104BC00030B106F0400018B1204600F0BBFE99E677
:104BD00000BF97E61158000810B504460CB9012033
:104BE00010BDA06900B100E000BF94F8410060B9B9
:104BF000002084F84000204600F0C8FE206F08B96D
:104C0000164820672046216F8847242084F84100F9
:104C10002068C06820F400502168C860204600F079
:104C200059FF2068006920F49040216808612068DD
:104C3000406920F02A00216848612068C06840F47B
:104C400000502168C86000206064202084F8410082
:104C500084F842000020606300BFC1E7614C000897
:104C600010B586B00446142101A8FBF790FF5C49FB
:104C70002068884257D100BF002000905948006842
:104C800040F40020574908600846006800F40020FE
:104C9000009000BF00BF00BF0020009051481038B6
:104CA000006840F004004F49103908600846006869
:104CB00000F00400009000BF00BF4FF4406001907E
:104CC0000220029000200390032004900820059009
:104CD00001A94548FEF742FC4448454908604FF0A9
:104CE000006048604021424881600021C1604FF46B
:104CF00080610161002141618161C16101624162A4
:104D0000FEF758FB08B1FDF7B3FC00BF3848A063BD
:104D1000846300BF002205213420FEF7E9FD342022
:104D2000FEF7D2FD5AE033492068884256D100BFD1
:104D3000002000902B48001D006840F01000294919
:104D4000091D08600846006800F01000009000BFD0
:104D500000BF00BF0020009022481038006840F0DB
:104D600001002049103908600846006800F0010081
:104D7000009000BF00BF00BF002000900846006800
:104D800040F0020008600846006800F00200009051
:104D900000BF00BF48150190022002900020039040
:104DA000032004900720059001A91348FEF7D6FBC5
:104DB00080200190022002900020039003200490A4
:104DC0000720059001A90D48FEF7C8FB0022052128
:104DD0002520FEF78DFD2520FEF776FD06B010BDDF
:104DE000004C004040380240000802407060024021
:104DF000F80C0020001001400000024000040240B6
:104E000010B5034600242AB9586C40F020005864BD
:104E1000012010BD93F84100202825D10D291CD276
:104E2000DFE801F007090B0D0F1113151B1B1B17F2
:104E300019009A6417E0DA6415E01A6513E05A6500
:104E400011E09A650FE0DA650DE01A660BE05A662C
:104E500009E01A6707E05A6705E0586C40F0200047
:104E60005864012400BF17E093F8410078B90B297A
:104E700002D00C2904D101E01A6707E05A6705E067
:104E8000586C40F020005864012400BF04E0586CC6
:104E900040F02000586401242046BAE7704770476C
:104EA000F7B50446154694F8410020283ED10198F4
:104EB00000B10DB90120FEBD01982062A584E584F2
:104EC00000206064212084F841001948A16BC86368
:104ED0001848A16B08641848A16BC8640020A16B36
:104EE000086501AE23681A1D31682B46A06BFEF7DA
:104EF000D7FA30B110206064202084F841000120EE
:104F0000D9E76FF040002168086000BF00BF21684A
:104F1000143151E8001F41F080002168143141E84C
:104F20000002002AF3D100BF0020C4E70220C2E73C
:104F300073580008CB580008235800087047704782
:104F400010B50E480E4908600220486000210C4848
:104F50008160C1604FF4602101614FF480014161C3
:104F60000021017641768176C17601774177FDF7A0
:104F7000BFFE08B1FDF77CFB10BD000000640040DF
:104F8000E00A002010B50E480E4908600220486073
:104F900000210C488160C1604FF4602101614FF431
:104FA000800141610021017641768176C1760177E9
:104FB0004177FDF79DFE08B1FDF75AFB10BD0000DB
:104FC00000680040080B002008B500BF00200090DA
:104FD0000A48006840F40010084908600846006864
:104FE00000F40010009000BF00BF002205210F2038
:104FF000FEF77EFC0F20FEF767FC08BD303802404C
:1050000010B50B4A00210B4804F000F80A4908606B
:105010000A4A00210A4803F0F9FF0A4908600A4ACF
:1050200000210A4803F0F2FF0949086010BD0000A2
:10503000A8B90008255300080C000020CCB90008CE
:10504000D521000810000020F0B900089DA200083A
:105050001400002000B587B0142102A8FBF797FDCB
:1050600000BF002001902E48006840F004002C4949
:1050700008600846006800F00400019000BF00BF0F
:1050800000BF002001900846006840F080000860E2
:105090000846006800F08000019000BF00BF00BF1C
:1050A000002001900846006840F0020008600846B1
:1050B000006800F00200019000BF00BF00BF0020A8
:1050C00001900846006840F001000860084600684A
:1050D00000F00100019000BF00BF0122D103114880
:1050E000FEF738FB002201210E48FEF733FB48F2A1
:1050F000010002900120039000200490059002A975
:105100000848FEF72BFA4FF400400290002003906D
:10511000049002A90448FEF721FA07B000BD000080
:1051200030380240000802400000024010B50A4832
:105130000A490860532048600021084881604FF602
:10514000FF71C1600021016180218161FFF788F852
:1051500008B1FDF78DFA10BD001C0040C00B002007
:1051600000B589B00020079008901C216846FBF725
:105170000EFD4FF080401749086000204860002174
:1051800014488160491EC160002101618161FFF7FF
:1051900040FB08B1FDF76CFA00200790089007A9C2
:1051A0000C48FFF703F808B1FDF762FA60200090A1
:1051B00000200190029004900C2269460548FFF7F8
:1051C000A6FA08B1FDF754FA0248FFF749FA09B008
:1051D00000BD0000300B002000B58DB0002009900C
:1051E0000A900B900C90079008901C216846FBF7E2
:1051F000CEFC2C482C4908600020486000212A4839
:1052000081604FF6FF71C160002101618161FFF78C
:1052100027F808B1FDF72CFA4FF48050099009A93E
:105220002148FFF7DFF808B1FDF722FA1E48FFF723
:10523000F0FA08B1FDF71CFA00200790089007A9C2
:105240001948FEF7B3FF08B1FDF712FA602000908D
:105250000020019002900490002269461248FFF756
:1052600056FA08B1FDF704FA042269460E48FFF722
:105270004EFA08B1FDF7FCF9082269460A48FFF723
:1052800046FA08B1FDF7F4F90C2269460648FFF723
:105290003EFA08B1FDF7ECF90348FFF7E1F90DB06C
:1052A00000BD000000040040780B002010B50A4843
:1052B0000A4908600A484860002108488160C160C6
:1052C00001610C21416100218161C161FFF784FC12
:1052D00008B1FDF7CDF910BD004C0040080C0020CE
:1052E00040420F0010B50A480A4908600A48486061
:1052F000002108488160C16001610C2141610021E9
:105300008161C161FFF768FC08B1FDF7B1F910BD1B
:1053100000100140800C002000093D0000BFFEE7A6
:1053200000BFFEE71CB54FF4FA60FEF703F909E091
:105330000BA09221104B11A2CDE9001015A1012064
:1053400002F00EFE01F052FB0028F1D100BF012156
:105350001448FEF7F5F94FF47A7003F001FEF6E712
:105360004572726F72205768696C65206170702099
:10537000696E69742100000014BA00082E2E2F43B4
:105380006F72652F5372632F6672656572746F73E7
:105390002E63000044454641554C545F5441534BE5
:1053A000000000000008024010B54FF0E020006946
:1053B00005F0DCFE012801D005F0F8FA10BD000070
:1053C00000B593B0342106A8FBF7E1FB142101A836
:1053D000FBF7DDFB00BF002000902548006840F08F
:1053E0008050234908600846006800F08050009013
:1053F00000BF00BF00BF002000901E48006840F4BE
:1054000040401C4908600846006800F44040009095
:1054100000BF00BF012006900004079002200C90FE
:1054200041050D9106210E91A8210F9102211091A5
:10543000072111910221129106A8FEF741FC08B143
:10544000FDF716F90F200190022002900020039032
:105450004FF4A05004904FF480500590052101A80E
:10546000FEF798FA08B1FDF703F913B000BD00008C
:1054700040380240007000400548006840F4700069
:10548000034908604FF000600149803908607047A7
:1054900088ED00E010B50248FFF72BF810BD0000C2
:1054A000580D002010B510480068006900F0010098
:1054B000C0B10D480068C06800F0010090B10B4811
:1054C000036840684FF480329A1840F100000749A1
:1054D0000A6048606FF001000349096808610248EA
:1054E000FFF7E4F910BD0000C00B002048000020C9
:1054F00010B502682B4B98420ED0B0F1804F0BD004
:10550000294B984208D0294B984205D0284B984205
:1055100002D0284B984203D122F070024B681A4304
:10552000204B984220D0B0F1804F1DD01E4B9842A6
:105530001AD01E4B984217D01D4B984214D01D4BC9
:10554000984211D01C4B98420ED01C4B98420BD065
:105550001B4B984208D01B4B984205D01A4B9842DF
:1055600002D01A4B984203D122F44072CB681A43FE
:1055700022F080034C6943EA04028B68C3620B6823
:105580008362084B984202D00A4B984201D10B69C2
:105590000363036843F00403036001234361026073
:1055A00010BD000000000140000400400008004061
:1055B000000C004000040140004001400044014054
:1055C0000048014000180040001C0040002000403E
:1055D00030B50C46816821F47F4142EA032525431A
:1055E0002943816030BD0A46816821F0700142F094
:1055F000070319438160704730B5026A056A25F0D8
:10560000010505624368846924F0700424F00304F2
:105610000D682C4322F002028D682A43104DA842E7
:1056200000D103E00F4DA84206D100BF22F00802CE
:10563000CD682A4322F00402094DA84202D0094D48
:10564000A84207D123F4807323F400734D692B43E0
:105650008D692B43436084614D684563026230BDB0
:10566000000001400004014030B5026A056A25F0DF
:10567000100505624368846924F4E04424F440740E
:105680000D6844EA052422F020028D6842EA0512E2
:10569000124DA84200D103E0114DA84207D100BF2E
:1056A00022F08002CD6842EA051222F040020B4D42
:1056B000A84202D00A4DA84209D123F4806323F402
:1056C00000634D6943EA85038D6943EA85034360BE
:1056D00084614D688563026230BD000000000140B6
:1056E0000004014030B5026A056A25F48075056240
:1056F0004368C46924F0700424F003040D682C434B
:1057000022F400728D6842EA0522124DA84200D1AF
:1057100003E0114DA84207D100BF22F40062CD681A
:1057200042EA052222F480620A4DA84202D00A4DC4
:10573000A84209D123F4805323F400534D6943EA6E
:1057400005138D6943EA05134360C4614D68C56361
:10575000026230BD000001400004014030B5036A20
:10576000056A25F4805505624468C26922F4E04266
:1057700022F440720D6842EA052223F400538D683A
:1057800043EA0533084DA84202D0084DA84204D18F
:1057900024F480444D6944EA85144460C2614D6834
:1057A0000564036230BD00000000014000040140B8
:1057B00030B50B461446026A056A25F001050562FC
:1057C000816921F0F00141EA041122F00A021A4332
:1057D0008161026230BD30B50B461446026A056A2B
:1057E00025F010050562816921F4704141EA043118
:1057F00022F0A00242EA03128161026230BD000081
:1058000010B50248FFF764F810BD0000080C002036
:1058100070B50546AC6B0020E0852046A16D884739
:1058200070BD70B505460026AC6B20684069C0F3BA
:10583000C01694F84100212805D126B10020E0844B
:10584000204600F08FF820684069C0F3801694F875
:105850004200222805D126B10020E085204600F034
:105860003BF8606C40F0100060642046A16D8847F2
:1058700070BD70B50546AC6B2868006800F4807098
:10588000F8B90020E08400BF00BF2168143151E85E
:10589000001F21F080002168143141E80002002A35
:1058A000F3D100BF00BF00BF21680C3151E8001FD9
:1058B00041F0400021680C3141E80002002AF3D198
:1058C00002E02046E16C884770BD70B50446A56BC8
:1058D0002846A96C884770BD00BF00BF02680C3223
:1058E00052E8002F22F4907102680C3242E8001353
:1058F000002BF3D100BF00BF00BF0268143252E892
:10590000002F22F001010268143242E80013002B3C
:10591000F3D100BF016B01290ED100BF00BF0268A7
:105920000C3252E8002F22F0100102680C3242E8DB
:105930000013002BF3D100BF202180F8421000217A
:105940000163704710B504462068C06820F040002D
:105950002168C860202084F841002046E16C884717
:10596000002010BD00BF00BF02680C3252E8002FBB
:1059700022F0C00102680C3242E80013002BF3D180
:1059800000BF202180F84110704700000949816460
:105990000949C164094901650949416509498165A8
:1059A0000949C16509490166094941660949C16654
:1059B000704700003F4F00083D4F00089F4E000811
:1059C0009D4E0008CF480008C9480008CD4800088F
:1059D000CB480008C7480008F8B504460025002653
:1059E00094F84200222873D1A068B0F5805F0BD1F3
:1059F000206948B9A66A20684068C0F30800308072
:105A0000A06A801CA06214E0A56AA068B0F5805F5F
:105A100003D0A06828B9206918B9206840682870A8
:105A200004E02068406800F07F002870A06A401CF5
:105A3000A062E08D401E80B2E085002846D120683B
:105A4000C06820F020002168C8602068C06820F489
:105A500080702168C8602068406920F001002168DA
:105A60004861202084F8420000206063206B0128F8
:105A700026D10020206300BF00BF21680C3151E80F
:105A8000001F21F0100021680C3141E80002002ABB
:105A9000F3D100BF2068006800F0100010280AD180
:105AA00000BF0020009020680068009020684068D7
:105AB000009000BF00BFA18D2046E26E904702E03B
:105AC0002046616D88470020F8BD01E00020FBE71B
:105AD0000220F9E72DE9F84F04462068006920F418
