:020000040800F2
:1000000008180020D10300089741000811040008D7
:100010009541000859200008074900080000000029
:1000200000000000000000000000000011030008B4
:100030004F210008000000006D03000899410008EE
:10004000EB030008EB030008EB030008EB030008D8
:10005000EB030008EB030008EB030008EB030008C8
:10006000EB030008EB030008EB030008EB030008B8
:10007000EB030008EB030008EB0300087520000801
:10008000EB030008EB030008EB030008EB03000898
:100090005D200008EB030008EB030008EB030008F9
:1000A000EB030008EB030008EB030008EB03000878
:1000B000EB030008EB030008EB030008EB03000868
:1000C000EB030008EB030008EB030008EB03000858
:1000D000EB030008EB030008EB030008EB03000848
:1000E000EB030008EB030008EB030008EB03000838
:1000F0007542000869420008EB030008EB030008A2
:10010000EB030008EB030008EB030008EB03000817
:1001100099450008EB030008EB030008EB03000817
:10012000EB030008EB030008EB030008EB030008F7
:10013000EB0300080000000000000000EB030008D3
:1001400069200008EB030008EB030008EB0300083C
:10015000EB030008EB030008EB030008EB030008C7
:10016000EB030008EB030008EB030008EB030008B7
:10017000EB030008EB030008EB030008000000009D
:1001800000000000EB030008000000000000000079
:10019000EB0300080000000000000000EB03000873
:1001A000000000000000000000000000EB03000859
:1001B000EB030008EB030008EB030008EB03000867
:1001C000EB03000800F002F800F092F80AA090E8B3
:1001D000000C82448344AAF10107DA4501D100F002
:1001E00087F8AFF2090EBAE80F0013F0010F18BF3D
:1001F000FB1A43F001031847BC670000DC670000EE
:10020000103A24BF78C878C1FAD8520724BF30C842
:1002100030C144BF04680C60704700000023002414
:1002200000250026103A28BF78C1FBD8520728BF06
:1002300030C148BF0B6070476E2900F06985702996
:1002400000F0B982662905F0F085652905F0ED8595
:10025000672905F0EA85612905F0E98503681B0A2D
:1002600028BF41F08001692900F0EC81642900F089
:10027000E981752900F0E6816F2900F01886782958
:1002800000F08582E92900F01982E42900F0168245
:10029000F52900F01382EF2900F01586F82900F007
:1002A00084820368DB0928BF41F08001632900F0E4
:1002B0007285732900F07785E32901F0A781F3297E
:1002C00001F0AC81002070471FB505F0A9FD01F0D9
:1002D000F7F904000020002105F08CFD401C60604F
:1002E0000020002105F070FDE0601FBD10B510BDBD
:1002F00001F0B8F91146FFF7E7FF05F0A3FB01F0A5
:1003000095FA03B4FFF7F2FF03BC04F02CFB0000E6
:100310002C4B19680868B0E8F04F80F30988BFF3E8
:100320006F8F4FF0000080F31188704700000000CD
:1003300008480068006880F308884FF0000080F3E8
:10034000148862B661B6BFF34F8FBFF36F8F00DFC3
:1003500000BF00BF08ED00E0DFF80C00016841F4C9
:1003600070010160704700BF88ED00E0EFF3098085
:10037000BFF36F8F134B1A681EF0100F08BF20EDEC
:10038000108A20E9F04F106009B44FF0500080F35C
:100390001188BFF34F8FBFF36F8F05F057FC4FF0FD
:1003A000000080F3118809BC19680868B0E8F04FB4
:1003B0001EF0100F08BFB0EC108A80F30988BFF35D
:1003C0006F8F704750000020EFF3058070470000EA
:1003D0000948804709480047FEE7FEE7FEE7FEE7D9
:1003E000FEE7FEE7FEE7FEE7FEE7FEE70448054915
:1003F000054A064B704700004D420008C501000841
:10040000080C002008180020081000200810002008
:100410007046694604F054FBFFF7FEFF704753EA4D
:10042000020C00F069802DE9F04B4FF00006002B24
:100430001FBFB3FA83F503FA05F424FA05F65E400C
:1004400012BF1643B2FA82F502FA05F4C5F120058F
:100450001EBF22FA05FC44EA0C04203556EA044C7F
:100460004FEA144418BF641C4FF000084FF0000915
:10047000904271EB030C39D3002919BFB1FA81F70F
:1004800001FA07F6B0FA80F700FA07F6C7F120077D
:100490001EBF20FA07FC46EA0C062037B6FBF4FC28
:1004A000A7EB0507103F07F01F0BCBF120060CFA56
:1004B0000BFB2CFA06F644BFB3460026202FA4BF40
:1004C0005E464FF0000B5BEA060C08BF4FF0010BD5
:1004D00019EB0B09ABFB027C48EB0608C01B06FBC3
:1004E00002CC0BFB03CC71EB0C01C1E70B460246BF
:1004F00041464846BDE8F08B13B54FF000004FF081
:100500000001AFF30080BDE81C4070477CB51D467C
:1005100016460C00009001D02044401E074B7B443F
:100520002A4669460190304600F00BFC05461CB196
:100530000020694600F018FC28467CBD51080000E8
:100540000FB41CB5084B06AA7B4469460090059879
:1005500000F0F7FB04460020694600F005FC204649
:100560001CBC5DF814FB00001D0800000FB47CB536
:100570000C0009AA009001D02044401E084B7B4487
:1005800069460190089800F0DCFB05461CB100208C
:10059000694600F0E9FB28467CBC5DF814FB0000CE
:1005A000F107000070B5044685690068C10601D5F1
:1005B000302600E02026C00707D070BDD4E9012115
:1005C00030469047206A401C20626D1EF6D570BDF3
:1005D00070B5044685690078C00707D170BDD4E9BD
:1005E000012120209047206A401C20626D1EF6D514
:1005F00070BD70B50C460546012A05D028788006E6
:1006000000D5EA69002302E0012305E05B1C934268
:1006100002D2E05C0028F9D1A869E618C01AA861E6
:10062000286A184428622846FFF7BCFF04E0D5E991
:10063000012114F8010B9047B442F8D32846FFF784
:10064000C7FF70BD2DE9F0410646002410687529EA
:10065000314616A510D000F0F0FA002802DA404228
:1006600013A507E031688A0701D512A502E0490702
:1006700004D511A5012401E000F0E8FA00210A22C6
:1006800006F1240709E0B0FBF2FCB0FBF2F302FB39
:100690001C00303078541846491C0028F3D12346FA
:1006A0002A463046BDE8F04100F0D9BA000000000B
:1006B0002D0000002B000000200000002DE9F0417B
:1006C0008046D21D22F007020025D2E90002F5295A
:1006D00015A614D0011E72F1000106DA0023D0EB3A
:1006E000030063EB020211A608E0D8F800108B07A4
:1006F00001D50FA602E0490701D50EA60125114636
:10070000002408F1240704E000F052FA30323A5590
:10071000641C50EA0102F7D12B463246214640467E
:10072000BDE8F04100F09BBA000000002D00000081
:100730002B00000020000000F0B40D4601880905E0
:1007400002D5214C7C4402E01F4C7C440E34002135
:1007500000F1240608E002F00F071209E75D42EA03
:1007600003721B097754491C52EA0307F3D102783C
:100770000023120704D5702D06D009B102231134CD
:100780002246F0BC00F06BBA01231034F8E770B5D4
:1007900004460D462146106800F058FA02462946E4
:1007A0002046BDE870400023C6E7D21D22F00703B3
:1007B000D3E90023C0E70368126843F02003036015
:1007C0000823C3610023B7E7D95800002DE9F05F83
:1007D000894604464FF0000ADFF874B1FB44C0F8C4
:1007E00020A02046E1688847002874D0252806D03C
:1007F000D4E901219047206A401C2062F1E70026DD
:100800005F462046E16888472028054607DB312DF2
:1008100005D2781910F8200C08B10643F1E7B007AB
:1008200001D526F00406C4F81CA00027C4F818A0BF
:100830002A2D09D0284604F08FF838B304EB870836
:10084000303DC8F8185019E059F8041B204604EB55
:1008500087029161E1688847012F054618D1E06958
:10086000002820DA26F020061DE0D8F8180000EB5A
:10087000800005EB40003038C8F818002046E168D9
:100880008847054604F068F80028EED1012F0AD009
:100890002E2D08D12046E16888477F1C0546022F8F
:1008A00046F02006C4DBA069002803DA404246F087
:1008B0000106A061F00701D026F010066C2D0BD0C8
:1008C000682D09D04C2D39D06A2D35D0742D35D0F6
:1008D0007A2D33D016E038E0E1682F46204688476D
:1008E000B842054609D16C2F26D04FF48060E168EC
:1008F000064320468847054604E06C2F1AD04FF483
:10090000807006430DB3A5F14100192802D82035A7
:1009100046F400664A462946204626604E46FFF7C2
:100920008BFC80B101280BD0F61D26F0070000F1EA
:10093000080956E74020E4E78020D8E70020D6E702
:1009400006F104094DE7284652E7206ABDE8F09F0A
:100950006958000030B505460B462A4613F8014B8E
:1009600012F8010B08B1A042F8D01CB1002802D047
:100970006D1CF1E7284630BD10B5431C02E010F8AD
:10098000011B71B18107FAD14FF0013202C88C1AF4
:100990008C4314EAC211F9D0C01A0A0603D0C01E53
:1009A00010BDC01A10BD0A0401D0801E10BD09027E
:1009B000FCD0401E10BD40EA010370B59B072ED14C
:1009C0004FF00136042A2AD308C810C99D1B9D4345
:1009D000121F15EAC61517D0D8B2E1B2401A50EA74
:1009E000056110D198B2A1B2401A50EA05410AD16E
:1009F00023F07F4024F07F41401A50EA052102D1C4
:100A0000180EA0EB146070BDA342DBD018BA21BA57
:100A1000884201D9012070BD4FF0FF3070BD0AB986
:100A2000002070BD10F8013B11F8014B63B1A342E7
:100A30000AD1521E08D010F8013B11F8014B1BB12E
:100A4000A34201D1521EEDD1181B70BD10B5203A42
:100A5000C0F00B80B1E81850203AA0E81850B1E877
:100A60001850A0E81850BFF4F5AF5FEA027C24BF2D
:100A7000B1E81850A0E8185044BF18C918C0BDE824
:100A800010405FEA827C24BF51F8043B40F8043BED
:100A900008BF7047D20728BF31F8023B48BF11F8A2
:100AA000012B28BF20F8023B48BF00F8012B7047FC
:100AB00002F0FF0343EA032242EA024200F002B8D6
:100AC0004FF000020429C0F0128010F0030C00F077
:100AD0001B80CCF1040CBCF1020F18BF00F8012BF5
:100AE000A8BF20F8022BA1EB0C0100F00DB85FEAC3
:100AF000C17C24BF00F8012B00F8012B48BF00F88F
:100B0000012B70474FF0000200B5134694469646FD
:100B1000203922BFA0E80C50A0E80C50B1F1200110
:100B2000BFF4F7AF090728BFA0E80C5048BF0CC0BE
:100B30005DF804EB890028BF40F8042B08BF70471C
:100B400048BF20F8022B11F0804F18BF00F8012B8E
:100B5000704710B5044610F0030F08BF11F0030FE3
:100B600040F015804FF0013E121FC0F20E8051F888
:100B7000043BA3EB0E0C2CEA030C1CEACE1C08BFB2
:100B800040F8043BF0D0A1F1040102F10402521E2E
:100B900008DB11F8013B002B00F8013BF7D11146AF
:100BA000FFF78EFF204610BD7047704770477047B3
:100BB00030B5B0F10A024FEA900E71F100034EEA2F
:100BC000817EB0EB0E0061EB91014FEA101E4EEA00
:100BD000017E10EB0E0041EB11114FEA102E4EEA90
:100BE000016E10EB0E0041EB11214FEA104E4EEA60
:100BF000014E10EB0E0041EB1141401841F1000194
:100C00004FEAD00040EA41704FEAD10110EB800575
:100C10004FEA810444EA907444EB01046D1944EBFB
:100C20000404521BA3414FF0000348BF0A3200D511
:100C300030BD401C41F1000130BD09684A0501D5B5
:100C400040B27047C905FCD500B2704709684A0533
:100C500001D5C0B27047C905FCD580B270472DE9F7
:100C6000F0470D4699469246044600F12408016873
:100C7000880604D5E06921F01001216000E0012020
:100C8000A84201DD471B00E00027A1697A1902EBA9
:100C90000900081AA0612078C00602D42046FFF798
:100CA00081FC002608E0D4E901211AF806009047EB
:100CB000206A401C761C20624E45F4DB2078C0067A
:100CC0000AD52046FFF76EFC06E0D4E9012130206A
:100CD0009047206A401C2062381EA7F10107F4DC0F
:100CE00007E0D4E9012118F805009047206A401C6C
:100CF0002062281EA5F10105F3DC2046FFF768FC01
:100D00002078000602D50220BDE8F0870120FBE72D
:100D100011680268006A530501D508700AE0D3051E
:100D200001D5088006E0130603D5C217C1E9000209
:100D300000E008600120704701694A1C02610878E0
:100D4000704700B58FB0CDE901310021059105490B
:100D50007944CDE9031011466846FFF737FD0FB01F
:100D600000BD0000E5FFFFFF0A6802F8010B0A6002
:100D70007047D1E900239A4202D2531C0B601070D5
:100D8000704710B5436913B1AFF3008001E0FFF77E
:100D900030FC012010BD127800F124010A700022FD
:100DA0004A700122EDE711684FF0FF32E9E70000D9
:100DB0002DE9FF5F15468A460446DFF8AC80F8440B
:100DC0000027D8E900103E46CDE9001010E03AF8BF
:100DD00016106A4602A800F025FC411C07D02178B5
:100DE000890603D5E269391891420DD80744761C6B
:100DF0002078800602D5E069B84205DDAE42E6DB28
:100E00003AF816000028E2D1A069C01BA061204674
:100E1000FFF7C8FBD8E90010CDE90010002017E06B
:100E20003AF818106A4602A800F0FCFBB0F1FF3F48
:100E300081460BD000250DF1080B05E0D4E9012116
:100E40001BF8050090476D1C4D45F7D308F10100D4
:100E5000B0428046E4DB206A384420622046FFF737
:100E6000B7FBBDE8FF9F00009A52000030B400219C
:100E700000F1240408E002F00705D208303542EA08
:100E80004372DB086554491C52EA0305F3D1046838
:100E9000002310A2250707D5A40600D421B1C469F8
:100EA00001230DA2641EC46130BCFFF7D8BE10B58B
:100EB000044621461068FFF7C9FE02462046BDE8F9
:100EC00010400023D2E7D21D22F00701D1E9002310
:100ED000CCE70000000000003000000070472DE962
:100EE000FF4F0C461E464FF0FF378BB0D2E9000192
:100EF000DDF860800A908A46C1F30A5505B93D467F
:100F0000002108464FF00000BAF1000F00F4400045
:100F100005DA00EB80004FF4400101EA50004FEA8F
:100F20009059B9F1010F00DDB9460A9850EA4A001C
:100F30000ED044F61050A5F2FF3545432F14B8F1FA
:100F4000000F1ED07542291E1EDDC9F100021CE0F3
:100F5000B8F1010F4FF0000001D0302103E0F2435F
:100F600005E02154401CB042FBDB3046002200214A
:100F700021540B99C1F80880C1E900200FB0BDE8E9
:100F8000F08FBD1B6D1CDEE74A4600DA694206A8F9
:100F900000F0DAFB06AB93E8070003AB83E8070039
:100FA00050460A9900F090FC8DE80700A0F500502B
:100FB0001F3800900398002D0ADD42F21F014A46B7
:100FC0000844002303A90390684600F0F9FE09E0F5
:100FD000A0F500504A461F38002303A90390684635
:100FE00000F003FF8DE807000004000C03D04FF071
:100FF000FF30410800E01046B8F1000F03D0002296
:10100000009215461EE0751E05D4FFF7D1FD303263
:1010100062556D1EF9D5B3460122084302D0002265
:101020007F1C04E02078302801D100227F1E002A96
:10103000099784D01DE0112D07DAFFF7B9FD303292
:1010400062556D1C50EA0102F5D1084302D00098A8
:10105000C8B10EE00021681E05E0235C625C6354A9
:101060002254401E491C8142F7DBAB46A81B401EA0
:101070000990002004F80B000B98099AC0F808802A
:10108000C0E9002B7AE711264FF0000857E72DE959
:10109000F04F88460446D21D22F0070191B0D1E9F5
:1010A0000001CDE90A0103F02FFC02460B98C00FA6
:1010B00001D02D2007E02068810701D52B2002E018
:1010C000202101EAC000032A099001D0072A05DB8C
:1010D00003464146204600F0F7FA0BE120788006EF
:1010E00001D5E06900E00620B8F1650F814606D021
:1010F000B8F1660F18D0B8F1670F70D131E0002059
:10110000B9F1110F009001DB112301E009F1010396
:101110000AAA01A90CA8FFF7E2FEDDE90C7000267F
:1011200009F10105834647E001204B4600904FF04E
:1011300000470AAA01A90CA8FFF7D1FEDDE90DB00E
:101140000C995D46002610B909F101000D18B9EBA4
:10115000050003D4C0F1FF3609F10105A5EB090034
:101160002BE0B9F1010F01DA4FF001090020B9F1CC
:10117000110F0090484601DD112300E003460AAA42
:1011800001A90CA8FFF7ABFEDDE90C704D46002667
:101190008346207800070AD4AB4500DA5D4601A8F3
:1011A000012D04DD411911F8011C302907D04F45EC
:1011B00002DA17F1040F04DA012082460FE06D1EF7
:1011C000EEE7002F02DCED1B3E4403E0781CA84252
:1011D00000DD7D1CB81B00F1010A4FF000472078AC
:1011E000000703D4AA4501DB4FF0FF3A0021B7F115
:1011F000004F0DF143088DF8431024D002202B231B
:10120000002F01DA7F422D230A21021EA0F10100E6
:1012100000DC5FB197FBF1FC97FBF1F201FB1C7C5A
:1012200017460CF1300C08F801CDEEE7A8F10100EB
:1012300003702188090501D5452100E06521A0F151
:10124000010800F8011C09980FA9A1EB0807FF1D70
:1012500000B10120411901EBEA70A1693844081A74
:10126000401EA0612078C00602D42046FFF79AF9FC
:10127000099828B1D4E901219047206A401C2062D6
:101280002078C00622D52046FFF78CF91EE0002EFC
:1012900004DBB34502DD01A8805D00E03020D4E925
:1012A00001219047206A401C2062761CAAF10100AF
:1012B0005FEA000A0AD100F003FAC0680168405CE6
:1012C000D4E901219047206A401C2062281EA5F124
:1012D0000105DCDC07E0D4E9012118F8010B904797
:1012E000206A401C2062381EA7F10107F3DC20466B
:1012F000FFF76EF9032011B041E600002DE9F04F31
:1013000004460D46D21D22F0070089B0D0E90097AF
:101310004846394603F0F8FA0246F80F01D02D236B
:1013200007E02068810701D52B2302E0202101EA94
:10133000C0038DF820300BB1012000E00020032A0B
:10134000824601D0072A04DB2946204600F0BCF97A
:101350003FE12078800601D40D2500E0E569C7F360
:101360000A560D2D49DA00214FEA175B08464FF067
:101370000000002F00F4400007DA00EB80004FF47B
:10138000400100EBD07001EA60008115012901DD08
:101390004FF0FF3100224FEA850CBCF1180F06D345
:1013A0001346ACF118004FF08052C24003E04FF4F6
:1013B000801323FA0CF30CF10C0CBCF1200F04D3B6
:1013C000ACF1200C09FA0CF001E007FA0CF000294E
:1013D0004FF0004801DD18B90FE00ED140450CD3A5
:1013E00019EB02095F4121B9404502D19F4329EA27
:1013F0000209BBEB175F00D0761C2088000502D5E0
:101400007B48784402E07A487844193808AA3023A7
:1014100002F80A30037C0AF10101002E0AF1020AE7
:1014200053546A4602DC4FF0300101E04FF03101C5
:101430004FF001088DF8001002D0A6F2FF3603E04D
:1014400059EA470100D06B4E002D02DC21780907D4
:1014500004D54FF002082E218DF80110C44600215A
:101460000BE0C7F303433F01C35C491C6D1E02F848
:101470000830052908F1010801DA002DF1DC00210E
:101480000CE000EB1973491C1B786D1E082902F84B
:1014900008304FEA091908F1010801DA002DF0DCE3
:1014A00021688B0602D516E0A8F10108E04505DDAC
:1014B00002EB080313F8013C302BF5D0B8F1000F14
:1014C00009DD02EB080313F8013C2E2B03D10907B9
:1014D00001D4A8F10108002D05DD3E2102F8081015
:1014E0006D1E08F10108407C002E02F8080008F18A
:1014F000010804DA2D20764202F8080002E02B20D1
:1015000002F808000A214FF47A70864208F10108B7
:101510000BDB96FBF0F3303302F8083096FBF0F368
:1015200008F1010800FB136601E0642E0CDB642067
:1015300096FBF0F3303302F8083096FBF0F308F135
:10154000010800FB136601E00A2E06DB96FBF1F0B2
:10155000303002F8080008F1010896FBF1F001FBB9
:101560001060303002F80800A16908F1010808EBAA
:10157000050202EB0A00081AA0612078C00602D416
:101580002046FFF70FF8216A08AE01EB0A0020623F
:1015900004E0D4E9012116F8010B9047BAF1010AE1
:1015A000F7D22078C00602D52046FEF7FBFF6E4634
:1015B00009E016F8010B3E280FD0D4E9012190472D
:1015C000206A401C2062B8F10108F2D22046FEF7E2
:1015D000FFFF09B00320BDE8F08F206A2844206295
:1015E00003E0D4E90121302090476D1EEBD3F8E7EA
:1015F000714C000002FCFFFF10B5436913B1AFF35B
:10160000008001E0FFF7D4FB012010BD128800F13B
:10161000240182840022C2840122EDE711684FF088
:10162000FF32E9E770B516460C46054600F040F873
:10163000036893F80101012806D0FF2C0FD8185D2C
:1016400068B101202C7070BDD3F8070132462146E5
:1016500003F2071303442846BDE8704018474FF0D3
:10166000FF3070BD754600F0EBF8AE4605006946E8
:10167000534620F00700854618B020B5FEF7B6FEA9
:10168000BDE820404FF000064FF000074FF0000883
:101690004FF0000B21F00701AC46ACE8C009ACE804
:1016A000C009ACE8C009ACE8C0098D46704700002D
:1016B00010B500F005F8001D10BD00BF394700004F
:1016C00000487047C80B00202DE9F0411F46044632
:1016D00003260168072A01F4006004DB08B116A59F
:1016E00005E016A503E008B115A500E015A521F059
:1016F00010002060A069C01EA0610FB1401EA06153
:101700002046FEF74FFF4FB1D4E9012138469047FC
:10171000206A401C2062C01C206206E0206AFAE7B2
:10172000D4E9012115F8010B9047761EF8D2204626
:10173000FEF74EFFBDE8F0814E414E006E616E0037
:10174000494E4600696E66002DE9F047814616460F
:101750008AB0354878440DC88DE80D003248784489
:10176000801C03AC0DC884E80D0041F69B30084492
:10177000372190FBF1F290FBF1F5A5F1800501FB1B
:1017800012041B3C02D56442012000E00020DFF877
:1017900098A080460027FA44AAF1BE0A0EE0E007AE
:1017A0000AD03246684607EB470101230AEB810164
:1017B00000F01BFB8DE8070064107F1C002CEED1AD
:1017C000194F7F44AE3F19E0E80715D007EB04102E
:1017D0000DF1180A90E80E008AE80E00C068F04289
:1017E00001D1981908903246012306A903A800F0F8
:1017F000FCFA03AB83E807006D10641C002DE3D1F5
:101800004FF0010332466946B8F1000F03A802D039
:1018100000F0D6FA01E000F0E8FAC9E90001C9F8E1
:1018200008200AB0BDE8F087B049000010B50446B2
:10183000AFF300802046BDE81040FEF762BD000017
:1018400000487047A80B00204FF0013C50F8042BD3
:1018500051F8043B9A4221D1A2EB0C03934313EAC3
:10186000CC1317D150F8042B51F8043B9A4215D1F0
:10187000A2EB0C03934313EACC130BD150F8042BC7
:1018800051F8043B9A4209D1A2EB0C03934313EAAB
:10189000CC13DBD04FF00000704700BFD01A01BA64
:1018A000B1FA81F101F0180122FA01F0CB40C1F147
:1018B0002001DBB2C0B2C01A2CFA01F3D11A914355
:1018C00011EAC311E6D170475FEA400C08BF91F0FE
:1018D000000F4FEA8C234FEAC12243EA51514FEAED
:1018E0001C5018BF00F5F0404FEA300018BF41F01F
:1018F00000415FEA6C5C00F02980BCF1FF3F08BF4B
:1019000040F080407047130C06BF12044FF0100CDB
:101910004FF0000C130E04BF12020CF1080C130F51
:1019200004BF12010CF1040C930F04BF92000CF1E0
:10193000020CD30F04BF52000CF1010C11464FF002
:101940000002A0F11F00A0EB0C00704711F0004F47
:1019500008BF704731F000413FF4D5AF0B0C06BF14
:1019600009044FF0100C4FF0000C0B0E04BF0902DD
:101970000CF1080C0B0F04BF09010CF1040C8B0FC8
:1019800004BF89000CF1020CCB0F04BF49000CF11D
:10199000010CCCF12003A0EB0C0022FA03F302FAB5
:1019A0000CF241EA030100F10100704720F07F4C86
:1019B00080EA030023F07F47ACEB070303F57C5379
:1019C00000F0004003F1FF032DE980494FEA154B79
:1019D00009B44FEA144325EA0B4E24EA03480FF2F8
:1019E000042606EB132749083E785FEA320203FB20
:1019F0000667C7F5000707FB06F64FEA54374FEABC
:101A0000D64606F1020607FB066CCCF1005C4FEAF5
:101A10001C472CEA074C07FB06F40CFB06F504EB0D
:101A200015464FEA961634BF00204FF000404FEAAB
:101A3000D13706FB07FC4FEA1C4C0CFB0BF7D21B03
:101A400003FB0CF761EB07010CFB0EF7B0EB074053
:101A500072EB17420CFB08F734BFA2EB0742B2EB64
:101A6000074261EB17414FEA0C444FEA910706FB2E
:101A700007FC4FEA1C4C0CFB0BF7B0EBC74072EBBA
:101A8000573203FB0CF734BFA2EBC742B2EBC7429D
:101A900061EB57310CFB0EF7B0EBC70072EB5772DE
:101AA0000CFB08F734BFA2EBC702B2EBC70261EB35
:101AB0005771039F4FEA816141EA921104EBCC0414
:101AC0004FEAD1374FEA826206FB07FC42EA9012E6
:101AD0004FEA80604FEA1C4C0CFB0BF7D21B03FB58
:101AE0000CF761EB07010CFB0EF7B0EB074072EB54
:101AF00017420CFB08F734BFA2EB0742B2EB0742D8
:101B000061EB17414FEA8C554FEA910704EB9C2497
:101B100006FB07FC4FEA1C4C0CFB0BF7B0EBC74075
:101B200072EB573203FB0CF734BFA2EBC742B2EBA8
:101B3000C74261EB57310CFB0EF7B0EBC70072EBFD
:101B400057720CFB08F734BFA2EBC702B2EBC70217
:101B500061EB577115EB4C254FEA816141EA921117
:101B60004FEA82624FEAD13742EA901206FB07FC45
:101B700044F100044FEA80604FEA1C4C0CFB0BF769
:101B8000D21B03FB0CF761EB07010CFB0EF7B0EB6C
:101B9000074072EB17420CFB08F734BFA2EB074279
:101BA000B2EB074261EB174115EB1C154FEA81318F
:101BB00041EA92414FEA823242EA90424FEA803053
:101BC0004FEA0C7644F1000448EA03434EEA0B481E
:101BD0004FF0000EB2EB080C71EB030724BF624616
:101BE00039464EEB0E0E4FF0000B001852414941A2
:101BF0004BEB0B0BB2EB080C71EB03077BF1000B0B
:101C000024BF624639464EEB0E0E4FF0000B001813
:101C1000524149414BEB0B0BB2EB080C71EB030744
:101C20007BF1000B24BF624639464EEB0E0E51EAA3
:101C3000020718BF46F0010616EB0E7655F10002BA
:101C400054F1000103D5BDE88901BDE80088BDE875
:101C50008901BDE80048B619524141EB0101A3F1E9
:101C60000103704780807F7E7D7C7B7A79787776F0
:101C700076757473727171706F6E6E6D6C6C6B6A69
:101C80006A69686867666665646463636261616007
:101C9000605F5F5E5E5D5D5C5C5B5B5A5A59595884
:101CA00058575756565555555454535352525251EE
:101CB000515050504F4F4F4E4E4D4D4D4C4C4C4B44
:101CC0004B4B4A4A4A49494948484847474747468B
:101CD00046464545454444444443434343424242C7
:101CE00042414141002B9C4630D477002BD01CB59B
:101CF0004FEA370703B44FF010004FF01001BAF16C
:101D0000000F06D0BCF1000FDCBF40F0080040F02F
:101D100008014FF000000FBCBDE810400BF1010BB3
:101D2000BBF1010F08BF5FEA170722BF12F10102E2
:101D300011F101014FF0004143F1000300F00040B8
:101D400043EA00007047F9D35708D0E746EA064651
:101D500013F1400F4FEA16461FDD13F1200FDFBFCE
:101D600016430A46002120335B42BED0C3F1200750
:101D700046EA064602FA07F74FEA164646EA07061B
:101D8000C3F1200722FA03F201FA07F721FA03F15F
:101D90004FF0000342EA0702A7E746EA020646EAD6
:101DA00006464FEA164646EA0106BCBF46EA064624
:101DB000360C4FF000034FF000024FF0000194E7A3
:101DC0002DE9804C9A46934670B491E8380007C8D4
:101DD00031EA400C48BF34EA430C03D5FFF7E6FD77
:101DE000FFF780FFF0BCBDE8008C2DE9804C9A46DF
:101DF000934670B491E8380007C810F0804F08BFD0
:101E000013F0804F03D100F005F8FFF76BFFF0BC33
:101E1000BDE8008C20F07F4780EA030023F07F4C70
:101E200007EB0C03A3F57C5300F00040A3F1FE0385
:101E300092F0000F00F0B38095F0000F00F0778073
:101E40002DE901494FEA11404FEA144621EA0048C2
:101E500000FB06FC24EA064708FB06F607FB08F829
:101E600000FB07F718EB06484CEB164C4FEA124BF9
:101E700018EB07484FEA15464CEB174022EA0B4E89
:101E80000BFB06FC25EA06470EFB06F607FB0EFEDB
:101E90000BFB07F71EEB064E4CEB164C4FF0000603
:101EA0001EEB074E4CEB174B18EB0B0840F10000F4
:101EB00018EB0E0B58EB000840F100008F1A4FF0A2
:101EC00000013CBFC943661B14BFB5EB040C0021E5
:101ED0003CBFC943F61B4FEA17444EEA8E0E27EA71
:101EE00004454FEA1C4704FB07622CEA074C05FB3C
:101EF00007F70CFB05F604FB0CFC16EB074642EB60
:101F0000174216EB0C4642EB1C421BEB060658EB45
:101F10000202414146EA9E0601D5BDE80189B61993
:101F2000524141EB0101A3F10103BDE801894FEAF0
:101F300014454FEA114724EA054621EA074C05FB00
:101F400007F406FB07F70CFB06F105FB0CFC11EB95
:101F5000074144EB17444FEA124711EB0C4144EBA5
:101F60001C4422EA074C05FB07F206FB07F70CFBB3
:101F700006F605FB0CFC16EB074642EB174216EB88
:101F80000C4642EB1C456A1854F1000148BF7047EB
:101F9000B619524141EB0101A3F10103704795F0DD
:101FA000000F37D04FEA11424FEA144721EA0246A8
:101FB00024EA074C02FB07F106FB07F70CFB06F4CB
:101FC00002FB0CFC14EB074441EB17414FEA1547A9
:101FD00014EB0C4441EB1C4125EA074C02FB07F5CE
:101FE00006FB07F70CFB06F602FB0CFC16EB07469C
:101FF00045EB174516EB0C4645EB1C42121951F107
:10200000000148BF7047B619524141EB0101A3F1ED
:10201000010370474FEA14454FEA114724EA054689
:1020200021EA074C05FB07F106FB07F70CFB06F25C
:102030004FF0000605FB0CFC12EB074241EB174189
:1020400012EB0C4251EB1C4148BF7047921841EB18
:102050000101A3F101037047FEE70000014800F011
:102060007AB800008C000020014800F074B800002D
:10207000B4000020014800F0FDBA00008C020020EE
:102080000168CAB2103A1823B2FBF3F2064B9B5C0C
:10209000C3656FF30901032A02D9091D816500E0B8
:1020A0008165806D70470000375E000810B50146FD
:1020B00000208A6A8B694FF0C074002B0ED0B3F5F4
:1020C000005F1AD062B3012A2AD0022A28D0032A3C
:1020D00003D1C96AC90100D5012010BD1AB1012A76
:1020E00006D0022AF9D1C96AC901F6D5012010BD6E
:1020F000C96AA142FBD1012010BD52B1012A0AD008
:10210000022A06D0032AF7D1C96AA142F4D10120DC
:1021100010BD012010BDC96AC901FBD5012010BD49
:10212000012010BD30B50468256825F480252560A0
:10213000046863608368402B04D00368996000687A
:10214000C26030BD03689A600068C16030BD7047EE
:1021500072B6FEE770472DE9F05F05460024286857
:102160004669D0F804908768D0F80CA0D0F810B079
:10217000D0F81880F10748D0F90714D00121816008
:10218000B80703D5284600F015FA0CE0780702D509
:102190004FF4006407E0380702D54FF4805402E0A2
:1021A000284600F006FAF80516D529684FF4807025
:1021B0008860B80503D5284600F0FEF90CE07805E4
:1021C00002D544F4005407E0380502D544F48044B5
:1021D00002E0284600F0EFF9F80316D529684FF41D
:1021E00080308860B80303D5284600F0E7F90CE09A
:1021F000780302D544F4004407E0380302D544F4E0
:10220000803402E0284600F0D8F9300707D55FEAAD
:10221000CA6004D544F4007429681020C8607007AF
:102220004FF0080707D55FEA0A7004D52868C76031
:10223000284600F0B9F9B00706D52868C0688007BD
:1022400002D0284600F0B1F9700607D55FEACB60EE
:1022500004D544F48064296810200861B00607D5CD
:102260005FEA0B7004D528680761284600F09EF9E4
:10227000F00606D528680069800702D0284600F0DD
:1022800096F9B00308D55FEAC96005D52968102022
:102290004860284600F08CF9F00307D55FEA097022
:1022A00004D528684760284600F089F9300446D5EF
:1022B0005FEA497040D5F00504D55FEAC87001D0E7
:1022C00044F00104B00504D55FEA887001D544F0FC
:1022D0000204700504D55FEA487001D544F0040497
:1022E000300529D518F0700F26D008F0700040286E
:1022F00015D006DC102809D020280AD0302816D1A5
:102300000AE050280ED0602811D10EE044F00804F5
:102310000DE044F010040AE044F0200407E044F02B
:10232000400404E044F0800401E044F48074286830
:10233000816921F070018161296804204860002CC6
:1023400005D0686A204368622846FFF703FFBDE8AE
:10235000F09F70B50446002C03D094F8200010B113
:1023600004E0012070BD204600F09CF82068016860
:1023700041F00101016000F003FC054605260CE078
:1023800000F0FEFB401B0A2807D9606A40F40030C9
:10239000606284F82060012070BD20684068C0073A
:1023A000EED02068016821F00201016000F0E8FB36
:1023B00005460CE000F0E4FB401B0A2807D9606AE0
:1023C00040F40030606284F82060012070BD206815
:1023D00040688007EED4207E01283FD02068016845
:1023E00021F080010160607E01283DD020680168F5
:1023F00021F040010160A07E01283BD020680168E7
:1024000021F020010160E07E012839D020680168B8
:1024100041F010010160207F012837D02068016859
:1024200021F008010160607F012835D02068016833
:1024300021F004010160D4E902010843D4E9041247
:10244000114308436168491E08432168C8610020A0
:102450006062012084F82000002070BD20680168BF
:1024600041F080010160BEE72068016841F0400151
:102470000160C0E72068016841F020010160C2E707
:102480002068016821F010010160C4E7206801683C
:1024900041F008010160C6E72068016841F00401CD
:1024A0000160C8E72DE9F04387B00446142102A873
:1024B000FEF728FB384D2268384C2968DFF8D490A5
:1024C000364B02273648491C103400264FF0030CC7
:1024D0004FF009084A4529D12960012907D121680F
:1024E00041F000712160216801F0007101911968CB
:1024F00041F002011960196801F0020101914FF4E5
:102500004071029103970496CDF814C0CDF818805D
:1025100002A900F04BFA00220521142000F0CEFBA6
:10252000142000F0BDFB07B0BDE8F083DFF8749025
:102530004A45F8D1226842F080622260226802F0A7
:10254000806201922960012907D1216841F0007160
:102550002160216801F000710191196841F00201C8
:102560001960196801F0020101914FF44051029184
:1025700003970496CDF814C0CDF8188002A900F096
:1025800015FA00220521402000F098FB402000F0C1
:1025900087FBC8E70064004000000020303802409C
:1025A0000004024000680040704770477047704761
:1025B0007047704770477047704770477047704763
:1025C0002DE9F0410446A76D00F0DAFA054694F8CB
:1025D00035000026022806D08020606584F834602B
:1025E0000120BDE8F0812068016821F0160101603A
:1025F0002068416921F080014161206C08B9A06C1C
:1026000020B12068016821F008010160206801689C
:1026100021F0010101600BE000F0B2FA401B052837
:1026200006D9202034342062032060702670D8E759
:1026300020680068C007EFD134343F2094F8281098
:102640008840B8600120607026700020C9E790F8CB
:102650003510022903D080214165012070470521F2
:1026600080F835100068016821F001010160002048
:10267000704700002DE9F84304464FF00009CDF8FB
:1026800000906F484FF416510068B0FBF1F7A56D4C
:102690002E6894F85C00082202FA00F1314210D052
:1026A0002068016849070CD5016821F00401016028
:1026B00094F85C0002FA00F1A960606D40F001003E
:1026C000606594F85C104FF0010808FA01F03042A0
:1026D00008D021684969090604D5A860606D40F0FA
:1026E0000200606594F85C1004208840304208D0F5
:1026F00021680968890704D5A860606D40F004006E
:10270000606594F85C1010208840304220D0216829
:10271000096809071CD5A8602068016849030CD521
:102720000068000304D4216C91B1204688470FE073
:10273000A16C69B1204688470AE00168C90503D445
:10274000016821F008010160216C09B12046884729
:1027500094F85C102020884030424CD021680968F1
:10276000C90648D5A86094F8350005280BD0206824
:102770000168490330D50068000328D4616C51B367
:102780002046884737E02068016821F01601016083
:102790002068416921F080014161206C08B9A06C7A
:1027A00020B12068016821F00801016094F85C10F4
:1027B0003F208840A86084F8358084F83490216DEB
:1027C00000293BD001B02046BDE8F0430847E16B4B
:1027D00009B1204688470EE00168C90507D40168A1
:1027E00021F01001016084F8358084F83490E16BA9
:1027F00009B120468847606D00281FD0606DC00772
:1028000014D0052084F835002068016821F001010A
:1028100001600098401C0090B84203D8206800680E
:10282000C007F6D184F8358084F83490E16C002933
:1028300004D001B02046BDE8F0430847BDE8F88366
:10284000100000202DE9F041044600F099F90546FA
:102850005CB1022084F83500002684F834602068DA
:10286000016821F0010101600DE00120BDE8F08167
:1028700000F086F9401B052805D92020606503205B
:1028800084F83500F2E720680068C007F0D12168BD
:102890000A6820480240D4E901031843D4E903350B
:1028A0002B43184363691843A3691843E36918432A
:1028B000236A18431043626A042A03D1D4E90B2324
:1028C0001A43104308602068406920F00700656AD9
:1028D00029460543012704290DD1A06A0543E06A72
:1028E00048B12046FFF7E2FB28B14020606584F83C
:1028F00035700120BAE7206845612046FFF7C0FB2C
:1029000094F85C203F2191408160666584F83570C1
:102910000020ABE73F8010F02DE9F0410446002590
:10292000A66D94F8340001280DD0012084F83400FD
:1029300094F835700020012F07D084F83400022568
:102940002846BDE8F0810220FBE7022784F83570B5
:1029500060652046FFF7E6FB94F85C103F20884056
:10296000B0602068016841F016010160206C20B160
:102970002068016841F0080101602068016841F0A9
:1029800001010160DCE7000070B5044600F0F8F8D2
:102990000546601C02D004480078044400F0F0F8BA
:1029A000401BA042FAD370BD040000202DE9F84F6F
:1029B0000022DFF894914FF0010803274FF00F0C2D
:1029C00009F1040AA9F1040B08FA02F50B682B407F
:1029D000AB426ED10C7904F00304012C01D0022C1F
:1029E00015D18668540007FA04FE26EA0E06D1F8CF
:1029F0000CE00EFA04FE4EEA060EC0F808E0446849
:102A0000AC430D79C5F300159540254345600C791D
:102A1000E443A40708D0C568540007FA04F6B54398
:102A20008E68A6402E43C6600C7904F00304022C85
:102A300011D1D40800EB8406356A5407E40E0CFA71
:102A400004FE25EA0E05D1F810E00EFA04FE4EEA67
:102A5000050EC6F820E00568540007FA04F6B543F1
:102A60000E7906F00306A6402E4306604C6814F467
:102A7000403F62D0354C256845F480452560246888
:102A800004F480440094324C22F003052E19D6F849
:102A9000085894074FEA147E0CFA0EF4A5432D4C07
:102AA000A04201D100241FE02B4CA04202D10124FE
:102AB0001AE042E0294CA04201D1022414E0284C43
:102AC000A04201D103240FE0264CA04201D10424EE
:102AD0000AE0254CA04201D1052405E0234CA04288
:102AE00001D1062400E0072404FA0EF42C43C6F8B2
:102AF0000848D9F800409C434D68ED0200D51C43BE
:102B0000C9F80040DAF800409C434D68AD0200D59A
:102B10001C43CAF80040DBF800409C434D68AD03FD
:102B200000D51C43CBF80040074D083D2C689C4362
:102B30004E68F60300D51C432C60521C102AFFF48B
:102B400043AFBDE8F88F0000083C01404438024024
:102B50000030014000000240000402400008024032
:102B6000000C024000100240001402400018024015
:102B7000002A01D08161704709048161704700001B
:102B80000148806870470000040000200248816806
:102B900002781144816070470400002010B50B4892
:102BA000016841F400710160016841F480610160D5
:102BB000016841F480710160032000F09FF80F204C
:102BC00000F006F800F050F8002010BD003C024074
:102BD00030B587B0054600241E48016841F4807175
:102BE0000160006800F48070009001A902A800F064
:102BF0003DF90598A8B100F05DF940001649B0FB19
:102C0000F1F1491E1648154A026040F2E732C260EF
:102C1000416004618460846100F00CFC04461CB1D6
:102C200015E000F047F9E9E70D4800F053FC0446D1
:102C30006CB92D2000F034F8102D07D2002229465F
:102C40002D2000F03BF80748056000E0012407B0A4
:102C5000204630BD4038024040420F000020004076
:102C6000EC0200200800002082B00C48016841F40A
:102C700080410160006800F4804001900748001F17
:102C8000016841F080510160006800F080500190BF
:102C900000220F21901E02B000F010B8443802400C
:102CA000002809DB00F01F0201219140400980004B
:102CB00000F1E020C0F8001170470000F0B40D46AC
:102CC0000D4B1B68C3F30223C3F10704042C00D986
:102CD0000424191D072901D2002300E0DB1E012670
:102CE00006FA04F1491E294099409E40761E16407E
:102CF0003143F0BC01F020BE0CED00E000F0070114
:102D0000054A10684FF6FF03184040EA01200349C6
:102D100008431060704700000CED00E00000FA0569
:102D20002DE9F04704460D46002C13D0DFF828911A
:102D3000D9F80000EFB200F00F00A8420CD289F8D9
:102D40000070D9F8000000F00F00A84204D0012064
:102D5000BDE8F0870120FBE72068404E810712D5CF
:102D6000400703D5306840F4E05030602078000719
:102D700003D5306840F4604030603068A16820F0CE
:102D8000F000084330602078C00731D033496068D4
:102D90000839012808D002280BD0032809D0096877
:102DA00089070BD40120D3E70968890306D40120E1
:102DB000CEE70968890101D40120C9E7316821F013
:102DC000030101433160FFF7DBFE804641F2883AA0
:102DD00007E0FFF7D5FEA0EB0800504501D903201E
:102DE000B6E73068616800F00C00B0EB810FF0D1FD
:102DF000D9F8000000F00F00A84209D989F8007046
:102E0000D9F8000000F00F00A84201D001209FE790
:102E10002078400705D53068E16820F4E050084389
:102E200030602078000706D53068216920F46040C2
:102E300040EAC100306000F05DF83168084AC1F333
:102E40000311515CC8400749086007480068FFF754
:102E5000BFFE00207CE70000003C02400838024032
:102E60003F5E000810000020080000200F220260D2
:102E70000B4A136803F003034360136803F0F00385
:102E80008360136803F4E053C360126802F4604285
:102E9000D20802610348006800F00F000860704724
:102EA00008380240003C02400148006870470000BA
:102EB0001000002000B5FFF7F7FF04490968044A35
:102EC000C1F38221515CC84000BD000008380240B7
:102ED0004F5E000800B5FFF7E7FF04490968044AA0
:102EE000C1F34231515CC84000BD000008380240C7
:102EF0004F5E000810B52648006810F00C01254808
:102F000018D0254B042914D0214C241F082912D095
:102F10000C290FD1216801F03F022168490229D50F
:102F20002068C0F38810A0FB03010023FDF777FAA7
:102F300028E0184610BD216801F03F0221684902CF
:102F400008D52068C0F38810A0FB03010023FDF71B
:102F500066FA07E021680023C1F38811A1FB000194
:102F6000FDF75DFA2168C1F30141491C4900B0FB3E
:102F7000F1F010BD21680023C1F38811A1FB00010D
:102F8000FDF74DFA2168C1F30271B0FBF1F010BDFD
:102F9000083802400024F400001BB7002DE9F84F68
:102FA0000446002C11D02078F74FC007A7F1040584
:102FB0005CD0381D0168C1F38101012913D001687B
:102FC000C1F38101022903D005E00120BDE8F88F9B
:102FD0003968490207D40068C0F38100032809D189
:102FE0003868400206D5286880033FD5606870BB0A
:102FF0000120EBE76068B0F5803F10D0B0F5A02F5E
:1030000012D0286820F480302860286820F48020BE
:1030100028606068E0B1FFF7B3FD064614E0286859
:1030200040F480302860F4E7286840F4802028606D
:10303000286840F480302860EBE7FFF7A1FD801B93
:10304000642801D90320C1E728688003F5D50DE085
:10305000FFF796FD064606E0FFF792FD801B642809
:1030600001D90320B2E728688003F5D42078DFF87F
:103070001C8380074FF0000950D5C348001D01682C
:1030800011F00C0F0FD00168C1F38101022902D1A8
:103090003968490207D50068C0F38100032812D1BE
:1030A000386840020FD42868800704D5E0680128FA
:1030B00001D001208AE72868216920F0F80040EA61
:1030C000C10028602AE0E068C0B10120C8F8000013
:1030D000FFF756FD064606E0FFF752FD801B02286B
:1030E00001D9032072E728688007F5D5286821698F
:1030F00020F0F80040EAC10028600FE0C8F8009016
:10310000FFF73EFD064606E0FFF73AFD801B02286A
:1031100001D903205AE728688007F5D420780007F2
:1031200027D5994E9A486169703689B101210160AD
:10313000FFF726FD824607E0FFF722FDA0EB0A001D
:10314000022801D9032041E730688007F4D510E058
:10315000C0F80090FFF714FD824607E0FFF710FD6E
:10316000A0EB0A00022801D903202FE7306880076E
:10317000F4D4207840076ED54FF0000A82483C30E6
:103180000068C0000BD480483C30016841F0805199
:103190000160006800F0805000904FF0010ADFF8F5
:1031A000F4B1DBF80000C00514D4DBF8000040F4F3
:1031B0008070CBF80000FFF7E3FC064606E0FFF75F
:1031C000DFFC801B022801D90320FFE6DBF80000AA
:1031D000C005F4D5DFF8B0B1A0680BF16C0B012885
:1031E00013D0052818D0DBF8000020F00100CBF840
:1031F0000000DBF8000020F00400CBF80000A0681D
:1032000028B3FFF7BDFC06461CE0DBF8000040F0E9
:103210000100CBF80000F2E7DBF8000040F004000A
:10322000CBF80000DBF8000040F00100CBF8000014
:10323000E5E7FFF7A5FC811B41F28830814201D907
:103240000320C3E6DBF800008007F2D511E0FFF7AA
:1032500097FC064609E015E0FFF792FC811B41F25E
:103260008830814201D90320B0E6DBF800008007F6
:10327000F2D4BAF1010F05D143483C30016821F086
:1032800080510160A069D8B33F49091D09684FF01A
:10329000FF36C1F38101022949D0022805D0C8F8C0
:1032A0006090FFF76DFC04463DE0C8F86090FFF7C2
:1032B00067FC814607E0FFF763FCA0EB09000228EA
:1032C00001D9032082E628688001F4D454F81C0F49
:1032D0006168E2680843A16806EB5202890141EA8D
:1032E00002410843217C40EA0160217D40EA0170EF
:1032F00038600120C8F86000FFF742FC044607E090
:103300004CE0FFF73DFC001B022801D903205DE6DD
:1033100028688001F5D541E0FFF732FC001B022848
:1033200001D9032052E628688001F5D436E001284F
:1033300032D03868E26900F48001914221D1226ADA
:1033400000F03F0191421CD147F6C071626A014012
:10335000B1EB821F15D1A26A00F4403106EB520294
:10336000B1EB024F0DD194F82C2000F07061B1EB5D
:10337000026F06D194F8301000F0E040B0EB017F0E
:103380000CD0012022E60000043802400000474231
:10339000800E474200700040012017E6002015E62D
:1033A0007047704770B590F83C20012A31D0012653
:1033B00080F83C60022280F83D20026854689368DF
:1033C00024F070050C682C435460134C0268A24230
:1033D00014D0B2F1804F11D0104CA2420ED0104C3C
:1033E000A2420BD00F4CA24208D00F4CA24205D0F3
:1033F0000E4CA24202D00E4CA24204D123F0800314
:103400004968194391603C304670002101700020EA
:1034100070BD022070BD00000000014000040040AB
:1034200000080040000C0040000401400040014042
:103430000018004010B50446002C03D094F83D005D
:1034400010B107E0012010BD002084F83C002046A8
:1034500000F016F8022084F83D00211D206800F0DD
:103460002BFF01203D3460726070A070E07020710D
:103470006071A071E07120722070002010BD00000A
:1034800008B50068104A1149904208D1086840F018
:1034900002000860086800F00200009008BD0C4AB5
:1034A0009042FBD1086840F080000860086800F096
:1034B00080000090002205212C20FFF7FFFBBDE8D3
:1034C00008402C20FFF7ECBB0004004040380240CD
:1034D000001C004090F83D10012901D001207047E8
:1034E000022180F83D100168CA6842F00102CA60FA
:1034F00000681449884214D0B0F1804F11D01249AD
:1035000088420ED0114988420BD01149884208D018
:103510001049884205D01049884202D00F4988429C
:1035200009D1816801F00701062908D0016841F03E
:103530000101016003E0016841F001010160002028
:1035400070470000000001400004004000080040F7
:10355000000C004000040140004001400018004001
:1035600070B50446002594F83C00012817D00126C8
:1035700084F83C60022084F83D002068826822F0D4
:10358000770222F47F4282600868502838D00DDC30
:10359000202853D005DC90B3102811D14EE0022032
:1035A00070BD30284AD040280AD13DE0602831D093
:1035B00070280CD0B0F5805F03D0B0F5005F12D05A
:1035C00001253C34667000202070284670BDCB6811
:1035D000D1E90121206800F0D9FE2068816841F01E
:1035E00077018160EDE7CB68D1E90121206800F027
:1035F000CDFE2068816841F480418160E1E71DE0F3
:10360000CA684968206800F0A3FF5021206800F0D4
:10361000C7FED6E7CA684968206800F0AAFF6021A3
:10362000206800F0BDFECCE7CA684968206800F059
:103630008FFF4021206800F0B3FEC2E722680146F8
:10364000104600F0ADFEBCE770472DE9F04104469E
:103650002068C56806694FF00007B10714D5A907AF
:1036600012D5F91E0161012020772068806980074A
:1036700003D02046FFF7E8FF05E0204600F0C4F83D
:10368000204600F065F92777700717D5680715D52C
:1036900021686FF0040008610220207720688069AB
:1036A00010F4407F03D02046FFF7CEFF05E0204610
:1036B00000F0AAF8204600F04BF92777300716D51E
:1036C000280714D521686FF00800086104202077CE
:1036D0002068C069800703D02046FFF7B5FF05E0EA
:1036E000204600F091F8204600F032F92777F006E6
:1036F00017D5E80615D521686FF01000086108207D
:1037000020772068C06910F4407F03D02046FFF77F
:103710009BFF05E0204600F077F8204600F018F9FE
:103720002777F00708D0E80706D021686FF001007E
:103730000861204600F00EF9300608D5280606D5A7
:1037400021686FF0800008612046FFF729FE7006AF
:1037500008D5680606D521686FF04000086120464C
:1037600000F002F9B0060AD5A80608D521686FF066
:10377000200008612046BDE8F041FFF712BEBDE819
:10378000F081000010B586B00446142101A8FDF7B1
:10379000B9F92068002218490223B0F1804F17D0F0
:1037A000164CA04212D1086840F004000860086876
:1037B00000F0040000904FF47070019002930392A7
:1037C0000492059301A90E48FFF7F0F806B010BD6A
:1037D000086840F002000860086800F002000090ED
:1037E000042001900293039204920120059001A904
:1037F0000448FFF7DBF8E9E73038024000040040F6
:103800000008024000040240704770B504460D46AF
:10381000002694F83C0001280FD0012084F83C00D9
:103820006AB1042A1FD0082A32D00C2A44D00126BB
:10383000002084F83C00304670BD022070BD29464F
:10384000206800F0B5FD2068816941F008018161C0
:103850002068816921F004018161206881692A69F9
:1038600011438161E4E72946206800F0D5FD206816
:10387000816941F4006181612068816921F480617E
:103880008161206881692A6941EA02218161CFE76B
:103890002946206800F0FAFD2068C16941F008015E
:1038A000C1612068C16921F00401C1612068C1695A
:1038B0002A691143C161BBE72946206800F01EFE5A
:1038C0002068C16941F40061C1612068C16921F4C7
:1038D0008061C1612068C1692A6941EA0221C16130
:1038E000A6E710B50446002C03D094F83D0010B1B3
:1038F00007E0012010BD002084F83C00204600F0C5
:1039000015F8022084F83D00211D206800F0D4FC49
:1039100001203D3460726070A070E07020716071B1
:10392000A071E07120722070002010BD08B5006801
:10393000B0F1804F08D10548016841F001010160F4
:10394000006800F00100009008BD0000403802400F
:103950007047000000680349884201D1FFF716B99B
:10396000704700000020004070477047704700001B
:10397000F8B5044622681068D168536900F00F0654
:10398000002E08D1850606D58D0604D52046BDE853
:10399000F84000F09BBE0025002E66D003F0010623
:1039A00001F49077374360D0C20705D0CA0503D52C
:1039B000626C42F001026264420705D5DA0703D067
:1039C000626C42F002026264820705D5DA0703D016
:1039D000626C42F004026264020707D501F0200223
:1039E000324303D0626C42F008026264626C002AC7
:1039F00031D0800604D5880602D5204600F066FE48
:103A000020684069C0F38010616C090700D438B3A6
:103A1000204600F019FE2068406940061CD5206849
:103A2000143050E8001F21F0400140E80012002A45
:103A3000F5D1E06B60B15F490165E06BFEF707FE11
:103A4000002808D0E06B016D01B0BDE8F0400847E8
:103A50002046FFF78BFFF8BD2046FFF787FFF8BD34
:103A60002046FFF783FF6564F8BD236B012B7DD1F2
:103A7000C3067BD5CB0679D5106850680090506995
:103A80004FF0200340064FF002064FD5E26B10685E
:103A9000406880B2DF00E8B3A18D81423BD9E08568
:103AA000D069B8422DD020680C3050E8001F21F4B6
:103AB000807140E80012002AF5D12068143050E8E7
:103AC000001F21F0010140E80012002AF5D1206812
:103AD000143050E8001F21F0400140E80012002A95
:103AE000F5D184F84230256320680C3050E8001F7F
:103AF00021F0100140E80012002AF5D1E06BFEF73A
:103B00005FFD6663A08DE18D401A81B22046FFF70C
:103B10002CFFF8BDFFE7A18D8142FAD1D069B842F0
:103B2000F7D166632046FFF720FFF2E7A08DE18D15
:103B3000401A81B2E08D0028EBD00029E9D020683E
:103B40000C3050E8002F22F4907240E80027002F3C
:103B5000F5D12068143050E8002F22F0010240E82F
:103B60000027002FF5D184F8423000E00FE02563F4
:103B700020680C3050E8002F22F0100240E80023AB
:103B8000002BF5D166632046FFF7EFFEC1E7020682
:103B900006D50A0604D52046BDE8F84000F084BEEC
:103BA0004006B6D54806B4D52046BDE8F84000F03A
:103BB00072BD0000A545000870B50446002C04D075
:103BC00094F84100002510B106E0012070BD84F892
:103BD0004050204600F024F8242084F8410020685A
:103BE000C16821F40051C160204600F0D3FD206877
:103BF000016921F4904101612068416921F02A01A5
:103C000041612068C16841F40051C16065642020B1
:103C100084F8410084F842006563002070BD000014
:103C2000F0B587B00646142102A8FCF76BFF4D499A
:103C30004B48326800254B4B10390224032782423F
:103C40003CD1186840F400201860186800F4002087
:103C50000190086840F004000860086800F0040063
:103C60000190B802029003940495059708200690ED
:103C700002A93D48FEF79AFE3D4C3C4820604FF0BB
:103C8000006060604020A060E56000012061656127
:103C9000A561E561256265622046FEF7D3FD08B1A6
:103CA000FEF756FAB463A663002205213420FFF71D
:103CB00005F83420FEF7F4FF07B0F0BDDFF8B4C01C
:103CC00007262D4862452DD1264A121D136843F060
:103CD00010031360126802F0100201920A6842F0A9
:103CE00001020A600A6802F0010201920A6842F0C9
:103CF00002020A60096801F0020101914115029176
:103D0000039404950597069602A9FEF74FFE8020BE
:103D10000290039404950597069602A91748FEF7AA
:103D200045FEC9E7DFF858C06245C5D11A6842F4BC
:103D300000321A601A6802F4003201920A6842F0F6
:103D400001020A60096801F0010101910C21029150
:103D5000039404950597069602A9FEF727FEABE7A4
:103D6000004C0040403802400008024070600240B1
:103D70008C020020001001400000024000040240BC
:103D8000004400407047000037B5044694F84100F5
:103D9000202801D002203EBD019919B312B321623F
:103DA000A284E28400206064212384F84130A56B62
:103DB000154BEB63A56B154B2B64A56B144BEB6498
:103DC000A36B186520681346001DA56B02462846A4
:103DD000FEF7A2FD40B110206064202084F841006D
:103DE00001203EBD01203EBD21686FF0400008600B
:103DF0002068143050E8001F41F0800140E80012B4
:103E0000002AF5D100203EBDFD4500083F460008D0
:103E1000B34500087047704710B50F480D49016061
:103E20000221416000218160C1604FF46022026183
:103E30004FF480024261017641768176C176017746
:103E40004177FEF786FA002803D0BDE81040FEF760
:103E50007FB910BD006400408C00002010B50F48F1
:103E60000D4901600221416000218160C1604FF471
:103E7000602202614FF480024261017641768176D0
:103E8000C17601774177FEF764FA002803D0BDE8D8
:103E90001040FEF75DB910BD00680040B40000207E
:103EA00008B50948016841F400110160006800F498
:103EB00000100090002205210F20FEF7FFFEBDE854
:103EC00008400F20FEF7ECBE30380240F0B587B056
:103ED000142102A8FCF716FE00242548016841F0D1
:103EE00004010160016801F004010191016841F0E1
:103EF00080010160016801F080010191016841F0D9
:103F000001010160016801F001010191016841F0C6
:103F100002010160006800F002000190154F48F2B4
:103F20000105002229463846FEF722FE124E0022E5
:103F300008213046FEF71CFE0295012503950494E6
:103F4000059402A93846FEF731FDE8030290039478
:103F5000049402A90948FEF729FD08200290039560
:103F60000494059402A93046FEF720FD07B0F0BD89
:103F700030380240000802400004024000000240C5
:103F800010B50C480A49016053214160002181604D
:103F90004FF6FF72C260016180218161FFF74AFA2A
:103FA000002803D0BDE81040FEF7D2B810BD0000D5
:103FB000001C00406C01002010B58AB00024089459
:103FC00009941C2101A8FCF79DFD15484FF0804184
:103FD000016044608460611EC16004618461FFF718
:103FE00080FC08B1FEF7B4F80894099408A90C48BD
:103FF000FFF7D8F908B1FEF7ABF860200190029402
:10400000039405940C2201A90548FFF7FEFB08B1B3
:10401000FEF79EF80248FFF7B5FB0AB010BD00009E
:10402000DC00002010B58EB000240A940B940C9490
:104030000D94089409941C2101A8FCF763FD2A48FB
:1040400028490160446084604FF6FF71C1600461DB
:104050008461FFF7EFF908B1FEF77AF84FF480506A
:104060000A900AA92048FFF77BFA08B1FEF770F81A
:104070001D48FFF736FC08B1FEF76AF8089409946A
:1040800008A91948FFF78EF908B1FEF761F860201A
:104090000190029403940594002201A91248FFF7AD
:1040A000B4FB08B1FEF754F8042201A90E48FFF74B
:1040B000ACFB08B1FEF74CF8082201A90A48FFF74B
:1040C000A4FB08B1FEF744F80C2201A90648FFF74B
:1040D0009CFB08B1FEF73CF80348FFF753FB0EB01A
:1040E00010BD0000000400402401002010B50C4861
:1040F0000A4901604FF4E131416000218160C160F3
:1041000001610C2242618161C161FFF755FD002808
:1041100003D0BDE81040FEF71BB810BD004C0040B6
:10412000B401002010B50C480A4901604FF4E13198
:10413000416000218160C16001610C2242618161A6
:10414000C161FFF739FD002803D0BDE81040FDF73D
:10415000FFBF10BD00100140FC01002010B50C484D
:104160000A4901604FF4E131416000218160C16082
:1041700001610C2242618161C161FFF71DFD0028D0
:1041800003D0BDE81040FDF7E3BF10BD0044004080
:1041900044020020FEE7FEE710B54FF0E020006982
:1041A00001F09EFD012803D0BDE8104001F082BD62
:1041B00010BD000030B593B0342106A8FCF7A2FC76
:1041C000142101A8FCF79EFC00251E48016841F05F
:1041D00080510160006800F0805000901A4801682A
:1041E00041F440410160006800F44040009001202B
:1041F00006900004079002240C9480010D90062084
:104200000E90A8200F90109407201190129406A8E9
:10421000FEF7C4FE08B1FDF79BFF0F20019002944A
:1042200003954FF4A05004904FF480500590052161
:1042300001A8FEF775FD002801D0FDF789FF13B036
:1042400030BD000040380240007000400548016861
:1042500041F47001016003494FF00060803908604B
:104260007047000088ED00E00148FFF7EEB900005C
:10427000EC02002030B40E4800680169C943C90748
:1042800014D1C168C943C90710D10A490A684B68EB
:104290004FF48034121943F100030A604B606FF051
:1042A0000101016130BC0248FFF754BB30BC7047CC
:1042B0006C010020300000202DE9F0410268284DFB
:1042C000284E294FDFF8A4C0294B4FF08048A84260
:1042D00009D0404507D0B04205D0B84203D0604570
:1042E00001D0984203D122F070044A682243A842C8
:1042F0001BD0404519D0B04217D0B84215D0604508
:1043000013D0984211D01B4CA0420ED01A4CA042A0
:104310000BD01A4CA04208D0194CA04205D0194C21
:10432000A04202D0184CA04203D122F44074CA68C3
:1043300022434C6922F0800222438C68C4620C68DC
:104340008462A84201D0984201D1096901630168E1
:1043500041F004010160012141610260BDE8F0818A
:10436000000001400004004000080040000C004034
:104370000004014000400140004401400048014069
:1043800000180040001C00400020004010B5846868
:1043900024F47F4442EA03220A432243826010BD90
:1043A000826822F070020A4342F007018160704780
:1043B000F0B5056A026A22F001020262436882696E
:1043C00022F0700222F003020C68144325F002056B
:1043D0008A682A430E4E0F4FB04201D0B84205D131
:1043E00022F00805CA682A4322F00402B04201D034
:1043F000B84207D123F4807323F400734D691D4341
:104400008B692B4343608461496841630262F0BD5C
:104410000000014000040140F0B5026A036A23F085
:10442000100303624368846924F4E04424F4407474
:104430000D6844EA052422F020028D6842EA051244
:10444000104D114EA84201D0B04206D122F0800298
:10445000CF6842EA071222F04002A84201D0B042DF
:1044600009D123F4806323F400634D6943EA850393
:104470008D6943EA85034360846149688163026210
:10448000F0BD00000000014000040140F0B5026AE8
:10449000036A23F4807303624368C46924F07004E0
:1044A00024F003050C682C4322F400728D6842EA64
:1044B0000522104D104EA84201D0B04206D122F480
:1044C0000062CF6842EA072222F48062A84201D04B
:1044D000B04209D123F4805323F400534D6943EAD9
:1044E00005138D6943EA05134360C4614968C163DC
:1044F0000262F0BD000001400004014030B5036AD3
:10450000026A22F4805202624268C46924F4E044E0
:1045100024F440740D6844EA052423F400538D68A4
:1045200043EA0533084DA84202D0084DA84204D101
:1045300022F480424D6942EA85124260C4614968B2
:104540000164036230BD000000000140000401402E
:1045500010B5036A046A24F001040462846924F03B
:10456000F00444EA021423F00A020A43846102625E
:1045700010BD10B5036A046A24F010040462846953
:1045800024F4704444EA023223F0A00343EA011108
:104590008261016210BD00000148FFF7E9B9000027
:1045A000B401002010B5806B0021C185FFF7DEF952
:1045B00010BD70B5846B20684069C0F3C01094F8DA
:1045C00041100025212904D118B1E584204600F0CE
:1045D0006FF820684069C0F3801094F842102229D7
:1045E00004D118B1E585204600F02EF8606C40F04B
:1045F000100060642046FFF7B9F970BD10B50146A0
:10460000886B09680968C90516D40021C18401684E
:10461000143151E8002F22F0800241E80023002BE2
:10462000F5D101680C3151E8002F42F0400241E819
:104630000023002BF5D110BDFFF7ECFB10BD10B52A
:10464000806BFFF7E8FB10BD01680C3151E8002FCB
:1046500022F4907241E80023002BF5D10168143157
:1046600051E8002F22F0010241E80023002BF5D190
:10467000016B012909D101680C3151E8002F22F0AA
:10468000100241E80023002BF5D1202180F84210D0
:1046900000210163704710B50168CA6822F040022A
:1046A000CA60202180F84110FFF7B4FB002010BD44
:1046B00001680C3151E8002F22F0C00241E80023CC
:1046C000002BF5D1202180F84110704708B590F8F3
:1046D0004210222901D0022008BD82684FF4805385
:1046E0009A4201D1016921B1816A9A421DD052B129
:1046F0000BE0816A02685268C2F308020A80816A8C
:10470000891C816209E002697AB10268526802F08C
:104710007F020A70816A491C8162C18D491E0904A9
:10472000090CC18505D0002008BD026852680A70D6
:10473000F0E70168CA6822F02002CA600168CA680E
:1047400022F48072CA6001684A6922F001024A615B
:10475000202180F8421000214163026B012A03D01E
:10476000FFF710FB002008BD016301680C3151E820
:10477000002F22F0100241E80023002BF5D1016840
:104780000A68D20602D50A6849680091818DFFF750
:10479000ECF8E7E72DE9F041044620680169E2689A
:1047A00021F4405111430161A1682069E26901438C
:1047B0006069104301432068C26849F20C639A4360
:1047C0000A43C26020684169A26921F44071114323
:1047D000416133492068884202D03249884202D17F
:1047E000FEF778FB01E0FEF765FBE169002319277E
:1047F00064253226B1F5004F28D061688B0F8A00FE
:10480000A0FB0701FBF70BFE0146B0FBF5F07A4277
:10481000504301EB800006EB0010B0FBF5F000F018
:10482000F002B1FBF5F002EB0012B1FBF5F07B42B8
:10483000584301EB800006EB0010B0FBF5F0216857
:1048400000F00F0010448860BDE8F08161684A18EC
:10485000A0FB07015B41FBF7E2FD0146B0FBF5F071
:104860000201B1FBF5F06FF01803584301EB800033
:1048700006EBC000B0FBF5F000F0F80002EB4002E0
:10488000B1FBF5F0584301EB800006EBC000B0FB34
:10489000F5F0216800F0070010448860D4E70000BC
:1048A000001001400014014090F84110212901D06E
:1048B000022070478168B1F5805F01D1016961B163
:1048C000016A4A1C0262026809785160C18C491E63
:1048D0000904090CC1840AD013E0016A026809883E
:1048E000C1F308015160016A891C0162EEE70168A9
:1048F000CA6822F08002CA600068C16841F04001C5
:10490000C16000207047FEE703B4019841000098A1
:1049100050EAC12018BF04204A0D18BF40F0010022
:1049200040F2FF72B2EB515F08BF40F00200012875
:1049300008BF052002B070470907090E002804DBF4
:1049400000F1E02080F80014704700F00F0000F143
:10495000E02080F8141D704730380A2801D2012069
:1049600070470020704770471CB54FF47A70FEF70F
:104970000BF801F0ABF801F05DF8044608A20AA1BB
:104980000BA000F0CFF94CB90CA11E22CDE90021FB
:10499000104B11A215A1032000F014FB20461CBDF2
:1049A00056302E312E30000056312E302E30000081
:1049B000436D4261636B7472616365006170702066
:1049C000696E69742073756365737366756C6C7951
:1049D00021000000186000082E2E5C6170705C6180
:1049E00070705F696E69742E630000004150505F03
:1049F000494E4954000000002DE9F05F0746894602
:104A00001546DFF8B4B0DBF808000024DBF80C2012
:104A1000A0465B469BF801109B78002916D0ABB9E5
:104A2000264901248E693E604969491EDBF8106001
:104A3000B1420BD3DBF814C066448E4206D3B9F101
:104A4000010F03D9022479604FF001083BB1854280
:104A500001D2054603E08118A94200D20D4600EBC1
:104A6000020A23E02E68301FC0071ED0761EDBF836
:104A70001000011D8E4218D3DBF814100844B04218
:104A800013D3102C11D2301F00F088F968B14C45B7
:104A90000BD2022C05D1B8F1000F02D07868B042D9
:104AA00003D02046641C47F820602D1DAA45D9D8A4
:104AB0002046BDE8F09F000038000020A00600203E
:104AC0002DE9F0478EB006460C4620225C4906A828
:104AD000FBF7BCFF5B4FBD68D7F80C90387858B136
:104AE000787898B1564A58A1143A5AA001F00EF8B5
:104AF00060A001F00BF8FEE7514A5FA1143A55A0FF
:104B000001F004F85BA001F001F8FEE74FF0010AA4
:104B100087F801A05AA000F0F9FF56A000F0F6FFB8
:104B200000F0EAF8DFF81881A8F1C008D8F82C00E6
:104B300000F0ECFF4FA000F0E9FF04F12001304647
:104B400001F056F80646AE4203D305EB0900B04229
:104B500001D287F802A032464946284600F032F9D1
:104B6000B878484D00283FD1D8F8300000F0CEFF8B
:104B700040A000F0CBFF27682F6060686860A168E4
:104B8000A960E268EA6023692B6163696B61A369CC
:104B9000AB61E369EB61DDE90843CDE90141CDE9B2
:104BA0000332DDE9061300903A4637A000F0AEFF6D
:104BB00030A000F0ABFFAA69E8690D990C9BCDE924
:104BC0000132CDE90310686900900B9B2A692EA081
:104BD0000A9900F09BFF27A000F098FF35A000F095
:104BE00095FF24A000F092FF4248006845F8200F8E
:104BF0004048001D007828713E4810300068A860C9
:104C00003C48401D007828733A48143000682861F9
:104C10003848801D0088A882364808300068A8619E
:104C200034480C300088E861324818300088286227
:104C300000F06CFD304600F07FFF0EB0BDE8F0875D
:104C4000F85F000838000020216F6E5F6661756CA8
:104C50007400000028257329206861732061737334
:104C6000657274206661696C6564206174202573C7
:104C70002E0000000D0A0000696E69745F6F6B0002
:104C800000000000A0060020202025733A202530D7
:104C90003878202025733A20253038782020257355
:104CA0003A2025303878202025733A20253038786E
:104CB000000000003D3D3D3D3D3D3D3D3D3D3D3D18
:104CC0003D3D3D3D3D3D3D3D3D3D3D3D3D3D3D3D14
:104CD0003D3D3D3D3D3D3D3D3D3D3D3D3D3D3D3D04
:104CE0003D3D3D3D3D3D3D3D3D3D3D3D3D3D3D3DF4
:104CF0003D3D000024ED00E010B50748074BA3F14F
:104D000020024068A2F1200100F000FFBDE8104041
:104D100003A000F0FBBE0000385F0008F005002093
:104D20000D0A000070B50D461446014620221348B6
:104D3000FBF70FFF1148202229462030FBF709FF1F
:104D40000E48202221464030FBF703FF0D4A0C4855
:104D500090600D49081AD0600C4911610C4B591A2A
:104D6000516110B10120107070BD0A48006800F058
:104D7000CDFEBDE8704008A000F0C8BEB005002020
:104D8000081000203800002008180020000000084B
:104D9000006B0008385F00080D0A00000188408899
:104DA0001F22B2EBD02F05D11E22B2EBD12F01D1A1
:104DB000012070474721B1EB102F01D1012070472E
:104DC000002070472DE9F041064614461B481C4F51
:104DD00075188278002A17D0007938B12146B86951
:104DE00000F094FE17A000F091FE06E02146F8695D
:104DF00000F08CFE13A000F089FEB44201D23446CC
:104E000002E0A54200D22C46386900F07FFE0DA0DA
:104E100000F07CFE08E021460BA0226800F076FE40
:104E200008A000F073FE241DA542F4D80DA000F0E8
:104E30006DFEBDE8F04103A000F068BE3800002020
:104E4000385F00080D0A00002020616464723A2077
:104E50002530387820202020646174613A20253084
:104E6000387800003D3D3D3D3D3D3D3D3D3D3D3DB6
:104E70003D3D3D3D3D3D3D3D3D3D3D3D3D3D3D3D62
:104E80003D3D3D3D3D3D3D3D00000000F0B585B060
:104E90000746002F07D1214840F2AB120368ABB19F
:104EA0001F4920A0984700240525234E96F89C0012
:104EB00000281AD000F094FA04EB440000EB041030
:104EC000811991F83500012812D017E01448CDE976
:104ED00003021AA3CDE9002312A10291034620A2E6
:104EE00027A1002000F06EF8FEE7284605B0F0BDCF
:104EF000243110223846FBF75EFD38B1641CE4B261
:104F0000052CD9D300F02EFA2846EFE704EB440035
:104F100000EB0410304490F82350F3E71400002015
:104F2000C35E000874616720213D202828766F69E0
:104F300064202A2930290000340400202825732900
:104F40002068617320617373657274206661696C97
:104F500065642061742025733A256C642E0000007E
:104F60002E2E5C6C6962735C456173794C6F676768
:104F700065725C7372635C656C6F672E6300000022
:104F8000656C6F670000000070B500200C4C94F851
:104F90009C10012912D000F019FA00280ED101202E
:104FA00000F0C8F900259C34E5702571052000F05B
:104FB0001BFA00F073FA01202070284670BD000033
:104FC000340400200FB42DE9F04F8BB005468B461A
:104FD0005846FBF7D1FC82460024A046CDF8248039
:104FE000CDF82880CDF81880CDF81C80CDF8208031
:104FF000052D08D9A04840F209220368002B7DD076
:105000009E499FA09847A54F97F89D00002876D00D
:105010003878A84273D35846FFF738FFA8426ED3BA
:10502000791C5846FBF796FC002868D00DF16809FA
:10503000CDF8149000F06CF90121284600F086FCB0
:10504000A7F5807640B18C483146001D50F82520E8
:10505000204600F0E1FA04460221284600F076FCE2
:10506000D0B131195A46204600F0D6FA0444BAF1BC
:10507000080F0BD8CAF10801202206A8FBF718FD7B
:10508000311906AA204600F0C7FA0444311984A257
:10509000204600F0C1FA04441C21284600F056FCCA
:1050A00000284BD031197FA2204600F0B5FA044405
:1050B0000421284600F04AFC90B100F073F9024642
:1050C0003119204600F0A8FA04441821284600F0BF
:1050D0003DFC28B1311972A2204600F09DFA04442B
:1050E0000821284600F032FCA8B100F04DF9024634
:1050F0003119204600F090FA044401E042E0B3E0A8
:105100001021284600F022FC28B1311964A2204663
:1051100000F082FA04441021284600F017FC38B150
:1051200000F03AF902463119204600F075FA0444BD
:1051300031195DA2204600F06FFA0444E0212846B0
:1051400000F004FC002864D0311958A2204600F079
:1051500063FA04442021284600F0F8FB00282BD0F5
:1051600031192046169A00F057FA04444021284687
:1051700000F0ECFBA8B1311949A2204600F04CFA2E
:10518000044419E03D48CDE9030249A3CDE90023D9
:105190003BA1029103464FA256A10020FFF712FF48
:1051A000FEE78021284600F0D1FB28B1311953A237
:1051B000204600F031FA04444021284600F0C6FBA6
:1051C00080B131192046179A00F026FA0444802154
:1051D000284600F0BBFB28B1311948A2204600F058
:1051E0001BFA04448021284600F0B0FB58B144A2C9
:1051F000052109A8189BFBF7B9F9311909AA20461E
:1052000000F00AFA044431193EA2204600F004FAE4
:105210000444C4F5807130194B46199AFBF776F9AE
:10522000CDF8148004444FF480718C4201D80028DA
:1052300000DA0C46A01C884200D9FE24B87C40B19C
:1052400006F8048015491231A1F58970FBF782FB3D
:1052500078B131192CA2204600F0DEF901192B4853
:1052600000F0B6F800F07EF80BB0BDE8F00F5DF886
:1052700014FB00F077F8F7E714000020DB5E00086D
:105280006C6576656C203C3D20454C4F475F4C5625
:105290004C5F564552424F534500000034040020F5
:1052A000200000005B0000005D20000028000000DE
:1052B00028257329206861732061737365727420D7
:1052C0006661696C65642061742025733A256C649D
:1052D0002E0000002E2E5C6C6962735C4561737950
:1052E0004C6F676765725C7372635C656C6F672E89
:1052F00063000000656C6F67000000003A0000006A
:10530000256C6400290000000D0A00003403002011
:1053100070B5074C012594F89E00002804D000F0D9
:105320005FF884F8A05070BD84F89F5070BD0000F5
:10533000340400200A4981F89E0000280ED0084855
:1053400091F8A01090F89F0011B908B100F048B88A
:10535000002903D0002801D100F044B870470000B4
:105360003404002070B5074C002594F89E000028F6
:1053700004D000F037F884F8A05070BD84F89F5036
:1053800070BD00003404002000A070477069643ACA
:10539000313030380000000000A070477469643A72
:1053A000323400001CB500F035FBCDE9000103A24A
:1053B00010210548FBF7DAF803481CBD75733A2540
:1053C0003031306C6C640000A00500200020704774
:1053D000024601A000F09ABB252E2A7300000000AF
:1053E00072B6704762B6704710B586B00446052C99
:1053F00007D90D4840F22512036833B10B490CA0C0
:1054000098471248047006B010BD0848CDE9030261
:105410000FA3CDE9002306A10291034615A21DA109
:105420000020FFF7CFFDFEE714000020975E000884
:105430006C6576656C203C3D20454C4F475F4C5673
:105440004C5F564552424F53450000003404002043
:105450002825732920686173206173736572742035
:105460006661696C65642061742025733A256C64FB
:105470002E0000002E2E5C6C6962735C45617379AE
:105480004C6F676765725C7372635C656C6F672EE7
:1054900063000000656C6F67000000002DE9F041BB
:1054A00000240A4F002604EB440000EB0410C51949
:1054B00005F124001121FBF703FB05F8236FAE74FF
:1054C000641CE4B2052CEED3BDE8F0813404002066
:1054D00030B585B004460D46052C07D90E4840F27C
:1054E0000B1203684BB10D490DA09847134800EB10
:1054F0008400C0F8845005B030BD0848CDE90302EF
:105500000FA3CDE9002306A10291034615A21DA118
:105510000020FFF757FDFEE7140000207A5E000828
:105520006C6576656C203C3D20454C4F475F4C5682
:105530004C5F564552424F53450000003404002052
:105540002825732920686173206173736572742044
:105550006661696C65642061742025733A256C640A
:105560002E0000002E2E5C6C6962735C45617379BD
:105570004C6F676765725C7372635C656C6F672EF6
:1055800063000000656C6F6700000000014981F84E
:105590009D007047340400200EB50120FFF7F6FF90
:1055A00008A1D922CDE9002104A002900F4B10A23E
:1055B00017A10320FFF706FD0EBD0000322E322E8C
:1055C00030000000456173794C6F67676572205643
:1055D000257320697320696E697469616C697A65E5
:1055E00020737563636573732E000000575E0008B7
:1055F0002E2E5C6C6962735C456173794C6F6767D2
:1056000065725C7372635C656C6F672E630000008B
:10561000656C6F67000000002DE9F04385B0064619
:105620000D4614462746DFF88480DFF88490002D6D
:1056300006D1D9F800302BB12C2241461DA0984745
:105640007CB12CE02C20CDE903801AA11AA2CDE96F
:1056500001210090154B21A229A10020FFF7B2FCE7
:10566000FEE7D9F8003023B12D22104926A0984733
:1056700015E02D20CDE9038023A10FA2CDE9012162
:1056800000900A4B15A21EA10020FFF79BFCFEE72D
:105690003146761CFF2905D805F8010B641C2078DB
:1056A0000028F5D105B0E01BBDE8F083135F0008CA
:1056B0001400002064737400282573292068617326
:1056C00020617373657274206661696C6564206122
:1056D000742025733A256C642E0000002E2E5C6C1D
:1056E0006962735C456173794C6F676765725C735F
:1056F00072635C656C6F675F7574696C732E6300B1
:10570000656C6F67000000007372630070B58C4DAC
:105710008C4C95F83800800705D5606B00F0F6F9E1
:1057200089A000F0F3F9A86B40007DD595F824001E
:10573000F0B3C00705D0A06B00F0E8F982A000F03C
:10574000E5F995F82400800705D5E06B00F0DEF957
:105750007DA000F0DBF995F82400000705D5206C4A
:1057600000F0D4F978A000F0D1F995F82400C00633
:1057700005D5606C00F0CAF973A000F0C7F995F880
:105780002400800605D5A06C00F0C0F96EA000F0E2
:10579000BDF995F8240001060DD5C10701D1800798
:1057A00009D5A96AD4F8900000F0B0F966A000E02D
:1057B00001E000F0ABF995F82C00B0B3C00705D0BC
:1057C000E06C00F0A3F960A000F0A0F995F82C00BF
:1057D000800705D5206D00F099F95BA000F096F9DF
:1057E00095F82C00400705D5606D00F08FF956A0A4
:1057F00000F08CF995F82C00000705D5A06D00F09D
:1058000085F951A000F082F995F82C00C00605D565
:10581000E06D00F07BF94CA000F078F995F82C00D1
:10582000800608D5206E01E04DE012E000F06EF930
:1058300045A000F06BF995F82C00010609D580070A
:1058400007D5296BD4F8940000F060F93EA000F071
:105850005DF9A88EB8B3C00705D0606E00F056F9A8
:1058600039A000F053F995F83400800705D5A06EF3
:1058700000F04CF934A000F049F995F834004007E5
:1058800005D5E06E00F042F92FA000F03FF995F841
:105890003400000705D5206F00F038F92AA000F089
:1058A00035F9A88EC00505D5606F00F02FF926A048
:1058B00000F02CF9A88E800505D5A06F00F026F920
:1058C00021A000F023F9A86B002838DAE86B002843
:1058D00035D0C00705D0E06F00F018F91AA000F02D
:1058E00015F995F83C00800706D5D4F8800000F043
:1058F0000DF915A000F00AF995F83C00400706D50F
:10590000D4F8840000F002F90FA000F0FFF895F839
:105910003C00000706D5D4F8880000F0F7F80AA08C
:1059200000F0F4F895F83C00C00608D5D4F88C00D7
:1059300000F0ECF8BDE8704003A000F0E7B870BDDF
:10594000A0060020385F00080D0A000030B585B0C1
:1059500004460D46052C07D9114840F2A7220368DA
:1059600063B1104910A09847164800EB8400D0F8A6
:105970008400284211D0012005B030BD0948CDE98E
:10598000030211A3CDE9002307A10291034617A248
:105990001EA10020FFF716FBFEE70020ECE7000049
:1059A00014000020E75E00086C6576656C203C3DC5
:1059B00020454C4F475F4C564C5F564552424F5323
:1059C00045000000340400202825732920686173F5
:1059D00020617373657274206661696C656420610F
:1059E000742025733A256C642E0000002E2E5C6C0A
:1059F0006962735C456173794C6F676765725C734C
:105A000072635C656C6F672E63000000656C6F6786
:105A10000000000010B505480068426A04480368A9
:105A20004468D01844F1000110BD00006C01002052
:105A30003000002010B50248FDF74CFD002010BDDD
:105A40006C0100201CB5FDF7A9F8FEF7B3FBFEF7CB
:105A50003DFAFEF725FAFEF7DFF9FEF7FFF9FEF74C
:105A6000ABFAFEF7DFFAFEF741FBFEF75BFBFEF752
:105A700075FBFEF785FAFEF777FF0948016841F0EC
:105A8000100101607D2407A0CDE90040074B08A26A
:105A90000CA10320FFF796FA0520FCF775FFF2E74B
:105AA00014ED00E068656C6C6F000000325E000869
:105AB0002E2E2F436F72652F5372632F6D61696EA7
:105AC0002E6300006D61696E0000000010B5FFF7E5
:105AD0005BFAFF210020FFF7FBFC07210120FFF705
