:020000040800F2
:10000000A82D0020510300084D4F0008C14A0008E8
:10001000494F00084D1F0008C97C0008000000007F
:100020000000000000000000000000002552000851
:100030003D2000080000000023520008395200084B
:100040006B0300086B0300086B0300086B030008D8
:100050006B0300086B0300086B0300086B030008C8
:100060006B0300086B0300086B0300086B030008B8
:100070006B0300086B0300086B0300086B030008A8
:100080006B0300086B0300086B0300086B03000898
:10009000511F00086B0300086B0300086B03000886
:1000A0006B0300086B0300086B0300086B03000878
:1000B0006B0300086B0300086B0300086B03000868
:1000C0006B0300086B0300086B0300086B03000858
:1000D0006B0300086B0300086B0300086B03000848
:1000E0006B0300086B0300086B0300086B03000838
:1000F000155300086B0300086B0300086B0300082E
:100100006B0300086B0300086B0300086B03000817
:100110006B0300086B0300086B0300086B03000807
:100120006B0300086B0300086B0300086B030008F7
:100130006B03000800000000000000006B030008D3
:10014000611F00086B0300086B030008514F000893
:100150006B0300086B0300086B0300086B030008C7
:100160006B0300086B0300086B0300086B030008B7
:100170006B0300086B0300086B030008000000001D
:10018000000000006B0300080000000000000000F9
:100190006B03000800000000000000006B03000873
:1001A0000000000000000000000000006B030008D9
:1001B0006B0300086B0300086B0300086B03000867
:1001C0006B03000800F002F800F0B2F80AA090E813
:1001D000000C82448344AAF10107DA4501D100F002
:1001E000A7F8AFF2090EBAE80F0013F0010F18BF1D
:1001F000FB1A43F001031847688A0000888A000050
:100200000A444FF0000C10F8013B13F0070408BF3C
:1002100010F8014B1D1108BF10F8015B641E05D0DA
:1002200010F8016B641E01F8016BF9D113F0080F8F
:100230001EBF10F8014BAD1C0C1B09D16D1E58BF21
:1002400001F801CBFAD505E014F8016B01F8016B58
:100250006D1EF9D59142D6D37047000000230024CB
:1002600000250026103A28BF78C1FBD8520728BFC6
:1002700030C148BF0B6070476E2900F0C2847029FE
:1002800000F03D82662908F0DA83652908F0D783FB
:10029000672908F0D483612908F0D38303681B0A17
:1002A00028BF41F08001692900F07081642900F0C5
:1002B0006D81752900F06A816F2900F072857829B7
:1002C00000F00982E92900F09D81E42900F09A817B
:1002D000F52900F09781EF2900F06F85F82900F0EB
:1002E00008820368DB0928BF41F08001632900F020
:1002F000CC84732900F0D184E32901F00181F32932
:1003000001F00681002070471FB508F093FB01F053
:1003100051F904000020002108F076FB401C6060C9
:100320000020002108F05AFBE0601FBD10B510BD91
:1003300001F012F91146FFF7E7FF08F0BFFA01F0EC
:10034000EFF903B4FFF7F2FF03BC07F0FAFC00007B
:100350000948804709480047FEE7FEE7FEE7FEE759
:10036000FEE7FEE7FEE7FEE7FEE7FEE70448054995
:10037000054A064B70470000F9520008C501000805
:10038000A8210020A82D0020A8250020A8250020B5
:10039000704753EA020C00F069802DE9F04B4FF0F2
:1003A0000006002B1FBFB3FA83F503FA05F424FA05
:1003B00005F65E4012BF1643B2FA82F502FA05F462
:1003C000C5F120051EBF22FA05FC44EA0C042035C5
:1003D00056EA044C4FEA144418BF641C4FF000085E
:1003E0004FF00009904271EB030C39D3002919BF7B
:1003F000B1FA81F701FA07F6B0FA80F700FA07F6CA
:10040000C7F120071EBF20FA07FC46EA0C0620377A
:10041000B6FBF4FCA7EB0507103F07F01F0BCBF171
:1004200020060CFA0BFB2CFA06F644BFB346002656
:10043000202FA4BF5E464FF0000B5BEA060C08BFFE
:100440004FF0010B19EB0B09ABFB027C48EB0608E4
:10045000C01B06FB02CC0BFB03CC71EB0C01C1E70C
:100460000B46024641464846BDE8F08B13B54FF0B7
:1004700000004FF00001AFF30080BDE81C40704762
:100480007CB51D4616460C00009001D02044401E4D
:10049000074B7B442A4669460190304600F0CBFB6F
:1004A00005461CB10020694600F0D8FB28467CBDFB
:1004B000D10700000FB47CB50C0009AA009001D050
:1004C0002044401E084B7B4469460190089800F088
:1004D000B2FB05461CB10020694600F0BFFB284670
:1004E0007CBC5DF814FB00009D07000070B504465D
:1004F00085690068C10601D5302600E02026C007C6
:1005000007D070BDD4E9012130469047206A401CD5
:1005100020626D1EF6D570BD70B504468569007801
:10052000C00707D170BDD4E9012120209047206A7F
:10053000401C20626D1EF6D570BD70B50C46054698
:10054000012A05D02878800600D5EA69002302E058
:10055000012305E05B1C934202D2E05C0028F9D144
:10056000A869E618C01AA861286A184428622846B3
:10057000FFF7BCFF04E0D5E9012114F8010B904717
:10058000B442F8D32846FFF7C7FF70BD2DE9F0410C
:100590000646002410687529314616A510D000F0D3
:1005A000C5FA002802DA404213A507E031688A073D
:1005B00001D512A502E0490704D511A5012401E0E7
:1005C00000F0BDFA00210A2206F1240709E0B0FB81
:1005D000F2FCB0FBF2F302FB1C00303078541846FA
:1005E000491C0028F3D123462A463046BDE8F04195
:1005F00000F0AEBA000000002D0000002B0000004B
:10060000200000002DE9F0418046D21D22F00702B3
:100610000025D2E90002F52915A614D0011E72F1B9
:10062000000106DA0023D0EB030063EB020211A6FF
:1006300008E0D8F800108B0701D50FA602E04907A3
:1006400001D50EA601251146002408F1240704E077
:1006500000F027FA30323A55641C50EA0102F7D113
:100660002B46324621464046BDE8F04100F070BAC4
:10067000000000002D0000002B0000002000000002
:10068000F0B40D460188090502D5214C7C4402E0F6
:100690001F4C7C440E34002100F1240608E002F0D7
:1006A0000F071209E75D42EA03721B097754491CE0
:1006B00052EA0307F3D102780023120704D5702D04
:1006C00006D009B1022311342246F0BC00F040BA32
:1006D00001231034F8E770B504460D462146106832
:1006E00000F02DFA024629462046BDE8704000235E
:1006F000C6E7D21D22F00703D3E90023C0E7036851
:10070000126843F0200303600823C3610023B7E7A6
:10071000BB8400002DE9F05F894604464FF0000AD3
:10072000DFF874B1FB44C0F820A02046E168884798
:10073000002874D0252806D0D4E901219047206AEA
:10074000401C2062F1E700265F462046E1688847AA
:100750002028054607DB312D05D2781910F8200C2A
:1007600008B10643F1E7B00701D526F00406C4F846
:100770001CA00027C4F818A02A2D09D0284607F08D
:10078000D9FA38B304EB8708303DC8F8185019E09F
:1007900059F8041B204604EB87029161E168884701
:1007A000012F054618D1E069002820DA26F020063E
:1007B0001DE0D8F8180000EB800005EB4000303851
:1007C000C8F818002046E1688847054607F0B2FAE5
:1007D0000028EED1012F0AD02E2D08D12046E16845
:1007E00088477F1C0546022F46F02006C4DBA0691F
:1007F000002803DA404246F00106A061F00701D06C
:1008000026F010066C2D0BD0682D09D04C2D39D058
:100810006A2D35D0742D35D07A2D33D016E038E0DE
:10082000E1682F4620468847B842054609D16C2F1B
:1008300026D04FF48060E16806432046884705468D
:1008400004E06C2F1AD04FF4807006430DB3A5F16D
:100850004100192802D8203546F400664A46294648
:10086000204626604E46FFF707FD80B101280BD0D9
:10087000F61D26F0070000F1080956E74020E4E7DE
:100880008020D8E70020D6E706F104094DE7284686
:1008900052E7206ABDE8F09F4B84000030B5054662
:1008A0000B462A4613F8014B12F8010B08B1A0427F
:1008B000F8D01CB1002802D06D1CF1E7284630BDED
:1008C00010B5431C02E010F8011B71B18107FAD189
:1008D0004FF0013202C88C1A8C4314EAC211F9D0CD
:1008E000C01A0A0603D0C01E10BDC01A10BD0A04EB
:1008F00001D0801E10BD0902FCD0401E10BD40EA90
:10090000010370B59B072ED14FF00136042A2AD37C
:1009100008C810C99D1B9D43121F15EAC61517D0A4
:10092000D8B2E1B2401A50EA056110D198B2A1B232
:10093000401A50EA05410AD123F07F4024F07F415C
:10094000401A50EA052102D1180EA0EB146070BDC8
:10095000A342DBD018BA21BA884201D9012070BD68
:100960004FF0FF3070BD0AB9002070BD10F8013B98
:1009700011F8014B63B1A3420AD1521E08D010F8FE
:10098000013B11F8014B1BB1A34201D1521EEDD125
:10099000181B70BD10B5203AC0F00B80B1E818509C
:1009A000203AA0E81850B1E81850A0E81850BFF459
:1009B000F5AF5FEA027C24BFB1E81850A0E81850F8
:1009C00044BF18C918C0BDE810405FEA827C24BF4C
:1009D00051F8043B40F8043B08BF7047D20728BFDA
:1009E00031F8023B48BF11F8012B28BF20F8023B29
:1009F00048BF00F8012B704702F0FF0343EA0322CF
:100A000042EA024200F002B84FF000020429C0F0AE
:100A1000128010F0030C00F01B80CCF1040CBCF130
:100A2000020F18BF00F8012BA8BF20F8022BA1EB82
:100A30000C0100F00DB85FEAC17C24BF00F8012B67
:100A400000F8012B48BF00F8012B70474FF000025F
:100A500000B5134694469646203922BFA0E80C50B4
:100A6000A0E80C50B1F12001BFF4F7AF090728BF8F
:100A7000A0E80C5048BF0CC05DF804EB890028BF0B
:100A800040F8042B08BF704748BF20F8022B11F034
:100A9000804F18BF00F8012B7047704770477047B0
:100AA000704730B5B0F10A024FEA900E71F10003C1
:100AB0004EEA817EB0EB0E0061EB91014FEA101E11
:100AC0004EEA017E10EB0E0041EB11114FEA102EA1
:100AD0004EEA016E10EB0E0041EB11214FEA104E71
:100AE0004EEA014E10EB0E0041EB1141401841F16E
:100AF00000014FEAD00040EA41704FEAD10110EB0B
:100B000080054FEA810444EA907444EB01046D19B6
:100B100044EB0404521BA3414FF0000348BF0A32C8
:100B200000D530BD401C41F1000130BD09684A05C7
:100B300001D540B27047C905FCD500B270470968BD
:100B40004A0501D5C0B27047C905FCD580B27047CF
:100B50002DE9F0470D4699469246044600F12408D7
:100B60000168880604D5E06921F01001216000E0E9
:100B70000120A84201DD471B00E00027A1697A1986
:100B800002EB0900081AA0612078C00602D42046B2
:100B9000FFF7ACFC002608E0D4E901211AF80600B2
:100BA0009047206A401C761C20624E45F4DB20787A
:100BB000C0060AD52046FFF799FC06E0D4E90121DA
:100BC00030209047206A401C2062381EA7F10107A0
:100BD000F4DC07E0D4E9012118F805009047206A09
:100BE000401C2062281EA5F10105F3DC2046FFF71A
:100BF00093FC2078000602D50220BDE8F087012092
:100C0000FBE711680268006A530501D508700AE025
:100C1000D30501D5088006E0130603D5C217C1E944
:100C2000000200E0086001207047000001694A1CD2
:100C300002610878704700B58FB0CDE9013100211D
:100C4000059105497944CDE9031011466846FFF73F
:100C500061FD0FB000BD0000E5FFFFFF0A6802F86C
:100C6000010B0A607047D1E900239A4202D2531C5B
:100C70000B601070704710B5436913B1AFF300807B
:100C800001E0FFF75AFC012010BD127800F12401A9
:100C90000A7000224A700122EDE711684FF0FF321E
:100CA000E9E700002DE9FF5F15468A460446DFF8B4
:100CB000AC80F8440027D8E900103E46CDE900108A
:100CC00010E03AF816106A4602A800F025FC411C14
:100CD00007D02178890603D5E269391891420DD8E9
:100CE0000744761C2078800602D5E069B84205DD0D
:100CF000AE42E6DB3AF816000028E2D1A069C01B3C
:100D0000A0612046FFF7F2FBD8E90010CDE9001002
:100D1000002017E03AF818106A4602A800F0FCFB21
:100D2000B0F1FF3F81460BD000250DF1080B05E027
:100D3000D4E901211BF8050090476D1C4D45F7D300
:100D400008F10100B0428046E4DB206A38442062AA
:100D50002046FFF7E1FBBDE8FF9F0000CE7E0000CC
:100D600030B4002100F1240408E002F00705D208A5
:100D7000303542EA4372DB086554491C52EA0305E8
:100D8000F3D10468002310A2250707D5A40600D4D8
:100D900021B1C46901230DA2641EC46130BCFFF7F8
:100DA000D7BE10B5044621461068FFF7C8FE0246BC
:100DB0002046BDE810400023D2E7D21D22F00701F3
:100DC000D1E90023CCE70000000000003000000063
:100DD00070472DE9FF4F0C461E464FF0FF378BB092
:100DE000D2E90001DDF860800A908A46C1F30A5515
:100DF00005B93D46002108464FF00000BAF1000F4A
:100E000000F4400005DA00EB80004FF4400101EAF5
:100E100050004FEA9059B9F1010F00DDB9460A9828
:100E200050EA4A000ED044F61050A5F2FF35454373
:100E30002F14B8F1000F1ED07542291E1EDDC9F116
:100E400000021CE0B8F1010F4FF0000001D030218A
:100E500003E0F24305E02154401CB042FBDB304686
:100E60000022002121540B99C1F80880C1E900201B
:100E70000FB0BDE8F08FBD1B6D1CDEE74A4600DAFF
:100E8000694206A800F0DAFB06AB93E8070003AB63
:100E900083E8070050460A9900F090FC8DE80700AF
:100EA000A0F500501F3800900398002D0ADD42F293
:100EB0001F014A460844002303A90390684600F036
:100EC000F9FE09E0A0F500504A461F38002303A9A7
:100ED0000390684600F003FF8DE807000004000C53
:100EE00003D04FF0FF30410800E01046B8F1000F8A
:100EF00003D00022009215461EE0751E05D4FFF7B0
:100F0000D0FD303262556D1EF9D5B346012208433B
:100F100002D000227F1C04E02078302801D100227A
:100F20007F1E002A099784D01DE0112D07DAFFF7F4
:100F3000B8FD303262556D1C50EA0102F5D108430C
:100F400002D00098C8B10EE00021681E05E0235CC5
:100F5000625C63542254401E491C8142F7DBAB465D
:100F6000A81B401E0990002004F80B000B98099A5A
:100F7000C0F80880C0E9002B7AE711264FF000087E
:100F800057E72DE9F04F88460446D21D22F00701AD
:100F900091B0D1E90001CDE90A0106F097FE0246C1
:100FA0000B98C00F01D02D2007E02068810701D5E4
:100FB0002B2002E0202101EAC000032A099001D081
:100FC000072A05DB03464146204600F0F7FA0BE10D
:100FD0002078800601D5E06900E00620B8F1650FB1
:100FE000814606D0B8F1660F18D0B8F1670F70D1FE
:100FF00031E00020B9F1110F009001DB112301E075
:1010000009F101030AAA01A90CA8FFF7E2FEDDE934
:101010000C70002609F10105834647E001204B468C
:1010200000904FF000470AAA01A90CA8FFF7D1FED3
:10103000DDE90DB00C995D46002610B909F10100FB
:101040000D18B9EB050003D4C0F1FF3609F1010515
:10105000A5EB09002BE0B9F1010F01DA4FF001090E
:101060000020B9F1110F0090484601DD112300E086
:1010700003460AAA01A90CA8FFF7ABFEDDE90C7034
:101080004D4600268346207800070AD4AB4500DA97
:101090005D4601A8012D04DD411911F8011C30291C
:1010A00007D04F4502DA17F1040F04DA0120824617
:1010B0000FE06D1EEEE7002F02DCED1B3E4403E067
:1010C000781CA84200DD7D1CB81B00F1010A4FF01E
:1010D00000472078000703D4AA4501DB4FF0FF3A10
:1010E0000021B7F1004F0DF143088DF8431024D0D3
:1010F00002202B23002F01DA7F422D230A21021E1A
:10110000A0F1010000DC5FB197FBF1FC97FBF1F26D
:1011100001FB1C7C17460CF1300C08F801CDEEE702
:10112000A8F1010003702188090501D5452100E0DF
:101130006521A0F1010800F8011C09980FA9A1EB95
:101140000807FF1D00B10120411901EBEA70A169F8
:101150003844081A401EA0612078C00602D42046F8
:10116000FFF7C4F9099828B1D4E901219047206A12
:10117000401C20622078C00622D52046FFF7B6F931
:101180001EE0002E04DBB34502DD01A8805D00E017
:101190003020D4E901219047206A401C2062761C4F
:1011A000AAF101005FEA000A0AD100F003FAC06860
:1011B0000168405CD4E901219047206A401C20620C
:1011C000281EA5F10105DCDC07E0D4E9012118F8AF
:1011D000010B9047206A401C2062381EA7F10107CE
:1011E000F3DC2046FFF798F9032011B041E6000038
:1011F0002DE9F04F04460D46D21D22F0070089B0BC
:10120000D0E900974846394606F060FD0246F80FDF
:1012100001D02D2307E02068810701D52B2302E0B0
:10122000202101EAC0038DF820300BB1012000E03D
:101230000020032A824601D0072A04DB29462046E3
:1012400000F0BCF93FE12078800601D40D2500E0D4
:10125000E569C7F30A560D2D49DA00214FEA175BFD
:1012600008464FF00000002F00F4400007DA00EBC2
:1012700080004FF4400100EBD07001EA600081155E
:10128000012901DD4FF0FF3100224FEA850CBCF14E
:10129000180F06D31346ACF118004FF08052C2402D
:1012A00003E04FF4801323FA0CF30CF10C0CBCF1A7
:1012B000200F04D3ACF1200C09FA0CF001E007FA7E
:1012C0000CF000294FF0004801DD18B90FE00ED1F5
:1012D00040450CD319EB02095F4121B9404502D1C9
:1012E0009F4329EA0209BBEB175F00D0761C2088D8
:1012F000000502D57B48784402E07A4878441938E2
:1013000008AA302302F80A30037C0AF10101002EFA
:101310000AF1020A53546A4602DC4FF0300101E040
:101320004FF031014FF001088DF8001002D0A6F205
:10133000FF3603E059EA470100D06B4E002D02DC76
:101340002178090704D54FF002082E218DF80110ED
:10135000C44600210BE0C7F303433F01C35C491CB3
:101360006D1E02F80830052908F1010801DA002D88
:10137000F1DC00210CE000EB1973491C1B786D1E99
:10138000082902F808304FEA091908F1010801DAC2
:10139000002DF0DC21688B0602D516E0A8F10108CB
:1013A000E04505DD02EB080313F8013C302BF5D0D6
:1013B000B8F1000F09DD02EB080313F8013C2E2BF6
:1013C00003D1090701D4A8F10108002D05DD3E2154
:1013D00002F808106D1E08F10108407C002E02F88A
:1013E000080008F1010804DA2D20764202F808000E
:1013F00002E02B2002F808000A214FF47A7086429E
:1014000008F101080BDB96FBF0F3303302F80830EB
:1014100096FBF0F308F1010800FB136601E0642E6F
:101420000CDB642096FBF0F3303302F8083096FBB7
:10143000F0F308F1010800FB136601E00A2E06DB59
:1014400096FBF1F0303002F8080008F1010896FB35
:10145000F1F001FB1060303002F80800A16908F1DA
:10146000010808EB050202EB0A00081AA0612078C7
:10147000C00602D42046FFF739F8216A08AE01EB16
:101480000A00206204E0D4E9012116F8010B90471C
:10149000BAF1010AF7D22078C00602D52046FFF73C
:1014A00025F86E4609E016F8010B3E280FD0D4E966
:1014B00001219047206A401C2062B8F10108F2D255
:1014C0002046FFF729F809B00320BDE8F08F206A15
:1014D0002844206203E0D4E90121302090476D1EAA
:1014E000EBD3F8E7A578000002FCFFFF10B54369D5
:1014F00013B1AFF3008001E0FFF7D4FB012010BD72
:10150000128800F1240182840022C2840122EDE7C6
:1015100011684FF0FF32E9E770B516460C460546F4
:1015200000F040F8036893F80101012806D0FF2C71
:101530000FD8185D68B101202C7070BDD3F8070179
:101540003246214603F2071303442846BDE87040A3
:1015500018474FF0FF3070BD754600F0EBF8AE460F
:1015600005006946534620F00700854618B020B5AF
:10157000FEF7FCFEBDE820404FF000064FF00007EC
:101580004FF000084FF0000B21F00701AC46ACE82B
:10159000C009ACE8C009ACE8C009ACE8C0098D4698
:1015A0007047000010B500F005F8001D10BD00BF29
:1015B0005974000000487047642100202DE9F04173
:1015C0001F46044603260168072A01F4006004DB75
:1015D00008B116A505E016A503E008B115A500E0C1
:1015E00015A521F010002060A069C01EA0610FB1F8
:1015F000401EA0612046FEF779FF4FB1D4E90121DA
:1016000038469047206A401C2062C01C206206E0D9
:10161000206AFAE7D4E9012115F8010B9047761EFC
:10162000F8D22046FEF778FFBDE8F0814E414E002B
:101630006E616E00494E4600696E66002DE9F04706
:10164000814616468AB0354878440DC88DE80D00AD
:1016500032487844801C03AC0DC884E80D0041F684
:101660009B300844372190FBF1F290FBF1F5A5F196
:10167000800501FB12041B3C02D56442012000E0FE
:101680000020DFF898A080460027FA44AAF1BE0A9D
:101690000EE0E0070AD03246684607EB4701012317
:1016A0000AEB810100F01BFB8DE8070064107F1C32
:1016B000002CEED1194F7F44AE3F19E0E80715D05A
:1016C00007EB04100DF1180A90E80E008AE80E00EE
:1016D000C068F04201D1981908903246012306A94A
:1016E00003A800F0FCFA03AB83E807006D10641C4C
:1016F000002DE3D14FF0010332466946B8F1000FE7
:1017000003A802D000F0D6FA01E000F0E8FAC9E937
:101710000001C9F808200AB0BDE8F087E4750000B0
:1017200010B50446AFF300802046BDE81040FEF738
:1017300008BE000000487047442100204FF0013CE3
:1017400050F8042B51F8043B9A4221D1A2EB0C0330
:10175000934313EACC1317D150F8042B51F8043BF0
:101760009A4215D1A2EB0C03934313EACC130BD18D
:1017700050F8042B51F8043B9A4209D1A2EB0C0318
:10178000934313EACC13DBD04FF00000704700BF47
:10179000D01A01BAB1FA81F101F0180122FA01F070
:1017A000CB40C1F12001DBB2C0B2C01A2CFA01F368
:1017B000D11A914311EAC311E6D170475FEA400C98
:1017C00008BF91F0000F4FEA8C234FEAC12243EA91
:1017D00051514FEA1C5018BF00F5F0404FEA30005D
:1017E00018BF41F000415FEA6C5C00F02980BCF159
:1017F000FF3F08BF40F080407047130C06BF120443
:101800004FF0100C4FF0000C130E04BF12020CF13D
:10181000080C130F04BF12010CF1040C930F04BF4A
:1018200092000CF1020CD30F04BF52000CF1010C1A
:1018300011464FF00002A0F11F00A0EB0C00704712
:1018400011F0004F08BF704731F000413FF4D5AFB1
:101850000B0C06BF09044FF0100C4FF0000C0B0EE0
:1018600004BF09020CF1080C0B0F04BF09010CF1B5
:10187000040C8B0F04BF89000CF1020CCB0F04BFCA
:1018800049000CF1010CCCF12003A0EB0C0022FA72
:1018900003F302FA0CF241EA030100F10100704780
:1018A00020F07F4C80EA030023F07F47ACEB070376
:1018B00003F57C5300F0004003F1FF032DE980495C
:1018C0004FEA154B09B44FEA144325EA0B4E24EABC
:1018D00003480FF2042606EB132749083E785FEA17
:1018E000320203FB0667C7F5000707FB06F64FEA5F
:1018F00054374FEAD64606F1020607FB066CCCF1D8
:10190000005C4FEA1C472CEA074C07FB06F40CFB73
:1019100006F504EB15464FEA961634BF00204FF04B
:1019200000404FEAD13706FB07FC4FEA1C4C0CFB8A
:101930000BF7D21B03FB0CF761EB07010CFB0EF757
:10194000B0EB074072EB17420CFB08F734BFA2EB79
:101950000742B2EB074261EB17414FEA0C444FEAF2
:10196000910706FB07FC4FEA1C4C0CFB0BF7B0EB96
:10197000C74072EB573203FB0CF734BFA2EBC742F0
:10198000B2EBC74261EB57310CFB0EF7B0EBC7006F
:1019900072EB57720CFB08F734BFA2EBC702B2EB35
:1019A000C70261EB5771039F4FEA816141EA9211CF
:1019B00004EBCC044FEAD1374FEA826206FB07FC06
:1019C00042EA90124FEA80604FEA1C4C0CFB0BF786
:1019D000D21B03FB0CF761EB07010CFB0EF7B0EB1E
:1019E000074072EB17420CFB08F734BFA2EB07422B
:1019F000B2EB074261EB17414FEA8C554FEA910772
:101A000004EB9C2406FB07FC4FEA1C4C0CFB0BF779
:101A1000B0EBC74072EB573203FB0CF734BFA2EBBD
:101A2000C742B2EBC74261EB57310CFB0EF7B0EB8C
:101A3000C70072EB57720CFB08F734BFA2EBC7026A
:101A4000B2EBC70261EB577115EB4C254FEA816190
:101A500041EA92114FEA82624FEAD13742EA90128C
:101A600006FB07FC44F100044FEA80604FEA1C4C7F
:101A70000CFB0BF7D21B03FB0CF761EB07010CFB14
:101A80000EF7B0EB074072EB17420CFB08F734BFC0
:101A9000A2EB0742B2EB074261EB174115EB1C15B5
:101AA0004FEA813141EA92414FEA823242EA904262
:101AB0004FEA80304FEA0C7644F1000448EA0343D1
:101AC0004EEA0B484FF0000EB2EB080C71EB030727
:101AD00024BF624639464EEB0E0E4FF0000B001845
:101AE000524149414BEB0B0BB2EB080C71EB030776
:101AF0007BF1000B24BF624639464EEB0E0E4FF0D1
:101B0000000B0018524149414BEB0B0BB2EB080C98
:101B100071EB03077BF1000B24BF624639464EEBA5
:101B20000E0E51EA020718BF46F0010616EB0E76BC
:101B300055F1000254F1000103D5BDE88901BDE86B
:101B40000088BDE88901BDE80048B619524141EB63
:101B50000101A3F10103704780807F7E7D7C7B7A49
:101B60007978777676757473727171706F6E6E6D49
:101B70006C6C6B6A6A6968686766666564646363EF
:101B800062616160605F5F5E5E5D5D5C5C5B5B5A75
:101B90005A595958585757565655555554545353E2
:101BA00052525251515050504F4F4F4E4E4D4D4D3D
:101BB0004C4C4C4B4B4B4A4A4A4949494848484788
:101BC00047474746464645454544444444434343C6
:101BD0004342424242414141002B9C4630D477006F
:101BE0002BD01CB54FEA370703B44FF010004FF06D
:101BF0001001BAF1000F06D0BCF1000FDCBF40F0BD
:101C0000080040F008014FF000000FBCBDE8104094
:101C10000BF1010BBBF1010F08BF5FEA170722BFF1
:101C200012F1010211F101014FF0004143F10003F3
:101C300000F0004043EA00007047F9D35708D0E7AE
:101C400046EA064613F1400F4FEA16461FDD13F130
:101C5000200FDFBF16430A46002120335B42BED06F
:101C6000C3F1200746EA064602FA07F74FEA16468E
:101C700046EA0706C3F1200722FA03F201FA07F742
:101C800021FA03F14FF0000342EA0702A7E746EA10
:101C9000020646EA06464FEA164646EA0106BCBF79
:101CA00046EA0646360C4FF000034FF000024FF0B4
:101CB000000194E72DE9804C9A46934670B491E870
:101CC000380007C831EA400C48BF34EA430C03D55A
:101CD000FFF7E6FDFFF780FFF0BCBDE8008C2DE9C3
:101CE000804C9A46934670B491E8380007C810F0CB
:101CF000804F08BF13F0804F03D100F005F8FFF7C5
:101D00006BFFF0BCBDE8008C20F07F4780EA030049
:101D100023F07F4C07EB0C03A3F57C5300F000404D
:101D2000A3F1FE0392F0000F00F0B38095F0000FD6
:101D300000F077802DE901494FEA11404FEA14463F
:101D400021EA004800FB06FC24EA064708FB06F6E9
:101D500007FB08F800FB07F718EB06484CEB164C9E
:101D60004FEA124B18EB07484FEA15464CEB174069
:101D700022EA0B4E0BFB06FC25EA06470EFB06F695
:101D800007FB0EFE0BFB07F71EEB064E4CEB164C4B
:101D90004FF000061EEB074E4CEB174B18EB0B08F1
:101DA00040F1000018EB0E0B58EB000840F100006A
:101DB0008F1A4FF000013CBFC943661B14BFB5EB3F
:101DC000040C00213CBFC943F61B4FEA17444EEAFE
:101DD0008E0E27EA04454FEA1C4704FB07622CEAF3
:101DE000074C05FB07F70CFB05F604FB0CFC16EB98
:101DF000074642EB174216EB0C4642EB1C421BEB2C
:101E0000060658EB0202414146EA9E0601D5BDE8AE
:101E10000189B619524141EB0101A3F10103BDE86B
:101E200001894FEA14454FEA114724EA054621EAA1
:101E3000074C05FB07F406FB07F70CFB06F105FB57
:101E40000CFC11EB074144EB17444FEA124711EB2E
:101E50000C4144EB1C4422EA074C05FB07F206FB4D
:101E600007F70CFB06F605FB0CFC16EB074642EBEE
:101E7000174216EB0C4642EB1C456A1854F1000160
:101E800048BF7047B619524141EB0101A3F101036C
:101E9000704795F0000F37D04FEA11424FEA1447D0
:101EA00021EA024624EA074C02FB07F106FB07F78A
:101EB0000CFB06F402FB0CFC14EB074441EB17414E
:101EC0004FEA154714EB0C4441EB1C4125EA074C43
:101ED00002FB07F506FB07F70CFB06F602FB0CFC02
:101EE00016EB074645EB174516EB0C4645EB1C4237
:101EF000121951F1000148BF7047B619524141EB28
:101F00000101A3F1010370474FEA14454FEA11475D
:101F100024EA054621EA074C05FB07F106FB07F713
:101F20000CFB06F24FF0000605FB0CFC12EB07421F
:101F300041EB174112EB0C4251EB1C4148BF70477B
:101F4000921841EB0101A3F10103704700BFFEE7C6
:101F500010B5024800F091F810BD0000C00100204B
:101F600010B5024800F089F810BD0000E80100201B
:101F70000346042B15D007DC7BB1012B0ED0022BBE
:101F80000DD0032B12D10BE0202B0BD0212B0AD02C
:101F9000222B09D0232B09D107E008E007E006E057
:101FA00005E004E003E002E001E000E000BF00BF64
:101FB000002070470020704710B5002204490548F2
:101FC00003F096FE0449034803F08BFE002010BD89
:101FD000A0100020D0030020A008002070B5044607
:101FE0000D462146034803F07CFE024803F054FEF0
:101FF000002070BDD003002010B503460C46002120
:10200000084610BD2DE9F04104460D4600260A4859
:10201000D0F8BC72D7F8140210B10120BDE8F081ED
:102020002A462146044803F063FE034803F0E7FE16
:1020300006463046F2E70000D0030020704772B633
:1020400000BFFEE770B50A480468001D0568001D62
:102050000668344454B108220649204602F032FD95
:10206000042204491031284602F02CFD70BD000006
:10207000107AFF1F4A00002070472DE9F05F0446E8
:102080000025206846692068D0F804902068876899
:102090002068D0F80CA02068D0F810B02068D0F8E4
:1020A000188006F00100002855D007F00100C0B1EB
:1020B00001202168886007F0020018B1204600F076
:1020C00073FA0EE007F0040010B145F4006508E073
:1020D00007F0080010B145F4805502E0204600F0FA
:1020E00062FA07F48070C8B14FF48070216888608C
:1020F00007F4007018B1204600F058FA0EE007F41B
:10210000806010B145F4005508E007F4006010B19C
:1021100045F4804502E0204600F047FA07F480309D
:10212000C8B14FF480302168886007F4003018B1DE
:10213000204600F03DFA0EE007F4802010B145F48F
:10214000004508E007F4002010B145F4803502E0B6
:10215000204600F02CFA06F0080038B10AF0100012
:1021600020B145F4007510202168C86006F0040015
:1021700040B10AF0080028B108202168C860204654
:1021800000F00CFA06F0020038B12068C06800F0D8
:10219000030010B1204600F002FA06F0400038B10A
:1021A0000BF0100020B145F4806510202168086113
:1021B00006F0200040B10BF0080028B1082021688B
:1021C0000861204600F0ECF906F0100038B12068F4
:1021D000006900F0030010B1204600F0E2F906F4B7
:1021E000003040B109F0100028B11020216848608B
:1021F000204600F0D7F906F4803040B109F008001D
:1022000028B1082021684860204600F0D2F906F481
:10221000004088B309F0040078B306F4807020B160
:1022200008F0010008B145F0010506F4007020B186
:1022300008F0020008B145F0020506F4806020B104
:1022400008F0040008B145F0040506F40060A0B1F0
:1022500008F0700088B108F07000402817D006DC44
:1022600010280BD020280CD0302819D10CE0502891
:1022700010D0602814D110E01DE019E045F00805E9
:102280000FE045F010050CE045F0200509E045F0B1
:10229000400506E045F0800503E045F4807500E068
:1022A00000BF00BF2068806920F07000216888614D
:1022B0000420216848602DB1606A2843606220468E
:1022C000FFF7DAFEBDE8F09F70B504460CB90120B7
:1022D00070BD94F8200010B9204600F0AFF82068D7
:1022E000006820F002002168086000F075FA0546D9
:1022F0000DE000F071FA401B0A2808D9606A40F42A
:1023000000306062052084F820000120E0E72068AA
:10231000406800F002000028EBD12068006840F01F
:1023200001002168086000F057FA05460DE000F052
:1023300053FA401B0A2808D9606A40F400306062F2
:10234000052084F820000120C2E72068406800F0E2
:1023500001000028EBD0207E012806D1206800680B
:1023600040F080002168086005E02068006820F0E7
:10237000800021680860607E012806D1206800681E
:1023800040F040002168086005E02068006820F007
:10239000400021680860A07E012806D120680068FE
:1023A00040F020002168086005E02068006820F007
:1023B000200021680860E07E012806D120680068BE
:1023C00020F010002168086005E02068006840F0F7
:1023D000100021680860207F012806D1206800686D
:1023E00040F008002168086005E02068006820F0DF
:1023F000080021680860607F012806D12068006815
:1024000040F004002168086005E02068006820F0C2
:10241000040021680860D4E90201084321690843E7
:10242000616908436168491E08432168C86100204A
:102430006062012084F82000002049E710B586B0D2
:102440000446142101A8FEF701FB4F492068884289
:1024500042D14E480068401C4C490860084600685C
:1024600001280FD100BF002000904948006840F0CB
:102470000070474908600846006800F0007000904E
:1024800000BF00BF00BF0020009041481038006826
:1024900040F002003E49103908600846006800F02C
:1024A0000200009000BF00BF4FF440700190022076
:1024B000029000200390032004900920059001A9B8
:1024C000344800F08BF800221146142000F00EFA78
:1024D000142000F0FBF955E02F492068884251D1C3
:1024E00000BF002000902A48006840F08060284922
:1024F00008600846006800F08060009000BF00BFE0
:1025000022480068401C21490860084600680128EC
:102510000FD100BF002000901D48006840F00070FF
:102520001B4908600846006800F00070009000BF7A
:1025300000BF00BF0020009015481038006840F030
:1025400002001349103908600846006800F00200D4
:10255000009000BF00BF4FF4405001900220029055
:1025600000200390032004900920059001A9094848
:1025700000F034F800221146402000F0B7F9402066
:1025800000F0A4F906B010BD006400400000002077
:102590004038024000040240006800407047704725
:1025A0007047704770477047704770477047704773
:1025B0007047704770B5044600F00EF90646254690
:1025C000681C10B104480078054400BF00F004F90D
:1025D000801BA842FAD370BD80000020F8B50246E7
:1025E0000B460025002400200021D7E0012606FA32
:1025F00001F51E6806EA0504AC4273D15E68012E3F
:1026000008D05E68022E05D05E68112E02D05E688A
:10261000122E13D190684F000326BE40B0434F00E6
:10262000DE68BE4030439060506801268E40B04363
:102630001E79C6F300168E4030435060D0684F00BC
:102640000326BE40B0434F009E68BE403043D0607A
:102650005E68022E02D05E68122E13D1CF0802F1FE
:10266000200656F827004E07F70E0F26BE40B0434F
:102670004F07FF0E1E69BE403043CF0802F120060F
:1026800046F8270010684F000326BE40B0431E796D
:1026900006F003064F00BE40304310605E6806F04F
:1026A0008056B6F1805F78D100BF002600963D4E7F
:1026B000366846F480463B4F3E603E46366806F438
:1026C0008046009600BF00BF374E8F0856F827009F
:1026D0008E07370F0F26BE40B043344EB24202D1B0
:1026E00000261FE059E0324EB24201D1012619E026
:1026F000304EB24201D1022614E02F4EB24201D137
:1027000003260FE02D4EB24201D104260AE02C4EE2
:10271000B24201D1052605E02A4EB24201D1062679
:1027200000E007268F073F0FBE4030431E4E8F0844
:1027300046F82700244E3068A0435E6806F48036D1
:10274000B6F5803F00D120431F4E3060361D306803
:10275000A0435E6806F40036B6F5003F00D1204382
:10276000194E361D3060361D3068A0435E6806F491
:102770008016B6F5801F00D12043134E0836306016
:10278000361D3068A0435E6806F40016B6F5001FDB
:1027900000D120430C4E0C363060491C1029FFF448
:1027A00025AFF8BD4438024008380140000002401F
:1027B0000004024000080240000C024000100240E9
:1027C0000014024000180240003C01400AB181613F
:1027D00001E00B0483617047014800687047000006
:1027E000780000200348006803490978084401493B
:1027F00008607047780000208000002010B50D4868
:10280000006840F400700B4908600846006840F416
:10281000806008600846006840F48070086003200B
:1028200000F0A2F80F2000F007F800F02BF80020CD
:1028300010BD0000003C024070B504460E48007810
:102840004FF47A71B1FBF0F00C490968B1FBF0F577
:10285000284601F07FFD08B1012070BD102C07D281
:1028600000222146501E00F041F80548046001E0B6
:102870000120F2E70020F0E7800000208400002023
:102880007C00002008B500BF002000900E480068C2
:1028900040F480400C4908600846006800F480401D
:1028A000009000BF00BF00BF00200090081F00681C
:1028B00040F08050091F08600846006800F0805012
:1028C000009000BF00BF08BD4438024001460846E2
:1028D000002809DB00F01F0301229A4043099B00F6
:1028E00003F1E023C3F8002100BF70472DE9F05F3A
:1028F00080460D461646002705F000FA0746394681
:102900002A46334601F00700C0F1070ABAF1040F66
:1029100002D94FF0040A01E0C0F1070AD14600F1E4
:10292000040ABAF1070F02D24FF0000A01E0A0F149
:10293000030AD4464FF0010A0AFA09FAAAF1010A79
:102940000AEA020A0AFA0CFA4FF0010B0BFA0CFB26
:10295000ABF1010B0BEA030B4AEA0B04214640469C
:1029600005F0D4F9BDE8F09F00BF00F00702064B68
:1029700019684FF6FF031940044B0B4343EA022149
:10298000014B196000BF70470CED00E00000FA0534
:1029900001460A680120C1F8FC03002081F8F40315
:1029A000906940F000609061506D024B1843506593
:1029B000002070470300001070B504460D4615B1A5
:1029C000012D2CD116E0206A38B102F039FC1548EF
:1029D000006820F00600134908602068D0F8000E57
:1029E00020F001002168C1F8000ED4F8040403F0BF
:1029F000D4FE14E02068D0F8000E40F001002168F9
:102A0000C1F8000ED4F8040403F057FF206A28B17F
:102A10000448006840F006000249086000BF00BF9B
:102A200070BD000010ED00E0024610684162002019
:102A30007047F0B5034615461868446A21B944EA60
:102A400005401E68B06219E01868806A04EB104403
:102A5000002208E0186800F5827050F8220004EBAC
:102A60001044501CC2B2481E9042F3D844EA0547B5
:102A7000186800F582704E1E40F826700020F0BDE8
:102A800010B50446D4F8040403F0B8FD10BD70B5C9
:102A900004460D46C5EBC50304F13C0101EB83017F
:102AA000CA682946D4F8040403F0ECFC70BD70B584
:102AB00004460D46C5EBC50304F5FE7101EB830129
:102AC000CA682946D4F8040403F04FFD70BD10B560
:102AD0000446D4F8040403F094FD10BD70B5044618
:102AE0000E4606F0800080280AD106F00F00C0EBE9
:102AF000C00104F13C0000EB81050120687009E091
:102B000006F00F00C0EBC00104F5FE7000EB81057C
:102B10000020687006F00F00287000BF94F8BC0316
:102B2000012801D1022070BD012084F8BC0300BF40
:102B30002946206804F084FA00BF002084F8BC0312
:102B400000BF00BFEFE770B504460E4606F00F0069
:102B50006168884201D9012070BD06F0800080289C
:102B60000AD106F00F00C0EBC00104F13C0000EBFD
:102B700081050120687009E006F00F00C0EBC0017C
:102B800004F5FE7000EB8105002068700020A8703D
:102B900006F00F00287000BF94F8BC03012801D193
:102BA0000220D9E7012084F8BC0300BF2946206831
:102BB00004F0EAFC00BF002084F8BC0300BF00BFA3
:102BC000CAE7024601F00F00C0EBC00302F5FE7039
:102BD00000EB8300806970472DE9F04705460E46FB
:102BE00090461F464FF0000906F0800080280AD169
:102BF00006F00F00C0EBC00105F13C0000EB8104C2
:102C00000120607009E006F00F00C0EBC00105F57F
:102C1000FE7000EB81040020607006F00F00207051
:102C2000C4F80880E770607808B12078E080022F4F
:102C300001D10020207100BF95F8BC03012802D10A
:102C40000220BDE8F087012085F8BC0300BF2146C3
:102C5000286804F001F900BF002085F8BC0300BF1C
:102C60004846EEE72DE9F04104460E4617469846E1
:102C700006F00F00C0EBC00104F5FE7000EB81050B
:102C8000EF60C5F814800020A861687006F00F009E
:102C900028702069012800D12F6106F00F0028B9A3
:102CA000227C2946206804F04BFB04E0227C294664
:102CB000206804F0FDFC0020BDE8F08170B50446FA
:102CC0000D4605F00F006168884201D9012070BDF2
:102CD00005F0800080280AD105F00F00C0EBC0018C
:102CE00004F13C0000EB81060120707007E0C5EBA9
:102CF000C50104F5FE7000EB810600207070012014
:102D0000B07005F00F00307000BF94F8BC030128CC
:102D100001D10220DBE7012084F8BC0300BF31466B
:102D2000206804F078FC05F00F0028B9217C04F538
:102D30007172206804F0F0FB00BF002084F8BC032F
:102D400000BF00BFC3E72DE9F04104460E46174619
:102D5000984606F00F00C0EBC00104F13C0000EB08
:102D60008105EF60C5F814800020A861012068701B
:102D700006F00F0028702069012800D12F6106F0AD
:102D80000F0028B9227C2946206804F0D9FA04E013
:102D9000227C2946206804F08BFC0020BDE8F081ED
:102DA0002DE9FE4F044620680290029E206804F040
:102DB0006AFE00287DD1206804F0A4FE08B9BDE8B1
:102DC000FE8F206804F09EFE00F00200022805D16C
:102DD0002068406900F0020021684861206804F022
:102DE00091FE00F40020B0F5002F58D10025206896
:102DF00004F058FE82464FE00AF00100002848D057
:102E0000E9B2206804F071FE804608F0010048B184
:102E1000012106F5306000EB45108160294620460F
:102E200002F0E4F808F00800082809D129462046F5
:102E300002F096F8082106F5306000EB451081603D
:102E400008F01000102805D1102106F5306000EBC5
:102E50004510816008F0200020280ED1206901284B
:102E600005D104F571720121206804F055FB202181
:102E700006F5306000EB4510816008F40050B0F5B5
:102E8000005F06D14FF4005106F5306000EB4510AD
:102E900081606D1C4FEA5A0ABAF1000FACD120686C
:102EA00004F030FE00F48020B0F5802F7ED1206841
:102EB00000E034E204F0ECFD8246002586E00AF0F2
:102EC000010000287FD0E9B2206804F0F5FD8046BB
:102ED00008F00100E8B305F00F01012088400190DF
:102EE00040F634008159019821EA000040F634018F
:102EF0008851012106F5106000EB451081602069C2
:102F0000012815D1C5EBC50104F13C0000EB81009F
:102F1000C5EBC502C16804F13C0000EB820080688B
:102F20000144C5EBC50204F13C0000EB8200C16026
:102F3000E9B22046FFF7ABFD2069012810D145B961
:102F4000C5EBC50104F13C0000EB8100406900B90C
:102F500000E005E004F571720121206804F0DCFA5C
:102F600008F00800082805D1082106F5106000EBDC
:102F70004510816008F01000102805D1102106F5D9
:102F8000106000EB4510816008F04000402805D13A
:102F9000402106F5106000EB4510816008F002004A
:102FA000022808D1022106F5106001E012E00AE0D3
:102FB00000EB4510816008F08000802803D129468D
:102FC000204602F0D3F86D1C4FEA5A0ABAF1000FFE
:102FD0007FF475AF206804F095FD00F00040B0F17B
:102FE000004F1CD140F60400805920F0010140F64A
:102FF0000400815194F8F403012807D1002084F8DB
:10300000F40300212046FFF7D7FC02E0204600F041
:10301000CFFA2068406900F00040216848612068CC
:1030200004F070FD00F40060B0F5006F0ED140F6C2
:103030000800805900F0010010B1204600F010FB9C
:103040002068406900F4006021684861206804F04D
:1030500059FD00F00060B0F1006F19D1206840699F
:1030600000F000602168486194F8F40368B9012019
:1030700084F8F4032068406DC0F38300C4F8F803BB
:1030800001212046FFF798FC02E0204600F0E8FA14
:10309000206804F037FD00F48050B0F5805F72D1F5
:1030A00040F60400805920F0010140F604008151EF
:1030B0001021206804F0BCFC002726E04FF67F3189
:1030C00006F5106000EB4710816006F5106000EB1C
:1030D0004710006820F4001106F5106000EB47105F
:1030E00001604FF67F3106F5306000EB47108160DC
:1030F00006F5306000EB4710006820F4001106F57B
:10310000306000EB471001607F1C6068B842D5D882
:1031100040F61C00805940F0011140F61C0081511E
:10312000206B70B1D6F8840840F00B01C6F8841803
:1031300040F64400805940F00B0140F644008151B4
:103140000FE040F61400805942F22B01084340F68C
:1031500014018851081F805940F00B014FF40160A1
:103160008151D6F8000820F4FE60C6F80008217CE2
:1031700004F57172206804F0CFF92068406900F40A
:10318000805021684861206804F0BCFC00F40050C5
:10319000B0F5005F17D1206803F0C6FE206804F088
:1031A0005FFCE06000F0E4FD0090227B2068009965
:1031B00004F0F8FC204600F0E3F92068406900F4D0
:1031C000005021684861206804F09CFC00F0100069
:1031D000102846D12068806920F01000216888619D
:1031E0000298D0F8209009F00F00C0EBC00104F560
:1031F000FE7000EB810BC9F3434002281AD147F659
:10320000F07009EA000030B3C9F30A12DBF80C10C1
:10321000029804F07CFCC9F30A11DBF80C000844A6
:10322000CBF80C00C9F30A11DBF818000844CBF8FE
:10323000180010E0C9F3434006280CD1082204F519
:103240007171029804F063FCC9F30A11DBF81800ED
:103250000844CBF818002068806940F0100021680D
:103260008861206804F04EFC00F00800082808D1AE
:10327000204600F0A4F92068406900F008002168A9
:103280004861206804F03EFC00F48010B0F5801F17
:103290000AD100252946204600F043F820684069FD
:1032A00000F4801021684861206804F02BFC00F4D1
:1032B0000010B0F5001F0AD100252946204600F075
:1032C00039F82068406900F40010216848612068DE
:1032D00004F018FC00F08040B0F1804F08D1204687
:1032E000FFF7CEFB2068406900F08040216848610C
:1032F000206804F007FC00F0040004280FD12068C7
:10330000D0F8049009F00400042802D12046FFF709
:10331000DEFB2068406840EA09002168486000BF81
:103320004DE570B504460D462946D4F8040403F073
:10333000D1F970BD70B504460D462946D4F8040491
:1033400003F0CBF970BD70B58AB0044614B9012002
:103350000AB070BD266894F8BD0328B9002084F82F
:10336000BC03204600F0A8F8032084F8BD03F06BEE
:1033700000F4807008B900212161206803F0D8FFB3
:10338000282204F110016846FDF704FB94E80F00C1
:1033900003F0EEFD20B1022084F8BD030120D7E741
:1033A0000021206804F0C4FB002531E00121C5EBB9
:1033B000C50204F13C0000EB82004170C5EBC50181
:1033C00004F13C0000F82150C5EBC50100EB810081
:1033D000C5800021C5EBC50204F13C0000EB820072
:1033E000C170C5EBC50204F13C0000EB82008160B6
:1033F000C5EBC50204F13C0000EB8200C160C5EBE7
:10340000C50204F13C0000EB82004161681CC5B2BA
:103410006068A842CAD800252AE00021C5EBC50291
:1034200004F5FE7000EB82004170C5EBC50104F5A8
:10343000FE7000F821500021C5EBC50200EB8200B0
:10344000C170C5EBC50204F5FE7000EB820081601F
:10345000C5EBC50204F5FE7000EB8200C160C5EB50
:10346000C50204F5FE7000EB82004161681CC5B224
:103470006068A842D1D8282204F110016846FDF7FF
:1034800089FA94E80F0003F05DFE20B1022084F871
:10349000BD0301205CE7002084F83800012084F897
:1034A000BD03606A012802D12046FFF771FA206847
:1034B00003F038FE00204BE710B59EB004461421FF
:1034C00019A8FDF7C3FA5C2102A8FDF7BFFA20682E
:1034D000B0F1A04F4DD14FF48070029000201790B2
:1034E00002A800F0D7F808B1FEF7A9FD00BF002040
:1034F00001902148006840F001001F49086008461B
:10350000006800F00100019000BF00BF4FF4C05000
:10351000199002201A9000201B9003201C900A2072
:103520001D9019A91548FFF759F800BF1248001D52
:10353000006840F080001049091D086000BF0020AD
:1035400001900D481430006840F480400A4914315D
:1035500008600846006800F48040019000BF00BF8A
:1035600000BF002211464320FFF7C0F94320FFF7B8
:10357000ADF91EB010BD000030380240000002401E
:1035800070B504460125E06808B9002506E0E0684A
:10359000022801D1012501E0FEF751FD2946D4F8AA
:1035A000040403F016F9D4F8040403F0C9F870BD5C
:1035B00010B50446D4F8040403F0EFF810BD10B5BC
:1035C0000446D4F8040403F0F3F810BD70B50446C3
:1035D0000D4600BF94F8BC03012801D1022070BD44
:1035E000012084F8BC0300BF84F8385029462068C5
:1035F00004F0B9FA00BF002084F8BC0300BF00BF8C
:10360000EDE710B5044604F57171D4F8040403F035
:10361000F7F810BD70B50446256800BF94F8BC03E8
:10362000012801D1022070BD012084F8BC0300BF35
:10363000A06A012806D1A069012803D0A86B40F434
:103640008030A863206803F05DFD206804F0D2F9A3
:1036500000BF002084F8BC0300BF00BFE3E7000008
:1036600010B50446D4F8040403F027F92068D0F814
:10367000000E40F001002168C1F8000E206A28B158
:103680000348006840F006000149086010BD0000D2
:1036900010ED00E02DE9FE4F04460025002600272E
:1036A000A846A946AA46AB46002002900190207881
:1036B00000F0010058B1FE48006820F0C060A16B26
:1036C0000843FB490860A06B08B9012002902078EC
:1036D00000F0020002280BD1F548006820F0C0502D
:1036E000E16B0843F2490860E06B08B901200290E1
:1036F000207800F00400042811D1ED48006820F47F
:103700004010216B0843EA490860206BB0F5801F28
:1037100001D101200290206B08B90120019020788E
:1037200000F00800082811D1E148006820F44000AA
:10373000616B0843DE490860606BB0F5800F01D112
:1037400001200290606B08B901200190207800F000
:10375000200020286FD100BF00200090D4484C38B2
:10376000006840F08050D2494C3908600846006833
:1037700000F08050009000BF00BFCE48006840F4C9
:103780008070CC490860FFF727F8054607E0FFF78F
:1037900023F8401B022802D90320BDE8FE8FC5484C
:1037A000006800F480700028F1D0C1481C3800681F
:1037B00000F4407656B3B4F8400000F44070B042D4
:1037C00024D0BB481C38006820F440760120BA4958
:1037D000086000200860B6481C380660006800F0E9
:1037E000010098B1FEF7F8FF054608E0FEF7F4FF88
:1037F000401B41F28831884201D90320CDE7AC4813
:103800001C380068C0F340000028EFD000BFB4F8B7
:10381000400000F44070B0F5407F0DD1A4488438DA
:10382000006820F4F810A54A216C11400843A04913
:103830008439086008E013E09D488438006820F46B
:10384000F8109B498439086099481C380068B4F81E
:103850004010C1F30B01084395491C39086000BFB3
:10386000207800F01000102803D194F858009449F3
:103870000860207800F08000802809D18C4808304A
:10388000006820F44000E16C084389490831086071
:10389000207800F04000402809D1854808300068B1
:1038A00020F08060A16C08438149083108602088BD
:1038B00000F48070B0F5807F0FD17D48083000683B
:1038C00020F00060616D0843794908310860606D3F
:1038D000B0F1006F01D101200190208800F4007048
:1038E000B0F5007F09D172480830006820F08050A0
:1038F000616C08436E4908310860208800F48060DC
:10390000B0F5806F0FD16A480830006820F0005091
:10391000216D0843664908310860206DB0F1005FF1
:1039200001D1012002900298012803D02068B0F54F
:10393000006F7DD1002063498866FEF74DFF054684
:1039400006E0FEF749FF401B022801D9032024E7C7
:1039500057488C380068C0F3C0600028F1D1207847
:1039600000F0010008B1A06B30B1207800F0020037
:1039700002281ED1E06BE0B94D4808380068C0F35A
:103980000140401C47004A4808380068C0F30368FB
:10399000D4E9011041EA80100121C1EB570140EA4E
:1039A000014040EA0861207D41EA00704049083941
:1039B0000860207800F00400042803D1206BB0F5E3
:1039C000801F08D0207800F00800082829D1606BFB
:1039D000B0F5800F25D1364808380068C0F30140A3
:1039E000401C4700324808380068C0F30279D4E927
:1039F000011041EA80100121C1EB570140EA014169
:103A0000207C41EA006040EA0970294908390860D1
:103A10002748006820F01F00A16A491E0843244976
:103A20000860208800F48060B0F5806F23D100E04A
:103A30005BE0206DB0F1005F1DD11D4808380068C3
:103A4000C0F30140401C4FEA40081948083800689C
:103A5000C0F30279D4E9011041EA80110122E06843
:103A6000C2EB500041EA004040EA086040EA0970B9
:103A70000F4908390860208800F40060B0F5006F35
:103A800012D1D4E9011041EA80110122E068C2EBB1
:103A9000500041EA0041207C41EA0061207D41EA7A
:103AA00000700349083908600120064988660BE068
:103AB0008C38024000700040400E4742FFFCFF0F70
:103AC000E011474200004742FEF786FE054606E049
:103AD000FEF782FE401B022801D903205DE6414823
:103AE0000068C0F3C0600028F2D00198012877D1A7
:103AF00000203D490867FEF76FFE054606E0FEF729
:103B00006BFE401B022801D9032046E635480068B9
:103B1000C0F340700028F2D1207800F0040004289F
:103B200001D1206B30B1207800F00800082824D1A2
:103B3000606B10BB2B4888300068C0F30140401C0C
:103B40004FEA400AD4E9061041EA80100121C1EB96
:103B50005A0140EA01412420005D41EA0060214908
:103B600088310860081D006820F4F851E06A401EA2
:103B700041EA00201B498C310860208800F48070E5
:103B8000B0F5807F17D1606DB0F1006F13D115488B
:103B900088300068C0F3036BD4E9061041EA801155
:103BA0000122206AC2EB500041EA004040EA0B606B
:103BB0000C498831086001200B490867FEF70CFEAC
:103BC000054607E0FEF708FE401B022802D9032045
:103BD000E3E505E003480068C0F340700028F1D039
:103BE0000020DAE5003802400000474270B5044684
:103BF0000D460CB9012070BD5848006800F00F0058
:103C0000A84209D255490D700846006800F00F001F
:103C1000A84201D00120EEE7207800F0020002283F
:103C20001DD1207800F00400042805D14C4800681C
:103C300040F4E0504A490860207800F00800082865
:103C400005D14748006840F4604045490860444851
:103C5000006820F0F000A16808434149086020781E
:103C600000F00100A8B36068012807D13C4808387B
:103C70000068C0F34040B8B90120BCE76068022882
:103C800002D06068032807D1354808380068C0F3BF
:103C9000406048B90120AEE7314808380068C0F3F9
:103CA000400008B90120A6E72D48006820F0030075
:103CB000616808432A490860FEF78EFD064609E060
:103CC000FEF78AFD801B41F28831884202D9032029
:103CD00091E707E02248006800F00C006168B0EB53
:103CE000810FEDD11D48006800F00F00A84209D9EE
:103CF0001A490D700846006800F00F00A84201D074
:103D0000012078E7207800F00400042807D1144847
:103D1000006820F4E050E168084311490860207809
:103D200000F00800082808D10D48006820F4604021
:103D3000216940EAC1000A49086000F03FF80849DB
:103D40000968C1F30311074A515CC840064908607D
:103D500006480068FEF770FD00204CE7003C02407A
:103D6000083802404B8A0008840000207C000020B4
:103D700001480068704700008400002000B5FFF78C
:103D8000F7FF04490968C1F38221034A515CC84026
:103D900000BD0000083802405B8A000800B5FFF74C
:103DA000E7FF04490968C1F34231034A515CC84046
:103DB00000BD0000083802405B8A00082DE9F0478A
:103DC000002400250026A146A2463F48006800F0D6
:103DD0000C0030B1042807D0082808D00C286BD17B
:103DE00038E0DFF8E8A06AE0DFF8E4A067E03648F2
:103DF000001F006800F03F043348001F006800F413
:103E0000800078B132483049091F0968C1F3881130
:103E1000A0FB01700146224600233846FCF7B9FAA0
:103E200005460DE029482849091F0968C1F3881192
:103E3000A0FB0171224600233846FCF7AAFA05468A
:103E40002148001F0068C0F30140401C4600B5FB3C
:103E5000F6FA34E01C48001F006800F03F041A48DE
:103E6000001F006800F4800078B119481649091F46
:103E70000968C1F38811A0FB0170014622460023A6
:103E80003846FCF786FA05460EE010480E49091F31
:103E90000968C1F38811A0FB017001462246002386
:103EA0003846FCF776FA05460748001F0068C0F35D
:103EB0000279B5FBF9FA02E0DFF810A000BF00BFFD
:103EC0005046BDE8F0870000083802400024F400A6
:103ED000001BB700F8B504460025207800F001006B
:103EE00000286FD0FD48006800F00C0004281BD0AB
:103EF000FA48006800F00C00082807D1F748001FB6
:103F0000006800F48000B0F5800F0DD0F348006821
:103F100000F00C000C2813D1F048001F006800F4DA
:103F20008000B0F5800F0BD1EC4808380068C0F372
:103F30004040002859D06068002856D10120F8BDC3
:103F400000BF6068B0F5803F08D1E44808380068D9
:103F500040F48030E149083908601EE06068B0F53F
:103F6000A02F0DD1DD480838006840F48020DB49DF
:103F7000083908600846006840F4803008600CE0AA
:103F8000D6480838006820F48030D44908390860E1
:103F90000846006820F48020086000BF606890B187
:103FA000FEF71AFC054606E0FEF716FC401B6428E7
:103FB00001D90320C3E7C94808380068C0F340406E
:103FC0000028F1D011E0FEF707FC054606E0FEF7F9
:103FD00003FC401B642801D90320B0E7BF48083820
:103FE0000068C0F340400028F1D1207800F00200C2
:103FF00002286BD1B948006800F00C00B8B1B7488E
:10400000006800F00C00082805D1B448001F0068C3
:1040100000F4800058B1B148006800F00C000C2892
:104020001CD1AE48001F006800F48000B0B9AB4856
:1040300008380068C0F3400020B1E068012801D0D2
:1040400001207CE7A5480838006820F0F8002169C5
:1040500040EAC100A1490839086037E0E06800B3D0
:1040600001209F490860FEF7B7FB054606E0FEF712
:10407000B3FB401B022801D9032060E797480838AA
:104080000068C0F340000028F1D094480838006868
:1040900020F0F800216940EAC10090490839086021
:1040A00014E000208E490860FEF796FB054606E006
:1040B000FEF792FB401B022801D903203FE7874807
:1040C00008380068C0F340000028F1D1207800F0E3
:1040D000080008282CD16069A8B101208149086036
:1040E000FEF77AFB054606E0FEF776FB401B02284A
:1040F00001D9032023E779486C300068C0F3400001
:104100000028F1D014E0002076490860FEF764FB37
:10411000054606E0FEF760FB401B022801D903209C
:104120000DE76E486C300068C0F340000028F1D104
:10413000207800F00400042870D100266748383049
:10414000006800F0805090B900BF002000906348E4
:104150003830006840F080506049383108600846C7
:10416000006800F08050009000BF00BF01265E484C
:10417000006800F48070B0B95B48006840F480705B
:1041800059490860FEF728FB054606E0FEF724FBC8
:10419000401B022801D90320D1E65348006800F4EF
:1041A00080700028F2D000BFA068012808D14B48D9
:1041B0006830006840F001004849683108601DE03F
:1041C000A06805280DD145486830006840F004001B
:1041D0004249683108600846006840F00100086004
:1041E0000CE03E486830006820F001003B4968312F
:1041F00008600846006820F00400086000BFA0685E
:10420000A8B1FEF7E9FA054609E0FEF7E5FA401B1A
:1042100041F28831884202D9032090E626E02F48F7
:1042200068300068C0F340000028EED013E0FEF7CD
:10423000D3FA054608E0FEF7CFFA401B41F2883179
:10424000884201D903207AE6244868300068C0F328
:1042500040000028EFD1012E07D1204838300068F7
:1042600020F080501D493831086000BFA069E8B3D4
:104270001A48006800F00C00082862D0A0690228E3
:104280004AD1002016490866FEF7A6FA054606E060
:10429000FEF7A2FA401B022801D903204FE60F487F
:1042A00008380068C0F340600028F1D1D4E9070164
:1042B0000843616A40EA81110122A06AC2EB500002
:1042C00041EA00412C20005D41EA00613020005DA0
:1042D00041EA00700149091F086008E008380240FF
:1042E00000004742800E4742007000402BE0012052
:1042F00016490866FEF770FA054606E0FEF76CFA06
:10430000401B022801D9032019E611480068C0F3B8
:1043100040600028F2D016E000200C490866FEF745
:104320005BFA054606E0FEF757FA401B022801D962
:10433000032004E606480068C0F340600028F2D17C
:1043400001E00120FBE50020F9E500000000474204
:104350000038024070B504462546681EB0F1807FE3
:1043600001D301200FE0681E4FF0E02148610F21CA
:104370004FF0FF3003F0CAFC00204FF0E0218861CD
:1043800007200861002070BD30B502460B4600BF13
:1043900092F83C00012801D1022030BD012082F8B2
:1043A0003C0000BF022082F83D001068446810689D
:1043B000816824F070041868044310684460184D44
:1043C0001068A8421BD01068B0F1804F17D0154D6F
:1043D0001068A84213D0144D1068A8420FD0134D96
:1043E0001068A8420BD0124D1068A84207D0114D9A
:1043F0001068A84203D0104D1068A84205D121F0E2
:1044000080015868014310688160012082F83D00F6
:1044100000BF002082F83C0000BF00BFBDE70000E5
:10442000000001400004004000080040000C004073
:1044300000040140004001400018004010B504464F
:104440000CB9012010BD94F83D0028B9002084F873
:104450003C00204600F00CF8022084F83D00211DAD
:10446000206800F07DFF012084F83D000020E9E78E
:1044700038B504461849206888420FD100BF002093
:1044800000901648006840F0020014490860084691
:10449000006800F00200009000BF1BE01049206897
:1044A000884217D100BF002000900C48006840F0FF
:1044B00080000A4908600846006800F0800000900B
:1044C00000BF00BF002211462C20FEF70FFA2C205F
:1044D000FEF7FCF938BD00000004004040380240FF
:1044E000001C004001460868C06840F001000B68ED
:1044F000D8600868806800F00702062A05D00868BE
:10450000006840F001000B681860002070472DE93A
:10451000F04104460D4600BF94F83C00012802D14A
:104520000220BDE8F081012084F83C0000BF022099
:1045300084F83D002068866826F0770626F47F46DA
:10454000206886602868502833D00CDC202850D0A2
:1045500004DC00284BD0102851D149E0302849D044
:1045600040284CD139E060282DD0702807D0B0F514
:10457000805F03D0B0F5005F41D10DE040E0D5E9A8
:1045800002136A68206800F057FF2068866846F0CA
:1045900077062068866033E0D5E902136A682068F0
:1045A00000F04AFF2068806840F4804021688860FD
:1045B00026E0EA686968206801F02EF8502120683A
:1045C00000F045FF1CE0EA686968206801F037F8F0
:1045D0006021206800F03BFF12E0EA68696820680B
:1045E00001F01AF84021206800F031FF08E000BF18
:1045F00000BF00BF2968206800F029FF00E000BF6D
:1046000000BF012084F83D0000BF002084F83C007A
:1046100000BF00BF85E7000010B586B00446142136
:1046200001A8FCF713FA2068B0F1804F1DD100BF3C
:10463000002000901F48006840F002001D490860FB
:104640000846006800F00200009000BF00BF042090
:104650000190022002900020039004900120059018
:1046600001A91548FDF7BAFF21E0144920688842E6
:104670001DD100BF002000900E48006840F00400EB
:104680000C4908600846006800F00400009000BF74
:1046900000BF4FF470700190022002900020039040
:1046A00004900220059001A90548FDF797FF06B088
:1046B00010BD0000303802400004024000040040F9
:1046C0000008024070B504460D46164600BF94F837
:1046D0003C00012801D1022070BD012084F83C007B
:1046E00000BF022084F83D0036B1042E1BD0082EF6
:1046F00031D00C2E5ED145E02946206800F0B0FE96
:104700002068806940F0080021688861206880691D
:1047100020F00400216888612068806929690843C5
:104720002168886147E02946206800F0D1FE2068B2
:10473000806940F40060216888612068806920F405
:1047400080602168886120688069296940EA0120C9
:10475000216888612FE02946206800F0F7FE206874
:10476000C06940F008002168C8612068C06920F075
:1047700004002168C8612068C0692969084321686C
:10478000C86118E02946206800F01CFF2068C06955
:1047900040F400602168C8612068C06920F480602E
:1047A0002168C8612068C069296940EA0120216840
:1047B000C86100E000BF00BF012084F83D0000BFD9
:1047C000002084F83C0000BF00BF85E710B5044618
:1047D0000CB9012010BD94F83D0028B9002084F8E0
:1047E0003C00204600F00CF8022084F83D00211D1A
:1047F000206800F0B5FD012084F83D000020E9E7C5
:1048000008B50168B1F1804F0FD100BF00210091C0
:104810000649096841F00101044A1160114609681E
:1048200001F00101009100BF00BF08BD4038024007
:10483000704710B504460CB9012010BDA06900B145
:1048400000E000BF94F8390028B9002084F838004F
:10485000204600F027F8242084F839002068C0683A
:1048600020F400502168C860204600F0FDFE20685A
:10487000006920F49040216808612068406920F0B8
:104880002A00216848612068C06840F4005021680F
:10489000C8600020E063202084F8390084F83A00E2
:1048A0000020CAE710B586B00446142101A8FCF721
:1048B000CDF87B492068884231D100BF00200090AC
:1048C0007848006840F4002076490860084600688F
:1048D00000F40020009000BF00BF00BF0020009047
:1048E00070481038006840F004006E4910390860C4
:1048F0000846006800F00400009000BF00BF4FF4BD
:104900004060019002200290002003900320049058
:104910000820059001A96448FDF760FEBDE06349E9
:10492000206888424DD100BF002000905D4800689B
:1049300040F480105B4908600846006800F480106D
:10494000009000BF00BF00BF002000905548103805
:10495000006840F0040053491039086008460068B8
:1049600000F00400009000BF00BF00BF00200090D6
:104970000846006840F0080008600846006800F03B
:104980000800009000BF00BF881401900220029030
:1049900000200390032004900820059001A94248BC
:1049A000FDF71CFE042001900220029000200390DD
:1049B000032004900820059001A93D48FDF70EFE54
:1049C0006BE03C492068884233D100BF0020009052
:1049D0003448001D006840F010003249091D08608D
:1049E0000846006800F01000009000BF00BF00BF44
:1049F000002000902B481038006840F00100294941
:104A0000103908600846006800F00100009000BFFF
:104A100000BF4FF4C060019002200290002003907C
:104A2000032004900720059001A92348FDF7D6FD37
:104A300033E02249206888422FD100BF0020009037
:104A40001848006840F400301649086008460068BD
:104A500000F40030009000BF00BF00BF00200090B5
:104A600010481038006840F001000E491039086005
:104A70000846006800F00100009000BF00BF0C2055
:104A80000190022002900020039003200490072050
:104A9000059001A90848FDF7A1FD06B010BD000072
:104AA000004C0040403802400008024000500040E6
:104AB000000C024000100140000002400044004091
:104AC00000BFFEE730B50B46002100BF16E00A2408
:104AD000B4EB107F05D9302404EB107403F81140B7
:104AE00005E0412404EB10740A3C03F81140000176
:104AF00000254C00641C1D554C1CE1B29142E6DBC4
:104B000030BD000010B50E480E4908600220486014
:104B100000210C488160C1604FF4602101614FF4B5
:104B2000800141610021017641768176C17601776D
:104B30004177FDF7C9FB08B1FDF781FA10BD000010
:104B400000640040C001002010B50E480E49086006
:104B50000220486000210C488160C1604FF4602150
:104B600001614FF480014161002101764176817637
:104B7000C17601774177FDF7A7FB08B1FDF75FFA32
:104B800010BD000000680040E801002000B587B0BB
:104B9000142102A8FBF75AFF00BF002001903B48F8
:104BA000006840F00400394908600846006800F0D9
:104BB0000400019000BF00BF00BF00200190084624
:104BC000006840F0800008600846006800F080003F
:104BD000019000BF00BF00BF0020019008460068A0
:104BE00040F0010008600846006800F001000190F4
:104BF00000BF00BF00BF002001900846006840F0E1
:104C0000020008600846006800F00200019000BF42
:104C100000BF00BF002001900846006840F0080077
:104C200008600846006800F00800019000BF00BF5F
:104C3000002248F201011648FDF7C8FD00220821B4
:104C40001448FDF7C3FD48F20100029001200390D3
:104C500000200490059002A90D48FDF7BFFC4FF419
:104C60000040029000200390049002A90A48FDF73A
:104C7000B5FC0820029001200390002004900590CC
:104C800002A90448FDF7AAFC07B000BD3038024075
:104C900000080240000402400000024010B50A482B
:104CA0000A490860532048600021084881604FF697
:104CB000FF71C1600021016180218161FFF7BEFBAE
:104CC00008B1FDF7BCF910BD001C004090020020A7
:104CD00000B589B00020079008901C216846FBF7BA
:104CE000B5FE4FF080401749086000204860002161
:104CF00014488160491EC160002101618161FFF794
:104D000065FD08B1FDF79BF900200790089007A901
:104D10000C48FFF739FB08B1FDF791F960200090CE
:104D200000200190029004900C2269460548FFF78C
:104D3000C9FC08B1FDF783F90248FFF76DFC09B023
:104D400000BD00001002002000B58DB000200990C9
:104D50000A900B900C90079008901C216846FBF776
:104D600075FE2C482C4908600020486000212A4824
:104D700081604FF6FF71C160002101618161FFF721
:104D80005DFB08B1FDF75BF94FF48050099009A96C
:104D90002148FFF7BCFB08B1FDF751F91E48FFF7AA
:104DA00015FD08B1FDF74BF900200790089007A901
:104DB0001948FFF7E9FA08B1FDF741F960200090C2
:104DC0000020019002900490002269461248FFF7EB
:104DD00079FC08B1FDF733F9042269460E48FFF764
:104DE00071FC08B1FDF72BF9082269460A48FFF764
:104DF00069FC08B1FDF723F90C2269460648FFF764
:104E000061FC08B1FDF71BF90348FFF705FC0DB085
:104E100000BD0000000400405002002010B50B4807
:104E20000B4908604FF4E130486000210848816078
:104E3000C16001610C21416100218161C161FFF705
:104E4000F8FC08B1FDF7FBF810BD0000004C004075
:104E5000D002002010B50B480B4908604FF4E13038
:104E60004860002108488160C16001610C214161F6
:104E700000218161C161FFF7DCFC08B1FDF7DFF8BB
:104E800010BD0000005000401003002010B50B487A
:104E90000B4908604FF4E130486000210848816008
:104EA000C16001610C21416100218161C161FFF795
:104EB000C0FC08B1FDF7C3F810BD000000100140B0
:104EC0005003002010B50B480B4908604FF4E13047
:104ED0004860002108488160C16001610C21416186
:104EE00000218161C161FFF7A4FC08B1FDF7A7F8BB
:104EF00010BD0000004400409003002010B50022C7
:104F00000D490E4801F076FA08B1FDF798F80C4902
:104F10000A4801F00FFD08B1FDF791F8094907486B
:104F200000F0D7FE08B1FDF78AF8044801F0E0FD73
:104F300008B1FDF784F810BD04000020D003002064
:104F4000980000206400002000BFFEE700BFFEE7DD
:104F500010B50248FDF724FF10BD0000A018002086
:104F60002DE9F04705460C462F683E46D7F84080AD
:104F700006F5306000EB4410D0F80890286901284D
:104F80000FD1184880451BD909F40040B0F5004FF7
:104F900016D14FF4004106F5306000EB44108160FB
:104FA0000EE0114880450BD109F40040B0F5004FE8
:104FB00006D14FF4004106F5306000EB44108160EB
:104FC0002846FEF71EFB0748804508D928690128B6
:104FD00005D105F571720121286802F09DFA0020C3
:104FE000BDE8F0870A30544F0A31544F2DE9F0479D
:104FF00005460C46D5F800804646D8F8409006F5A0
:10500000306000EB44108768286901287ED107F0E2
:10501000080008281ED1534881450BD907F40040E9
:10502000B0F5004F06D14FF4004106F5306000EBBB
:10503000441081602846FEF7E4FA05F571720121FB
:10504000286802F069FA082106F5306000EB441088
:10505000816083E007F02000202806D1202106F59A
:10506000306000EB4410816078E007F028000028F1
:1050700074D13C4881450CD907F40040B0F5004F8D
:1050800007D14FF4004106F5306000EB4410816019
:1050900064E0C4EBC40105F5FE7000EB810081689B
:1050A00006F5306000EB44100069C0F31200091AE5
:1050B000C4EBC40205F5FE7000EB82008161C4EB15
:1050C000C40105F5FE7000EB8100C4EBC402C168A9
:1050D00005F5FE7000EB820080680144C4EBC40259
:1050E00005F5FE7000EB8200C160E1B22846FDF7D5
:1050F000DEFCFCB9C4EBC40105F5FE7000EB8100D9
:105100004069B8B905F57172012100E003E0286833
:1051100002F002FA22E0144881451BD107F4004056
:10512000B0F5004F07D14FF4004106F5306000EBB9
:105130004410816012E007F02000202805D12021D2
:1051400006F5306000EB44108160E1B22846FDF7BF
:10515000AEFC03E0E1B22846FDF7A9FC0020BDE863
:10516000F08700000A30544F0A31544F2DE9F84FB0
:1051700007460E46D7F80090C846C6EBC60107F1B1
:105180003C0000EB8104D4E90510884202D90120DB
:10519000BDE8F88FD4E90501451AA068A84200D2FD
:1051A000A568E81C4FEA900A17E0D4E90501451A02
:1051B000A068A84200D2A568E81C4FEA900A387C93
:1051C000ABB2F2B200904846E16802F05FFDE068E1
:1051D0002844E060A0692844A06108F5106000EB55
:1051E0004610806980B2504506D3D4E90510884244
:1051F00002D260690028D8D1D4E9050188420ED8CE
:1052000006F00F01012000FA01FB40F6340050F8CF
:10521000080020EA0B0040F6340141F808000020A5
:10522000B6E77047704730B501460A461378521CFE
:10523000147843EA042030BD10B5FDF7D3FA10BD51
:1052400000B593B0342106A8FBF700FC142101A897
:10525000FBF7FCFB00BF002000902548006840F0F1
:105260008050234908600846006800F08050009094
:1052700000BF00BF00BF002000901E48006840F43F
:1052800040401C4908600846006800F44040009017
:1052900000BF00BF012006900004079002200C9080
:1052A00041050D9106210E91A8210F910221109127
:1052B000072111910221129106A8FEF70BFE08B1F9
:1052C000FCF7BDFE0F200190022002900020039009
:1052D0004FF4A05004904FF480500590052101A890
:1052E000FEF784FC08B1FCF7AAFE13B000BD000075
:1052F00040380240007000400548006840F47000EB
:10530000034908604FF00060014980390860704728
:1053100088ED00E010B510480068006900F0010059
:10532000C0B10D480068C06800F0010090B10B48A2
:10533000036840684FF480329A1840F10000074932
:105340000A6048606FF0010003490968086102487B
:10535000FFF76EFA10BD000090020020B801002097
:1053600010B50268294B98420ED0B0F1804F0BD097
:10537000274B984208D0274B984205D0264B98429D
:1053800002D0264B984203D122F070024B681A4398
:105390001E4B984220D0B0F1804F1DD01C4B98423C
:1053A0001AD01C4B984217D01B4B984214D01B4B61
:1053B000984211D01A4B98420ED01A4B98420BD0FB
:1053C000194B984208D0194B984205D0184B984277
:1053D00002D0184B984203D122F44072CB681A4392
:1053E00022F080034C6943EA040202608B68C362C6
:1053F0000B688362054B984202D0084B984201D15A
:105400000B6903630123436110BD000000000140EC
:105410000004004000080040000C0040000401406F
:105420000040014000440140004801400018004095
:10543000001C00400020004030B50C46816821F47B
:105440007F4142EA032525432943816030BD0A4656
:10545000816821F0700142F00703194381607047B1
:1054600030B5056A25F001050562026A4368846962
:1054700024F0700424F003040D682C4322F002028F
:105480008D682A43104DA84200D103E00F4DA84279
:1054900006D100BF22F00802CD682A4322F00402A0
:1054A000094DA84202D0094DA84207D123F48073C8
:1054B00023F400734D692B438D692B434360846152
:1054C0004D684563026230BD0000014000040140A8
:1054D00030B5056A25F010050562026A43688469E3
:1054E00024F4E04424F440740D6844EA052422F0D6
:1054F00020028D6842EA0512124DA84200D103E055
:10550000114DA84207D100BF22F08002CD6842EAC7
:10551000051222F040020B4DA84202D00A4DA842CB
:1055200009D123F4806323F400634D6943EA8503C2
:105530008D6943EA8503436084614D688563026237
:1055400030BD0000000001400004014030B5056A94
:1055500025F480750562026A4368C46924F070040A
:1055600024F003040D682C4322F400728D6842EA93
:105570000522124DA84200D103E0114DA84207D1E7
:1055800000BF22F40062CD6842EA052222F4806264
:105590000A4DA84202D00A4DA84209D123F48053F3
:1055A00023F400534D6943EA05138D6943EA05135B
:1055B0004360C4614D68C563026230BD00000140B4
:1055C0000004014030B5056A25F480550562036A80
:1055D0004468C26922F4E04222F440720D6842EA53
:1055E000052223F400538D6843EA0533084DA84291
:1055F00002D0084DA84204D124F480444D6944EA05
:1056000085144460C2614D680564036230BD0000CA
:10561000000001400004014030B50B461446026A08
:10562000056A25F001050562816921F0F00141EA72
:10563000041122F00A021A438161026230BD30B5C2
:105640000B461446056A25F0100505628169026A59
:1056500021F4704141EA043122F0A00242EA03122F
:105660008161026230BD00002DE9F84F04462068D8
:10567000006920F44050E16808432168086121690D
:10568000A068084361690843E16908430090206805
:10569000C06849F20C618843009908432168C860DA
:1056A0002068406920F44070A1690843216848617E
:1056B000E069B0F5004F75D1E3492068884203D016
:1056C000E249206888426FD1FEF768FB81460220DC
:1056D0006168A0FB01510B461920A9FB00712A4605
:1056E0003846FAF756FE6421B0FBF1F04FEA001A93
:1056F00002206168A0FB01510B461920A9FB007133
:105700002A463846FAF745FE074602206168A0FBA4
:1057100001510B461920A9FB00B12A465846FAF759
:1057200038FE6421B0FBF1F000EBC00101EB00108A
:10573000A7EB8000322101EBC0006421B0FBF1F047
:1057400000F0F8000AEB400A02206168A0FB01515A
:105750000B461920A9FB00712A463846FAF719FEB4
:10576000074602206168A0FB01510B461920A9FBE6
:1057700000B12A465846FAF70CFE6421B0FBF1F05E
:1057800000EBC00101EB0010A7EB8000322101EB20
:10579000C0006421B0FBF1F000F007005044216824
:1057A00088604FE16EE0FFE7FEF7E8FA81460220ED
:1057B0006168A0FB01510B461920A9FB00712A4624
:1057C0003846FAF7E6FD6421B0FBF1F04FEA001A23
:1057D00002206168A0FB01510B461920A9FB007152
:1057E0002A463846FAF7D5FD074602206168A0FB35
:1057F00001510B461920A9FB00B12A465846FAF779
:10580000C8FD6421B0FBF1F000EBC00101EB00101A
:10581000A7EB8000322101EBC0006421B0FBF1F066
:1058200000F0F8000AEB400A02206168A0FB015179
:105830000B461920A9FB00712A463846FAF7A9FD44
:10584000074602206168A0FB015003461920A9FB0E
:1058500000B12A465846FAF79CFD6421B0FBF1F0EE
:1058600000EBC00101EB0010A7EB8000322101EB3F
:10587000C0006421B0FBF1F000F007005044216843
:105880008860DFE070492068884203D06F49206853
:1058900088426BD1FEF782FA814604206168A0FB42
:1058A00001510B461920A9FB00712A463846FAF728
:1058B00070FD824604206168A0FB01510B4619204F
:1058C000A9FB00712A463846FAF763FD6421B0FB54
:1058D000F1F000EBC00101EB0010AAEB80003221D7
:1058E00001EB00106421B0FBF1F000F0F00A04209D
:1058F0006168A0FB015003461920A9FB00712A46EC
:105900003846FAF746FD6421B0FBF1F00AEB001AC5
:1059100004206168A0FB01510B461920A9FB00710E
:105920002A463846FAF735FD074604206168A0FB91
:10593000015003461920A9FB00B12A465846FAF740
:1059400028FD6421B0FBF1F000EBC00101EB001079
:10595000A7EB8000322101EB00106421B0FBF1F0D5
:1059600000F00F005044216888606BE0FEF706FAF3
:10597000814604206168A0FB015003461920A9FB61
:1059800000712A463846FAF704FD82460420616811
:10599000A0FB015003461920A9FB00712A46384696
:1059A000FAF7F7FC6421B0FBF1F000EBC00101EB6A
:1059B0000010AAEB8000322101EB00106421B0FB43
:1059C000F1F000F0F00A04206168A0FB01500346EA
:1059D0001920A9FB00712A463846FAF7DAFC64213F
:1059E000B0FBF1F00AEB001A04206168A0FB017023
:1059F00003461920A9FB005001463A462846FAF70B
:105A0000C8FC074604206168A0FB0150034619202A
:105A1000A9FB00B12A465846FAF7BBFC6421B0FB4B
:105A2000F1F000EBC00101EB0010A7EB8000322188
:105A300001EB00106421B0FBF1F000F00F005044C6
:105A400021688860BDE8F88F001001400014014013
:105A50002DE9F04104460D46D4F8C472D4F8BC02D6
:105A600010B90320BDE8F081D4F8BC6205EB8501D4
:105A700004F1140000EB8100406808B305EB8501D8
:105A800004F1140000EB8100C5EBC502416807F189
:105A90003C0000EB82008068B1FBF0F200FB1210CA
:105AA00070B9002105EB850204F1140000EB8200BF
:105AB000416000231A462946204600F008FF0BE00B
:105AC0000020C6F81402D6F80802D4F8C0122A46FC
:105AD0000B6906F5047198470020C3E770B50446CA
