:020000040800F2
:100000009830002051030008C55D000891030008E6
:10001000C15D0008D91F0008C5910008000000005C
:10002000000000000000000000000000396000082F
:10003000C721000800000000376000084D6000087C
:100040006B0300086B0300086B0300086B030008D8
:100050006B0300086B0300086B0300086B030008C8
:100060006B0300086B0300086B030008C92000083D
:100070006B0300086B0300086B0300086B030008A8
:100080006B0300086B0300086B0300086B03000898
:10009000DD1F00086B0300086B0300086B030008FA
:1000A0006B0300086B0300086B0300086B03000878
:1000B0006B0300086B0300086B0300086B03000868
:1000C0006B0300086B0300086B0300086B03000858
:1000D0006B0300086B0300086B0300086B03000848
:1000E0006B0300086B0300086B0300086B03000838
:1000F00035610008256100086B030008D92000085D
:100100006B0300086B0300086B0300086B03000817
:100110006B030008916400086B0300086B03000880
:100120006B0300086B0300086B0300086B030008F7
:100130006B03000800000000000000006B030008D3
:10014000ED1F00086B0300086B030008C95D000881
:100150006B0300086B0300086B0300086B030008C7
:100160006B0300086B0300086B0300086B030008B7
:100170006B0300086B0300086B030008000000001D
:10018000000000006B0300080000000000000000F9
:100190006B03000800000000000000006B03000873
:1001A0000000000000000000000000006B030008D9
:1001B0006B0300086B0300086B0300086B03000867
:1001C0006B03000800F002F800F0B2F80AA090E813
:1001D000000C82448344AAF10107DA4501D100F002
:1001E000A7F8AFF2090EBAE80F0013F0010F18BF1D
:1001F000FB1A43F001031847F4B1000014B20000E9
:100200000A444FF0000C10F8013B13F0070408BF3C
:1002100010F8014B1D1108BF10F8015B641E05D0DA
:1002200010F8016B641E01F8016BF9D113F0080F8F
:100230001EBF10F8014BAD1C0C1B09D16D1E58BF21
:1002400001F801CBFAD505E014F8016B01F8016B58
:100250006D1EF9D59142D6D37047000000230024CB
:1002600000250026103A28BF78C1FBD8520728BFC6
:1002700030C148BF0B6070476E2900F009857029B6
:1002800000F0598266290AF0EC8265290AF0E982B9
:1002900067290AF0E68261290AF0E58203681B0AF1
:1002A00028BF41F08001692900F08C81642900F0A9
:1002B0008981752900F086816F2900F0B885782939
:1002C00000F02582E92900F0B981E42900F0B68127
:1002D000F52900F0B381EF2900F0B585F82900F089
:1002E00024820368DB0928BF41F08001632900F004
:1002F0001285732900F01785E32901F04781F3295E
:1003000001F04C81002070471FB50AF0A5FA01F0FA
:1003100097F90400002000210AF088FA401C606070
:10032000002000210AF06CFAE0601FBD10B510BD7E
:1003300001F058F91146FFF7E7FF0AF071F901F0F3
:1003400035FA03B4FFF7F2FF03BC08F078FF0000B2
:100350000948804709480047FEE7FEE7FEE7FEE759
:10036000FEE7FEE7FEE7FEE7FEE7FEE70448054995
:10037000054A064B7047000009610008C5010008E6
:1003800098240020983000209828002098280020E9
:100390007046694609F01EF8FFF7FEFF704753EA02
:1003A000020C00F069802DE9F04B4FF00006002BA5
:1003B0001FBFB3FA83F503FA05F424FA05F65E408D
:1003C00012BF1643B2FA82F502FA05F4C5F1200510
:1003D0001EBF22FA05FC44EA0C04203556EA044C00
:1003E0004FEA144418BF641C4FF000084FF0000996
:1003F000904271EB030C39D3002919BFB1FA81F790
:1004000001FA07F6B0FA80F700FA07F6C7F12007FD
:100410001EBF20FA07FC46EA0C062037B6FBF4FCA8
:10042000A7EB0507103F07F01F0BCBF120060CFAD6
:100430000BFB2CFA06F644BFB3460026202FA4BFC0
:100440005E464FF0000B5BEA060C08BF4FF0010B55
:1004500019EB0B09ABFB027C48EB0608C01B06FB43
:1004600002CC0BFB03CC71EB0C01C1E70B4602463F
:1004700041464846BDE8F08B13B54FF000004FF001
:100480000001AFF30080BDE81C4070477CB51D46FD
:1004900016460C00009001D02044401E074B7B44C0
:1004A0002A4669460190304600F00BFC05461CB117
:1004B0000020694600F018FC28467CBD5108000069
:1004C0000FB41CB5084B06AA7B44694600900598FA
:1004D00000F0F7FB04460020694600F005FC2046CA
:1004E0001CBC5DF814FB00001D0800000FB47CB5B7
:1004F0000C0009AA009001D02044401E084B7B4408
:1005000069460190089800F0DCFB05461CB100200C
:10051000694600F0E9FB28467CBC5DF814FB00004E
:10052000F107000070B5044685690068C10601D571
:10053000302600E02026C00707D070BDD4E9012195
:1005400030469047206A401C20626D1EF6D570BD73
:1005500070B5044685690078C00707D170BDD4E93D
:10056000012120209047206A401C20626D1EF6D594
:1005700070BD70B50C460546012A05D02878800666
:1005800000D5EA69002302E0012305E05B1C9342E9
:1005900002D2E05C0028F9D1A869E618C01AA86167
:1005A000286A184428622846FFF7BCFF04E0D5E912
:1005B000012114F8010B9047B442F8D32846FFF705
:1005C000C7FF70BD2DE9F04106460024106875296B
:1005D000314616A510D000F0F0FA002802DA4042A9
:1005E00013A507E031688A0701D512A502E0490783
:1005F00004D511A5012401E000F0E8FA00210A2247
:1006000006F1240709E0B0FBF2FCB0FBF2F302FBB9
:100610001C00303078541846491C0028F3D123467A
:100620002A463046BDE8F04100F0D9BA000000008B
:100630002D0000002B000000200000002DE9F041FB
:100640008046D21D22F007020025D2E90002F529DA
:1006500015A614D0011E72F1000106DA0023D0EBBA
:10066000030063EB020211A608E0D8F800108B0724
:1006700001D50FA602E0490701D50EA601251146B6
:10068000002408F1240704E000F052FA30323A5511
:10069000641C50EA0102F7D12B46324621464046FF
:1006A000BDE8F04100F09BBA000000002D00000002
:1006B0002B00000020000000F0B40D460188090561
:1006C00002D5214C7C4402E01F4C7C440E340021B6
:1006D00000F1240608E002F00F071209E75D42EA84
:1006E00003721B097754491C52EA0307F3D10278BD
:1006F0000023120704D5702D06D009B1022311344E
:100700002246F0BC00F06BBA01231034F8E770B554
:1007100004460D462146106800F058FA0246294664
:100720002046BDE870400023C6E7D21D22F0070333
:10073000D3E90023C0E70368126843F02003036095
:100740000823C3610023B7E791A300002DE9F05F00
:10075000894604464FF0000ADFF874B1FB44C0F844
:1007600020A02046E1688847002874D0252806D0BC
:10077000D4E901219047206A401C2062F1E700265D
:100780005F462046E16888472028054607DB312D73
:1007900005D2781910F8200C08B10643F1E7B0072C
:1007A00001D526F00406C4F81CA00027C4F818A040
:1007B0002A2D09D0284608F03BFD38B304EB870802
:1007C000303DC8F8185019E059F8041B204604EBD6
:1007D00087029161E1688847012F054618D1E069D9
:1007E000002820DA26F020061DE0D8F8180000EBDB
:1007F000800005EB40003038C8F818002046E1685A
:100800008847054608F014FD0028EED1012F0AD0D4
:100810002E2D08D12046E16888477F1C0546022F0F
:1008200046F02006C4DBA069002803DA404246F007
:100830000106A061F00701D026F010066C2D0BD048
:10084000682D09D04C2D39D06A2D35D0742D35D076
:100850007A2D33D016E038E0E1682F4620468847ED
:10086000B842054609D16C2F26D04FF48060E1686C
:10087000064320468847054604E06C2F1AD04FF403
:10088000807006430DB3A5F14100192802D8203528
:1008900046F400664A462946204626604E46FFF743
:1008A000EBFC80B101280BD0F61D26F0070000F10B
:1008B000080956E74020E4E78020D8E70020D6E783
:1008C00006F104094DE7284652E7206ABDE8F09F8B
:1008D00021A3000030B505460B462A4613F8014B0C
:1008E00012F8010B08B1A042F8D01CB1002802D0C8
:1008F0006D1CF1E7284630BD10B5431C02E010F82E
:10090000011B71B18107FAD14FF0013202C88C1A74
:100910008C4314EAC211F9D0C01A0A0603D0C01ED3
:1009200010BDC01A10BD0A0401D0801E10BD0902FE
:10093000FCD0401E10BD40EA010370B59B072ED1CC
:100940004FF00136042A2AD308C810C99D1B9D43C5
:10095000121F15EAC61517D0D8B2E1B2401A50EAF4
:10096000056110D198B2A1B2401A50EA05410AD1EE
:1009700023F07F4024F07F41401A50EA052102D144
:10098000180EA0EB146070BDA342DBD018BA21BAD8
:10099000884201D9012070BD4FF0FF3070BD0AB907
:1009A000002070BD10F8013B11F8014B63B1A34268
:1009B0000AD1521E08D010F8013B11F8014B1BB1AF
:1009C000A34201D1521EEDD1181B70BD10B5203AC3
:1009D000C0F00B80B1E81850203AA0E81850B1E8F8
:1009E0001850A0E81850BFF4F5AF5FEA027C24BFAE
:1009F000B1E81850A0E8185044BF18C918C0BDE8A5
:100A000010405FEA827C24BF51F8043B40F8043B6D
:100A100008BF7047D20728BF31F8023B48BF11F822
:100A2000012B28BF20F8023B48BF00F8012B70477C
:100A300002F0FF0343EA032242EA024200F002B856
:100A40004FF000020429C0F0128010F0030C00F0F7
:100A50001B80CCF1040CBCF1020F18BF00F8012B75
:100A6000A8BF20F8022BA1EB0C0100F00DB85FEA43
:100A7000C17C24BF00F8012B00F8012B48BF00F80F
:100A8000012B70474FF0000200B51346944696467E
:100A9000203922BFA0E80C50A0E80C50B1F1200191
:100AA000BFF4F7AF090728BFA0E80C5048BF0CC03F
:100AB0005DF804EB890028BF40F8042B08BF70479D
:100AC00048BF20F8022B11F0804F18BF00F8012B0F
:100AD000704710B5044610F0030F08BF11F0030F64
:100AE00040F015804FF0013E121FC0F20E8051F809
:100AF000043BA3EB0E0C2CEA030C1CEACE1C08BF33
:100B000040F8043BF0D0A1F1040102F10402521EAE
:100B100008DB11F8013B002B00F8013BF7D111462F
:100B2000FFF78EFF204610BD704770477047704733
:100B300030B5B0F10A024FEA900E71F100034EEAAF
:100B4000817EB0EB0E0061EB91014FEA101E4EEA80
:100B5000017E10EB0E0041EB11114FEA102E4EEA10
:100B6000016E10EB0E0041EB11214FEA104E4EEAE0
:100B7000014E10EB0E0041EB1141401841F1000114
:100B80004FEAD00040EA41704FEAD10110EB8005F6
:100B90004FEA810444EA907444EB01046D1944EB7C
:100BA0000404521BA3414FF0000348BF0A3200D592
:100BB00030BD401C41F1000130BD09684A0501D536
:100BC00040B27047C905FCD500B2704709684A05B4
:100BD00001D5C0B27047C905FCD580B270472DE978
:100BE000F0470D4699469246044600F124080168F4
:100BF000880604D5E06921F01001216000E00120A1
:100C0000A84201DD471B00E00027A1697A1902EB29
:100C10000900081AA0612078C00602D42046FFF718
:100C200081FC002608E0D4E901211AF8060090476B
:100C3000206A401C761C20624E45F4DB2078C006FA
:100C40000AD52046FFF76EFC06E0D4E901213020EA
:100C50009047206A401C2062381EA7F10107F4DC8F
:100C600007E0D4E9012118F805009047206A401CEC
:100C70002062281EA5F10105F3DC2046FFF768FC81
:100C80002078000602D50220BDE8F0870120FBE7AE
:100C900011680268006A530501D508700AE0D3059F
:100CA00001D5088006E0130603D5C217C1E900028A
:100CB00000E008600120704701694A1C0261087861
:100CC000704700B58FB0CDE901310021059105498C
:100CD0007944CDE9031011466846FFF737FD0FB0A0
:100CE00000BD0000E5FFFFFF0A6802F8010B0A6083
:100CF0007047D1E900239A4202D2531C0B60107056
:100D0000704710B5436913B1AFF3008001E0FFF7FE
:100D100030FC012010BD127800F124010A7000227D
:100D20004A700122EDE711684FF0FF32E9E7000059
:100D30002DE9FF5F15468A460446DFF8AC80F8448B
:100D40000027D8E900103E46CDE9001010E03AF83F
:100D500016106A4602A800F025FC411C07D0217835
:100D6000890603D5E269391891420DD80744761CEB
:100D70002078800602D5E069B84205DDAE42E6DBA8
:100D80003AF816000028E2D1A069C01BA0612046F5
:100D9000FFF7C8FBD8E90010CDE90010002017E0EC
:100DA0003AF818106A4602A800F0FCFBB0F1FF3FC9
:100DB00081460BD000250DF1080B05E0D4E9012197
:100DC0001BF8050090476D1C4D45F7D308F1010055
:100DD000B0428046E4DB206A384420622046FFF7B8
:100DE000B7FBBDE8FF9F0000529D000030B400211A
:100DF00000F1240408E002F00705D208303542EA89
:100E00004372DB086554491C52EA0305F3D10468B8
:100E1000002310A2250707D5A40600D421B1C46978
:100E200001230DA2641EC46130BCFFF7D8BE10B50B
:100E3000044621461068FFF7C9FE02462046BDE879
:100E400010400023D2E7D21D22F00701D1E9002390
:100E5000CCE70000000000003000000070472DE9E2
:100E6000FF4F0C461E464FF0FF378BB0D2E9000112
:100E7000DDF860800A908A46C1F30A5505B93D46FF
:100E8000002108464FF00000BAF1000F00F44000C6
:100E900005DA00EB80004FF4400101EA50004FEA10
:100EA0009059B9F1010F00DDB9460A9850EA4A009D
:100EB0000ED044F61050A5F2FF3545432F14B8F17B
:100EC000000F1ED07542291E1EDDC9F100021CE074
:100ED000B8F1010F4FF0000001D0302103E0F243E0
:100EE00005E02154401CB042FBDB304600220021CB
:100EF00021540B99C1F80880C1E900200FB0BDE86A
:100F0000F08FBD1B6D1CDEE74A4600DA694206A879
:100F100000F0DAFB06AB93E8070003AB83E80700B9
:100F200050460A9900F090FC8DE80700A0F50050AB
:100F30001F3800900398002D0ADD42F21F014A4637
:100F40000844002303A90390684600F0F9FE09E075
:100F5000A0F500504A461F38002303A903906846B5
:100F600000F003FF8DE807000004000C03D04FF0F1
:100F7000FF30410800E01046B8F1000F03D0002216
:100F8000009215461EE0751E05D4FFF7D1FD3032E4
:100F900062556D1EF9D5B3460122084302D00022E6
:100FA0007F1C04E02078302801D100227F1E002A17
:100FB000099784D01DE0112D07DAFFF7B9FD303213
:100FC00062556D1C50EA0102F5D1084302D0009829
:100FD000C8B10EE00021681E05E0235C625C63542A
:100FE0002254401E491C8142F7DBAB46A81B401E21
:100FF0000990002004F80B000B98099AC0F80880AB
:10100000C0E9002B7AE711264FF0000857E72DE9D9
:10101000F04F88460446D21D22F0070191B0D1E975
:101020000001CDE90A0108F0CFF802460B98C00F85
:1010300001D02D2007E02068810701D52B2002E098
:10104000202101EAC000032A099001D0072A05DB0C
:1010500003464146204600F0F7FA0BE1207880066F
:1010600001D5E06900E00620B8F1650F814606D0A1
:10107000B8F1660F18D0B8F1670F70D131E00020D9
:10108000B9F1110F009001DB112301E009F1010317
:101090000AAA01A90CA8FFF7E2FEDDE90C70002600
:1010A00009F10105834647E001204B4600904FF0CF
:1010B00000470AAA01A90CA8FFF7D1FEDDE90DB08F
:1010C0000C995D46002610B909F101000D18B9EB25
:1010D000050003D4C0F1FF3609F10105A5EB0900B5
:1010E0002BE0B9F1010F01DA4FF001090020B9F14D
:1010F000110F0090484601DD112300E003460AAAC3
:1011000001A90CA8FFF7ABFEDDE90C704D460026E7
:101110008346207800070AD4AB4500DA5D4601A873
:10112000012D04DD411911F8011C302907D04F456C
:1011300002DA17F1040F04DA012082460FE06D1E77
:10114000EEE7002F02DCED1B3E4403E0781CA842D2
:1011500000DD7D1CB81B00F1010A4FF0004720782C
:10116000000703D4AA4501DB4FF0FF3A0021B7F195
:10117000004F0DF143088DF8431024D002202B239B
:10118000002F01DA7F422D230A21021EA0F1010067
:1011900000DC5FB197FBF1FC97FBF1F201FB1C7CDB
:1011A00017460CF1300C08F801CDEEE7A8F101006C
:1011B00003702188090501D5452100E06521A0F1D2
:1011C000010800F8011C09980FA9A1EB0807FF1DF1
:1011D00000B10120411901EBEA70A1693844081AF5
:1011E000401EA0612078C00602D42046FFF79AF97D
:1011F000099828B1D4E901219047206A401C206257
:101200002078C00622D52046FFF78CF91EE0002E7C
:1012100004DBB34502DD01A8805D00E03020D4E9A5
:1012200001219047206A401C2062761CAAF101002F
:101230005FEA000A0AD100F003FAC0680168405C66
:10124000D4E901219047206A401C2062281EA5F1A4
:101250000105DCDC07E0D4E9012118F8010B904717
:10126000206A401C2062381EA7F10107F3DC2046EB
:10127000FFF76EF9032011B041E600002DE9F04FB1
:1012800004460D46D21D22F0070089B0D0E9009730
:101290004846394607F098FF0246F80F01D02D2343
:1012A00007E02068810701D52B2302E0202101EA15
:1012B000C0038DF820300BB1012000E00020032A8C
:1012C000824601D0072A04DB2946204600F0BCF9FB
:1012D0003FE12078800601D40D2500E0E569C7F3E1
:1012E0000A560D2D49DA00214FEA175B08464FF0E8
:1012F0000000002F00F4400007DA00EB80004FF4FC
:10130000400100EBD07001EA60008115012901DD88
:101310004FF0FF3100224FEA850CBCF1180F06D3C5
:101320001346ACF118004FF08052C24003E04FF476
:10133000801323FA0CF30CF10C0CBCF1200F04D336
:10134000ACF1200C09FA0CF001E007FA0CF00029CE
:101350004FF0004801DD18B90FE00ED140450CD325
:1013600019EB02095F4121B9404502D19F4329EAA7
:101370000209BBEB175F00D0761C2088000502D560
:101380007B48784402E07A487844193808AA302328
:1013900002F80A30037C0AF10101002E0AF1020A68
:1013A00053546A4602DC4FF0300101E04FF0310146
:1013B0004FF001088DF8001002D0A6F2FF3603E0CE
:1013C00059EA470100D06B4E002D02DC2178090755
:1013D00004D54FF002082E218DF80110C4460021DB
:1013E0000BE0C7F303433F01C35C491C6D1E02F8C9
:1013F0000830052908F1010801DA002DF1DC00218F
:101400000CE000EB1973491C1B786D1E082902F8CB
:1014100008304FEA091908F1010801DA002DF0DC63
:1014200021688B0602D516E0A8F10108E04505DD2C
:1014300002EB080313F8013C302BF5D0B8F1000F94
:1014400009DD02EB080313F8013C2E2B03D1090739
:1014500001D4A8F10108002D05DD3E2102F8081095
:101460006D1E08F10108407C002E02F8080008F10A
:10147000010804DA2D20764202F8080002E02B2051
:1014800002F808000A214FF47A70864208F1010838
:101490000BDB96FBF0F3303302F8083096FBF0F3E9
:1014A00008F1010800FB136601E0642E0CDB6420E8
:1014B00096FBF0F3303302F8083096FBF0F308F1B6
:1014C000010800FB136601E00A2E06DB96FBF1F033
:1014D000303002F8080008F1010896FBF1F001FB3A
:1014E0001060303002F80800A16908F1010808EB2B
:1014F000050202EB0A00081AA0612078C00602D497
:101500002046FFF70FF8216A08AE01EB0A002062BF
:1015100004E0D4E9012116F8010B9047BAF1010A61
:10152000F7D22078C00602D52046FEF7FBFF6E46B4
:1015300009E016F8010B3E280FD0D4E901219047AD
:10154000206A401C2062B8F10108F2D22046FEF762
:10155000FFFF09B00320BDE8F08F206A2844206215
:1015600003E0D4E90121302090476D1EEBD3F8E76A
:101570002997000002FCFFFF10B5436913B1AFF3D8
:10158000008001E0FFF7D4FB012010BD128800F1BC
:10159000240182840022C2840122EDE711684FF009
:1015A000FF32E9E770B516460C46054600F040F8F4
:1015B000036893F80101012806D0FF2C0FD8185DAD
:1015C00068B101202C7070BDD3F807013246214666
:1015D00003F2071303442846BDE8704018474FF054
:1015E000FF3070BD754600F0EBF8AE460500694669
:1015F000534620F00700854618B020B5FEF7B6FE2A
:10160000BDE820404FF000064FF000074FF0000803
:101610004FF0000B21F00701AC46ACE8C009ACE884
:10162000C009ACE8C009ACE8C0098D4670470000AD
:1016300010B500F005F8001D10BD00BFF1910000CD
:1016400000487047582400202DE9F0411F46044609
:1016500003260168072A01F4006004DB08B116A51F
:1016600005E016A503E008B115A500E015A521F0D9
:1016700010002060A069C01EA0610FB1401EA061D3
:101680002046FEF74FFF4FB1D4E90121384690477D
:10169000206A401C2062C01C206206E0206AFAE733
:1016A000D4E9012115F8010B9047761EF8D22046A7
:1016B000FEF74EFFBDE8F0814E414E006E616E00B8
:1016C000494E4600696E66002DE9F0478146164690
:1016D0008AB0354878440DC88DE80D00324878440A
:1016E000801C03AC0DC884E80D0041F69B30084413
:1016F000372190FBF1F290FBF1F5A5F1800501FB9C
:1017000012041B3C02D56442012000E00020DFF8F7
:1017100098A080460027FA44AAF1BE0A0EE0E0072E
:101720000AD03246684607EB470101230AEB8101E4
:1017300000F01BFB8DE8070064107F1C002CEED12D
:10174000194F7F44AE3F19E0E80715D007EB0410AE
:101750000DF1180A90E80E008AE80E00C068F04209
:1017600001D1981908903246012306A903A800F078
:10177000FCFA03AB83E807006D10641C002DE3D175
:101780004FF0010332466946B8F1000F03A802D0BA
:1017900000F0D6FA01E000F0E8FAC9E90001C9F862
:1017A00008200AB0BDE8F0876894000010B5044630
:1017B000AFF300802046BDE81040FEF7C2BD000038
:1017C00000487047382400204FF0013C50F8042BAB
:1017D00051F8043B9A4221D1A2EB0C03934313EA44
:1017E000CC1317D150F8042B51F8043B9A4215D171
:1017F000A2EB0C03934313EACC130BD150F8042B48
:1018000051F8043B9A4209D1A2EB0C03934313EA2B
:10181000CC13DBD04FF00000704700BFD01A01BAE4
:10182000B1FA81F101F0180122FA01F0CB40C1F1C7
:101830002001DBB2C0B2C01A2CFA01F3D11A9143D5
:1018400011EAC311E6D170475FEA400C08BF91F07E
:10185000000F4FEA8C234FEAC12243EA51514FEA6D
:101860001C5018BF00F5F0404FEA300018BF41F09F
:1018700000415FEA6C5C00F02980BCF1FF3F08BFCB
:1018800040F080407047130C06BF12044FF0100C5C
:101890004FF0000C130E04BF12020CF1080C130FD2
:1018A00004BF12010CF1040C930F04BF92000CF161
:1018B000020CD30F04BF52000CF1010C11464FF083
:1018C0000002A0F11F00A0EB0C00704711F0004FC8
:1018D00008BF704731F000413FF4D5AF0B0C06BF95
:1018E00009044FF0100C4FF0000C0B0E04BF09025E
:1018F0000CF1080C0B0F04BF09010CF1040C8B0F49
:1019000004BF89000CF1020CCB0F04BF49000CF19D
:10191000010CCCF12003A0EB0C0022FA03F302FA35
:101920000CF241EA030100F10100704720F07F4C06
:1019300080EA030023F07F47ACEB070303F57C53F9
:1019400000F0004003F1FF032DE980494FEA154BF9
:1019500009B44FEA144325EA0B4E24EA03480FF278
:10196000042606EB132749083E785FEA320203FBA0
:101970000667C7F5000707FB06F64FEA54374FEA3C
:10198000D64606F1020607FB066CCCF1005C4FEA76
:101990001C472CEA074C07FB06F40CFB06F504EB8E
:1019A00015464FEA961634BF00204FF000404FEA2C
:1019B000D13706FB07FC4FEA1C4C0CFB0BF7D21B84
:1019C00003FB0CF761EB07010CFB0EF7B0EB0740D4
:1019D00072EB17420CFB08F734BFA2EB0742B2EBE5
:1019E000074261EB17414FEA0C444FEA910706FBAF
:1019F00007FC4FEA1C4C0CFB0BF7B0EBC74072EB3B
:101A0000573203FB0CF734BFA2EBC742B2EBC7421D
:101A100061EB57310CFB0EF7B0EBC70072EB57725E
:101A20000CFB08F734BFA2EBC702B2EBC70261EBB5
:101A30005771039F4FEA816141EA921104EBCC0494
:101A40004FEAD1374FEA826206FB07FC42EA901266
:101A50004FEA80604FEA1C4C0CFB0BF7D21B03FBD8
:101A60000CF761EB07010CFB0EF7B0EB074072EBD4
:101A700017420CFB08F734BFA2EB0742B2EB074258
:101A800061EB17414FEA8C554FEA910704EB9C2418
:101A900006FB07FC4FEA1C4C0CFB0BF7B0EBC740F6
:101AA00072EB573203FB0CF734BFA2EBC742B2EB29
:101AB000C74261EB57310CFB0EF7B0EBC70072EB7E
:101AC00057720CFB08F734BFA2EBC702B2EBC70298
:101AD00061EB577115EB4C254FEA816141EA921198
:101AE0004FEA82624FEAD13742EA901206FB07FCC6
:101AF00044F100044FEA80604FEA1C4C0CFB0BF7EA
:101B0000D21B03FB0CF761EB07010CFB0EF7B0EBEC
:101B1000074072EB17420CFB08F734BFA2EB0742F9
:101B2000B2EB074261EB174115EB1C154FEA81310F
:101B300041EA92414FEA823242EA90424FEA8030D3
:101B40004FEA0C7644F1000448EA03434EEA0B489E
:101B50004FF0000EB2EB080C71EB030724BF624696
:101B600039464EEB0E0E4FF0000B00185241494122
:101B70004BEB0B0BB2EB080C71EB03077BF1000B8B
:101B800024BF624639464EEB0E0E4FF0000B001894
:101B9000524149414BEB0B0BB2EB080C71EB0307C5
:101BA0007BF1000B24BF624639464EEB0E0E51EA24
:101BB000020718BF46F0010616EB0E7655F100023B
:101BC00054F1000103D5BDE88901BDE80088BDE8F6
:101BD0008901BDE80048B619524141EB0101A3F16A
:101BE0000103704780807F7E7D7C7B7A7978777671
:101BF00076757473727171706F6E6E6D6C6C6B6AEA
:101C00006A69686867666665646463636261616087
:101C1000605F5F5E5E5D5D5C5C5B5B5A5A59595804
:101C2000585757565655555554545353525252516E
:101C3000515050504F4F4F4E4E4D4D4D4C4C4C4BC4
:101C40004B4B4A4A4A49494948484847474747460B
:101C50004646454545444444444343434342424247
:101C600042414141002B9C4630D477002BD01CB51B
:101C70004FEA370703B44FF010004FF01001BAF1EC
:101C8000000F06D0BCF1000FDCBF40F0080040F0B0
:101C900008014FF000000FBCBDE810400BF1010B34
:101CA000BBF1010F08BF5FEA170722BF12F1010263
:101CB00011F101014FF0004143F1000300F0004039
:101CC00043EA00007047F9D35708D0E746EA0646D2
:101CD00013F1400F4FEA16461FDD13F1200FDFBF4F
:101CE00016430A46002120335B42BED0C3F12007D1
:101CF00046EA064602FA07F74FEA164646EA07069C
:101D0000C3F1200722FA03F201FA07F721FA03F1DF
:101D10004FF0000342EA0702A7E746EA020646EA56
:101D200006464FEA164646EA0106BCBF46EA0646A4
:101D3000360C4FF000034FF000024FF0000194E723
:101D40002DE9804C9A46934670B491E8380007C854
:101D500031EA400C48BF34EA430C03D5FFF7E6FDF7
:101D6000FFF780FFF0BCBDE8008C2DE9804C9A465F
:101D7000934670B491E8380007C810F0804F08BF50
:101D800013F0804F03D100F005F8FFF76BFFF0BCB4
:101D9000BDE8008C20F07F4780EA030023F07F4CF1
:101DA00007EB0C03A3F57C5300F00040A3F1FE0306
:101DB00092F0000F00F0B38095F0000F00F07780F4
:101DC0002DE901494FEA11404FEA144621EA004843
:101DD00000FB06FC24EA064708FB06F607FB08F8AA
:101DE00000FB07F718EB06484CEB164C4FEA124B7A
:101DF00018EB07484FEA15464CEB174022EA0B4E0A
:101E00000BFB06FC25EA06470EFB06F607FB0EFE5B
:101E10000BFB07F71EEB064E4CEB164C4FF0000683
:101E20001EEB074E4CEB174B18EB0B0840F1000074
:101E300018EB0E0B58EB000840F100008F1A4FF022
:101E400000013CBFC943661B14BFB5EB040C002165
:101E50003CBFC943F61B4FEA17444EEA8E0E27EAF1
:101E600004454FEA1C4704FB07622CEA074C05FBBC
:101E700007F70CFB05F604FB0CFC16EB074642EBE0
:101E8000174216EB0C4642EB1C421BEB060658EBC6
:101E90000202414146EA9E0601D5BDE80189B61914
:101EA000524141EB0101A3F10103BDE801894FEA71
:101EB00014454FEA114724EA054621EA074C05FB81
:101EC00007F406FB07F70CFB06F105FB0CFC11EB16
:101ED000074144EB17444FEA124711EB0C4144EB26
:101EE0001C4422EA074C05FB07F206FB07F70CFB34
:101EF00006F605FB0CFC16EB074642EB174216EB09
:101F00000C4642EB1C456A1854F1000148BF70476B
:101F1000B619524141EB0101A3F10103704795F05D
:101F2000000F37D04FEA11424FEA144721EA024628
:101F300024EA074C02FB07F106FB07F70CFB06F44B
:101F400002FB0CFC14EB074441EB17414FEA154729
:101F500014EB0C4441EB1C4125EA074C02FB07F54E
:101F600006FB07F70CFB06F602FB0CFC16EB07461C
:101F700045EB174516EB0C4645EB1C42121951F187
:101F8000000148BF7047B619524141EB0101A3F16E
:101F9000010370474FEA14454FEA114724EA05460A
:101FA00021EA074C05FB07F106FB07F70CFB06F2DD
:101FB0004FF0000605FB0CFC12EB074241EB17410A
:101FC00012EB0C4251EB1C4148BF7047921841EB99
:101FD0000101A3F10103704700BFFEE710B50248FD
:101FE00000F011F910BD00005801002010B50248A2
:101FF00000F009F910BD0000800100200346042B09
:1020000015D007DC7BB1012B0ED0022B0DD0032B9A
:1020100012D10BE0202B0BD0212B0AD0222B09D080
:10202000232B09D107E008E007E006E005E004E023
:1020300003E002E001E000E000BF00BF00207047C5
:102040000020704710B500220449054804F0D5FE71
:102050000449034804F0C2FE002010BD8411002092
:10206000A80400208409002070B504460D462146CE
:10207000034804F0B3FE024804F07CFE002070BD6B
:10208000A804002010B503460C460021084610BDE8
:102090002DE9F04104460D4600260A48D0F8BC72EE
:1020A000D7F8140210B10120BDE8F0812A4621467C
:1020B000044804F0A2FE034804F052FF06463046EE
:1020C000F2E70000A804002010B5024800F0A2FBCF
:1020D00010BD0000A003002010B5024800F09AFBDC
:1020E00010BD0000000400200146087810381823B5
:1020F000B0FBF3F20848805CC865032A05D908687C
:102100006FF30900001D886503E008686FF309009C
:102110008865886D704700006FA8000801460020A0
:102120008A6A8B69CBB932B1012A0DD0022A03D059
:10213000032A10D10EE000BFCB6A03F08073B3F125
:10214000807F00D1012007E0CB6AB3F1C07F00D1CE
:10215000012001E000E000BF34E08B69B3F5005FCF
:102160001AD132B1012A07D0022A03D0032A11D191
:102170000AE000BF01200EE0CB6A03F08073B3F1E8
:10218000807F00D1012006E0CB6AB3F1C07F00D18F
:10219000012000E000BF15E032B1012A05D0022A7B
:1021A00004D0032A0CD103E000BF00BF012008E0E7
:1021B000CB6A03F08073B3F1807F00D1012000E08F
:1021C00000BF00BF7047704772B600BFFEE7000057
:1021D00070B50A480468001D0568001D066834448F
:1021E00054B108220649204603F084FB0422044926
:1021F0001031284603F07EFB70BD0000107AFF1FEF
:102200004A00002070472DE9F05F04460025206851
:1022100046692068D0F80490206887682068D0F864
:102220000CA02068D0F810B02068D0F8188006F014
:102230000100002855D007F00100C0B1012021683D
:10224000886007F0020018B1204600F073FA0EE033
:1022500007F0040010B145F4006508E007F008003D
:1022600010B145F4805502E0204600F062FA07F410
:102270008070C8B14FF480702168886007F40070E6
:1022800018B1204600F058FA0EE007F4806010B153
:1022900045F4005508E007F4006010B145F48045AE
:1022A00002E0204600F047FA07F48030C8B14FF44E
:1022B00080302168886007F4003018B1204600F0B3
:1022C0003DFA0EE007F4802010B145F4004508E027
:1022D00007F4002010B145F4803502E0204600F0FC
:1022E0002CFA06F0080038B10AF0100020B145F4CD
:1022F000007510202168C86006F0040040B10AF0A3
:10230000080028B108202168C860204600F00CFAB7
:1023100006F0020038B12068C06800F0030010B178
:10232000204600F002FA06F0400038B10BF0100031
:1023300020B145F4806510202168086106F0200076
:1023400040B10BF0080028B1082021680861204640
:1023500000F0ECF906F0100038B12068006900F0D8
:10236000030010B1204600F0E2F906F4003040B15D
:1023700009F0100028B1102021684860204600F0C4
:10238000D7F906F4803040B109F0080028B10820E0
:1023900021684860204600F0D2F906F4004088B376
:1023A00009F0040078B306F4807020B108F0010051
:1023B00008B145F0010506F4007020B108F00200F4
:1023C00008B145F0020506F4806020B108F0040071
:1023D00008B145F0040506F40060A0B108F07000F3
:1023E00088B108F07000402817D006DC10280BD008
:1023F00020280CD0302819D10CE0502810D06028AB
:1024000014D110E01DE019E045F008050FE045F09B
:1024100010050CE045F0200509E045F0400506E018
:1024200045F0800503E045F4807500E000BF00BF83
:102430002068806920F0700021688861042021688C
:1024400048602DB1606A284360622046FFF7DAFEDB
:10245000BDE8F09F70B504460CB9012070BD94F83A
:10246000200010B9204600F0AFF82068006840F066
:1024700001002168086000F06FFC05460DE000F0E7
:102480006BFC401B0A2808D9606A40F40030606287
:10249000052084F820000120E0E72068406800F073
:1024A00001000028EBD02068006820F002002168BD
:1024B000086000F051FC05460DE000F04DFC401BAB
:1024C0000A2808D9606A40F400306062052084F868
:1024D00020000120C2E72068406800F002000028C8
:1024E000EBD1207E012806D12068006840F08000F2
:1024F0002168086005E02068006820F080002168FD
:102500000860607E012806D12068006840F0400025
:102510002168086005E02068006820F0400021681C
:102520000860A07E012806D12068006840F02000E5
:102530002168086005E02068006820F0200021681C
:102540000860E07E012806D12068006820F01000B5
:102550002168086005E02068006840F010002168EC
:102560000860207F012806D12068006840F008003C
:102570002168086005E02068006820F008002168F4
:102580000860607F012806D12068006840F00400E0
:102590002168086005E02068006820F004002168D8
:1025A0000860D4E9020108432169084361690843CE
:1025B0006168491E08432168C861002060620120EB
:1025C00084F82000002049E710B586B004461421A5
:1025D00001A8FEF757FA4F492068884242D14E4879
:1025E0000068401C4C4908600846006801280FD16B
:1025F00000BF002000904948006840F00070474943
:1026000008600846006800F00070009000BF00BF3E
:1026100000BF0020009041481038006840F00200E0
:102620003E49103908600846006800F0020000903A
:1026300000BF00BF4FF440700190022002900020C4
:102640000390032004900920059001A9344800F06C
:102650008BFA00221146142000F040FC142000F0F8
:1026600029FC55E02F492068884251D100BF002045
:1026700000902A48006840F08060284908600846B9
:10268000006800F08060009000BF00BF2248006832
:10269000401C214908600846006801280FD100BF8E
:1026A000002000901D48006840F000701B49086041
:1026B0000846006800F00070009000BF00BF00BF37
:1026C0000020009015481038006840F002001349BF
:1026D000103908600846006800F00200009000BF52
:1026E00000BF4FF440500190022002900020039060
:1026F000032004900920059001A9094800F034FA4C
:1027000000221146402000F0E9FB402000F0D2FBFF
:1027100006B010BD006400400000002040380240B8
:1027200000040240006800407047704770477047DF
:1027300070477047704770477047704770477047E1
:1027400070B50446A56D00F007FB064694F8350009
:10275000022808D08020606500BF002084F8340083
:1027600000BF012070BD2068006820F016002168BD
:1027700008602068406920F0800021684861206C72
:1027800008B9A06C28B12068006820F00800216812
:1027900008602068006820F001002168086010E0EF
:1027A00000F0DAFA801B05280BD920206065032091
:1027B00084F8350000BF002084F8340000BF0320F7
:1027C000D0E72068006800F001000028E8D194F804
:1027D0005C103F208840A860012084F8350000BFCD
:1027E000002084F8340000BF00BFBBE7014691F829
:1027F0003500022803D0802048650120704705205D
:1028000081F835000868006820F001000A6810604F
:102810000020F3E7F8B50446002000908C480068DB
:102820004FF41651B0FBF1F7A56D2E6894F85C10CB
:1028300008208840304098B12068006800F004000B
:1028400070B12068006820F004002168086094F8E6
:102850005C1008208840A860606D40F00100606551
:1028600094F85C1001208840304068B120684069CD
:1028700000F0800040B194F85C1001208840A8600E
:10288000606D40F00200606594F85C1004208840A0
:10289000304068B12068006800F0020040B194F850
:1028A0005C1004208840A860606D40F00400606502
:1028B00094F85C1010208840304078B3206800689D
:1028C00000F0080050B394F85C1010208840A86015
:1028D0002068006800F4802080B12068006800F45F
:1028E000002028B9206CC8B12046216C884715E02B
:1028F000A06C98B12046A16C88470FE02068006862
:1029000000F4807028B92068006820F00800216871
:102910000860206C10B12046216C884794F85C1048
:10292000202088403040002865D02068006800F0F2
:10293000100000285FD094F85C1020208840A86028
:1029400094F83500052828D12068006820F016008A
:10295000216808602068406920F080002168486193
:10296000206C08B9A06C28B12068006820F008002D
:102970002168086094F85C103F208840A86001201E
:1029800084F8350000BF002084F8340000BF206DBB
:1029900010B12046216D8847F8BD2068006800F41A
:1029A000802080B12068006800F4002028B9606CA5
:1029B00010B12046616C88471DE0E06BD8B120461D
:1029C000E16B884717E02068006800F4807068B900
:1029D0002068006820F0100021680860012084F859
:1029E000350000BF002084F8340000BFE06B10B158
:1029F0002046E16B8847606D38B3606D00F00100E0
:102A0000F0B1052084F835002068006820F001004E
:102A10002168086000BF0098401C0090B84200D9AF
:102A200005E02068006800F001000028F3D100BF35
:102A3000012084F8350000BF002084F8340000BF76
:102A4000E06C10B12046E16C884700BFA4E70000AD
:102A5000840000202DE9F0410446002500F07CF9B7
:102A6000074614B90120BDE8F081606A00B100BFDB
:102A7000022084F8350000BF002084F8340000BF35
:102A80002068006820F00100216808600AE000F07A
:102A900063F9C01B052805D920206065032084F850
:102AA0003500E0E72068006800F001000028EED162
:102AB0002068056821480540D4E901010843E16820
:102AC00008432169084361690843A1690843E16932
:102AD0000843216A08430543606A042803D1D4E906
:102AE0000B0108430543206805602068456925F00F
:102AF0000705606A0543606A04280DD1A06A054392
:102B0000E06A48B12046FFF709FB28B14020606524
:102B1000012084F83500A6E7206845612046FFF7CC
:102B2000E3FA064694F85C103F208840B06000202D
:102B30006065012084F83500002094E73F8010F0A4
:102B400070B5044600F008F906462546681C10B129
:102B500004480078054400BF00F0FEF8801BA8423E
:102B6000FAD370BD80000020F8B502460B46002560
:102B7000002400200021D1E0012606FA01F51E689C
:102B800006EA0504AC4274D11E7906F00306012E54
:102B900004D01E7906F00306022E13D190684F0070
:102BA0000326BE40B0434F00DE68BE403043906015
:102BB000506801268E40B0431E79C6F300168E4041
:102BC000304350601E7906F00306032E09D0D0680A
:102BD0004F000326BE40B0434F009E68BE403043C6
:102BE000D0601E7906F00306022E13D1CF0802F141
:102BF000200656F827004E07F70E0F26BE40B043BA
:102C00004F07FF0E1E69BE403043CF0802F1200679
:102C100046F8270010684F000326BE40B0431E79D7
:102C200006F003064F00BE40304310605E6806F4B5
:102C30004036002E71D000BF00260096394E36680F
:102C400046F48046374F3E603E46366806F480467E
:102C5000009600BF00BF344E8F0856F827008E073D
:102C6000370F0F26BE40B043304EB24202D100268D
:102C70001FE052E02E4EB24201D1012619E02D4E46
:102C8000B24201D1022614E02B4EB24201D10326FA
:102C90000FE02A4EB24201D104260AE0284EB24289
:102CA00001D1052605E0274EB24201D1062600E0FB
:102CB00007268F073F0FBE4030431B4E8F0846F854
:102CC0002700214E3068A0435E6806F4801606B1E6
:102CD00020431D4E3060361D3068A0435E6806F408
:102CE000001606B12043184E361D3060164E361FB2
:102CF0003068A0435E6806F4003606B12043124EE9
:102D0000361F3060361F3068A0435E6806F4803698
:102D100006B120430C4E083E3060491C1029FFF4D8
:102D20002BAFF8BD44380240083801400000024093
:102D30000004024000080240000C02400010024063
:102D40000014024000180240083C01400AB18161B1
:102D500001E00B0483617047014800687047000080
:102D600078000020034800680349097808440149B5
:102D700008607047780000208000002010B50D48E2
:102D8000006840F400700B4908600846006840F491
:102D9000806008600846006840F480700860032086
:102DA00000F0DAF80F2000F007F800F05FF80020DC
:102DB00010BD0000003C02402DE9F04188B00446FF
:102DC0000027B84600BF002001902348006840F467
:102DD0008070214908600846006800F48070019006
:102DE00000BF00BF02A903A801F08CFB069F1FB91A
:102DF00001F0B0FB054602E001F0ACFB45001748CE
:102E0000B5FBF0F0A0F1010815481649086040F242
:102E1000E7311448C160C0F804800021016181607D
:102E2000816101F013FF064696B90E4801F07CFF60
:102E300006466EB92D2000F03DF8102C07D2002276
:102E400021462D2000F04AF80748046000E00126E2
:102E5000304608B0BDE8F0814038024040420F00E3
:102E600000200040600400207C00002008B500BF66
:102E7000002000900E48006840F480400C49086033
:102E80000846006800F48040009000BF00BF00BF0B
:102E900000200090081F006840F08050091F086063
:102EA0000846006800F08050009000BF00BF08BDD9
:102EB000443802400146084600280DDB00BF00BF31
:102EC00000F01F0301229A4043099B0003F1E02315
:102ED000C3F8002100BF00BF00BF70472DE9F05FBD
:102EE00080460D461646002706F086F90746394605
:102EF0002A46334601F00700C0F1070ABAF1040F71
:102F000002D94FF0040A01E0C0F1070AD14600F1EE
:102F1000040ABAF1070F02D24FF0000A01E0A0F153
:102F2000030AD4464FF0010A0AFA09FAAAF1010A83
:102F30000AEA020A0AFA0CFA4FF0010B0BFA0CFB30
:102F4000ABF1010B0BEA030B4AEA0B0421464046A6
:102F500006F05AF9BDE8F09F00BF00F00702064BEB
:102F600019684FF6FF031940044B0B4343EA022153
:102F7000014B196000BF70470CED00E00000FA053E
:102F800001460A680120C1F8D804002081F8CC0469
:102F9000906940F000609061506D024B184350659D
:102FA000002070470300001070B504460D4615B1AF
:102FB000012D2CD116E0E07A38B103F049F815481C
:102FC000006820F00600134908602068D0F8000E61
:102FD00020F001002168C1F8000ED4F8E00404F0EC
:102FE0007CFD14E02068D0F8000E40F0010021685C
:102FF000C1F8000ED4F8E00404F002FEE07A28B133
:103000000448006840F006000249086000BF00BFA5
:1030100070BD000010ED00E0024610684162002023
:103020007047F0B5034615461868446A21B944EA6A
:1030300005401E68B06219E01868806A04EB10440D
:10304000002208E0186800F5827050F8220004EBB6
:103050001044501CC2B2481E9042F3D844EA0547BF
:10306000186800F582704E1E40F826700020F0BDF2
:1030700010B50446D4F8E00404F010FC10BD70B59F
:1030800004460D4605EBC50304F1140101EB830171
:10309000CA682946D4F8E00404F0F3FA70BD70B5AC
:1030A00004460D4605EBC50304F5157101EB8301DC
:1030B000CA682946D4F8E00404F06BFB70BD10B573
:1030C0000446D4F8E00404F0ECFB10BD2DE9F04117
:1030D00004460D4605F08000802808D105F00F0059
:1030E00000EBC00104F1140000EB810607E005F0DD
:1030F0000F0000EBC00104F5157000EB81063146AE
:10310000206805F021FE07463846BDE8F08170B51D
:1031100004460E4606F0800080280AD106F00F0013
:1031200000EBC00104F1140000EB81050120687080
:1031300009E006F00F0000EBC00104F5157000EB8C
:1031400081050020687006F00F00287000BF94F819
:103150009404012801D1022070BD012084F8940458
:1031600000BF2946206805F081F900BF002084F8DF
:10317000940400BF00BFEFE770B504460E4606F0AA
:103180000F002179884201D9012070BD06F080002E
:1031900080280AD106F00F0000EBC00104F11400F2
:1031A00000EB81050120687009E006F00F0000EBDC
:1031B000C00104F5157000EB810500206870002047
:1031C000A87006F00F00287000BF94F8940401283E
:1031D00001D10220D9E7012084F8940400BF2946D8
:1031E000206805F03DFB00BF002084F8940400BF78
:1031F00000BFCAE7024601F00F0000EBC00302F572
:10320000157000EB8300406970472DE9F0470546D3
:103210000E4690461F464FF0000906F080008028B9
:103220000AD106F00F0000EBC00105F1140000EB1D
:1032300081040120607009E006F00F0000EBC0017E
:1032400005F5157000EB81040020607006F00F009A
:103250002070C8F30A00A0602771607808B1207858
:103260006083022F01D10020607100BF95F89404A3
:10327000012802D10220BDE8F087012085F89404DE
:1032800000BF2146286804F0FDFF00BF002085F83C
:10329000940400BF4846EEE72DE9F04105460E468E
:1032A0001746984606F00F0000EBC00105F51570B3
:1032B00000EB8104E760C4F810800020606160705A
:1032C00006F00F002070A879012800D1E761AA79E3
:1032D0002146286805F058FB0020BDE8F08170B554
:1032E00004460D4605F00F002179884201D90120DE
:1032F00070BD05F0800080280AD105F00F0000EBBA
:10330000C00104F1140000EB81060120707007E099
:1033100005EBC50104F5157000EB81060020707007
:103320000120B07005F00F00307000BF94F89404D5
:10333000012801D10220DBE7012084F8940400BFBA
:103340003146206805F0D3FA05F00F0028B9A179BD
:1033500004F29C42206805F04BFA00BF002084F87C
:10336000940400BF00BFC3E72DE9F04105460E46B7
:103370001746984606F00F0000EBC00105F1140057
:1033800000EB8104E760C4F8108000206061012038
:10339000607006F00F002070A879012800D1E76165
:1033A000AA792146286805F0EFFA0020BDE8F081EF
:1033B0002DE9FE4F0446D4F800B05E46206805F0C3
:1033C000A5FD002874D1206805F0DFFD08B9BDE82F
:1033D000FE8F40F608008059C0F30D20C4F8D404D5
:1033E000206805F0D2FD00F00200022805D1206817
:1033F000406900F0020021684861206805F0C5FDC1
:1034000000F01000102845D12068806920F01000DD
:1034100021688861DBF8209009F00F0000EBC00103
:1034200004F5157000EB810AC9F3434002281AD154
:1034300047F6F07009EA000030B3C9F30A125846A3
:10344000DAF80C1005F0A6FDC9F30A11DAF80C0041
:103450000844CAF80C00C9F30A11DAF81400084449
:10346000CAF8140010E0C9F3434006280CD1082222
:1034700004F29C41584605F08DFDC9F30A11DAF8B3
:1034800014000844CAF814002068806940F0100055
:1034900021688861206805F078FD00F40020B0F50F
:1034A000002F7BD10025206805F03FFD029072E0DF
:1034B00003E3029800F00100002868D0E9B2206818
:1034C00005F056FD804608F0010048B1012106F5DF
:1034D000306000EB451081602946204602F0AEFCCA
:1034E00008F00800082809D1082106F5306000EB33
:1034F000451081602946204602F06EFC08F010005D
:10350000102805D1102106F5306000EB45108160D0
:1035100008F00200022824D1DBF8140000F080003B
:10352000802807D140F60400805940F4806140F6BD
:103530000400815105EBC50104F5157000EB810A0B
:103540009AF80300012806D100208AF80300E9B2A6
:10355000204600F0BDFA022106F5306000EB451070
:10356000816008F02000202805D1202106F5306078
:1035700000EB4510816008F40050B0F5005F06D103
:103580004FF4005106F5306000EB451081606D1C72
:10359000029840080290029800288AD1206805F01D
:1035A000F4FC00F48020B0F5802F7DD1206805F078
:1035B000B2FC029000259AE0029800F00100002879
:1035C00073D0E9B2206805F0BAFC804608F001002B
:1035D000F0B305F00F0101208840019040F634005F
:1035E0008159019821EA000040F6340188510121F7
:1035F00006F5106000EB45108160A079012824D108
:1036000005EBC50104F1140000EB810005EBC502D8
:10361000C16804F1140000EB82008068014405EBEE
:10362000C50204F1140000EB8200C1606DB905EB26
:10363000C50104F1140000EB8100006928B904F20F
:103640009C420121206805F0D3F8E9B2204600E051
:1036500001E0FFF714FD08F00800082805D1082153
:1036600006F5106000EB4510816008F0100010288E
:1036700005D1102106F5106000EB4510816008F0BF
:103680004000402805D1402106F5106000EB4510B0
:10369000816008F0020002281DD12946584605F035
:1036A000F8FB05EBC50101E025E01CE004F1140086
:1036B00000EB810A9AF80300012806D100208AF85D
:1036C0000300E9B2204600F0FAF9022106F5106085
:1036D00000EB4510816008F08000802803D1294666
:1036E000204602F04DFC6D1C0298400802900298A2
:1036F00000287FF461AF206805F047FC00F000402F
:10370000B0F1004F1CD140F60400805920F00101B7
:1037100040F60400815194F8CC04012807D1002020
:1037200084F8CC0400212046FFF73EFC02E020464E
:1037300000F008FB2068406900F000402168486103
:10374000206805F022FC00F40060B0F5006F0ED197
:1037500040F60800805900F0010010B1204600F04A
:1037600049FB2068406900F40060216848612068D6
:1037700005F00BFC00F00060B0F1006F19D120687B
:10378000406900F000602168486194F8CC0468B991
:10379000012084F8CC042068406DC0F38300C4F895
:1037A000D00401212046FFF7FFFB02E0204600F095
:1037B00021FB206805F0E9FB00F48050B0F5805F44
:1037C0007ED140F60400805920F0010140F604004B
:1037D00081511021206805F05CFB002732E04FF694
:1037E0007F3106F5106000EB4710816006F5106030
:1037F00000EB4710006820F4001106F5106000EBA4
:10380000471001604FF67F3106F5306000EB47103E
:10381000816006F5306000EB4710006820F400116D
:1038200006F5306000EB4710016006F5306000EBF4
:103830004710006840F0006106F5306000EB47106B
:1038400001607F1C2079B842C9D840F61C0080591D
:1038500040F0011140F61C008151E07B70B1D6F8B8
:10386000840840F00B01C6F8841840F644008059E3
:1038700040F00B0140F6440081510FE040F6140087
:10388000805942F22B01084340F614018851081F69
:10389000805940F00B014FF401608151D6F80008C7
:1038A00020F4FE60C6F80008A17904F29C4220686A
:1038B00004F09EFF2068406900F48050216800E019
:1038C00000E04861206805F060FB00F40050B0F5AE
:1038D000005F17D1206804F03DFD206805F003FB70
:1038E000E07100F031FE0090E2792068009905F067
:1038F000D3FB204600F00EFA2068406900F4005027
:1039000021684861206805F040FB00F008000828A5
:1039100008D1204600F01DFA2068406900F0080038
:1039200021684861206805F030FB00F080008028A5
:1039300018D1DBF8180020F08000CBF81800012522
:103940000DE005EBC50104F5157000EB8100C078B2
:10395000012803D1E9B22046FFF7B8FB6D1C20799E
:10396000A842EED8206805F010FB00F48010B0F5F6
:10397000801F2DD1012522E006F5106000EB4510D7
:10398000D0F8009005EBC50104F1140000EB8100B4
:103990000079012812D109F00040B0F1004F0DD19B
:1039A000012105EBC50204F1140000EB8200C17097
:1039B000E8B240F080012046FFF788FB6D1C2079BB
:1039C000A842D9D82068406900F480102168486175
:1039D000206805F0DAFA00F40010B0F5001F44D1B9
:1039E000012538E006F5306000EB4510D0F8009076
:1039F00005EBC50104F5157000EB81000079012885
:103A000028D109F00040B0F1004F23D194F8D4043C
:103A100000F00100C9F3004188421BD1012105EBF0
:103A2000C50204F5157000EB8200C170DBF81800C8
:103A300040F08000CBF81800DBF8140000F08000A4
:103A400040B940F60400805940F4007140F604008B
:103A5000815103E06D1C2079A842C3D800BF2068C3
:103A6000406900F4001021684861206805F08DFA73
:103A700000F08040B0F1804F08D12046FFF7F8FAFF
:103A80002068406900F0804021684861206805F0A6
:103A90007CFA00F0040004280FD12068D0F80490CC
:103AA00009F00400042802D12046FFF708FB206833
:103AB000406840EA09002168486000BF87E470B5AB
:103AC00004460D462946D4F8E00403F057FF70BDC4
:103AD00070B504460D462946D4F8E00403F072FFA1
:103AE00070BDF8B504460CB90120F8BD266894F8FD
:103AF000950428B9002084F89404204600F0A6F824
:103B0000032084F89504B6F1A04F01D10021A171E2
:103B1000206804F065FE207C8DF8000094E80F001A
:103B200004F02CFC20B1022084F895040120DCE78D
:103B30000021206805F05EFA20B1022084F8950487
:103B40000120D2E7002531E0012105EBC50204F197
:103B5000140000EB8200417005EBC50104F1140074
:103B600000F8215005EBC50100EB810045830021E1
:103B700005EBC50204F1140000EB8200017105EBB6
:103B8000C50204F1140000EB8200816005EBC50260
:103B900004F1140000EB8200C16005EBC50204F1E2
:103BA000140000EB82000161681CC5B22079A842B4
:103BB000CADC00252AE0002105EBC50204F51570DA
:103BC00000EB8200417005EBC50104F5157000F8AB
:103BD0002150002105EBC50200EB8200017105EBCD
:103BE000C50204F5157000EB8200816005EBC5028B
:103BF00004F5157000EB8200C16005EBC50204F509
:103C0000157000EB82000161681CC5B22079A842E2
:103C1000D1DC207C8DF8000094E80F0004F0F0FC6B
:103C200020B1022084F8950401205EE70020607432
:103C3000012084F89504207B012802D12046FFF75B
:103C40009FF9206804F0CAFC00204EE710B59EB032
:103C50000446142119A8FCF715FF5C2102A8FCF703
:103C600011FF2068B0F1A04F4DD14FF48070029049
:103C70000020179002A800F0D7F808B1FEF7A4FAC8
:103C800000BF002001902148006840F001001F495A
:103C900008600846006800F00100019000BF00BF06
:103CA0004FF4C050199002201A9000201B9003205E
:103CB0001C900A201D9019A91548FEF755FF00BF5A
:103CC0001248001D006840F080001049091D08607E
:103CD00000BF002001900D481430006840F480407F
:103CE0000A49143108600846006800F480400190D9
:103CF00000BF00BF00BF002211464320FFF7EEF8CF
:103D00004320FFF7D7F81EB010BD00003038024046
:103D10000000024070B504460125E07908B900258D
:103D200006E0E079022801D1012501E0FEF74CFA16
:103D30002946D4F8E00403F0EFFED4F8E00403F0E1
:103D400095FE70BD10B50446D4F8E00403F0C5FE3E
:103D500010BD10B50446D4F8E00403F0C9FE10BD50
:103D600070B504460D4600BF94F89404012801D1B3
:103D7000022070BD012084F8940400BF65742946B8
:103D8000206805F06BF900BF002084F8940400BFA0
:103D900000BFEEE710B5044604F29C41D4F8E004FD
:103DA00003F0D1FE10BD70B50446256800BF94F83D
:103DB0009404012801D1022070BD012084F89404EC
:103DC00000BFE86800F0400030B1607B012803D1FB
:103DD000A86B40F48030A863206805F02BF82068B9
:103DE00004F0EAFB00BF002084F8940400BF00BF89
:103DF000E2E7000010B50446D4F8E00403F000FF49
:103E00002068D0F8000E40F001002168C1F8000ED3
:103E1000E07A28B10348006840F0060001490860D4
:103E200010BD000010ED00E02DE9FE4F0446002516
:103E300000260027A846A946AA46AB4600200290C5
:103E40000190207800F0010058B1FE48006820F091
:103E5000C060A16B0843FB490860A06B08B9012052
:103E60000290207800F0020002280BD1F54800688B
:103E700020F0C050E16B0843F2490860E06B08B9DC
:103E800001200290207800F00400042811D1ED48B0
:103E9000006820F44010216B0843EA490860206B59
:103EA000B0F5801F01D101200290206B08B90120DC
:103EB0000190207800F00800082811D1E14800683E
:103EC00020F44000616B0843DE490860606BB0F588
:103ED000800F01D101200290606B08B90120019090
:103EE000207800F0200020286FD100BF0020009033
:103EF000D4484C38006840F08050D2494C390860B2
:103F00000846006800F08050009000BF00BFCE4817
:103F1000006840F48070CC490860FEF71DFF05463C
:103F200007E0FEF719FF401B022802D90320BDE875
:103F3000FE8FC548006800F480700028F1D0C148A9
:103F40001C38006800F4407656B3B4F8400000F422
:103F50004070B04224D0BB481C38006820F4407642
:103F60000120BA49086000200860B6481C38066085
:103F7000006800F0010098B1FEF7EEFE054608E08B
:103F8000FEF7EAFE401B41F28831884201D9032046
:103F9000CDE7AC481C380068C0F340000028EFD0E3
:103FA00000BFB4F8400000F44070B0F5407F0DD180
:103FB000A4488438006820F4F810A54A216C114008
:103FC0000843A0498439086008E013E09D4884381C
:103FD000006820F4F8109B498439086099481C381F
:103FE0000068B4F84010C1F30B01084395491C392F
:103FF000086000BF207800F01000102803D194F86A
:10400000580094490860207800F08000802809D189
:104010008C480830006820F44000E16C084389496E
:1040200008310860207800F04000402809D1854818
:104030000830006820F08060A16C08438149083195
:104040000860208800F48070B0F5807F0FD17D4833
:104050000830006820F00060616D0843794908313C
:104060000860606DB0F1006F01D1012001902088DF
:1040700000F40070B0F5007F09D172480830006884
:1040800020F08050616C08436E4908310860208838
:1040900000F48060B0F5806F0FD16A480830006886
:1040A00020F00050216D0843664908310860206DFA
:1040B000B0F1005F01D1012002900298012803D0E5
:1040C0002068B0F5006F7DD1002063498866FEF757
:1040D00043FE054606E0FEF73FFE401B022801D9DD
:1040E000032024E757488C380068C0F3C0600028DC
:1040F000F1D1207800F0010008B1A06B30B1207838
:1041000000F0020002281ED1E06BE0B94D480838EB
:104110000068C0F30140401C47004A480838006866
:10412000C0F30368D4E9011041EA80100121C1EB1A
:10413000570140EA014040EA0861207D41EA0070F1
:10414000404908390860207800F00400042803D1B1
:10415000206BB0F5801F08D0207800F008000828F8
:1041600029D1606BB0F5800F25D13648083800683A
:10417000C0F30140401C4700324808380068C0F3D3
:104180000279D4E9011041EA80100121C1EB570105
:1041900040EA0141207C41EA006040EA0970294977
:1041A000083908602748006820F01F00A16A491EEE
:1041B000084324490860208800F48060B0F5806FCF
:1041C00023D100E05BE0206DB0F1005F1DD11D4800
:1041D00008380068C0F30140401C4FEA4008194805
:1041E00008380068C0F30279D4E9011041EA80116F
:1041F0000122E068C2EB500041EA004040EA08605A
:1042000040EA09700F4908390860208800F400600E
:10421000B0F5006F12D1D4E9011041EA80110122FA
:10422000E068C2EB500041EA0041207C41EA0061B5
:10423000207D41EA007003490839086001200649E1
:1042400088660BE08C38024000700040400E474208
:10425000FFFCFF0FE011474200004742FEF77CFDE4
:10426000054606E0FEF778FD401B022801D9032031
:104270005DE641480068C0F3C0600028F2D00198B4
:10428000012877D100203D490867FEF765FD054606
:1042900006E0FEF761FD401B022801D9032046E637
:1042A00035480068C0F340700028F2D1207800F053
:1042B0000400042801D1206B30B1207800F0080000
:1042C000082824D1606B10BB2B4888300068C0F3ED
:1042D0000140401C4FEA400AD4E9061041EA801030
:1042E0000121C1EB5A0140EA01412420005D41EA6D
:1042F0000060214988310860081D006820F4F851E9
:10430000E06A401E41EA00201B498C310860208889
:1043100000F48070B0F5807F17D1606DB0F1006F50
:1043200013D1154888300068C0F3036BD4E9061038
:1043300041EA80110122206AC2EB500041EA0040AC
:1043400040EA0B600C498831086001200B4908677E
:10435000FEF702FD054607E0FEF7FEFC401B0228C3
:1043600002D90320E3E505E003480068C0F340708C
:104370000028F1D00020DAE5003802400000474272
:1043800070B504460D460CB9012070BD5848006850
:1043900000F00F00A84209D255490D700846006888
:1043A00000F00F00A84201D00120EEE7207800F0D5
:1043B000020002281DD1207800F00400042805D155
:1043C0004C48006840F4E0504A490860207800F00A
:1043D0000800082805D14748006840F46040454976
:1043E00008604448006820F0F000A1680843414993
:1043F0000860207800F00100A8B36068012807D1A8
:104400003C4808380068C0F34040B8B90120BCE718
:104410006068022802D06068032807D13548083850
:104420000068C0F3406048B90120AEE73148083861
:104430000068C0F3400008B90120A6E72D480068D5
:1044400020F00300616808432A490860FEF784FCF5
:10445000064609E0FEF780FC801B41F28831884265
:1044600002D9032091E707E02248006800F00C0021
:104470006168B0EB810FEDD11D48006800F00F00BE
:10448000A84209D91A490D700846006800F00F00CB
:10449000A84201D0012078E7207800F00400042829
:1044A00007D11448006820F4E050E168084311493E
:1044B0000860207800F00800082808D10D4800683E
:1044C00020F46040216940EAC1000A49086000F018
:1044D00061F808490968C1F30311074A515CC840F3
:1044E0000649086006480068FEF766FC00204CE7B5
:1044F000003C02400838024077A8000884000020F1
:104500007C0000200F2202600D4A126802F00302B4
:1045100042600B4A126802F0F0028260084A126898
:1045200002F4E052C260064A126802F46042D20805
:104530000261044A126802F00F020A60704700002C
:1045400008380240003C0240014800687047000003
:104550008400002000B5FFF7F7FF04490968C1F3A4
:104560008221034A515CC84000BD00000838024067
:1045700087A8000800B5FFF7E7FF04490968C1F301
:104580004231034A515CC84000BD00000838024077
:1045900087A800082DE9F047002400250026A14641
:1045A000A2463F48006800F00C0030B1042807D054
:1045B000082808D00C286BD138E0DFF8E8A06AE0C2
:1045C000DFF8E4A067E03648001F006800F03F0411
:1045D0003348001F006800F4800078B13248304949
:1045E000091F0968C1F38811A0FB0170014622462A
:1045F00000233846FBF7D3FE05460DE0294828493D
:10460000091F0968C1F38811A0FB0171224600232C
:104610003846FBF7C4FE05462148001F0068C0F37A
:104620000140401C4600B5FBF6FA34E01C48001F70
:10463000006800F03F041A48001F006800F4800082
:1046400078B119481649091F0968C1F38811A0FB00
:1046500001700146224600233846FBF7A0FE0546BE
:104660000EE010480E49091F0968C1F38811A0FB2C
:1046700001700146224600233846FBF790FE0546AE
:104680000748001F0068C0F30279B5FBF9FA02E0A1
:10469000DFF810A000BF00BF5046BDE8F087000063
:1046A000083802400024F400001BB700F8B50446A7
:1046B0000CB90120F8BD207800F0010000286FD06F
:1046C000FE48006800F00C0004281BD0FB4800687E
:1046D00000F00C00082807D1F848001F006800F41B
:1046E0008000B0F5800F0DD0F448006800F00C0099
:1046F0000C2813D1F148001F006800F48000B0F5C9
:10470000800F0BD1ED4808380068C0F34040002806
:1047100059D06068002856D10120CBE700BF6068FF
:10472000B0F5803F08D1E5480838006840F4803093
:10473000E249083908601EE06068B0F5A02F0DD18D
:10474000DE480838006840F48020DC4908390860F9
:104750000846006840F4803008600CE0D74808380C
:10476000006820F48030D5490839086008460068A0
:1047700020F48020086000BF606890B1FEF7ECFA7A
:10478000054606E0FEF7E8FA401B642801D903203D
:1047900090E7CA4808380068C0F340400028F1D0CC
:1047A00011E0FEF7D9FA054606E0FEF7D5FA401B00
:1047B000642801D903207DE7C04808380068C0F3A9
:1047C00040400028F1D1207800F0020002286BD18F
:1047D000BA48006800F00C00B8B1B848006800F0B2
:1047E0000C00082805D1B548001F006800F48000BF
:1047F00058B1B248006800F00C000C281CD1AF483A
:10480000001F006800F48000B0B9AC4808380068A8
:10481000C0F3400020B1E068012801D0012049E741
:10482000A6480838006820F0F800216940EAC10075
:10483000A2490839086037E0E06800B30120A049C8
:104840000860FEF789FA054606E0FEF785FA401B88
:10485000022801D903202DE7984808380068C0F3E2
:1048600040000028F1D095480838006820F0F80092
:10487000216940EAC10091490839086014E000202C
:104880008F490860FEF768FA054606E0FEF764FA0D
:10489000401B022801D903200CE78848083800682B
:1048A000C0F340000028F1D1207800F0080008286B
:1048B0002CD16069A8B1012082490860FEF74CFA4A
:1048C000054606E0FEF748FA401B022801D90320FE
:1048D000F0E67A486C300068C0F340000028F1D060
:1048E00014E0002077490860FEF736FA054606E036
:1048F000FEF732FA401B022801D90320DAE66F489E
:104900006C300068C0F340000028F1D1207800F03E
:104910000400042870D1002768483830006800F08F
:10492000805090B900BF0020009064483830006883
:1049300040F080506149383108600846006800F056
:104940008050009000BF00BF01275F48006800F45E
:104950008070B0B95C48006840F480705A490860C3
:10496000FEF7FAF9054606E0FEF7F6F9401B0228C5
:1049700001D903209EE65448006800F480700028A6
:10498000F2D000BFA068012808D14C486830006808
:1049900040F001004949683108601DE0A068052821
:1049A0000DD146486830006840F004004349683142
:1049B00008600846006840F0010008600CE03F48CD
:1049C0006830006820F001003C4968310860084602
:1049D000006820F00400086000BFA068A8B1FEF7DE
:1049E000BBF9054609E0FEF7B7F9401B41F28831F3
:1049F000884202D903205DE626E03048683000682E
:104A0000C0F340000028EED013E0FEF7A5F90546FC
:104A100008E0FEF7A1F9401B41F28831884201D934
:104A2000032047E6254868300068C0F340000028AE
:104A3000EFD1012F07D121483830006820F0805095
:104A40001E493831086000BFA069002851D01B48BA
:104A5000006800F00C00082861D0A069022849D144
:104A6000002017490866FEF777F9054606E0FEF7CD
:104A700073F9401B022801D903201BE60F480838B0
:104A80000068C0F340600028F1D1D4E90701084371
:104A9000616A40EA81110122A06AC2EB500041EA3A
:104AA00000412C20005D41EA00613020005D41EAB8
:104AB00000700249091F0860012007E00838024021
:104AC00000004742800E4742007000402F490866B0
:104AD000FEF742F9054606E0FEF73EF9401B0228C4
:104AE00001D90320E6E52A480068C0F340600028A9
:104AF000F2D048E0002025490866FEF72DF905466A
:104B000006E0FEF729F9401B022801D90320D1E570
:104B10001F480068C0F340600028F2D133E0A0696C
:104B2000012800D1C6E51A48001D0668A0690128C1
:104B300027D006F48001E069814222D106F03F01CE
:104B4000206A81421DD147F6C0703040616AB0EBE7
:104B5000811F16D106F440310122A06AC2EB500039
:104B6000B1EB004F0DD106F070612C20005DB1EB70
:104B7000006F06D106F0E0413020005DB1EB007F10
:104B800001D0012096E5002094E500000000474296
:104B9000003802407047704730B502460B4600BFF0
:104BA00092F83C00012801D1022030BD012082F89A
:104BB0003C0000BF022082F83D0010684468106885
:104BC000816824F070041868044310684460184D2C
:104BD0001068A8421BD01068B0F1804F17D0154D57
:104BE0001068A84213D0144D1068A8420FD0134D7E
:104BF0001068A8420BD0124D1068A84207D0114D82
:104C00001068A84203D0104D1068A84205D121F0C9
:104C100080015868014310688160012082F83D00DE
:104C200000BF002082F83C0000BF00BFBDE70000CD
:104C3000000001400004004000080040000C00405B
:104C400000040140004001400018004010B5044637
:104C50000CB9012010BD94F83D0028B9002084F85B
:104C60003C00204600F026F8022084F83D00211D7B
:104C7000206801F085FA012084F8460000BF84F81E
:104C80003E0001213F2001554020015541200155A2
:104C900000BF00BF012084F842004320015544209A
:104CA00001554520015500BF012084F83D0000203A
:104CB000D0E7000038B504461849206888420FD173
:104CC00000BF002000901648006840F00200144920
:104CD00008600846006800F00200009000BF1BE07A
:104CE00010492068884217D100BF002000900C486E
:104CF000006840F080000A4908600846006800F03B
:104D00008000009000BF00BF002211462C20FEF75B
:104D1000E5F82C20FEF7CEF838BD00000004004076
:104D200040380240001C0040014691F83D00012837
:104D300001D001207047022081F83D000868C0685A
:104D400040F001000B68D8601A4B086898421BD0ED
:104D50000868B0F1804F17D0174B0868984213D0FD
:104D6000164B086898420FD0154B086898420BD034
:104D7000144B0868984207D0134B0868984203D038
:104D8000124B086898420CD10868806800F007024E
:104D9000062A0CD00868006840F001000B68186013
:104DA00005E00868006840F001000B68186000200A
:104DB000C0E700000000014000040040000800407F
:104DC000000C004000040140004001400018004079
:104DD0002DE9F04104460D46002700BF94F83C0041
:104DE000012802D10220BDE8F081012084F83C00B6
:104DF00000BF022084F83D002068866826F0770610
:104E000026F47F46206886602868502833D00CDC62
:104E1000202850D004DC00284BD0102851D149E084
:104E2000302849D040284CD139E060282DD0702856
:104E300007D0B0F5805F03D0B0F5005F41D10DE041
:104E400041E0D5E902136A68206801F009FA206898
:104E5000866846F077062068866034E0D5E902135C
:104E60006A68206801F0FCF92068806840F480409E
:104E70002168886027E0EA686968206801F0E0FA44
:104E80005021206801F0F7F91DE0EA6869682068A0
:104E900001F0E9FA6021206801F0EDF913E0EA6819
:104EA0006968206801F0CCFA4021206801F0E3F93C
:104EB00009E000BF00BF00BF2968206801F0DBF9EE
:104EC00001E0012700BF00BF012084F83D0000BFC2
:104ED000002084F83C0000BF384684E7704770B576
:104EE00004462068C5682068066906F002000228AA
:104EF00019D105F00200022815D1401F2168086170
:104F0000012020772068806900F0030018B1204656
:104F1000FFF7E4FF05E0204600F0EEF8204600F041
:104F2000B9F90020207706F00400042819D105F013
:104F30000400042815D1C0432168086102202077AD
:104F40002068806900F4407018B12046FFF7C6FF62
:104F500005E0204600F0D0F8204600F09BF9002044
:104F6000207706F00800082819D105F00800082865
:104F700015D1C04321680861042020772068C069EA
:104F800000F0030018B12046FFF7A8FF05E0204617
:104F900000F0B2F8204600F07DF90020207706F0FE
:104FA0001000102819D105F01000102815D1C043A9
:104FB00021680861082020772068C06900F44070EB
:104FC00018B12046FFF78AFF05E0204600F094F86C
:104FD000204600F05FF90020207706F0010048B17C
:104FE00005F0010030B16FF0010021680861204632
:104FF00000F052F906F08000802809D105F0800009
:10500000802805D1C043216808612046FFF7C2FD12
:1050100006F04000402809D105F04000402805D1A5
:10502000C04321680861204600F042F906F02000E4
:10503000202809D105F02000202805D1C04321688F
:1050400008612046FFF7A7FD70BD000010B586B0CF
:105050000446142101A8FBF715FD2068B0F1804F2C
:105060001DD100BF002000901F48006840F00200E2
:105070001D4908600846006800F00200009000BF6B
:1050800000BF0420019002200290002003900490B1
:105090000120059001A91548FDF766FD21E014499E
:1050A000206888421DD100BF002000900E48006893
:1050B00040F004000C4908600846006800F0040055
:1050C000009000BF00BF4FF470700190022002906A
:1050D0000020039004900220059001A90548FDF7E7
:1050E00043FD06B010BD000030380240000402400D
:1050F000000400400008024070472DE9F0410446DA
:105100000D461646002700BF94F83C00012802D146
:105110000220BDE8F081012084F83C0000BF36B1D8
:10512000042E1BD0082E31D00C2E5ED145E029462E
:10513000206801F0A9F82068806940F00800216823
:1051400088612068806920F00400216888612068F7
:105150008069296908432168886148E029462068F8
:1051600001F0CAF82068806940F400602168886115
:105170002068806920F480602168886120688069E7
:10518000296940EA01202168886130E029462068C9
:1051900001F0F0F82068C06940F008002168C8619B
:1051A0002068C06920F004002168C8612068C069D7
:1051B000296908432168C86119E02946206801F07F
:1051C00015F92068C06940F400602168C861206852
:1051D000C06920F480602168C8612068C0692969BD
:1051E00040EA01202168C86101E0012700BF00BF3B
:1051F00000BF002084F83C0000BF384689E710B5A6
:1052000004460CB9012010BD94F83D0028B90020D7
:1052100084F83C00204600F025F8022084F83D0088
:10522000211D206800F0ACFF012084F8460000BF7B
:1052300084F83E0001213F200155402001554120C6
:10524000015500BF00BF012084F8420043200155F2
:10525000442001554520015500BF012084F83D0040
:105260000020D0E708B50168B1F1804F0FD100BF31
:10527000002100910649096841F00101044A1160CA
:105280001146096801F00101009100BF00BF08BD8F
:10529000403802407047000010B5044603492068BA
:1052A000884201D1FDF75EFD10BD000000200040E6
:1052B00070477047704700002DE9F84F044620689A
:1052C00005682068C668206847694FF00009CA462B
:1052D00005F00F09B9F1000F0AD105F0200038B12F
:1052E00006F0200020B1204601F029F9BDE8F88F32
:1052F000B9F1000F7CD007F0010018B906F49070E6
:10530000002875D005F0010030B106F4807018B1A6
:10531000606C40F00100606405F0040030B107F0FB
:10532000010018B1606C40F00200606405F00200FA
:1053300030B107F0010018B1606C40F00400606407
:1053400005F0080048B106F0200010B907F0010090
:1053500018B1606C40F008006064606C002846D0B2
:1053600005F0200028B106F0200010B1204601F021
:10537000E6F820684069C0F3801A606C00F008000D
:1053800010B9BAF1000F2DD0204601F092F8206834
:10539000406900F04000402820D100BF00BF2168D4
:1053A000143151E8001F21F040002168143141E818
:1053B0000002002AF3D100BFE06B50B17F48E16BDF
:1053C0000865E06BFDF712FA88B1E06B016D884764
:1053D0000DE02046FFF76EFF09E009E02046FFF7E9
:1053E00069FF04E02046FFF765FF002060647DE769
:1053F000206B012878D105F01000002874D006F049
:1054000010000028FAD000BF00200090206800683B
:10541000009020684068009000BF00BF206840698D
:1054200000F04000402870D1E06B006840681FFA2F
:1054300080F8B8F1000F58D0A08D404555DDA4F894
:105440002E80E06BC069B0F5807F43D000BF00BF05
:1054500021680C3151E8001F21F4807021680C3163
:1054600041E80002002AF3D100BF00BF00BF21685D
:10547000143151E8001F21F001002168143141E886
:105480000002002AF3D100BF00BF00BF2168143121
:1054900051E8001F21F040002168143141E800026A
:1054A000002AF3D100BF202084F8420000202063AE
:1054B00000BF00BF21680C3151E8001F21F010002F
:1054C00021680C3141E80002002AF3D100BFE06BF3
:1054D000FDF736F902206063A08DE28D801A81B25B
:1054E0002046FFF7E6FE0EE052E0A08D40450AD1CF
:1054F000E06BC069B0F5807F05D102206063A18DAB
:105500002046FFF7D6FEF1E6FFE7A08DE18D401AB9
:105510001FFA80F8E08DD0B3B8F1000F37D000BF8C
:1055200000BF21680C3151E8001F21F49070216800
:105530000C3141E80002002AF3D100BF00BF00BFD8
:105540002168143151E8001F21F001002168143155
:1055500041E80002002AF3D100BF202084F8420075
:105560000020206300BF00BF21680C3151E8001FFC
:1055700021F0100021680C3141E80002002AF3D12B
:1055800000BF0220606341462046FFF792FEADE671
:1055900005F0800030B106F0800018B1204601F01F
:1055A00063F9A3E605F0400030B106F0400018B101
:1055B000204600F0B4FF99E600BF97E6A16400081A
:1055C00010B504460CB9012010BDA06900B100E07F
:1055D00000BF94F8410028B9002084F8400020461C
:1055E00000F02AF8242084F841002068C06820F4E4
:1055F00000502168C860204601F020F8206800694A
:1056000020F49040216808612068406920F02A0059
:10561000216848612068C06840F400502168C86073
:1056200000206064202084F8410084F842000020BB
:10563000606300BFC8E7000010B586B004461421BF
:1056400001A8FBF71FFA9F492068884231D100BFAB
:10565000002000909C48006840F400209A490860AF
:105660000846006800F40020009000BF00BF00BFA3
:105670000020009094481038006840F004009249DF
:10568000103908600846006800F00400009000BF70
:1056900000BF4FF440600190022002900020039070
:1056A000032004900820059001A98848FDF75CFAC2
:1056B00005E18749206888427ED100BF0020009024
:1056C0008148006840F480107F49086008460068FF
:1056D00000F48010009000BF00BF00BF00200090C9
:1056E00079481038006840F00400774910390860A4
:1056F0000846006800F00400009000BF00BF00BF33
:10570000002000900846006840F008000860084645
:10571000006800F00800009000BF00BF88140190EE
:10572000022002900020039003200490082005909E
:1057300001A96648FDF718FA0420019002200290A2
:1057400000200390032004900820059001A96148DF
:10575000FDF70AFA604861490860C0054860002109
:105760005E488160C1604FF4806101610021416148
:1057700081614FF48071C161002101624162FDF7D6
:1057800069F908B1FCF720FD00BF5448E063846369
:1057900000BF5148A830524908604FF0006048608F
:1057A00040214F4881600021C1604FF48061016158
:1057B00000214161816100E015E0C1610162416247
:1057C000FDF748F908B1FCF7FFFC00BF4448A063AF
:1057D000846300BF002211463520FDF77FFB352092
:1057E000FDF768FB6BE03F492068884233D100BF7A
:1057F000002000903448001D006840F0100032493D
:10580000091D08600846006800F01000009000BF05
:1058100000BF00BF002000902B481038006840F007
:1058200001002949103908600846006800F00100AD
:10583000009000BF00BF4FF4C060019002200290B2
:1058400000200390032004900720059001A926481A
:10585000FDF78AF933E02549206888422FD100BF3F
:10586000002000901848006840F400301649086095
:105870000846006800F40030009000BF00BF00BF81
:105880000020009010481038006840F001000E49D8
:10589000103908600846006800F00100009000BF61
:1058A00000BF0C20019002200290002003900320F2
:1058B00004900720059001A90B48FDF755F906B0A3
:1058C00010BD0000004C004040380240000802407B
:1058D00000500040000C024010600240A003002075
:1058E000000400200010014000000240004400407D
:1058F0007047704730B50B46002100BF16E00A2400
:10590000B4EB107F05D9302404EB107403F8114078
:1059100005E0412404EB10740A3C03F81140000137
:1059200000254C00641C1D554C1CE1B29142E6DB85
:1059300030BD000010B50E480E49086002204860D6
:1059400000210C488160C1604FF4602101614FF477
:10595000800141610021017641768176C17601772F
:105960004177FCF777FD08B1FCF72EFC10BD000075
:10597000006400405801002010B50E480E49086030
:105980000220486000210C488160C1604FF4602112
:1059900001614FF4800141610021017641768176F9
:1059A000C17601774177FCF755FD08B1FCF70CFC97
:1059B00010BD0000006800408001002008B500BF55
:1059C000002000900E48006840F400100C49086068
:1059D0000846006800F40010009000BF00BF0022DD
:1059E00011460B20FDF77AFA0B20FDF763FA00222F
:1059F00011462F20FDF772FA2F20FDF75BFA08BD44
:105A00003038024000B587B0142102A8FBF73AF8FD
:105A100000BF002001903B48006840F00400394975
:105A200008600846006800F00400019000BF00BF55
:105A300000BF002001900846006840F08000086028
:105A40000846006800F08000019000BF00BF00BF62
:105A5000002001900846006840F0010008600846F8
:105A6000006800F00100019000BF00BF00BF0020EF
:105A700001900846006840F002000860084600688F
:105A800000F00200019000BF00BF00BF00200190A5
:105A90000846006840F0080008600846006800F00A
:105AA0000800019000BF00BF002248F20101164823
:105AB000FDF74CF9002208211448FDF747F948F298
:105AC000010002900120039000200490059002A99B
:105AD0000D48FDF749F84FF4004002900020039074
