:020000040800F2
:10000000E8660020D1030008C74700081104000873
:10001000C5470008352100087D5500080000000094
:1000200000000000000000000000000011030008B4
:10003000F5230008000000006D030008B148000827
:10004000EB030008EB030008EB030008EB030008D8
:10005000EB030008EB030008EB030008EB030008C8
:10006000EB030008EB030008EB030008EB030008B8
:10007000EB030008EB030008EB030008452300082E
:10008000EB030008EB030008EB030008EB03000898
:1000900039210008EB030008EB030008EB0300081C
:1000A000EB030008EB030008EB030008EB03000878
:1000B000EB030008EB030008EB030008EB03000868
:1000C000EB030008EB030008EB030008EB03000858
:1000D000EB030008F54F0008EB030008EB030008F2
:1000E000EB030008EB030008EB030008EB03000838
:1000F0008D49000881490008EB030008EB03000864
:10010000EB030008EB030008EB030008EB03000817
:10011000914C0008EB030008EB030008EB03000818
:10012000EB030008EB030008EB030008EB030008F7
:10013000EB0300080000000000000000EB030008D3
:1001400045210008EB030008EB030008EB0300085F
:10015000EB030008EB030008EB030008EB030008C7
:10016000EB030008EB030008EB030008EB030008B7
:10017000EB030008EB030008EB030008000000009D
:1001800000000000EB030008000000000000000079
:10019000EB0300080000000000000000EB03000873
:1001A000000000000000000000000000EB03000859
:1001B000EB030008EB030008EB030008EB03000867
:1001C000EB03000800F002F800F092F80AA090E8B3
:1001D000000C82448344AAF10107DA4501D100F002
:1001E00087F8AFF2090EBAE80F0013F0010F18BF3D
:1001F000FB1A43F001031847888C0000A88C00000C
:10020000103A24BF78C878C1FAD8520724BF30C842
:1002100030C144BF04680C60704700000023002414
:1002200000250026103A28BF78C1FBD8520728BF06
:1002300030C148BF0B6070476E2900F0AE85702951
:1002400000F0B982662907F0B887652907F0B587FD
:10025000672907F0B287612907F0B18703681B0A95
:1002600028BF41F08001692900F0EC81642900F089
:10027000E981752900F0E6816F2900F05E86782912
:1002800000F08582E92900F01982E42900F0168245
:10029000F52900F01382EF2900F05B86F82900F0C1
:1002A00084820368DB0928BF41F08001632900F0E4
:1002B000B885732900F0BD85E32901F0ED81F329AC
:1002C00001F0F281002070471FB507F071FF01F0C7
:1002D0003DFA04000020002107F054FF401C60603C
:1002E0000020002107F038FFE0601FBD10B510BDF1
:1002F00001F0FEF91146FFF7E7FF06F0BBFA01F047
:10030000DBFA03B4FFF7F2FF03BC05F067F9000066
:100310002C4B19680868B0E8F04F80F30988BFF3E8
:100320006F8F4FF0000080F31188704700000000CD
:1003300008480068006880F308884FF0000080F3E8
:10034000148862B661B6BFF34F8FBFF36F8F00DFC3
:1003500000BF00BF08ED00E0DFF80C00016841F4C9
:1003600070010160704700BF88ED00E0EFF3098085
:10037000BFF36F8F134B1A681EF0100F08BF20EDEC
:10038000108A20E9F04F106009B44FF0500080F35C
:100390001188BFF34F8FBFF36F8F07F0B1F94FF0A4
:1003A000000080F3118809BC19680868B0E8F04FB4
:1003B0001EF0100F08BFB0EC108A80F30988BFF35D
:1003C0006F8F70476C000020EFF3058070470000CE
:1003D0000948804709480047FEE7FEE7FEE7FEE7D9
:1003E000FEE7FEE7FEE7FEE7FEE7FEE70448054915
:1003F000054A064B7047000065490008C501000822
:10040000E85A0020E8660020E85E0020E85E002050
:100410007046694605F092F9FFF7FEFF704753EA10
:10042000020C00F069802DE9F04B4FF00006002B24
:100430001FBFB3FA83F503FA05F424FA05F65E400C
:1004400012BF1643B2FA82F502FA05F4C5F120058F
:100450001EBF22FA05FC44EA0C04203556EA044C7F
:100460004FEA144418BF641C4FF000084FF0000915
:10047000904271EB030C39D3002919BFB1FA81F70F
:1004800001FA07F6B0FA80F700FA07F6C7F120077D
:100490001EBF20FA07FC46EA0C062037B6FBF4FC28
:1004A000A7EB0507103F07F01F0BCBF120060CFA56
:1004B0000BFB2CFA06F644BFB3460026202FA4BF40
:1004C0005E464FF0000B5BEA060C08BF4FF0010BD5
:1004D00019EB0B09ABFB027C48EB0608C01B06FBC3
:1004E00002CC0BFB03CC71EB0C01C1E70B460246BF
:1004F00041464846BDE8F08B13B54FF000004FF081
:100500000001AFF30080BDE81C4070477CB51D467C
:1005100016460C00009001D02044401E074B7B443F
:100520002A4669460190304600F051FC05461CB150
:100530000020694600F05EFC28467CBDDD08000016
:100540000FB41CB5084B06AA7B4469460090059879
:1005500000F03DFC04460020694600F04BFC2046BC
:100560001CBC5DF814FB0000A90800000FB47CB5AA
:100570000C0009AA009001D02044401E084B7B4487
:1005800069460190089800F022FC05461CB1002045
:10059000694600F02FFC28467CBC5DF814FB000087
:1005A0007D08000070B5044685690068C10601D564
:1005B000302600E02026C00707D070BDD4E9012115
:1005C00030469047206A401C20626D1EF6D570BDF3
:1005D00070B5044685690078C00707D170BDD4E9BD
:1005E000012120209047206A401C20626D1EF6D514
:1005F00070BD70B50C460546012A05D028788006E6
:1006000000D5EA69002302E0012305E05B1C934268
:1006100002D2E05C0028F9D1A869E618C01AA861E6
:10062000286A184428622846FFF7BCFF04E0D5E991
:10063000012114F8010B9047B442F8D32846FFF784
:10064000C7FF70BD2DE9F0410646002410687529EA
:10065000314616A510D000F035FB002802DA4042E2
:1006600013A507E031688A0701D512A502E0490702
:1006700004D511A5012401E000F02DFB00210A2280
:1006800006F1240709E0B0FBF2FCB0FBF2F302FB39
:100690001C00303078541846491C0028F3D12346FA
:1006A0002A463046BDE8F04100F01EBB00000000C5
:1006B0002D0000002B000000200000002DE9F0417B
:1006C0008046D21D22F007020025D2E90002F5295A
:1006D00015A614D0011E72F1000106DA0023D0EB3A
:1006E000030063EB020211A608E0D8F800108B07A4
:1006F00001D50FA602E0490701D50EA60125114636
:10070000002408F1240704E000F097FA30323A554B
:10071000641C50EA0102F7D12B463246214640467E
:10072000BDE8F04100F0E0BA000000002D0000003C
:100730002B00000020000000F0B40D4601880905E0
:1007400002D5214C7C4402E01F4C7C440E34002135
:1007500000F1240608E002F00F071209E75D42EA03
:1007600003721B097754491C52EA0307F3D102783C
:100770000023120704D5702D06D009B102231134CD
:100780002246F0BC00F0B0BA01231034F8E770B58F
:1007900004460D462146106800F09DFA024629469F
:1007A0002046BDE870400023C6E7D21D22F00703B3
:1007B000D3E90023C0E70368126843F02003036015
:1007C0000823C3610023B7E7057D00002DE9F05F32
:1007D000894604464FF0000ADFF874B1FB44C0F8C4
:1007E00020A02046E1688847002874D0252806D03C
:1007F000D4E901219047206A401C2062F1E70026DD
:100800005F462046E16888472028054607DB312DF2
:1008100005D2781910F8200C08B10643F1E7B007AB
:1008200001D526F00406C4F81CA00027C4F818A0BF
:100830002A2D09D0284604F0CAFE38B304EB8708F5
:10084000303DC8F8185019E059F8041B204604EB55
:1008500087029161E1688847012F054618D1E06958
:10086000002820DA26F020061DE0D8F8180000EB5A
:10087000800005EB40003038C8F818002046E168D9
:100880008847054604F0A3FE0028EED1012F0AD0C8
:100890002E2D08D12046E16888477F1C0546022F8F
:1008A00046F02006C4DBA069002803DA404246F087
:1008B0000106A061F00701D026F010066C2D0BD0C8
:1008C000682D09D04C2D39D06A2D35D0742D35D0F6
:1008D0007A2D33D016E038E0E1682F46204688476D
:1008E000B842054609D16C2F26D04FF48060E168EC
:1008F000064320468847054604E06C2F1AD04FF483
:10090000807006430DB3A5F14100192802D82035A7
:1009100046F400664A462946204626604E46FFF7C2
:100920008BFC80B101280BD0F61D26F0070000F1EA
:10093000080956E74020E4E78020D8E70020D6E702
:1009400006F104094DE7284652E7206ABDE8F09F0A
:10095000957C000030B505460B462A4613F8014B3E
:1009600012F8010B08B1A042F8D01CB1002802D047
:100970006D1CF1E7284630BD10B5431C02E010F8AD
:10098000011B71B18107FAD14FF0013202C88C1AF4
:100990008C4314EAC211F9D0C01A0A0603D0C01E53
:1009A00010BDC01A10BD0A0401D0801E10BD09027E
:1009B000FCD0401E10BD40EA010370B59B072ED14C
:1009C0004FF00136042A2AD308C810C99D1B9D4345
:1009D000121F15EAC61517D0D8B2E1B2401A50EA74
:1009E000056110D198B2A1B2401A50EA05410AD16E
:1009F00023F07F4024F07F41401A50EA052102D1C4
:100A0000180EA0EB146070BDA342DBD018BA21BA57
:100A1000884201D9012070BD4FF0FF3070BD0AB986
:100A2000002070BD10F8013B11F8014B63B1A342E7
:100A30000AD1521E08D010F8013B11F8014B1BB12E
:100A4000A34201D1521EEDD1181B70BD032A40F202
:100A5000308010F0030C00F0158011F8013BBCF160
:100A6000020F624498BF11F801CB00F8013B38BF78
:100A700011F8013BA2F1040298BF00F801CB38BF86
:100A800000F8013B11F0030300F02580083AC0F0A4
:100A9000088051F8043B083A51F804CBA0E808104C
:100AA000F5E7121D5CBF51F8043B40F8043BAFF37F
:100AB0000080D20724BF11F8013B11F801CB48BFD9
:100AC00011F8012B24BF00F8013B00F801CB48BF0F
:100AD00000F8012B704710B5203AC0F00B80B1E848
:100AE0001850203AA0E81850B1E81850A0E8185063
:100AF000BFF4F5AF5FEA027C24BFB1E81850A0E86C
:100B0000185044BF18C918C0BDE810405FEA827C85
:100B100024BF51F8043B40F8043B08BF7047D2079C
:100B200028BF31F8023B48BF11F8012B28BF20F83D
:100B3000023B48BF00F8012B704702F0FF0343EA75
:100B4000032242EA024200F002B84FF000020429F8
:100B5000C0F0128010F0030C00F01B80CCF1040CEC
:100B6000BCF1020F18BF00F8012BA8BF20F8022B20
:100B7000A1EB0C0100F00DB85FEAC17C24BF00F8C6
:100B8000012B00F8012B48BF00F8012B70474FF0F4
:100B9000000200B5134694469646203922BFA0E8CD
:100BA0000C50A0E80C50B1F12001BFF4F7AF0907D9
:100BB00028BFA0E80C5048BF0CC05DF804EB8900CA
:100BC00028BF40F8042B08BF704748BF20F8022B0D
:100BD00011F0804F18BF00F8012B704710B5044684
:100BE00010F0030F08BF11F0030F40F015804FF015
:100BF000013E121FC0F20E8051F8043BA3EB0E0C15
:100C00002CEA030C1CEACE1C08BF40F8043BF0D0D1
:100C1000A1F1040102F10402521E08DB11F8013BAC
:100C2000002B00F8013BF7D11146FFF78EFF20465D
:100C300010BD704770477047704730B5B0F10A0279
:100C40004FEA900E71F100034EEA817EB0EB0E0088
:100C500061EB91014FEA101E4EEA017E10EB0E008F
:100C600041EB11114FEA102E4EEA016E10EB0E000F
:100C700041EB11214FEA104E4EEA014E10EB0E00EF
:100C800041EB1141401841F100014FEAD00040EA28
:100C900041704FEAD10110EB80054FEA810444EA2C
:100CA000907444EB01046D1944EB0404521BA341FE
:100CB0004FF0000348BF0A3200D530BD401C41F15F
:100CC000000130BD09684A0501D540B27047C90529
:100CD000FCD500B2704709684A0501D5C0B270471B
:100CE000C905FCD580B270472DE9F0470D469946FD
:100CF0009246044600F124080168880604D5E0699C
:100D000021F01001216000E00120A84201DD471B15
:100D100000E00027A1697A1902EB0900081AA06116
:100D20002078C00602D42046FFF73CFC002608E0ED
:100D3000D4E901211AF806009047206A401C761C6D
:100D400020624E45F4DB2078C0060AD52046FFF726
:100D500029FC06E0D4E9012130209047206A401C9C
:100D60002062381EA7F10107F4DC07E0D4E9012175
:100D700018F805009047206A401C2062281EA5F143
:100D80000105F3DC2046FFF723FC2078000602D59E
:100D90000220BDE8F0870120FBE711680268006AC5
:100DA000530501D508700AE0D30501D5088006E097
:100DB000130603D5C217C1E9000200E00860012054
:100DC0007047000001694A1C02610878704700B54D
:100DD0008FB0CDE901310021059105497944CDE974
:100DE000031011466846FFF7F1FC0FB000BD00008C
:100DF000E5FFFFFF0A6802F8010B0A607047D1E9BE
:100E000000239A4202D2531C0B601070704710B539
:100E1000436913B1AFF3008001E0FFF7EAFB012063
:100E200010BD127800F124010A7000224A700122DC
:100E3000EDE711684FF0FF32E9E700002DE9FF5FB1
:100E400015468A460446DFF8AC80F8440027D8E906
:100E500000103E46CDE9001010E03AF816106A4640
:100E600002A800F025FC411C07D02178890603D593
:100E7000E269391891420DD80744761C2078800623
:100E800002D5E069B84205DDAE42E6DB3AF816006D
:100E90000028E2D1A069C01BA0612046FFF782FBB9
:100EA000D8E90010CDE90010002017E03AF818103A
:100EB0006A4602A800F0FCFBB0F1FF3F81460BD070
:100EC00000250DF1080B05E0D4E901211BF8050010
:100ED00090476D1C4D45F7D308F10100B0428046A4
:100EE000E4DB206A384420622046FFF771FBBDE84E
:100EF000FF9F00003A76000030B4002100F1240486
:100F000008E002F00705D208303542EA4372DB08F8
:100F10006554491C52EA0305F3D10468002310A26A
:100F2000250707D5A40600D421B1C46901230DA269
:100F3000641EC46130BCFFF7D7BE10B5044621461D
:100F40001068FFF7C8FE02462046BDE810400023A7
:100F5000D2E7D21D22F00701D1E90023CCE700003F
:100F6000000000003000000070472DE9FF4F0C46E4
:100F70001E464FF0FF378BB0D2E90001DDF86080EC
:100F80000A908A46C1F30A5505B93D460021084634
:100F90004FF00000BAF1000F00F4400005DA00EB5A
:100FA00080004FF4400101EA50004FEA9059B9F136
:100FB000010F00DDB9460A9850EA4A000ED044F607
:100FC0001050A5F2FF3545432F14B8F1000F1ED085
:100FD0007542291E1EDDC9F100021CE0B8F1010FA7
:100FE0004FF0000001D0302103E0F24305E021542E
:100FF000401CB042FBDB30460022002121540B99FB
:10100000C1F80880C1E900200FB0BDE8F08FBD1B1A
:101010006D1CDEE74A4600DA694206A800F0DAFBFA
:1010200006AB93E8070003AB83E8070050460A9934
:1010300000F090FC8DE80700A0F500501F380090EC
:101040000398002D0ADD42F21F014A46084400239E
:1010500003A90390684600F0F9FE09E0A0F50050EE
:101060004A461F38002303A90390684600F003FF97
:101070008DE807000004000C03D04FF0FF3041085A
:1010800000E01046B8F1000F03D000220092154690
:101090001EE0751E05D4FFF7D0FD303262556D1E7F
:1010A000F9D5B3460122084302D000227F1C04E098
:1010B0002078302801D100227F1E002A099784D091
:1010C0001DE0112D07DAFFF7B8FD303262556D1CB7
:1010D00050EA0102F5D1084302D00098C8B10EE0F1
:1010E0000021681E05E0235C625C63542254401EAC
:1010F000491C8142F7DBAB46A81B401E099000202B
:1011000004F80B000B98099AC0F80880C0E9002B7E
:101110007AE711264FF0000857E72DE9F04F88468F
:101120000446D21D22F0070191B0D1E90001CDE9BA
:101130000A0104F024FA02460B98C00F01D02D20BA
:1011400007E02068810701D52B2002E0202101EA79
:10115000C000032A099001D0072A05DB0346414657
:10116000204600F0F7FA0BE12078800601D5E0690F
:1011700000E00620B8F1650F814606D0B8F1660F91
:1011800018D0B8F1670F70D131E00020B9F1110F1C
:10119000009001DB112301E009F101030AAA01A972
:1011A0000CA8FFF7E2FEDDE90C70002609F101054D
:1011B000834647E001204B4600904FF000470AAAC3
:1011C00001A90CA8FFF7D1FEDDE90DB00C995D4631
:1011D000002610B909F101000D18B9EB050003D480
:1011E000C0F1FF3609F10105A5EB09002BE0B9F1CB
:1011F000010F01DA4FF001090020B9F1110F009041
:10120000484601DD112300E003460AAA01A90CA803
:10121000FFF7ABFEDDE90C704D46002683462078D3
:1012200000070AD4AB4500DA5D4601A8012D04DDB4
:10123000411911F8011C302907D04F4502DA17F186
:10124000040F04DA012082460FE06D1EEEE7002F46
:1012500002DCED1B3E4403E0781CA84200DD7D1C4F
:10126000B81B00F1010A4FF000472078000703D4B3
:10127000AA4501DB4FF0FF3A0021B7F1004F0DF115
:1012800043088DF8431024D002202B23002F01DACD
:101290007F422D230A21021EA0F1010000DC5FB174
:1012A00097FBF1FC97FBF1F201FB1C7C17460CF15C
:1012B000300C08F801CDEEE7A8F101000370218899
:1012C000090501D5452100E06521A0F1010800F8DC
:1012D000011C09980FA9A1EB0807FF1D00B101200F
:1012E000411901EBEA70A1693844081A401EA06157
:1012F0002078C00602D42046FFF754F9099828B197
:10130000D4E901219047206A401C20622078C00661
:1013100022D52046FFF746F91EE0002E04DBB34538
:1013200002DD01A8805D00E03020D4E90121904772
:10133000206A401C2062761CAAF101005FEA000AC4
:101340000AD100F003FAC0680168405CD4E90121C9
:101350009047206A401C2062281EA5F10105DCDCB4
:1013600007E0D4E9012118F8010B9047206A401CDE
:101370002062381EA7F10107F3DC2046FFF728F9A9
:10138000032011B041E600002DE9F04F04460D4660
:10139000D21D22F0070089B0D0E9009748463946AF
:1013A00004F0EDF80246F80F01D02D2307E0206885
:1013B000810701D52B2302E0202101EAC0038DF82B
:1013C00020300BB1012000E00020032A824601D02A
:1013D000072A04DB2946204600F0BCF93FE12078CB
:1013E000800601D40D2500E0E569C7F30A560D2DEE
:1013F00049DA00214FEA175B08464FF00000002F42
:1014000000F4400007DA00EB80004FF4400100EBED
:10141000D07001EA60008115012901DD4FF0FF3134
:1014200000224FEA850CBCF1180F06D31346ACF12D
:1014300018004FF08052C24003E04FF4801323FAAB
:101440000CF30CF10C0CBCF1200F04D3ACF1200C0C
:1014500009FA0CF001E007FA0CF000294FF00048FF
:1014600001DD18B90FE00ED140450CD319EB02098C
:101470005F4121B9404502D19F4329EA0209BBEBF4
:10148000175F00D0761C2088000502D57B48784481
:1014900002E07A487844193808AA302302F80A3062
:1014A000037C0AF10101002E0AF1020A53546A4634
:1014B00002DC4FF0300101E04FF031014FF0010844
:1014C0008DF8001002D0A6F2FF3603E059EA47017A
:1014D00000D06B4E002D02DC2178090704D54FF0B7
:1014E00002082E218DF80110C44600210BE0C7F33D
:1014F00003433F01C35C491C6D1E02F808300529F7
:1015000008F1010801DA002DF1DC00210CE000EB0C
:101510001973491C1B786D1E082902F808304FEA20
:10152000091908F1010801DA002DF0DC21688B06A9
:1015300002D516E0A8F10108E04505DD02EB08033D
:1015400013F8013C302BF5D0B8F1000F09DD02EBA8
:10155000080313F8013C2E2B03D1090701D4A8F18D
:101560000108002D05DD3E2102F808106D1E08F16E
:101570000108407C002E02F8080008F1010804DA96
:101580002D20764202F8080002E02B2002F8080025
:101590000A214FF47A70864208F101080BDB96FBB2
:1015A000F0F3303302F8083096FBF0F308F101084D
:1015B00000FB136601E0642E0CDB642096FBF0F365
:1015C000303302F8083096FBF0F308F1010800FB15
:1015D000136601E00A2E06DB96FBF1F0303002F8CC
:1015E000080008F1010896FBF1F001FB10603030B3
:1015F00002F80800A16908F1010808EB050202EBF6
:101600000A00081AA0612078C00602D42046FEF71E
:10161000C9FF216A08AE01EB0A00206204E0D4E9A8
:10162000012116F8010B9047BAF1010AF7D2207890
:10163000C00602D52046FEF7B5FF6E4609E016F853
:10164000010B3E280FD0D4E901219047206A401CAD
:101650002062B8F10108F2D22046FEF7B9FF09B0C6
:101660000320BDE8F08F206A2844206203E0D4E91B
:101670000121302090476D1EEBD3F8E71170000078
:1016800002FCFFFF10B5436913B1AFF3008001E026
:10169000FFF7D4FB012010BD128800F124018284E1
:1016A0000022C2840122EDE711684FF0FF32E9E722
:1016B00070B516460C46054600F040F8036893F8EE
:1016C0000101012806D0FF2C0FD8185D68B1012058
:1016D0002C7070BDD3F807013246214603F2071380
:1016E00003442846BDE8704018474FF0FF3070BDF6
:1016F000754600F0EBF8AE4605006946534620F00B
:101700000700854618B020B5FEF770FEBDE8204002
:101710004FF000064FF000074FF000084FF0000BAD
:1017200021F00701AC46ACE8C009ACE8C009ACE860
:10173000C009ACE8C0098D467047000010B500F044
:1017400005F8001D10BD00BF3D6A0000004870474D
:10175000A85A00202DE9F0411F46044603260168DF
:10176000072A01F4006004DB08B116A505E016A500
:1017700003E008B115A500E015A521F010002060D8
:10178000A069C01EA0610FB1401EA0612046FEF7F7
:1017900009FF4FB1D4E9012138469047206A401C27
:1017A0002062C01C206206E0206AFAE7D4E9012129
:1017B00015F8010B9047761EF8D22046FEF708FF79
:1017C000BDE8F0814E414E006E616E00494E46000C
:1017D000696E66002DE9F047814616468AB03548A5
:1017E00078440DC88DE80D0032487844801C03AC65
:1017F0000DC884E80D0041F69B300844372190FB6A
:10180000F1F290FBF1F5A5F1800501FB12041B3C00
:1018100002D56442012000E00020DFF898A0804655
:101820000027FA44AAF1BE0A0EE0E0070AD03246C9
:10183000684607EB470101230AEB810100F01BFB1F
:101840008DE8070064107F1C002CEED1194F7F44F7
:10185000AE3F19E0E80715D007EB04100DF1180AA8
:1018600090E80E008AE80E00C068F04201D1981995
:1018700008903246012306A903A800F0FCFA03AB46
:1018800083E807006D10641C002DE3D14FF00103C5
:1018900032466946B8F1000F03A802D000F0D6FA2C
:1018A00001E000F0E8FAC9E90001C9F808200AB02F
:1018B000BDE8F087506D000010B50446AFF300801E
:1018C0002046BDE81040FEF71CBD000000487047F0
:1018D000885A00204FF0013C50F8042B51F8043B8B
:1018E0009A4221D1A2EB0C03934313EACC1317D1F4
:1018F00050F8042B51F8043B9A4215D1A2EB0C038B
:10190000934313EACC130BD150F8042B51F8043B4A
:101910009A4209D1A2EB0C03934313EACC13DBD018
:101920004FF00000704700BFD01A01BAB1FA81F140
:1019300001F0180122FA01F0CB40C1F12001DBB225
:10194000C0B2C01A2CFA01F3D11A914311EAC311A3
:10195000E6D170475FEA400C08BF91F0000F4FEAF4
:101960008C234FEAC12243EA51514FEA1C5018BF61
:1019700000F5F0404FEA300018BF41F000415FEA47
:101980006C5C00F02980BCF1FF3F08BF40F0804054
:101990007047130C06BF12044FF0100C4FF0000CF0
:1019A000130E04BF12020CF1080C130F04BF120136
:1019B0000CF1040C930F04BF92000CF1020CD30F36
:1019C00004BF52000CF1010C11464FF00002A0F1CF
:1019D0001F00A0EB0C00704711F0004F08BF7047CC
:1019E00031F000413FF4D5AF0B0C06BF09044FF0B6
:1019F000100C4FF0000C0B0E04BF09020CF1080C88
:101A00000B0F04BF09010CF1040C8B0F04BF8900FC
:101A10000CF1020CCB0F04BF49000CF1010CCCF10E
:101A20002003A0EB0C0022FA03F302FA0CF241EAC5
:101A3000030100F10100704720F07F4C80EA0300B1
:101A400023F07F47ACEB070303F57C5300F0004025
:101A500003F1FF032DE980494FEA154B09B44FEA22
:101A6000144325EA0B4E24EA03480FF2042606EB42
:101A7000132749083E785FEA320203FB0667C7F581
:101A8000000707FB06F64FEA54374FEAD64606F141
:101A9000020607FB066CCCF1005C4FEA1C472CEAFF
:101AA000074C07FB06F40CFB06F504EB15464FEA62
:101AB000961634BF00204FF000404FEAD13706FBA6
:101AC00007FC4FEA1C4C0CFB0BF7D21B03FB0CF77B
:101AD00061EB07010CFB0EF7B0EB074072EB17420E
:101AE0000CFB08F734BFA2EB0742B2EB074261EBF5
:101AF00017414FEA0C444FEA910706FB07FC4FEAF7
:101B00001C4C0CFB0BF7B0EBC74072EB573203FBDE
:101B10000CF734BFA2EBC742B2EBC74261EB5731BF
:101B20000CFB0EF7B0EBC70072EB57720CFB08F71B
:101B300034BFA2EBC702B2EBC70261EB5771039F40
:101B40004FEA816141EA921104EBCC044FEAD137AC
:101B50004FEA826206FB07FC42EA90124FEA80607D
:101B60004FEA1C4C0CFB0BF7D21B03FB0CF761EB91
:101B700007010CFB0EF7B0EB074072EB17420CFBB2
:101B800008F734BFA2EB0742B2EB074261EB174103
:101B90004FEA8C554FEA910704EB9C2406FB07FCA7
:101BA0004FEA1C4C0CFB0BF7B0EBC74072EB573203
:101BB00003FB0CF734BFA2EBC742B2EBC74261EBA9
:101BC00057310CFB0EF7B0EBC70072EB57720CFBF2
:101BD00008F734BFA2EBC702B2EBC70261EB577143
:101BE00015EB4C254FEA816141EA92114FEA82627E
:101BF0004FEAD13742EA901206FB07FC44F1000499
:101C00004FEA80604FEA1C4C0CFB0BF7D21B03FB26
:101C10000CF761EB07010CFB0EF7B0EB074072EB22
:101C200017420CFB08F734BFA2EB0742B2EB0742A6
:101C300061EB174115EB1C154FEA813141EA9241E6
:101C40004FEA823242EA90424FEA80304FEA0C7605
:101C500044F1000448EA03434EEA0B484FF0000EFB
:101C6000B2EB080C71EB030724BF624639464EEB1A
:101C70000E0E4FF0000B0018524149414BEB0B0B7D
:101C8000B2EB080C71EB03077BF1000B24BF62463B
:101C900039464EEB0E0E4FF0000B001852414941F1
:101CA0004BEB0B0BB2EB080C71EB03077BF1000B5A
:101CB00024BF624639464EEB0E0E51EA020718BFAA
:101CC00046F0010616EB0E7655F1000254F10001C4
:101CD00003D5BDE88901BDE80088BDE88901BDE8FC
:101CE0000048B619524141EB0101A3F101037047CD
:101CF00080807F7E7D7C7B7A797877767675747349
:101D0000727171706F6E6E6D6C6C6B6A6A69686807
:101D1000676666656464636362616160605F5F5E9D
:101D20005E5D5D5C5C5B5B5A5A5959585857575613
:101D30005655555554545353525252515150505078
:101D40004F4F4F4E4E4D4D4D4C4C4C4B4B4B4A4ACA
:101D50004A4949494848484747474746464645450E
:101D60004544444444434343434242424241414147
:101D7000002B9C4630D477002BD01CB54FEA370798
:101D800003B44FF010004FF01001BAF1000F06D06D
:101D9000BCF1000FDCBF40F0080040F008014FF03C
:101DA00000000FBCBDE810400BF1010BBBF1010FAF
:101DB00008BF5FEA170722BF12F1010211F101010A
:101DC0004FF0004143F1000300F0004043EA0000FF
:101DD0007047F9D35708D0E746EA064613F1400F9B
:101DE0004FEA16461FDD13F1200FDFBF16430A46E8
:101DF000002120335B42BED0C3F1200746EA0646ED
:101E000002FA07F74FEA164646EA0706C3F120072B
:101E100022FA03F201FA07F721FA03F14FF0000367
:101E200042EA0702A7E746EA020646EA06464FEA02
:101E3000164646EA0106BCBF46EA0646360C4FF097
:101E400000034FF000024FF0000194E72DE9804CB1
:101E50009A46934670B491E8380007C831EA400CBE
:101E600048BF34EA430C03D5FFF7E6FDFFF780FFD8
:101E7000F0BCBDE8008C2DE9804C9A46934670B4C6
:101E800091E8380007C810F0804F08BF13F0804F6A
:101E900003D100F005F8FFF76BFFF0BCBDE8008C44
:101EA00020F07F4780EA030023F07F4C07EB0C0310
:101EB000A3F57C5300F00040A3F1FE0392F0000F65
:101EC00000F0B38095F0000F00F077802DE9014914
:101ED0004FEA11404FEA144621EA004800FB06FC95
:101EE00024EA064708FB06F607FB08F800FB07F79D
:101EF00018EB06484CEB164C4FEA124B18EB074810
:101F00004FEA15464CEB174022EA0B4E0BFB06FC42
:101F100025EA06470EFB06F607FB0EFE0BFB07F74E
:101F20001EEB064E4CEB164C4FF000061EEB074E18
:101F30004CEB174B18EB0B0840F1000018EB0E0BA5
:101F400058EB000840F100008F1A4FF000013CBF31
:101F5000C943661B14BFB5EB040C00213CBFC94349
:101F6000F61B4FEA17444EEA8E0E27EA04454FEA65
:101F70001C4704FB07622CEA074C05FB07F70CFB28
:101F800005F604FB0CFC16EB074642EB174216EB7A
:101F90000C4642EB1C421BEB060658EB0202414189
:101FA00046EA9E0601D5BDE80189B619524141EBCA
:101FB0000101A3F10103BDE801894FEA14454FEA8D
:101FC000114724EA054621EA074C05FB07F406FB06
:101FD00007F70CFB06F105FB0CFC11EB074144EB8A
:101FE00017444FEA124711EB0C4144EB1C4422EA20
:101FF000074C05FB07F206FB07F70CFB06F605FB93
:102000000CFC16EB074642EB174216EB0C4642EB74
:102010001C456A1854F1000148BF7047B619524177
:1020200041EB0101A3F10103704795F0000F37D098
:102030004FEA11424FEA144721EA024624EA074CCC
:1020400002FB07F106FB07F70CFB06F402FB0CFC96
:1020500014EB074441EB17414FEA154714EB0C44CE
:1020600041EB1C4125EA074C02FB07F506FB07F78D
:102070000CFB06F602FB0CFC16EB074645EB17457E
:1020800016EB0C4645EB1C42121951F1000148BFFA
:102090007047B619524141EB0101A3F101037047AA
:1020A0004FEA14454FEA114724EA054621EA074C56
:1020B00005FB07F106FB07F70CFB06F24FF00006E5
:1020C00005FB0CFC12EB074241EB174112EB0C42F3
:1020D00051EB1C4148BF7047921841EB0101A3F13D
:1020E0000103704770B50C4605460122D10305482F
:1020F00000F0C8FF22462946BDE87040024802F0C1
:1021000053B90000000802405C0C002010B500220A
:102110004FF40041044800F0B5FFBDE81040102224
:102120000249034802F086B800080240F40D00207E
:102130005C0C0020FEE70000014800F072BA0000CD
:10214000BC0A0020014800F06CBA0000E40A00203C
:1021500010B500F063F8084800F09BFC0221064827
:1021600000F04BF9054800F094FCBDE81040022156
:10217000024800F042B90000BC0A0020E40A002036
:102180001CB5104C0146206800281AD00023221DDF
:1021900005F0A2FC012809D00BA14020CDE90001E7
:1021A000134B14A218A1022003F048FD6068002818
:1021B00007D017494FF080500860BFF34F8FBFF32F
:1021C0006F8F1CBD60000020496E736572742044DF
:1021D00061746520746F205278205175785175654F
:1021E0007565206973206E6F74204F4B0A000000E4
:1021F0002D8400082E2E5C6170705C6170705F63CE
:10220000616E2E63000000004150505F43414E005C
:1022100004ED00E0012004F07FFBFBE7F0B58DB09A
:10222000002501260895CDE90956039504950595E5
:1022300006950E2707952C4603A92348CDE90B6781
:1022400000F0EEF858B121A14720CDE90001284B5C
:1022500028A22EA1012003F0F1FC012509E02D495F
:102260004C20CDE90001224B22A228A1032003F03B
:10227000E5FCCDE909460394049405941C200694DA
:10228000CDE90B60CDE9074703A9234800F0C8F862
:1022900058B122A16720CDE90001154B15A21BA161
:1022A000012003F0CBFC01250AE025486C21CDE993
:1022B00000100F4B0FA2029714A1032003F0BEFCE5
:1022C0000DB02846F0BD0000BC0A00204661696CD4
:1022D000656420746F20636F6E6669677572652030
:1022E00043414E312066696C746572210000000024
:1022F000C28100082E2E5C436F72655C5372635C72
:102300006273705F63616E2E630000004253505F22
:1023100043414E004C850008E40A00204661696C88
:10232000656420746F20636F6E66696775726520DF
:1023300043414E322066696C7465722100000000D2
:1023400090850008014800F031BC00004C0D0020D1
:1023500001681823CAB2103AB2FBF3F2054B6FF3CF
:102360000901032A9B5CC36500D9091D81650846E4
:10237000704700004582000810B5014600208B69B7
:102380008A6A4FF0C07453B1B3F5005F15D072B1D3
:10239000012A0CD0022A0AD0032A09D104E01AB17A
:1023A000012A06D0022A03D1C96AC90100D5012039
:1023B00010BDC96AA142FAD010BD002AF7D0012A87
:1023C000F2D0022AF3D0032AF3D010BD30B504684E
:1023D000256825F480252560046863608368402BA8
:1023E000036803D099600068C26030BD9A600068DD
:1023F000C16030BD704772B6FEE790F82020012A18
:1024000007D0022A05D0416A41F4802141620120AF
:102410007047006842690A4342610020704700002B
:1024200010B590F82020012A07D0022A05D0416A71
:1024300041F480214162012010BD3B48D0F80022C8
:1024400042F00102C0F80022D0F8002222F47C52AF
:10245000C0F80022D0F800224B6A42EA0322C0F8FA
:1024600000220A7D02F01F0301229A40D0F81C329C
:102470009343C0F81C32CB69B3B9D0F80C32934304
:10248000C0F80C328C894B6864F31F434C6900EB35
:10249000C404C4F840320C890B6864F31F434C69D0
:1024A00000EBC404C4F84432CB69012B16D1D0F838
:1024B0000C321343C0F80C320C884B6864F31F4392
:1024C0004C6900EBC404C4F840320C89CB6864F357
:1024D0001F434C6900EBC404C4F844328B69002BE1
:1024E000D0F804320ED01343C0F804320B69002B2D
:1024F000D0F8143208D01343C0F81432096A012905
:1025000004D008E09343EFE79343F5E7D0F81C12BB
:102510001143C0F81C12D0F8001221F00101C0F8DC
:102520000012002010BD000000640040704770B52C
:1025300090F82040012C05D0022C03D0416A41F4D0
:10254000802128E0046809B32469A40720D04FF44F
:10255000D874056804EB01142D5915F00405956035
:1025600005682D591AD0ED08556005682C5904F0FE
:102570000204D4604FF4DA74056804EB01142E5998
:1025800006F00F06082E0CD308250DE0E468DCE702
:10259000416A41F400114162012070BD6D0D15606A
:1025A000E3E72D5905F00F05156105682D59C5F3B1
:1025B0000725956105682C59240C54614FF4DC7291
:1025C000046802EB0112A4581C700468A458240A81
:1025D0005C700468A458240C9C700468A258120E05
:1025E000DA704FF4DE72046802EB0112A4581C7119
:1025F0000468A458240A5C710468A458240C9C71D3
:102600000468A258120EDA71006829B1016941F01C
:1026100020010161002070BDC16841F02001C1604E
:10262000F8E72DE9F05F0546006800244669D0F818
:1026300004908768D0F80CB0D0F810A0D0F81880BB
:10264000F10748D0F90714D001218160B80703D5FC
:10265000284600F04AFA0CE0780702D54FF40064EF
:1026600007E0380702D54FF4805402E0284600F016
:102670003BFAF80516D529684FF480708860B805D4
:1026800003D5284600F033FA0CE0780502D544F46F
:10269000005407E0380502D544F4804402E028469F
:1026A00000F024FAF80316D529684FF480308860CA
:1026B000B80303D5284600F01CFA0CE0780302D5D5
:1026C00044F4004407E0380302D544F4803402E0C7
:1026D000284600F00DFA300707D55FEACB6004D535
:1026E0002968102044F40074C86070074FF0080790
:1026F00007D55FEA0B7004D52868C760284600F04C
:102700009BF9B00706D52868C068800702D0284624
:1027100000F094F9700607D55FEACA6004D529680D
:10272000102044F480640861B00607D55FEA0A709F
:1027300004D528680761284600F0A8F9F00606D5F8
:1027400028680069800702D0284600F0A0F9B0038D
:1027500008D55FEAC96005D5296810204860284679
:1027600000F096F9F00307D55FEA097004D52868F0
:102770004760284600F0BEF9300446D55FEA49704C
:1027800040D5F00504D55FEAC87001D044F00104DB
:10279000B00504D55FEA887001D544F002047005E5
:1027A00004D55FEA487001D544F00404300529D50A
:1027B00018F0700F26D008F07000402815D006DC05
:1027C000102809D020280AD0302816D10AE0502835
:1027D0000ED0602811D10EE044F008040DE044F062
:1027E00010040AE044F0200407E044F0400404E050
:1027F00044F0800401E044F480742868816921F089
:1028000070018161296804204860002C05D0686A45
:10281000204368622846FFF789FEBDE8F09F70B547
:10282000040003D094F8200010B104E0012070BD32
:10283000204600F081F82068016841F00101016044
:1028400000F026FC0546052604E000F021FC401BB4
:102850000A2811D820684068C007F6D020680168AF
:1028600021F00201016000F013FC05460BE000F0CE
:102870000FFC401B0A2806D9606A40F400306062F1
:1028800084F82060D2E7206840688007EFD4207E7B
:102890000128206801683DD021F080010160607E40
:1028A00001282068016838D021F040010160A07E35
:1028B00001282068016833D021F020010160E07E0A
:1028C0000128206801682ED041F010010160207FAE
:1028D00001282068016829D021F008010160607F8B
:1028E00001282068016824D021F004010160D4E9A6
:1028F00002010843D4E90412114308436168491EE8
:1029000008432168C86100206062012084F820002B
:10291000002070BD41F08001C0E741F04001C5E7F3
:1029200041F02001CAE721F01001CFE741F0080192
:10293000D4E741F00401D9E72DE9F04387B004461C
:1029400014216846FEF723F93749384ADFF8D48066
:102950000868D4F800C0354B022403250926DFF8A7
:10296000D09010320027401CC44523D108600128B4
:1029700007D1106840F000701060106800F000701F
:102980000590186840F0020018601868694600F069
:10299000020005904FF440708DE89100CDE9035698
:1029A000484600F087FA00220521142000F00EFCB2
:1029B000142032E0DFF87C80C44530D1D2F800C06A
:1029C0004CF0806CC2F800C0D2F800C001280CF0B6
:1029D000806CCDF814C0086007D1106840F000701A
:1029E0001060106800F000700590186840F0020058
:1029F00018601868694600F0020005904FF44050D6
:102A00008DE89100CDE90356484600F053FA0022C4
:102A10000521402000F0DAFB402000F0C9FB07B0A0
:102A2000BDE8F083006400400C0000203038024014
:102A300000040240006800407047000070B5114C6F
:102A40000546631CA4F11C020021FFF770FD00285D
:102A500016D1A4F11C00816801B10121217009B1D6
:102A6000416800E001680848E160854201D1012029
:102A700000E002202074BDE870400248FFF780BBF0
:102A800070BD0000A80A0020BC0A002070477047F3
:102A9000704770B5044690F82000012804D0606AA1
:102AA00040F40020606217E0022084F820002068D3
:102AB000016821F00101016000F0EAFA05460DE02D
:102AC00000F0E6FA401B0A2808D9606A40F400309A
:102AD0006062052084F82000012070BD20684068F5
:102AE000C007EDD1606270BD704770477047704796
:102AF0007047704770472DE9F0410446876D00F03C
:102B0000C7FA054694F835000026022806D0802032
:102B1000606584F834600120BDE8F08120680168B8
:102B200021F0160101602068416921F080014161B6
:102B3000206C08B9A06C20B12068016821F0080160
:102B400001602068016821F0010101600CE000F0E3
:102B50009FFA401B052807D920206065032084F8D0
:102B6000350084F83460D7E720680068C007EED1EC
:102B700094F85C103F208840B860012084F835004C
:102B800084F834600020C7E790F83510022903D09C
:102B90008021416501207047052180F835100068CB
:102BA000016821F001010160002070472DE9F84320
:102BB00004464FF00009CDF8009063484FF41651D9
:102BC000A56D0068B0FBF1F72E6894F85C20082131
:102BD00001FA02F030420FD02068026852070BD58C
:102BE000026822F00402026094F85C008140A9604F
:102BF000606D40F00100606594F85C104FF00108D2
:102C000008FA01F0304208D021684969090604D564
:102C1000A860606D40F00200606594F85C100420CC
:102C20008840304208D021680968890704D5A86027
:102C3000606D40F00400606594F85C1010208840DE
:102C4000304218D021680968090714D5A8602068A7
:102C50000168490304D50068000308D5A16C07E0AA
:102C60000168C90503D4016821F008010160216CE5
:102C700009B12046884794F85C10202088403042F3
:102C800031D021680968C9062DD5A86094F83500AF
:102C900005282068016806D0490347D5006800036D
:102CA0001DD4616C1CE021F01601016020684169AF
:102CB00021F080014161206C08B9A06C20B120682E
:102CC000016821F00801016094F85C103F20884001
:102CD000A86084F8358084F83490216D1FE0E16BA2
:102CE00009B120468847606D00282BD0606DC00771
:102CF00014D0052084F835002068016821F0010116
:102D000001600098401C0090B84203D82068006819
:102D1000C007F6D184F8358084F83490E16C00293E
:102D200010D001B02046BDE8F04308470168C9054E
:102D3000D5D4016821F01001016084F8358084F851
:102D40003490CCE7BDE8F883200000202DE9F04165
:102D5000044600F09DF905465CB1022084F8350078
:102D6000002684F834602068016821F001010160C8
:102D70000DE00120BDE8F08100F08AF9401B052834
:102D800005D920206065032084F83500F2E720682B
:102D90000068C007F0D121680A6820480240D4E9E1
:102DA00001031843D4E903352B43184363691843DF
:102DB000A3691843E3691843236A18431043626AFE
:102DC000042A03D1D4E90B231A4310430860206876
:102DD0004069656A20F0070128460D430127042851
:102DE0000CD1A06A0543E06A40B12046FFF7C4FA5F
:102DF00020B14020606584F83570BAE720684561ED
:102E00002046FFF7A5FA94F85C203F2191408160AD
:102E1000666584F835700020ACE700003F8010F054
:102E20002DE9F0410446866D90F834000025012814
:102E30000DD0012084F8340094F835700020012F63
:102E400007D084F8340002252846BDE8F08102202E
:102E5000FBE7022784F8357060652046FFF7B6FA75
:102E600094F85C103F208840B0602068016841F011
:102E700016010160206C20B12068016841F0080152
:102E800001602068016841F001010160DCE7000099
:102E900070B5044600F0FCF80546601C02D00448FA
:102EA0000078044400F0F4F8401BA042FAD370BD4F
:102EB000140000202DE9F84FDFF890910022A9F1CD
:102EC000040B03274FF00F0C09F1040AABF1040EB9
:102ED00001250B6895402B40AB426ED10C7904F074
:102EE0000304012C01D0022C15D18668540007FA86
:102EF00004F826EA0806D1F80C8008FA04F848EA33
:102F00000608C0F808804468AC430D79C5F3001585
:102F10009540254345600C79E443A40708D0C56873
:102F2000540007FA04F6B5438E68A6402E43C660E7
:102F30000C7904F00304022C11D1D40800EB8406B0
:102F4000356A5407E40E0CFA04F825EA0805D1F8AE
:102F5000108008FA04F848EA0508C6F820800568D9
:102F6000540007FA04F6B5430E7906F00306A640AE
:102F70002E4306604C6814F4403F61D0344C256801
:102F800045F480452560246822F0030504F480445C
:102F90000094304C05EB0408D8F808589407260F25
:102FA0000CFA06F4A5432C4CA04201D100241FE0EA
:102FB0002A4CA04202D101241AE041E0284CA04250
:102FC00001D1022414E0274CA04201D103240FE0D8
:102FD000254CA04201D104240AE0244CA04201D196
:102FE000052405E0224CA04201D1062400E007247C
:102FF000B4402C43C8F80848D9F800404D464E6804
:103000009C43F60200D51C432C60DAF8004055467C
:103010004E689C43B60200D51C432C60DBF8004090
:103020005D464E689C43B60300D51C432C60DEF819
:10303000004075464E689C43F60300D51C432C6047
:10304000521C102AFFF444AFBDE8F88F083C014041
:1030500044380240003001400000024000040240B9
:1030600000080240000C0240001002400014024020
:1030700000180240426921EA02030A4043EA024181
:10308000816170470AB1816170470904FBE7000064
:1030900001488068704700001400002002488168E1
:1030A0000278114481607047140000200B4810B56D
:1030B000016841F400710160016841F480610160C0
:1030C000016841F480710160032000F09FF80F2037
:1030D00000F006F800F050F8002010BD003C02405F
:1030E00030B505461F4887B00024016841F480715F
:1030F0000160006806A900F480700590684600F041
:1031000031F90398A8B100F04DF940001649174A6B
:10311000B0FBF1F11648491E026040F2E732C0E907
:103120000324C0E90114846100F0B8FB040003D05B
:1031300015E000F037F9E9E70D4800F007FC04005E
:103140000DD12D2000F034F8102D07D20022294691
:103150002D2000F03BF80748056000E0012407B08F
:10316000204630BD4038024040420F000020004061
:10317000AC0D0020180000200C4882B0016841F41A
:1031800080410160006800F4804000900748001F03
:10319000016841F0805101600068002200F0805019
:1031A00000900F21901E02B000F010B84438024089
:1031B000002809DB00F01F02012191404009800036
:1031C00000F1E020C0F8001170470000F0B40E4B91
:1031D0001B68C3F30223C3F10704042C00D90424A1
:1031E0001D1D072D01D2002300E0DB1E012606FA7B
:1031F00004F56D1E0D409D409E40761E164045EA2A
:103200000601F0BC02F0D3B90CED00E0064A00F074
:10321000070110684FF6FF03184040EA01200349F8
:1032200008431060704700000CED00E00000FA0554
:103230002DE9F0470D46040065D0DFF81491D9F868
:103240000000EFB200F00F00A84207D289F800702A
:10325000D9F8000000F00F00A84254D120683D4E7C
:10326000810712D5400703D5306840F4E050306044
:103270002078000703D5306840F460403060306843
:10328000A16820F0F000084330602078C0072DD0FE
:10329000304960680839012812D0022813D0032869
:1032A00011D00968890700292DDA316821F003015E
:1032B00001433160FFF7ECFE804641F2883A0EE0B0
:1032C00009688903EFE709688901ECE7FFF7E0FE89
:1032D000A0EB0801514502D90320BDE8F087306812
:1032E000616800F00C00B0EB810FEFD1D9F800104D
:1032F000484601F00F01A94207D90770006800F0A5
:103300000F00A84201D00120E7E72078400705D54B
:103310003068E16820F4E05008433060207800070E
:1033200006D53068216920F4604040EAC100306071
:1033300000F058F83168084AC1F30311515CC840E5
:103340000649086006480068FFF7CAFE0020C4E787
:10335000003C0240083802404D8200082000002056
:10336000180000200F2202600C4A136803F00303C8
:103370004360136803F0F0038360136803F4E053C1
:10338000C36012684FF4E05303EAD20202610448BA
:10339000006800F00F000860704700000838024025
:1033A000003C02400448054900680968044AC1F32A
:1033B0008221515CC840704720000020083802403C
:1033C0005D8200080448054900680968044AC1F3A1
:1033D0004231515CC840704720000020083802404C
:1033E0005D820008224810B5006810F00C012148E9
:1033F00015D0214B042911D01D4C241F08290FD0B2
:103400000C290CD1216801F03F022168490221D525
:103410002068C0F38810A0FB030120E0184610BD0F
:10342000216801F03F022168490205D52068C0F3F8
:103430008810A0FB030104E02168C1F38811A1FBFF
:1034400000010023FCF7EBFF2168C1F30141491C97
:1034500049000AE02168C1F38811A1FB00010023A3
:10346000FCF7DDFF2168C1F30271B0FBF1F010BD84
:10347000083802400024F400001BB7002DE9F84F83
:10348000040078D02078DB4EC007A6F104054ED0AA
:10349000301D0168C1F3810101290FD00168C1F31A
:1034A0008101022902D13168490207D40068C0F3C2
:1034B0008100032809D13068400206D528688003BE
:1034C00035D560680028DCD031E06068B0F5803F19
:1034D00010D0B0F5A02F286810D020F480302860DC
:1034E000286820F4802028606068A0B1FFF7D0FD34
:1034F00007460CE0286840F48030F4E740F4802070
:103500002860F7E7FFF7C4FDC01B642875D828685A
:103510008003F7D50BE0FFF7BBFD074604E0FFF79C
:10352000B7FDC01B6428F1D828688003F7D4207841
:10353000DFF8C4A280074FF0000B44D5AD48001D52
:10354000016811F00C0F0FD00168C1F3810102294D
:1035500002D13168490207D50068C0F38100032811
:103560000AD13068400207D42868800715D5E06882
:10357000012800D111E038E1E068B0B10120CAF8BB
:103580000000FFF785FD074604E0FFF781FDC01B43
:103590000228BBD828688007F7D52868216920F061
:1035A000F80040EAC10028600DE0CAF800B0FFF75B
:1035B0006FFD074604E0FFF76BFDC01B02281CD817
:1035C00028688007F7D42078000726D5DFF8248202
:1035D0008A48616908F1700881B101210160FFF733
:1035E00057FD074604E0FFF753FDC01B022804D82F
:1035F000D8F800008007F6D50FE089E0C0F800B0E9
:10360000FFF746FD074604E0FFF742FDC01B022816
:103610007ED8D8F800008007F6D42078400769D516
:1036200074484FF000093C300068C0000BD471486A
:103630003C30016841F08051016000684FF00109A1
:1036400000F0805000906E480168C90511D40168EF
:10365000804641F480710160FFF71AFD074604E0DF
:10366000FFF716FDC01B022852D8D8F80000C0058D
:10367000F6D5604FA0686C3701280FD00528386850
:1036800010D020F001003860386820F00400386065
:10369000A068B8B1FFF7FCFC80460FE0386840F046
:1036A0000100F4E740F004003860F7E7FFF7F0FCB2
:1036B000A0EB080141F28830814263D83868800766
:1036C000F4D50EE0FFF7E4FC804607E0FFF7E0FCEE
:1036D000A0EB080141F28830814253D83868800756
:1036E000F4D4B9F1000F05D042483C30016821F014
:1036F00080510160A069B0B33E49091D0968C1F35A
:103700008101022945D00228CAF860B005D000E046
:1037100038E0FFF7BDFC044637E0FFF7B9FC074689
:1037200004E0FFF7B5FCC01B02282BD828688001F5
:10373000F7D4F4E907010843E168324A490802EB8B
:103740000141A26841EA82110843217C40EA0160FC
:10375000217D40EA017030600120CAF86000FFF767
:1037600097FC044605E042E0FFF792FC001B0228AC
:1037700008D828688001F7D539E0FFF789FC001BDD
:10378000022802D90320BDE8F88F28688001F4D40C
:103790002DE00128F7D03068E26900F48001914201
:1037A00023D1226A00F03F0191421ED147F6C07139
:1037B000626A0140B1EB821F17D1A26A4FF0FF335A
:1037C00000F4403103EB5202B1EB024F0DD194F8FB
:1037D0002C2000F07061B1EB026F06D194F830102C
:1037E00000F0E040B0EB017F01D00120CBE70020EA
:1037F000C9E700000438024000004742800E4742FB
:10380000007000400000FFFF7047704770B590F8EF
:103810003C20012A32D0012580F83C50022280F859
:103820003D2002685368946823F070060B683343A8
:103830005360134B02689A4214D0B2F1804F11D0FA
:10384000104B9A420ED0104B9A420BD00F4B9A421B
:1038500008D00F4B9A4205D00E4B9A4202D00E4B25
:103860009A4204D1496824F080031943916080F89A
:103870003D50002180F83C10084670BD022070BD0C
:10388000000001400004004000080040000C00401F
:1038900000040140004001400018004010B5040041
:1038A00003D094F83D0010B107E0012010BD0020C6
:1038B00084F83C00204600F01FF8022084F83D0008
:1038C000211D206801F084F8012084F8460084F866
:1038D0003E0084F83F0084F8400084F8410084F8FA
:1038E000420084F8430084F8440084F8450084F8DA
:1038F0003D00002010BD000008B50068104A1149C5
:10390000904208D1086840F002000860086800F0A2
:103910000200009008BD0C4A9042FBD1086840F0BC
:10392000800008600868002200F0800000900521F7
:103930002C20FFF74BFCBDE808402C20FFF738BCDB
:103940000004004040380240001C004090F83D1048
:10395000012901D001207047022180F83D10016843
:10396000CA6842F00102CA6000681149884214D056
:10397000B0F1804F11D00F4988420ED00E498842D5
:103980000BD00E49884208D00D49884205D00D4918
:10399000884202D00C49884204D1816801F00701B5
:1039A000062903D0016841F0010101600020704741
:1039B000000001400004004000080040000C0040EE
:1039C00000040140004001400018004070B504466A
:1039D00090F83C000025012817D0012684F83C60AF
:1039E000022084F83D002068826822F0770222F4E9
:1039F0007F4282600868502838D00DDC20284FD0E4
:103A000005DC90B3102811D14AE0022070BD3028A7
:103A100046D040280AD13BE060282FD070280DD036
:103A2000B0F5805F03D0B0F5005F12D0012584F8B7
:103A30003D60002084F83C00284670BDCB68D1E989
:103A40000121206801F02CF82068816841F077019D
:103A500009E0CB68D1E90121206801F021F8206854
:103A6000816841F480418160E1E719E0CA684968F2
:103A7000206801F0E9F85021206806E0CA6849682A
:103A8000206801F0F2F86021206801F013F8CEE719
:103A9000CA684968206801F0D7F840212068F4E737
:103AA000226801461046F0E770472DE9F0410446D0
:103AB0000068C66805694FF00007A90713D5B1076C
:103AC00011D5F91E016101202077206880698007E7
:103AD000204602D0FFF7E8FF04E000F0BFF82046E0
:103AE00000F062F92777680716D5700714D52168AA
:103AF0006FF004000861022020772068806910F4CC
:103B0000407F204602D0FFF7CFFF04E000F0A6F888
:103B1000204600F049F92777280715D5300713D537
:103B200021686FF008000861042020772068C069D0
:103B30008007204602D0FFF7B7FF04E000F08EF8C0
:103B4000204600F031F92777E80616D5F00614D59F
:103B500021686FF010000861082020772068C06994
:103B600010F4407F204602D0FFF79EFF04E000F0F3
:103B700075F8204600F018F92777E80708D0F00715
:103B800006D021686FF001000861204600F00EF9B0
:103B9000280608D5300606D521686FF08000086138
:103BA0002046FFF731FE680608D5700606D5216865
:103BB0006FF040000861204600F002F9A8060AD51F
:103BC000B00608D521686FF0200008612046BDE8E6
:103BD000F041FFF71ABEBDE8F081000010B586B0D5
:103BE000044614216846FCF7D2FF206800221749DA
:103BF0000223B0F1804F17D0154CA04212D10868B3
:103C000040F0040008600868694600F00400059070
:103C10004FF470700090CDE901320E48CDE90323D6
:103C2000FFF748F906B010BD086840F002000860D0
:103C30000868694600F00200059004200090CDE974
:103C400001320120CDE903200348E9E73038024082
:103C5000000400400008024000040240704770B5B4
:103C6000044690F83C0000260D4601280FD00120A4
:103C700084F83C006AB1042A1DD0082A2FD00C2AEF
:103C80003FD00126002084F83C00304670BD022061
:103C900070BD206800F016FF2068816941F00801BE
:103CA00081612068816921F0040181612068816956
:103CB0002A69114311E0206800F034FF206881690F
:103CC00041F4006181612068816921F48061816132
:103CD000206881692A6941EA02218161D2E720686E
:103CE00000F056FF2068C16941F00801C1612068F9
:103CF000C16921F00401C1612068C1692A691143C9
:103D000011E0206800F078FF2068C16941F400618B
:103D1000C1612068C16921F48061C1612068C16905
:103D20002A6941EA0221C161ACE710B5040003D061
:103D300094F83D0010B107E0012010BD002084F888
:103D40003C00204600F01EF8022084F83D00211DB2
:103D5000206800F03DFE012084F8460084F83E0013
:103D600084F83F0084F8400084F8410084F8420061
:103D700084F8430084F8440084F8450084F83D004A
:103D8000002010BD08B50068B0F1804F08D105488B
:103D9000016841F001010160006800F0010000903D
:103DA00008BD000040380240704700000068034929
:103DB000884201D1FFF772B970470000002000402F
:103DC000704770477047704770477047F8B5016893
:103DD00004460868CA684B6910F00F0F4FF00005E1
:103DE00056D003F0010602F49077374361D0C10743
:103DF00005D0D10503D5616C41F001016164410733
:103E000005D5D90703D0616C41F0020161648107D7
:103E100005D5D90703D0616C41F004016164010745
:103E200007D502F02001314303D0616C41F0080155
:103E30006164616C00293BD0800604D5900602D5F0
:103E4000204600F0D3FF20684069616CC0F3801009
:103E5000090700D440B3204600F06DFF2068406998
:103E600040061ED52068143050E8001F21F04001A4
:103E700040E80012002AF5D1E06B90B1724901656B
:103E8000E06BFEF781FE002812D0E06B016DD7E0F9
:103E900083060ED593060CD52046BDE8F84000F009
:103EA000A5BF2046A16DCBE0A16D20468847656483
:103EB000F8BD266B2023012E7ED1C6067CD5D60602
:103EC0007AD508684868009048694FF002064006B5
:103ED00049D5E26B106840684FF480770004000C0D
:103EE0003AD0A18D814237D9E085D069B8422DD032
:103EF00020680C3050E8001F21F4807140E8001267
:103F0000002AF5D12068143050E8001F21F001018B
:103F100040E80012002AF5D12068143050E8001F54
:103F200021F0400140E80012002AF5D184F8423027
:103F3000256320680C3050E8001F21F0100140E894
:103F40000012002AF5D1E06BFEF7D5FD6663A08D67
:103F5000E18D401A81B233E0A18D8142A8D1D069B0
:103F6000B8422CD0F8BDA08DE18D401A81B2E08D11
:103F70000028F7D00029F5D020680C3050E8002F39
:103F800022F4907240E80027002FF5D12068143009
:103F900050E8002F22F0010240E80027002FF5D161
:103FA00084F84230256320680C3050E8002F22F05E
:103FB000100240E8002300E008E0002BF3D1666324
:103FC000E26E01B02046BDE8F040104705062BD553
:103FD000150629D594F841002128C3D1A068B0F571
:103FE000805F01D12069B0B1206A411C2162216843
:103FF00000784860E08C401E0004000CE084B1D1E1
:104000002068C16821F08001C1602068C16841F06A
:104010004001C160F8BD206A0088C0F30800486014
:10402000206A801C2062E5E74006F3D55006F1D5F2
:10403000CA68204622F04002CA6084F84130E16C30
:1040400001B0BDE8F04008479D4C000870B5040081
:1040500004D094F84100002510B10DE0012070BD9E
:1040600084F84050204600F09BFE206F08B91448A9
:104070002067014620468847242084F841002068B4
:10408000C16821F40051C160204600F011FF206892
:10409000016921F4904101612068416921F02A0100
:1040A00041612068C16841F40051C160656420200D
:1040B00084F8410084F842006563002070BD000070
:1040C000C5400008F0B587B0054614216846FCF7E6
:1040D0005EFD50494E482A6800244E4B1039022696
:1040E0000327824239D1186840F40020186018680C
:1040F00000F400200590086840F00400086008689B
:10410000029400F004000590B802CDE900060820F2
:10411000CDE9037069464048FEF7CCFE404E3F486B
:1041200030604FF0006070604020C6E9020400017A
:10413000C6E90404B461F461346230467462FEF787
:1041400005FE08B1FEF757F9AE63002205213420C1
:10415000B563FFF73BF8342038E0DFF8C8C0072527
:104160003148624536D12B4A121D136843F01003C3
:104170001360126802F0100205920A6842F0010210
:104180000A600A6802F0010205920A6842F002021F
:104190000A600968CDE9024701F002010591411565
:1041A000CDE9001604956946FEF784FE8020CDE92E
:1041B0000006CDE90247694604951C48FEF77AFEE1
:1041C000002205212520FFF701F82520FEF7F0FF4A
:1041D00007B0F0BDDFF858C06245F9D11A6842F463
:1041E00000321A601A6802F4003205920A6842F03E
:1041F00001020A600968CDE9024701F00101059159
:104200000C21CDE9001604956946FEF753FEDFE761
:10421000004C0040403802400008024070600240FC
:104220004C0D00200010014000000240000402403C
:104230000044004090F84230202B01D0022070470B
:1042400021B11AB10023036300F0B8BE012070470A
:1042500010B500233AB190F84140202C09D090F8D5
:1042600041400CB324E0416C41F020014164012045
:1042700010BD0D291CD2DFE801F007090B0D0F114D
:1042800013151B1B1B222400826416E0C26414E079
:10429000026512E0426510E082650EE0C2650CE046
:1042A00002660AE0426608E00B2908D00C2908D013
:1042B000416C41F0200141640123184610BD0267A2
:1042C000FBE74267F9E7000010B500680D49884236
:1042D0000BD10F4800230C4A0C49006803F0FCFB8B
:1042E00010220A490B48FFF7A5FF0748006800287D
:1042F00007D009494FF080500860BFF34F8FBFF3DC
:104300006F8F10BD0010014010000020F40D002040
:10431000680000205C0C002004ED00E07047000005
:1043200037B5044690F84100202801D002203EBD58
:10433000019901B3FAB12162A284E2840020606491
:10434000212384F84130A56B144BEB63A56B144B10
:104350002B64A56B134BEB64A36B186520681346A5
:10436000A56B021D2846FEF75BFD30B1102060648E
:10437000202084F8410001203EBD21686FF04000FC
:1043800008602068143050E8001F41F0800140E8C8
:104390000012002AF5D100203EBD0000F34C0008B9
:1043A000314D0008A74C000890F84130202B01D077
:1043B0000220704779B172B101628284C284002107
:1043C0004164212180F841100068C16841F08001FA
:1043D000C160002070470120704700000068054957
:1043E000884205D100224FF400410348FEF74ABE3F
:1043F00070470000001001400008024070470000B4
:104400000F4810B50D4901600221416000214FF4B1
:1044100060228160C0E903124FF48002426101769C
:1044200041768176C17601774177FEF7F8F9002869
:1044300003D0BDE81040FDF7DEBF10BD00640040B2
:10444000BC0A00200F4810B50D49016002214160EF
:1044500000214FF460228160C0E903124FF4800212
:104460004261017641768176C17601774177FEF728
:10447000D6F9002803D0BDE81040FDF7BCBF10BD41
:1044800000680040E40A0020094808B5016841F4CA
:10449000001101600068002200F400100090052166
:1044A0000F20FEF793FEBDE808400F20FEF780BE08
:1044B0003038024010B5074A0021074802F068FA78
:1044C000064C044A002120602432054802F060FABC
:1044D000606010BDEC810008C9470008040000209E
:1044E000152200082DE9F04186B014216846FCF73A
:1044F0004EFB29480024016841F004010160016875
:1045000001F004010591016841F08001016001683A
:1045100001F080010591016841F00101016001682D
:1045200001F001010591016841F00201016000689C
:10453000012200F00200194FD6030590314638469B
:10454000FEF7A0FD002201213846FEF79BFDDFF8B3
:104550005080002208214046FEF794FD701C009018
:104560000125CDE90154694638460394FEF7A2FCC3
:10457000CDE9006469460B480294FEF79BFC0820D5
:10458000CDE900050220CDE9024069464046FEF72C
:1045900091FC06B0BDE8F0813038024000080240CE
:1045A00000040240000002400C4810B50A490160B6
:1045B0005321416000214FF6FF72C0E902120161F0
:1045C00080218161FFF76AF9002803D0BDE810401F
:1045D000FDF711BF10BD0000001C00409C0B002027
:1045E00010B58AB0002407941C2168460894FCF793
:1045F000CEFA15484FF08041C0E90014611EC0E9B1
:10460000024104618461FFF790FB08B1FDF7F3FEFE
:10461000079407A90C480894FFF7F8F808B1FDF7CC
:10462000EAFE6020CDE9000402940C2269460648A7
:104630000494FFF714FB08B1FDF7DDFE0248FFF715
:10464000CDFA0AB010BD00000C0B002010B58EB0E2
:1046500000240794089409940A940B941C2168463A
:104660000C94FCF794FA2A482849C0E900144FF644
:10467000FF71C0E9024104618461FFF70FF908B1DD
:10468000FDF7B9FE4FF48050079007A92048FFF7C7
:104690009DF908B1FDF7AFFE1D48FFF746FB08B1D5
:1046A000FDF7A9FE0B940BA919480C94FFF7AEF87F
:1046B00008B1FDF7A0FE6020CDE9000402940022BD
:1046C000694613480494FFF7CAFA08B1FDF793FE50
:1046D000042269460E48FFF7C2FA08B1FDF78BFEC7
:1046E000082269460A48FFF7BAFA08B1FDF783FEC7
:1046F0000C2269460648FFF7B2FA08B1FDF77BFEC7
:104700000348FFF76BFA0EB010BD00000004004034
:10471000540B00200C4810B50A4901600B49416058
:10472000002181600C22C160C0E904128161C16175
:10473000FFF78CFC002803D0BDE81040FDF75BBEFE
:1047400010BD0000004C0040E40B002040420F0070
:104750000C4810B50A4901600B4941600021816095
:104760000C22C160C0E904128161C161FFF76EFCD7
:10477000002803D0BDE81040FDF73DBE10BD00008D
:10478000001001405C0C002000093D000C4810B5F1
:104790000A4901604FF4E1314160002181600C223F
:1047A000C160C0E904128161C161FFF74FFC0028BC
:1047B00003D0BDE81040FDF71EBE10BD0044004010
:1047C000D40C0020FEE7FEE788B04FF4FA60FEF755
:1047D0005FFB862408E016A0CDE900401A4B1BA21F
:1047E00020A1012001F02AFA00F0FAFE0028F2D1FF
:1047F000142220A102A8FCF76EF9112102A8FDF7EE
:1048000071FC48B920A19220CDE900010E4B0FA206
:1048100014A1032001F012FA244C4FF47A750121FF
:104820002046FEF727FC284602F076F8F7E700005E
:104830004572726F72205768696C652061707020D4
:10484000696E697421000000348200082E2E2F4307
:104850006F72652F5372632F6672656572746F7322
:104860002E63000044454641554C545F5441534B20
:1048700000000000FEEE10000053060000000000E3
:104880000040008C6C00000052533438355F3120FA
:1048900048657820646174612073656E7420737557
:1048A000636365737366756C6C7921000008024060
:1048B00010B54FF0E020006903F09EFA012803D004
:1048C000BDE8104002F0C8BF10BD000030B593B085
:1048D00034216846FCF75BF914210DA8FCF757F961
:1048E0001E480025016841F080510160006800F019
:1048F000805012901A48016841F4404101600068FC
:10490000022400F440401290012000900004019025
:104910008001CDE9064006200890A820CDE90904D1
:104920000720CDE90B046846FEF7A8FD08B172B672
:10493000FEE70DA90F2081E831004FF4A050109040
:104940004FF48050119005210DA8FEF771FC00284E
:1049500001D072B6FEE713B030BD0000403802400F
:10496000007000400548016841F47001016003498E
:104970004FF00060803908607047000088ED00E06B
:104980000148FFF792B80000AC0D00200E4830B48B
:1049900000680169C943C90714D1C168C943C9077F
:1049A00010D10A490B684A684FF480341B1942F150
:1049B00000020B604A606FF00101016130BC0248E7
:1049C000FFF7F4B930BC70479C0B0020400000207A
:1049D000F0B50268274D284E284FDFF8A4C0294BB8
:1049E0004FF0804EA84209D0704507D0B04205D0A4
:1049F000B84203D0604501D0984203D122F0700440
:104A00004A682243A8421BD0704519D0B04217D043
:104A1000B84215D0604513D0984211D01A4CA0422C
:104A20000ED01A4CA0420BD0194CA04208D0194C01
:104A3000A04205D0184CA04202D0184CA04203D18D
:104A400022F44074CA6822434C6922F08002224357
:104A50008C68C4620C688462A84201D0984201D17B
:104A600009690163016841F00401016001214161AC
:104A70000260F0BD0000014000040040000800405A
:104A8000000C00400004014000400140004401408F
:104A90000048014000180040001C00400020004079
:104AA00010B5846842EA032224F47F440A43224377
:104AB000826010BD826822F070020A4342F0070152
:104AC00081607047F0B5026A036A23F00103036254
:104AD00043688469114E24F073050C68104F2C4311
:104AE00022F002058A682A43B04201D0B84205D1BB
:104AF00022F00805CA682A4322F00402B04201D01D
:104B0000B84205D14D6923F440731D438B692B4393
:104B100043608461496841630262F0BD0000014066
:104B200000040140F0B5026A036A23F01003036237
:104B3000436884690D6824F4E64444EA05248D68DA
:104B400022F0200242EA05120F4D104EA84201D079
:104B5000B04206D1CF6822F0800242EA071222F06A
:104B60004002A84201D0B04207D14D6923F440630E
:104B700043EA85038D6943EA85034360846149689C
:104B800081630262F0BD00000000014000040140AA
:104B9000F0B5026A036A23F4807303624368C46950
:104BA00022F4007224F073050C68124E2C438D68B9
:104BB00042EA05220E4DA84201D0B04206D1CF688C
:104BC00022F4006242EA072222F48062A84201D065
:104BD000B04207D14D6923F4405343EA05138D6970
:104BE00043EA05134360C4614968C1630262F0BDD2
:104BF000000001400004014030B5036A026A22F45B
:104C0000805202624268C4690D6824F4E64444EAB2
:104C100005248D6823F4005343EA0533084DA84268
:104C200002D0084DA84204D14D6922F4804242EAE4
:104C300085124260C46149680164036230BD0000AE
:104C4000000001400004014010B5046A036A23F02B
:104C500001030362836923F0F00343EA021324F0A3
:104C60000A020A438361026210BD10B5036A046A36
:104C700024F010040462846923F0A00324F4704437
:104C800044EA023243EA01118261016210BD000070
:104C90000148FFF79BB80000E40B0020806B002167
:104CA000C185816D084770B5846B2068406994F8B0
:104CB0004110C0F3C0100025212904D118B1E584AA
:104CC000204600F05FF82068406994F84210C0F375
:104CD0008010222904D118B1E585204600F02BF878
:104CE000606C40F0100060642046A16DBDE870402B
:104CF00008470146806B09680968C90516D4002178
:104D0000C1840168143151E8002F22F0800241E88B
:104D10000023002BF5D101680C3151E8002F42F03F
:104D2000400241E80023002BF5D17047C16C0847D1
:104D3000806B816C084701680C3151E8002F22F428
:104D4000907241E80023002BF5D10168143151E83D
:104D5000002F22F0010241E80023002BF5D1016B66
:104D6000012909D101680C3151E8002F22F010020D
:104D700041E80023002BF5D1202180F842100021CA
:104D80000163704701680C3151E8002F22F0C00226
:104D900041E80023002BF5D1202180F84110704715
:104DA000094981640949C1640949016509494165A5
:104DB000094981650949C165094901660949416691
:104DC0000949C16670470000FD430008DD43000843
:104DD0001D430008C9420008CB3D0008C53D00083E
:104DE000C93D0008C73D0008C33D000808B590F85C
:104DF0004210222901D0022008BD81684FF480535F
:104E0000994201D1026922B1826A99421BD049B10B
:104E10000AE00268816A5268C2F308020A80816A65
:104E2000891C08E0016971B10168496801F07F01DE
:104E30001170816A491C8162C18D491E0904090CE7
:104E4000C18503D01BE001684968F1E70168CA68C1
:104E500022F02002CA600168CA6822F48072CA6027
:104E600001684A6922F001024A61202180F842105B
:104E700000214163026B012A03D0416D8847002065
:104E800008BD016301680C3151E8002F22F01002C7
:104E900041E80023002BF5D101680A68D20602D54B
:104EA0000A6849680091C26E818D9047E7E700006B
:104EB00070B5044600680169E26821F4405111436D
:104EC0000161A1682069E2690143606910430143FF
:104ED0002068C26849F20C639A430A43C2602068A2
:104EE0004169A26921F4407111434161314920684F
:104EF000884202D03049884202D1FEF763FA01E0CD
:104F0000FEF750FAE2690023192164253226B2F532
:104F1000004F626828D0A0FB0101930F9200FBF7BD
:104F20007EFA0146B0FBF5F06FF01802504301EB3A
:104F3000800006EB0010B0FBF5F000F0F002B1FBD2
:104F4000F5F002EB0012B1FBF5F06FF018035843D7
:104F500001EB800006EB0010B0FBF5F000F00F0055
:104F600021681044886070BDA0FB010192185B416C
:104F7000FBF755FA0146B0FBF5F00201B1FBF5F085
:104F80006FF01803584301EB800006EBC000B0FB44
:104F9000F5F000F0F80002EB4002B1FBF5F05843E9
:104FA00001EB800006EBC000B0FBF5F000F007005D
:104FB000D6E70000001001400014014081628285A4
:104FC000C28500214164222180F84210016921B18B
:104FD0000168CA6842F48072CA6001684A6942F096
:104FE00001024A610068C16841F02001C1600020EF
:104FF000704700000148FEF7E9BE00005C0C00208D
:105000000A4910B540F6E802A1F19C0001F0A4FBAA
:10501000064980228039A1F1380001F09DFBBDE8EE
:105020001040034A01210348FFF712B9A4010020F0
:105030005D550008E40B00200A4610B50146034800
:1050400001F0D0FBBDE8104000F002B808010020DC
:105050002DE9F84F0024EFF31080009072B6FE4D5A
:10506000286800287ED1FD4801F054FB29460860DD
:10507000002877D0FA480068016821F0010101603A
:10508000F748F94AF74BF84CF64DF74EF54F0068E4
:10509000DFF8D083DFF8D093DFF8C8A3DFF8C8E3E8
:1050A000A83A483B483C1835903E303F4FF40061E9
:1050B0004FF4001C4FF0006BA9F130090AF1300ADF
:1050C000404529D9904205D0984203D0A04201D052
:1050D000A84201D120211AE0B04218D0B84216D01F
:1050E000484514D0504512D0DF49783988420BD05A
:1050F000DC491839884207D0DB491839884203D087
:10510000D8494831884201D1614600E05946DFF86C
:1051100054C3ACF14C0C2BE070452CD9904205D017
:10512000984203D0A04201D0A84201D120211BE027
:10513000B04219D0B84217D0484515D0504513D0C9
:10514000C949783988420BD0C6491839884207D0F6
:10515000C5491839884203D0C2494831884202D132
:10516000614601E0EAE15946DFF8F8C2ACF1500CC3
:10517000CCF800105CE0DFF8F082A8F16008404550
:105180002BD9904205D0984203D0A04201D0A8422A
:1051900001D120211AE0B04218D0B84216D04845BB
:1051A00014D0504512D0B049783988420BD0AD495F
:1051B0001839884207D0AC491839884203D0A94928
:1051C0004831884201D1614600E05946DFF898C273
:1051D000ACF1B80CCCF80C102AE0904205D0984203
:1051E00003D0A04201D0A84201D120211AE0B04250
:1051F00018D0B84216D0484514D0504512D09A491C
:10520000783988420BD097491839884207D0964997
:105210001839884203D093494831884201D1614608
:1052200000E05946DFF840C2ACF1B80CCCF80810E9
:10523000DFF830824FF480614FF4801C4FF0806BB8
:10524000404529D9904205D0984203D0A04201D0D0
:10525000A84201D110211AE0B04218D0B84216D0AD
:10526000484514D0504512D07F49783988420BD038
:105270007C491839884207D07B491839884203D0C5
:1052800078494831884201D1614600E05946DFF84B
:10529000D4C1ACF14C0C2AE070452BD9904205D01A
:1052A000984203D0A04201D0A84201D110211AE0B7
:1052B000B04218D0B84216D0484514D0504512D04C
:1052C0006949783988420BD066491839884207D035
:1052D00065491839884203D062494831884201D172
:1052E000614600E05946DFF87CC1ACF1500CCCF8C7
:1052F00000105CE0DFF87081A8F1600840452BD910
:10530000904205D0984203D0A04201D0A84201D1DA
:1053100010211AE0B04218D0B84216D0484514D037
:10532000504512D05049783988420BD04D49183930
:10533000884207D04C491839884203D0494948313E
:10534000884201D1614600E05946DFF81CC1ACF14A
:10535000B80CCCF80C102AE0904205D0984203D04B
:10536000A04201D0A84201D110211AE0B04218D0C9
:10537000B84216D0484514D0504512D03A49783931
:1053800088420BD037491839884207D03649183936
:10539000884203D033494831884201D1614600E058
:1053A0005946DFF8C4C0ACF1B80CCCF80810DFF8EF
:1053B000B4804FF400714FF4002C4FF0007B404557
:1053C00027D9904205D0984203D0A04201D0A842EC
:1053D00001D108211AE0B04218D0B84216D0484591
:1053E00014D0504512D02049783988420BD01D493D
:1053F0001839884207D01C491839884203D0194906
:105400004831884201D1614600E0594615484C3880
:1054100032E0704532D9904205D0984203D0A04284
:1054200001D0A84201D1082125E0B04223D0B842E2
:1054300021D048451FD050451DD00B4978398842AE
:1054400016D008491839884212D0074918398842BD
:105450000ED00449483109E0000000200801002076
:105460004C0D002058640240B8600240884201D1CF
:10547000614600E059463448016054E0DFF8CC80D2
:10548000404528D9904205D0984203D0A04201D08F
:10549000A84201D108211AE0B04218D0B84216D073
:1054A000484514D0504512D02849183988420BD0AD
:1054B00025493831884207D024494831884203D0F1
:1054C00021499831884201D1614600E059461F4880
:1054D0005838C16027E0904205D0984203D0A042DE
:1054E00001D0A84201D108211AE0B04218D0B84238
:1054F00016D0484514D0504512D014491839884266
:105500000BD011493831884207D0104948318842C0
:1055100003D00D499831884201D1614600E05946D7
:105520000A48583881600A4801F0E0F80146094805
:10553000006882B20848FEF7F3FE0124009880F369
:1055400010882046BDE8F88F086402405860024089
:105550000801002000000020E40B002010B5054CDD
:105560002168054801F00EF900202060BDE81040D8
:10557000FFF76EBD0000002008010020FEE703B425
:1055800001984100009850EAC12018BF04204A0D3C
:1055900018BF40F0010040F2FF72B2EB515F08BF4C
:1055A00040F00200012808BF052002B0704709073B
:1055B000090E002804DB00F1E02080F80014704799
:1055C00000F00F0000F1E02080F8141D7047303823
:1055D0000A2801D201207047002070477047000060
:1055E0001CB5FFF70DFDFCF7B3FDFCF78FFD01F0D7
:1055F00060F901F027F8044608A20AA10BA000F008
:10560000D1F94CB90CA21C21CDE90012104B11A20A
:1056100015A1032000F012FB20461CBD56302E3190
:105620002E30000056312E302E300000436D426186
:10563000636B74726163650061707020696E697478
:105640002073756365737366756C6C792100000057
:10565000248400082E2E5C6170705C6170705F693C
:105660006E69742E630000004150505F494E4954EA
:10567000000000002DE9F0472E4C8946A446D4E9ED
:10568000023794F801809CF802600146DCE9044C82
:1056900000200546A444B8F1000F11D08EB9264E63
:1056A000B069086076690120761EA64211D3B44520
:1056B0000FD3B9F1010F0CD9022001254E6008E08B
:1056C0003EB19A4201D21A4603E0DE19964200D258
:1056D000324603EB070A924529D91368DE0724D026
:1056E000261D5B1EB34220D39C451ED310281CD21E
:1056F00033F8026C33F8047C4FF01F08B8EBD62F58
:1057000004D14FF01E08B8EBD72F03D04727B7EBD3
:10571000162F0AD1484508D2022803D115B14E6888
:105720009E4202D041F82030401C121DD3E7BDE854
:10573000F087000048000020701100202DE9F04F94
:105740008DB00C46074620225D4905A8FBF7C3F93A
:105750005C4ED6E902508146307858B1707898B1E5
:10576000574A59A1143A5BA001F0C2F861A001F0B8
:10577000BFF8FEE7524A60A1143A56A001F0B8F80B
:105780005CA001F0B5F8FEE74FF0010A86F801A031
:105790005BA001F0ADF857A001F0AAF800F0ECF81A
:1057A000DFF81CB1ABF1C00BDBF82C0001F0A0F866
:1057B00050A001F09DF847F30010401C04F12008B0
:1057C000F07001D008F14808A84503D305EB0900A3
:1057D000404501D286F802A042464946284600F0DC
:1057E0001FF9B078474D00283ED1DBF8300001F0BA
:1057F0007FF840A001F07CF826682E606068686041
:10580000A168A960E268EA6023692B6163696B6142
:10581000A369AB61E369EB61DDE90734CDE900031E
:10582000CDE902140492DDE90513324636A001F0F9
:105830005FF830A001F05CF801AE0B98EB690C9AB0
:10584000A96986E80F00686900900A9B2A692EA062
:10585000099901F04DF827A001F04AF835A001F0B0
:1058600047F824A001F044F84248006845F8200FAA
:105870004048001D007828713E4810300068A8603C
:105880003C48401D007828733A481430006828616D
:105890003848801D0088A882364808300068A86112
:1058A00034480C300088E86132481830008828629B
:1058B00000F036FD404601F0AFF80DB0BDE8F08FC6
:1058C0000484000848000020216F6E5F6661756CDB
:1058D00074000000282573292068617320617373A8
:1058E000657274206661696C65642061742025733B
:1058F0002E0000000D0A0000696E69745F6F6B0076
:105900000000000070110020202025733A2025306F
:105910003878202025733A202530387820202573C8
:105920003A2025303878202025733A2025303878E1
:10593000000000003D3D3D3D3D3D3D3D3D3D3D3D8B
:105940003D3D3D3D3D3D3D3D3D3D3D3D3D3D3D3D87
:105950003D3D3D3D3D3D3D3D3D3D3D3D3D3D3D3D77
:105960003D3D3D3D3D3D3D3D3D3D3D3D3D3D3D3D67
:105970003D3D000024ED00E00748084B10B5A3F1C1
:1059800020024068A2F1200100F0B2FFBDE8104003
:1059900003A000F0ADBF000044830008C010002049
:1059A0000D0A000070B50C46154601462022144829
:1059B000FBF714F91248202221462030FBF70EF99C
:1059C0000F48202229464030FBF708F90E4A0D48BF
:1059D0000E499060081A0E490E4BC2E90301A3EB71
:1059E0000101516102D00120107070BD0A480068A9
:1059F00000F07EFFBDE8704008A000F079BF000015
:105A000080100020E85E002048000020E8660020AA
:105A100000000008CC8F0008448300080D0A000035
:105A20002DE9F041064619481446194F8278751839
:105A30008AB1007908B1B86900E0F869214600F040
:105A400057FF14A000F054FFB44201D2344602E0E4
:105A5000A54200D22C46386900F04AFF0DA000F0A4
:105A600047FF08E021460CA0226800F041FF09A092
:105A700000F03EFF241DA542F4D80EA000F038FF30
:105A8000BDE8F04103A000F033BF00004800002053
:105A9000448300080D0A00002020616464723A20EB
:105AA0002530387820202020646174613A20253028
:105AB000387800003D3D3D3D3D3D3D3D3D3D3D3D5A
:105AC0003D3D3D3D3D3D3D3D3D3D3D3D3D3D3D3D06
:105AD0003D3D3D3D3D3D3D3D00000000F0B585B004
